:020000041100E9
:10A0000003B40148019001BDADAE000003B40148A6
:10A01000019001BD456B010003B40148019001BDF1
:10A020000189000003B40148019001BDC53F000053
:10A0300003B40148019001BDE94C010003B401489B
:10A04000019001BDC95C010003B40148019001BD4C
:10A05000CD4C010003B40148019001BD61890000AD
:10A0600003B40148019001BD154D010003B401483E
:10A07000019001BDF54E010003B40148019001BDFE
:10A08000434D010003B40148019001BD25260000A5
:10A0900003B40148019001BD8B52010003B4014893
:10A0A000019001BDB352010003B40148019001BD0C
:10A0B0000D52010003B40148019001BDC94A0100DD
:10A0C00003B40148019001BD691F000003B40148B9
:10A0D000019001BD5D17000003B40148019001BD6E
:10A0E0003D4B010003B40148019001BD59520100EC
:10A0F00003B40148019001BD5125000003B401489B
:10A10000019001BD014C010003B40148019001BD63
:10A11000594F010003B40148019001BD1D4B0100DE
:10A1200003B40148019001BD8D12000003B4014841
:10A13000019001BD4D1F000003B40148019001BD15
:10A140005522000003B40148019001BDDD52010019
:10A1500003B40148019001BD1D4D010003B4014845
:10A16000019001BD090E000003B40148019001BD3A
:10A17000810E000003B40148019001BD017F000081
:10A1800003B40148019001BDE117000003B4014888
:10A19000019001BD7918000003B40148019001BD90
:10A1A000D949010003B40148019001BD19280000FC
:10A1B00003B40148019001BDED26FF1F03B401481F
:10A1C000019001BDB117000003B40148019001BD29
:10A1D000E928000003B40148019001BD5549010080
:10A1E00003B40148019001BD4551010003B4014889
:10A1F000019001BDC926000003B40148019001BDD2
:10A20000F94C010003B40148019001BDC5210000D3
:10A2100003B40148019001BD291C000003B40148AA
:10A22000019001BDB521FF1F03B40148019001BD9C
:10A23000851F000003B40148019001BD11470100D2
:10A2400003B40148019001BDB30E000003B40148FE
:10A25000019001BD0133FF1F03B40148019001BD0E
:10A260003321FF1F03B40148019001BD0D21FF1FE1
:10A2700003B40148019001BDA946010003B401489F
:10A28000019001BDE548000003B40148019001BD03
:10A290002951010003B40148019001BDD91B000000
:10A2A00003B40148019001BDB921FF1F03B4014867
:10A2B000019001BDE121FF1F03B40148019001BDE0
:10A2C00051470100F8B5C849C64A002005464A6012
:10A2D0008300401CD550FF28FADD4868C34A014678
:10A2E00080318A606E22C262C14A1278002A01D08F
:10A2F0007F22C2620A22BF4B02651A788263BE4A7D
:10A30000C2611A781024022A06D01A78032A08D0CB
:10A310001A78042A05D005E0B84AC2610422026214
:10A3200000E00462B64A426119229201826137223A
:10A33000CA6036272D26C7630822466402644F6030
:10A3400032270F603B27CF634527CF640D4639275F
:10A350004035C4C532270F6502270F6642270835EE
:10A36000C4C51E274F66CE668A6605264E674226FE
:10A370000E675A260E614A613C228A61AF22D200E2
:10A380000260A04A02631A78022A06D01A78032AC9
:10A3900005D01A78042A04D005E0152202E00E2226
:10A3A00000E00C224260FF222D328260C260FF2258
:10A3B000F5320261944A82647D22D200934ECA67CC
:10A3C000C6644262924A82627322C2650622426574
:10A3D0008265C21D0826F9320227166047664B27A0
:10A3E000FF0087660927C7668A4F0767466700250B
:10A3F0008567BD10884F854EC5673E601E78022E6A
:10A4000006D01E78032E07D01B78042B08D00AE054
:10A410001A23CB61212301E01323CC610B6202E0FC
:10A420000E230C62CB61784B8B627D23DB008B6744
:10A4300064234B620523CB6202230B63C8234B6367
:10A4400000238B6338215160744911647449916110
:10A450004B21C900D161734911627D21090151620B
:10A46000D3661E21136791666A4991651566556426
:10A470005567D1656149FF30963191676A49D16767
:10A480006A4A8130026082604160FF21F531C1601B
:10A49000016168486649534A81606749803A1161A1
:10A4A0006449664A80318A62654ACA62654A826145
:10A4B000654AC262654A02636548C8615D4965488C
:10A4C000403188616549644888605A4864498038E9
:10A4D000416064494163FFF793FD0120FFF796FD5A
:10A4E000F8BDF3B50746604881B0C1695F4A1140C5
:10A4F000FF310931C161002613E000252C461120EF
:10A50000FFF78AFD5848406A8007800F6100884045
:10A510002843641CE4B20546102CF0D301C7761C16
:10A52000F6B202988642E8D3FEBD10B52E4C607894
:10A5300000280AD104214E48FFF7D3FF4C480421DC
:10A540001030FFF7CEFF0120607010BDF0B5002481
:10A550008BB00D460646102902D901200BB0F0BD84
:10A56000FFF7E3FF424900200A5C401C1419C0B207
:10A570001028F9D3002C03D0102D03D90B20EDE7C0
:10A580000E20EBE73B483A4C0023006802A9103448
:10A59000E25CC75C7A40CA545B1CDBB2102BF7D379
:10A5A00006AA3348FFF73EFD102D00D910252A4694
:10A5B00006A93046FFF73CFDFFF740FD2168401833
:10A5C0002060FFF73BFD616840186060FFF736FDD3
:10A5D000A1684018A060FFF731FDE1684018E06015
:10A5E0000020BBE70004FF1FA855FF1F00FFFF1F4F
:10A5F0004453FF1F4A0AFF1F220B000046050000BC
:10A6000080C3C9019A02000050C30000F811000085
:10A610006A180000204E0000F009FF1F00400011E2
:10A6200068100000C409000040420F00102700001D
:10A63000C939FF1F0001FF1FA125FF1F8548FF1F0C
:10A64000654BFF1F0922FF1F9D23FF1F2522FF1FB0
:10A650008D50FF1F8D21FF1F5D29FF1F0002FF1F6F
:10A660002937FF1F1D38FF1F40F0004000FEFEFF8E
:10A67000E88BFF1FC855FF1F0A7802708A78427066
:10A680004A88120A82700979C170042070470A78DA
:10A6900002700988090A41700220704710B5002233
:10A6A0000EE093005B189C7804705C88521C240AAE
:10A6B00044701C7984709B88D2B21B0AC370001D41
:10A6C0000B789342EDD81806800D10BDF8B50D46F5
:10A6D00006464978012031700024761C16E069781E
:10A6E000012917D01221614349198A7832704A88AA
:10A6F000871C120A7270B61C10223046091DFFF723
:10A7000097FC1037B8B21036641CE4B22978A14225
:10A71000E5D8F8BDA10049198A7832704A88871CAB
:10A72000120A7270B61C02223046091DFFF780FC27
:10A73000BF1CB8B2B61CE7E710B50C46097801702B
:10A740002188090A41706288211D801CFFF770FC76
:10A750006088801C80B210BD10B50C46097801706D
:10A760002188090A4170A17881706188090AC17045
:10A77000A288A11D001DFFF75BFCA088001D80B210
:10A7800010BD10B50C460A88891CFFF751FC2088C3
:10A7900010BD10B50B788A7802705343DCB22246A4
:10A7A000401C091DFFF744FC601C10BD10B50B7860
:10A7B0008A7802705343DCB22246401C091DFFF721
:10A7C00037FC601C10BD10B50C460A88891CFFF7C9
:10A7D0002FFC208810BD10B50C460A88891CFFF795
:10A7E00027FC208810BD7FB515460446022901D0FC
:10A7F000102903D1022B04D0102B02D0002004B06A
:10A8000070BD994202D10A46294607E010296946DF
:10A8100007D000F00DF8102269462846FFF714FC17
:10A82000EDE7104600F004F8102269462046F5E7EF
:10A8300070B50C4605000CD0002C0AD01022064939
:10A840002046FFF7F5FB28782073687860730120B5
:10A8500070BD002070BD0000CE09011110B50B467F
:10A860000122024901F04AFD10BD000079A6001145
:10A8700070B5064608880C46172812D30B460322EB
:10A880000949304601F03AFD050008D10749208802
:10A890000988884200D20146304600F0B7F92846C0
:10A8A00070BD022070BD00008FA60011D655FF1F9D
:10A8B00010B500231922194601F020FD10BD00003B
:10A8C00010B50A78002A05D00B460722024901F08C
:10A8D00015FD10BD022010BD9DA6001110B54A78CF
:10A8E000012A01D0022A08D10A78002A05D00B4695
:10A8F0000522034901F002FD10BD022010BD000039
:10A90000CDA6001101494000085A7047D455FF1FD9
:10A9100010B50B461B22024901F0F0FC10BD0000EF
:10A9200039A700110149172008807047D455FF1F2F
:10A930000098022B01D0042070471178527812023F
:10A9400089180180002070470098012B01D0042055
:10A950007047117801700020704770B5049C1E4646
:10A960001546062B1BD369782878090240182080E9
:10A97000E978A87809024018608002222271291D16
:10A98000601DFFF755FBB61FB2B22281F02A06D830
:10A990002046A91D0A30FFF74BFB002070BD0420A4
:10A9A00070BD0098042B01D00420704753781178B3
:10A9B0001B02C91801809178D2781202891841804F
:10A9C00000207047F8B584890D460646002C26D035
:10A9D000B2681778380620D50C2C20D90C3CA4B2CC
:10A9E0001019009001217088234601F0F1FB002826
:10A9F00011D0022028707806C00F6870B806800E4B
:10AA0000A870641E2004000CA88001D0B068401C0F
:10AA1000A8600020F8BD0120ECE70020EAE7012053
:10AA2000F8BD10B502981146042B14D34C780A785F
:10AA3000240212190280CC788A78240212194280EA
:10AA40001B1F9AB28280F22A05D8801D091DFFF7CC
:10AA5000EFFA002010BD042010BD0098042B01D097
:10AA600004207047537811781B02C918018091782F
:10AA7000D2781202891841800020704710B50298E0
:10AA80001146062B03D0142B03D0042010BD022244
:10AA900000E0102202714B780A781B02D218028063
:10AAA000CB788A781B02D21842800279401D091D9A
:10AAB000FFF7BEFA002010BD30B5039CD80718D1AF
:10AAC000D805010E022914D30B488088814210D882
:10AAD000F6200155002008E0557813782D025B1907
:10AAE0004500401C6353C0B2921C8842F4D300203E
:10AAF00030BD042030BD0000CE55FF1F0098022B52
:10AB000001D0042070471178527812028918018010
:10AB10000020704770B5144602460498022B18D3E3
:10AB2000667825783602AD1905800546E0352A7627
:10AB30006976002A0BD0E8219B1E9AB242808A4295
:10AB400007D8A11C001DFFF773FA002070BDF42187
:10AB5000F2E7042070BD000010B50B461722024931
:10AB600001F0CCFB10BD000059A7001110B50B4639
:10AB70000D22024901F0C2FB10BD000083A70011A5
:10AB800010B50A78002A05D00B461122024901F0BF
:10AB9000B5FB10BD022010BD93A7001110B50A78B7
:10ABA000002A05D00B460922024901F0A7FB10BD7F
:10ABB000022010BDADA7001110B50B460F220249AF
:10ABC00001F09CFB10BD0000C7A7001110B50B469B
:10ABD0000B22024901F092FB10BD0000D7A7001123
:10ABE000F72800D9F720084A01461080401EC317F5
:10ABF0009B0F18188003000C5080491EC80F401886
:10AC0000C003000C90807047CE55FF1F044A128885
:10AC1000914203D8024A4000921D11527047000031
:10AC2000CE55FF1F10B500231322194601F066FB15
:10AC300010BD000070B50C460146032000020A1A40
:10AC4000002534481300FFF705FA1D1012151C1FCC
:10AC50002326282C303234383A3C3E404244464881
:10AC60004A4E50525A5456585A00C07911E0102298
:10AC7000294902E02849102210312046FFF7D8F96F
:10AC800045E0C06A206042E0224906223C31F4E7F8
:10AC9000007820703BE0808936E01E4942784231DE
:10ACA000EBE71D4982781F39E7E7007AF1E7407A40
:10ACB000EFE7184906223031DFE7807AE9E7C07A0A
:10ACC000E7E7C08920E0808A1EE0C0781CE0C08AE7
:10ACD0001AE0008B18E0408B16E0808B14E00D49E1
:10ACE00006223631C9E7C08B0EE0008C0CE0408CA8
:10ACF0000AE08079CDE7008A06E0408A04E027294F
:10AD000004D2084600F052FA208000E002252846CE
:10AD100070BD00003054FF1FE186FF1F70B50E4C60
:10AD200000256071A571691EE18100F06FFB0420B0
:10AD3000E071102200210948FFF792F9074810221C
:10AD400000211030FFF78CF9E5622572657207204B
:10AD5000A072E57270BD00003054FF1FE186FF1F36
:10AD6000FEB53B4D0C4608040CD56879FFF77EF91B
:10AD7000050004D002F056F82846FFF77DF90120BF
:10AD8000C00360E0600403D5012080034840FEBD9D
:10AD90002F48E1070126807900292AD02978002947
:10ADA00020D0052821D0297A68460170697A41703F
:10ADB000274906223031801CFFF73AF9A97A684604
:10ADC0000172E97A41726946687900F00BFA00284D
:10ADD00008D00720A871696A002903D009680029F2
:10ADE00000D0884720467040FEBD032069460870A9
:10ADF000E4E7A1070DD5052809D1E889FFF742F955
:10AE0000AA8A002A03D002216879FFF741F90220BB
:10AE100019E0600704D5002002F044F8042012E095
:10AE2000200712D52879012802D002280AD107E08C
:10AE30000096AB8B6A8B298BE88A00F00BF801E057
:10AE400000F05AF908206040FEBD0020FEBD000061
:10AE50003054FF1FF8B5134C069EA579052D01D07F
:10AE60001420F8BD104F851FBD4219D2062917D3F3
:10AE7000BD1DA94214D2FF27F537BA4210D20A2BC2
:10AE80000ED3AB420CD2E08221836283A38330468F
:10AE900002F008F804216079FFF700F90020F8BDFE
:10AEA0001820F8BD3054FF1F7A0C0000F7B50D468E
:10AEB00080490098164642187F4F00247879B97966
:10AEC0001300FFF7C7F8190E141BE920404559700D
:10AED000777E888FE996A2A9B4BFC8E9E9E9E9D3EA
:10AEE000E900102D76D11022314674486FE0102D04
:10AEF00070D1724810223146103068E0042D69D1BB
:10AF00003068F862CEE0012D64D13B7832783A7037
:10AF1000002B0AD0002A07D1022903D0062901D02C
:10AF2000042901D100F018F9BCE0002A0AD0012957
:10AF300005D0032903D0052901D0042902D101211C
:10AF4000FFF7B2F8AEE0022D44D13088B881A9E015
:10AF50001F2D3FD858481F2200214230FFF780F8AC
:10AF600055482A4631464230FFF762F8524B7D7011
:10AF700042332A46012112E01F2D7CD84F481F2260
:10AF800000211F38FFF76CF84C482A4631461F381D
:10AF9000FFF74EF8494B2A461F3BBD7000217879D8
:10AFA00000F0AAFA83E0012D65D13078042862D838
:10AFB000387277E0012D5ED1307803285BD8787243
:10AFC00070E0062D57D13C48062231463030FFF75D
:10AFD0002FF867E04FE0012D4DD1307807284AD88F
:10AFE000B8725FE0012D46D13078032843D8F8725B
:10AFF00058E0022D3FD13288BA82002A52D005296A
:10B0000050D10221FFF744F84CE0012D33D13078C4
:10B01000012830D8F87045E03088022D2BD1062861
:10B0200029D31921C901884225D8F8823AE030880D
:10B03000022D20D106281ED31921C90188421AD811
:10B0400038832FE03088022D15D1FF21F531884259
:10B0500011D2788326E03088022D0CD10A280AD339
:10B060001921C901884206D8B8831BE03178012D27
:10B0700001D1012901D0182414E00821FFF71AF8A2
:10B08000002801D016240DE0002001F00BFF042160
:10B090007879FFF703F805E00098272801D2022D00
:10B0A00002D002242046FEBD318800F0D5F90446C6
:10B0B000F8E70000FFFCFFFF3054FF1FE186FF1F91
:10B0C0001CB50B4CA179002901D011201CBD002812
:10B0D00000D06062064907482C3103460191009078
:10B0E000103B0022E179607900F016F800201CBDC9
:10B0F0003054FF1FF186FF1F10B5064881790529DE
:10B1000001D0122010BDC1891322407900F0B4F99A
:10B1100010BD00003054FF1FF8B51D460224069FE5
:10B12000079E0B00FEF796FF0D150815150815155F
:10B13000151515151508150000F0B8F8040008D10C
:10B1400032463946284600F067F900F0CBF801F0A6
:10B150002FF82046F8BD000070B5104C216800297A
:10B1600004D00978814203D0032070BD122070BD45
:10B170000B4D02212878FEF791FF0A4800264680F1
:10B1800004212878FEF78AFF0748068021680320FB
:10B1900048700020FEF794FF70BD0000A056FF1F0E
:10B1A0006156FF1F4456FF1FDE55FF1F272803D29D
:10B1B00002494000085A704701487047E655FF1F92
:10B1C000FFFF000010B5064C607003F0B1FF60781F
:10B1D000FEF77CFF0521607800F0C6FE10BD000080
:10B1E0006056FF1F70B5284E054630680C46002893
:10B1F00001D0112070BD254801780520014216D0EC
:10B2000023488068002805D00078002802D0C807AD
:10B2100006D101E0102070BD00F044F8002808D0ED
:10B220002078032805D0022803D0002801D012205E
:10B2300070BD0C20FEF750FF3060002820D0057054
:10B24000002141700A222146801CFEF7F1FE01F028
:10B250000DFF040002D001F013F912E00D48007850
:10B2600003280ED11D20FFF7A1FF0B4900280880FD
:10B2700007D00B48094A04210078FEF733FF00E0AD
:10B280001324204670BD0000A056FF1FDB55FF1F92
:10B290004456FF1FDC55FF1FDE55FF1F60EA00000C
:10B2A0006156FF1F10B503F061FF10BD70B50C466D
:10B2B00005461C2200210948FEF7D2FE0848057009
:10B2C0004470FEF715FF0549002803D000200870E0
:10B2D000122070BD01220A7070BD0000188CFF1F83
:10B2E000DA55FF1F70B50F4C0025A068002802D06A
:10B2F000FEF704FFA560E068002802D0FEF7FEFE1E
:10B30000E560094805210078084206D0054810305C
:10B3100001F088FC01F056F870BD002001F082FCBD
:10B32000002070BD4456FF1FDB55FF1FFEB5344D96
:10B330000C46080419D56878FEF798FE0121C90368
:10B340004C40064600280ED001F08CFB002807D1A7
:10B350002878FF2804D03146FEF7D6FE002802D018
:10B360003046FEF789FE2046FEBDE0070127002893
:10B370000AD0A868002804D04168002901D0002024
:10B38000884720467840FEBDA00709D56868002898
:10B3900004D04168002901D00120884702202AE01A
:10B3A00060072AD5174E308800281FD0401E0004A1
:10B3B000000C30801ED101F0D5F8002809D01248C9
:10B3C00007706868002804D04168002901D0012076
:10B3D000884701F0A1F8694600F044FE684601F094
:10B3E0002BFB1D20FFF7E2FE308003E0042168788C
:10B3F000FEF754FE04206040FEBD0020FEBD0000AC
:10B400006056FF1FDE55FF1FDD55FF1F0149087005
:10B41000704700006056FF1F70B50E4C0B46261D8E
:10B4200007C60546102200211846FEF773FE0128C4
:10B4300003D11021A06804F063F8102200212846EF
:10B44000FEF768FE012803D11021606804F058F867
:10B4500070BD0000188CFF1F272807D2044A9142B4
:10B4600004D0044A40001152002070470220704767
:10B47000FFFF0000E655FF1FF8B50D4617461D49B2
:10B4800006461B4A1224C868954208D100282DD0D0
:10B490000268002A2AD029463046904723E0144A01
:10B4A000521C954213D1002807D00268002A04D00C
:10B4B000294630469047040005D03946304600F012
:10B4C0005BFF040012D10B48067047700EE028465F
:10B4D00003F0FEFD002809D00078B04205D13946BE
:10B4E0002846FEF71DFE044600E003242046F8BD72
:10B4F000FEFF00003456FF1FF8B50E4601461948FE
:10B500001546007805221F46104028D0304326D02B
:10B510001548012E1BD0C468002C20D01F2D18D830
:10B52000002D01D0002F14D001701F220021601CBB
:10B53000FEF796FD2A463946601CFEF779FD28463F
:10B540002570002E07D0611CFEF7F0FDF8BD846861
:10B55000E2E70220F8BD611CFEF7EEFDF8BD122007
:10B56000F8BD0000DB55FF1F4456FF1F014610B514
:10B570000020C90704D0034A0421034800F0A6F9BB
:10B5800010BD0000240901116853FF1F70B50F4D55
:10B590000F4CA87029461831204600F01DF80021F4
:10B5A00028460B461030CA0084521218491C09065E
:10B5B0005360090EF7D0012002F03EFCA87800F09D
:10B5C00023FB044803F0E4FD70BD00004853FF1F57
:10B5D000FFFF000065D6001170B50A4C0025A0429F
:10B5E00009D1002082008C525218401CC0B29570C4
:10B5F0000228F7D370BD02F004F80028FAD00480C6
:10B60000857070BDFFFF0000F8B50E46074606992D
:10B6100000240798002902D00B242046F8BD022BF5
:10B6200001D00D24F9E711785278120289188DB2F1
:10B630002946814301D08024EFE73846F16800F0C5
:10B640003DF9A842E9D02A463846F16800F0A8F949
:10B650000400E2D171892A46384600F065F9DCE73A
:10B6600070B50C46080412D50A488078FEF7FEFC37
:10B67000050008D02878B02802D1284602F0DEF86C
:10B680002846FEF7F9FC0120C003604070BD002091
:10B6900070BD00004853FF1FFFB587B0087A002532
:10B6A000109E1C460F46C0060DD5099801F0A2FF5A
:10B6B000030006D00A22394607989847050035D17D
:10B6C00001E00E2532E0387802281DD17868292261
:10B6D0000178407812020002081880B2811A904264
:10B6E0007ED009DC7249401A23D0012821D00228DB
:10B6F00051D0032808D125E0012972D0022971D048
:10B7000003296DD004296ED0099801F09BFF002811
:10B71000D7D00568002DD4D01299119801910090CE
:10B720003346224639460798A847054628460BB0B7
:10B73000F0BD1198002873D1F86801783180027843
:10B74000416897E0119800286AD101203080F8689C
:10B750000021007820707889401C80B200F04EF9FA
:10B7600000280FD0318802788918891C3180817AAD
:10B7700061704189090AA17002784168E01CFEF7F6
:10B7800057FCD3E730880422001D30800021601C64
:10B79000FEF766FCCAE71198002872D1F86804A980
:10B7A0000088009004203080009820700098000AE3
:10B7B0006070009800F022F9070028D0F868059022
:10B7C0006846028A03AB3B49384600F06FF900280F
:10B7D0000FD13B78022138487A68FFF704F803E07C
:10B7E00027E031E01DE049E0002802D131486946F8
:10B7F00088810598007802280CD1059802224168BA
:10B80000201DFEF715FC3088801C308002E0694660
:10B810000098888168468089A070000AE07085E7FA
:10B820002FE0119800282CD1F968079800F046F80D
:10B8300004E01198002824D1F868008802213180A2
:10B840002070000A607071E7F868FEF77BFC1199C0
:10B85000C0B2814210D8814201D1002206E0129A82
:10B860008918814202D31199401AC2B23280F96814
:10B8700011980918204682E7072557E711980028F4
:10B8800001D00B2552E70721F8683180017821703B
:10B89000417861708178A1704188090AE17001796D
:10B8A000217181796171C088000AA0713EE70000B2
:10B8B00000280000FFFF0000460A011110B501F04A
:10B8C000A0FE002800D0807810BD00007CB5144692
:10B8D000050019D068460195018000F09BF903002E
:10B8E0001DD1002C1BD06D89002D0DD00C20FEF732
:10B8F000F3FB00280AD0002303608580094A846096
:10B900009168002904D006E0022308E0132306E032
:10B91000906004E011460A68002AFBD108601846CE
:10B920007CBD00004853FF1FF8B50C4C074620783B
:10B9300015460E46FF280FD00A20FEF709FC01002D
:10B940000AD0B12008700020487008714F80CE8066
:10B950000D812078FEF7D8FBF8BD00004853FF1F8B
:10B96000FFB583B008461F4601A90C9E00F046F8BB
:10B97000050012D06846808801F064FE00280AD0D5
:10B980004468002C07D000963B462946059A039848
:10B99000A04707B0F0BD0E20FBE70120F9E700004B
:10B9A00070B514460E46054601F02BFE002806D160
:10B9B0003146054801F025FE002803D0058084703B
:10B9C000002070BD112070BDFFFF000010B5017890
:10B9D000B0290BD14178002908D10179122906D06C
:10B9E0001B2903D14088012100F048FA10BDFF2136
:10B9F0000231095C0129F5D010BD0000F0B58C467C
:10BA000010494B6819E09F687C89A04214D39E8836
:10BA10003119814210D900220CE011017D18698989
:10BA2000814205D16046002800D004802846F0BD40
:10BA3000521C92B29642F0D81B68002BE3D1002032
:10BA4000F0BD00006C56FF1FFFB5174881B00A9F7C
:10BA5000446824E000251EE0A0682901461870898A
:10BA60000199884215D30299884212D80498002877
:10BA700007D031787068049B039AFEF7B4FE002863
:10BA800007D0002F02D0A06840893880304605B02A
:10BA9000F0BD6D1CADB2A088A842DDD82468002C92
:10BAA000D8D10020F3E700006C56FF1FFEB5174603
:10BAB00000256A469580044640891D4A1E469042EC
:10BAC00008D001AA0092401C237880B26268FFF778
:10BAD000BBFF05462378022116486268FEF783FE05
:10BAE000002807D12378022113486268FEF77BFE05
:10BAF000002801D060890EE0237802210F48626897
:10BB0000FEF771FE00280DD0002D03D06846808816
:10BB1000B84203D0384602F08DFA04E06889401E2E
:10BB200080B200E06089002E00D030802846FEBD43
:10BB3000FFFF0000440A0111460A01114A0A0111DF
:10BB400010B505490870042100F00EFA00F006F85F
:10BB5000FEF7E8FE10BD00007C56FF1F70B50E4CCE
:10BB600000200C4B651CFF228100C91800280ED054
:10BB70000D80401CCA70C0B28A700228F4D30748F6
:10BB800001F02AFD064803F003FB002070BD0C8085
:10BB9000EFE700007456FF1FFEFF000065DF001195
:10BBA000E5DE0011F8B50D4614460646694601F07B
:10BBB0006FFB17280CD0002C06D001221021304634
:10BBC00003F060FA002803D129463046FEF7A0FEB4
:10BBD000F8BD000070B50C46080411D5094800787E
:10BBE000FEF744FA050007D00178A02901D101F041
:10BBF00097FC2846FEF740FA0120C003604070BD64
:10BC0000002070BD7C56FF1F01490870704700007E
:10BC10006C56FF1F70B50546008800281DD0686867
:10BC20000221037842682248FEF7DDFD002808D192
:10BC300068680221037842681E48FEF7D4FD002898
:10BC40000BD01D4C6088002805D0012229881204E1
:10BC5000101A814203D9012070BD022070BD0C2052
:10BC6000FEF73AFA060001D000200AE0132070BD6A
:10BC700002016B6861880A329952491C401C61803C
:10BC800080B229888142F3D80020306008222946FA
:10BC9000301DFEF7CDF96068002802D1666004E02F
:10BCA000084601680029FBD10660002070BD000035
:10BCB000440A0111460A01116C56FF1F06494968E2
:10BCC00006E08A685289824201D1888870470968F3
:10BCD0000029F6D1002070476C56FF1F10B50C46A6
:10BCE0000321FEF73BFA214600F090F910BD10B594
:10BCF0001422114201D0012202E04A0604D500229A
:10BD0000102103F0BFF910BDC80701D0002010BDFD
:10BD1000022010BD10B514468A0604D50122102158
:10BD200003F0B0F910BD882211420ED008220A405B
:10BD3000102103F0A7F900280BD0E034617E002920
:10BD4000F0D0217E0129EDD103E0880701D4032042
:10BD500010BD002010BD0000014610B50020C9072D
:10BD600004D0034A07210348FFF7B0FD10BD0000CF
:10BD700038090111BC53FF1F70B50D46164600244B
:10BD80001D490300FEF766F9080512343419342200
:10BD90002934152D23D8162200211848FEF760F902
:10BDA0002A4631461548FEF743F922E0022D16D106
:10BDB00011491088103908801BE0082D0FD10E485A
:10BDC000082231460838FEF7CFF912E0012D06D1DE
:10BDD000CA6909493078283107E0012D01D01824BB
:10BDE00007E0CA6B04493078483102F0EAF900E014
:10BDF0000224204670BD0000BC53FF1FAC86FF1F0D
:10BE00000B7803700B8802221B0A43700B88801C7E
:10BE1000012B02D0022B07D011E08A7802704988EA
:10BE2000090A417004220AE08A7802704A88120ADC
:10BE300042700A7982708988090AC1700622104608
:10BE40007047000008B5044B009313460A460121D1
:10BE500003F068F808BD000001BE00111CB5032303
:10BE6000019200930A46024B122103F08BF81CBD8D
:10BE700045E8001110B5FEF77DF910BD13B5044873
:10BE80000078012803D101AA6946FEF779F91CBDA3
:10BE90008856FF1F70B50F490F4A087000210B46E6
:10BEA0008C00491CC9B213530429F9D30A4C002150
:10BEB0001034FF260A460A256A4315196B80491C6F
:10BEC000A354C9B26E720329F4D3FEF75FF902F0EE
:10BED000FDFF70BD8956FF1F348CFF1F082A01D05B
:10BEE000012070474B780A781B02D2180280CB7869
:10BEF0008A781B02D21842804B790A791B02D21829
:10BF000082808A79C97909025118C180002070475E
:10BF100070B50C46080411D509480078FEF7A6F85C
:10BF2000050007D00178902901D102F031FF2846A1
:10BF3000FEF7A2F80120C003604070BD002070BD74
:10BF40008956FF1F70B500280AD1064C00252580B0
:10BF5000A581A580A068002802D0FEF71DF9A56084
:10BF600070BD0000B08CFF1F072907D0052905D040
:10BF7000042903D0062901D002207047044A8B000F
:10BF80009A181346403B1986203A90740020704757
:10BF9000348CFF1F70B506001BD10E4C00252146C6
:10BFA00040310D744D740D76606D002802D0FEF79F
:10BFB000F3F865655C20002546433419E800201835
:10BFC0004068002801D0FEF7E7F86D1CEDB20A2D9D
:10BFD000F4D370BDC08CFF1F70B50A880C460546AF
:10BFE000072A07D0052A05D0042A03D0062A01D043
:10BFF000022070BD012103F0F9F8002804D0214689
:10C00000284602F035FC70BD142070BD1CB50446F6
:10C010000D480129017003D00020FEF7C3F81CBDB4
:10C0200069460020FEF7C4F8684681882046FEF77E
:10C0300095F804460120FEF7B5F80023224619467C
:10C040001846FEF7BBF81CBD8856FF1F10B5001D33
:10C0500080B2FEF7B9F8002803D00321C943FEF7E8
:10C06000B9F810BD38B50C46050014D0002C12D01C
:10C070000321684603F044FA694688784021800627
:10C08000800E0843694688702246284603F070FFF8
:10C09000050002D006E0022038BD03226946E01CFC
:10C0A000FDF7C6FF284638BDF7B58EB00E98154689
:10C0B0000E4600282DD0002D2BD0301DC0B201908F
:10C0C000FEF70AF8040039D000F032FA074632468B
:10C0D000201D0E99FEF784F8F8B20890E07038043D
:10C0E000000E0B90A0703802000E0A9060703F0E98
:10C0F000277000F017FA0146102202A8FEF770F828
:10C1000006AB214602A8019A03F088FE060003D080
:10C1100010E0022011B0F0BD089828700B986870EC
:10C120000A98A870EF70082206A9281DFEF758F893
:10C1300000F004FA2046FDF7E1FF00E01326304648
:10C14000E8E7000010B5064C2070FEF74FF8062116
:10C150002078FFF709FF034803F01AF810BD00002C
:10C160009856FF1F55F5001170B50C46080419D5F7
:10C170000D480078FDF77AFF05000FD003F00AFBA9
:10C18000002808D109480078FF2804D02946FDF787
:10C19000BBFF002802D02846FDF76EFF0120C00338
:10C1A000604070BD002070BD9856FF1F6056FF1F95
:10C1B00010B505480078400701D5044800E000208C
:10C1C00003F070FB002010BDDB55FF1F8C56FF1FD6
:10C1D000FFB58DB00F98169C0E46002815D0002C88
:10C1E00013D00D9802F074FF050011D0617820780B
:10C1F00009024018A178E278090412068918471844
:10C20000286AB84206D3401C04D0022011B0F0BD09
:10C210001420FBE7002E04D02879800701D40120E8
:10C22000F4E70822002106A8FDF71AFF1098001D68
:10C23000C0B20190FDF750FF060017D0301D109AD4
:10C240000F99FDF7CDFF042221463046FDF7C8FFC8
:10C250001022A91802A8FDF7C3FF06AB314602A8B9
:10C26000019A03F0DBFD050002D013E01320CDE7B7
:10C27000082206A908A8FDF7B3FF0822211D08A877
:10C28000FDF7E2FE012801D0012503E039460D98B3
:10C2900000F046FF3046FDF731FF2846B6E70000C4
:10C2A000002805DBC106C90E01208840014908604D
:10C2B0007047000000E100E08307FF22DB0E9A4098
:10C2C0008907090E9940002808DB830809489B006C
:10C2D0001B18186890430843186070470007000F48
:10C2E0000838830804489B001B18D869904308430A
:10C2F000D861704700E400E000ED00E0FFB583B0D6
:10C300000F4603981B4940001646085AFFF79EFE49
:10C3100004002AD00125601C2670002F03D0069946
:10C32000B847401C85B2300610D51021039802F0A2
:10C330005DFF002801D0192613E06219E9B22046FA
:10C34000FFF7B2FE06000CD10C35ADB204216846F1
:10C3500001800194058169460398FFF73DFE0600C0
:10C3600004D02046FDF718FF00E01326304607B042
:10C37000F0BD0000D455FF1F10B50C4602F0BCFE06
:10C38000002804D040882146FDF7CAFE10BD1220C7
:10C3900010BD0022002913D0002811D0012806D09A
:10C3A0004A799206920E4A71032805D007E048792F
:10C3B000C0221043487102E0402002434A7101222A
:10C3C0001046704770B512480025007805210842D4
:10C3D0001BD02020FDF780FE0E4C0028A06013D05B
:10C3E00020220021FDF73CFE2020FDF775FEE060D5
:10C3F000002804D020220021FDF732FE05E0A068CD
:10C40000FDF77CFE0020A0601325284670BD0000CB
:10C41000DB55FF1F4456FF1F002909D0012807D113
:10C42000497989098901C02902D0402901D0022017
:10C43000704703207047FFB500200E4608701AE0D1
:10C440001C5C401CC5B2002C17D02819904214D88F
:10C450005F5D6D1CEDB2384600F08BFE002806D003
:10C46000641EE0B2307000998F4202D1581904B0B6
:10C47000F0BD4019C0B29042E2D30020F7E70000BF
:10C4800010B5044C2068002803D0FDF737FE0020CB
:10C49000206010BDA056FF1F70B50E4D84002859B6
:10C4A000002815D0006A002801D0FDF727FE285982
:10C4B000406A002801D0FDF721FE2859806A002833
:10C4C00001D0FDF71BFE2859FDF718FE002028516A
:10C4D00070BD00003C56FF1F10B5044C606800287A
:10C4E00003D0FDF70BFE0020606010BD3456FF1F27
:10C4F0000100044805D104498978002901D0024887
:10C50000801D7047288CFF1FDA55FF1F0148807877
:10C5100070470000DA55FF1F01484068704700006F
:10C52000188CFF1F0148806870470000188CFF1F9F
:10C530000148C06800687047188CFF1F10B5074895
:10C54000C0680168491C016005480078FF2803D0D5
:10C5500001218903FDF7A8FD10BD0000188CFF1F05
:10C56000DA55FF1F02484068002800D001207047BC
:10C570009C56FF1FFFB581B00F460D9E0A9D039884
:10C5800002F0A6FD040042D0019800283FD1207996
:10C590001021084320710499490702D5022108435C
:10C5A00001E0FD21084020710B99284608430C99B1
:10C5B00008433043207902D00421084301E0FB21E5
:10C5C00008402071002E06D03069102220623146CA
:10C5D000A018FDF72DFD002D01D0002F05D00B98E0
:10C5E000002814D0012F08D011E0606A002801D083
:10C5F000FDF784FD1C21284606E0606A002801D072
:10C60000FDF77CFD1C210B98FDF7F6FD6062039899
:10C61000224C8700E05900283ED0002D0FD0006A40
:10C62000002806D11C20FDF757FDE15900280862BB
:10C6300005D0E0591C22006A2946FDF7F9FC0C9848
:10C64000002810D0E059406A002806D11620FDF7D6
:10C6500043FDE1590028486205D0E0591622406A9E
:10C660000C99FDF7E5FC002E10D0E059806A0028F7
:10C6700006D11420FDF730FDE1590028886205D06D
:10C68000E0591422806A3146FDF7D2FC0B9B049AD4
:10C690000399019802F0D0FD05B0F0BD3C56FF1F94
:10C6A000F3B581B0019802F013FD050029D00E20EA
:10C6B000FDF74EFD040024D02620FEF777FD06008E
:10C6C00000D12E78D0202070002767700B20A0703A
:10C6D0000622E91DE01CFDF7ABFC01986081029881
:10C6E000C1070120002901D0207300E027730299BF
:10C6F000890701D5607300E06773F0B22146FDF74A
:10C7000003FDFEBD10B581881F4B0124CA1A994252
:10C7100037D011DC1D4BCA1A994219D007DC1C4ACC
:10C720008A1810D0022A1ED0032A29D11BE0472ADA
:10C7300027D0482A24D124E01300FDF78BFC0621E2
:10C740002222222222218068007800F0D3FC08E017
:10C750008068827841781202891889B2007800F0E6
:10C7600029FD04460DE0094A921E914201D10122A1
:10C7700000E0002280680178104600F003FD00E030
:10C780000024204610BD0000532000000A200000B5
:10C79000FADFFFFF70B51A4D1A4A014600262878C5
:10C7A0001268194C01290CD0002A09D017490978C0
:10C7B000490705D50221FDF771FC6680FFF760FE91
:10C7C00070BD6188002903D0114B1B78002B05D068
:10C7D000002AF5D01078FEF7BFFC70BD3C2902D3CB
:10C7E0003C39618070BD0221FDF758FC62887D20D4
:10C7F000C000424302212878FDF74AFC668070BDE4
:10C800006156FF1FA056FF1F4456FF1FDB55FF1F39
:10C81000DD55FF1F08B5418900910389C2888188D1
:10C82000C07800F0B3FB08BDF0B504468088A121B4
:10C8300089004843304987B009684018FF30FF300D
:10C840000230A1794167002C54D02C4D6868002833
:10C8500023D006782A480068002804D041680029BF
:10C8600001D0002088472146E07908310591FFF783
:10C87000D3FDE0710246277D638A218AE089019019
:10C8800002A88AC0A0880090E0783146059B02F09B
:10C8900049FDE078002802D00DE01A48D9E7E07998
:10C8A000E2896B46059907C3A379A1880122304626
:10C8B00002F0BCFBE0706868002811D0FFF70CFEA6
:10C8C000287800280CD06978FFF756FD002807D09B
:10C8D000E078A2880346297802F051FD00202870F4
:10C8E000A0881721FEF792F9A088FFF72BFBA088FC
:10C8F000FFF750FB07B0F0BD3409FF1F3456FF1F90
:10C900006456FF1FDA55FF1F70B504460026808865
:10C9100002F0DEFB002803D00678A08802F04AFC73
:10C92000144D2878002808D0864206D16978FFF790
:10C9300023FD002809D000202870002E05D0A379FF
:10C94000A288A078314602F01AFDA088094A810029
:10C9500008325158002901D0FFF79EFDA088172109
:10C96000FEF754F9A088FFF7EDFAA088FFF712FB55
:10C9700070BD00003456FF1F70B58288294D012418
:10C98000531B2949AA4242D019DC284D531BAA4205
:10C9900018D00BDC264BD21826D0254B1033D218DA
:10C9A0001ED0032A17D0042A39D10BE0012B09D05D
:10C9B000022B07D0032B21D0042B30D11AE0433BAC
:10C9C000072B2CD8496800292AD00968002927D0CC
:10C9D0008847044624E08068007800F0ADF81FE046
:10C9E000806800F001F9F4E78068411C007800F0ED
:10C9F000D9F8EEE783681B78002B11D089680029ED
:10CA00000ED00B6808E0014610469847E1E7094957
:10CA10000968002904D04B68002BF4D100E0002401
:10CA2000204670BD0E2000006056FF1F0820000049
:10CA3000F7EFFFFF4056FF1F10B5094CA178002902
:10CA40000CD001460622A01DFDF7F2FAA11DA07828
:10CA5000FFF79FFCA01DFDF7D5FB10BD002010BD0A
:10CA6000DA55FF1F1CB52F49037801240A68912B62
:10CA700002D0A22B2ED13EE04178052909D00E2903
:10CA800004D00F2908D03E2924D115E0FFF774FF08
:10CA900010E0FFF739FF3AE001468088224B01247D
:10CAA000C31801D0062B15D1002A30D05268002AB5
:10CAB0002DD0904704462AE081780124032917D01D
:10CAC00004DC012911D0022904D105E015291ED06A
:10CAD00016291CD000241AE014498968002916D0B0
:10CAE0004968002913D0884711E0FFF79DFE0EE04A
:10CAF000FFF790FE0BE00E490978042909D0002ABF
:10CB000005D05268002A02D001460A4890472046C4
:10CB10001CBD00216A46118001794088FFF792F917
:10CB2000F5E700004056FF1FF3DFFFFF6056FF1FD1
:10CB3000DB55FF1FFFFF0000F8B5164F0646BD1F6F
:10CB40002878FF2814D00A20FDF702FB04000FD03C
:10CB5000D020207066700820A070A878E0700622AF
:10CB60003946201DFDF764FA21462878FDF7CCFAF6
:10CB7000E87801280DD108480068002803D08068B3
:10CB8000002800D080470648044A04210078FDF7B9
:10CB9000A9FAF8BDE055FF1F6456FF1F60EA0000C8
:10CBA0006156FF1F70B500240546002805D10029F5
:10CBB00003D006220B48FDF73BFA0A4810380178EB
:10CBC000012907D10124002D06D00021017028463B
:10CBD00000F0B8F9204670BD02210170FDF718FB86
:10CBE000F8E70000288CFF1F10B50024002813D0A0
:10CBF00002780B49002A03D14288CA8202790A7658
:10CC00000A78022A08D102780124002A06D00022DC
:10CC10000A70007800F096F9204610BD0322F7E76D
:10CC2000188CFF1F01494860704700006056FF1FC5
:10CC3000F8B57A4C87780146002507266079A279F5
:10CC40003B00FDF707FA0805361A37375F9ACD36ED
:10CC5000487800285CD1714806223C30C91CFDF799
:10CC6000E7F90120A0716D4B01464233627860798B
:10CC7000FEF742FC00284BD1A8E00F464978002976
:10CC800046D1F978002906D0654BA2780021FEF73D
:10CC900033FC78700AE0022A0BD00121FDF70AFA72
:10CCA000002803D101216079FDF7FEF9787800288A
:10CCB0002ED1F8BD497800292AD1032F09D0A289A5
:10CCC000002A0CD0217800290AD00121FDF7E0F9D3
:10CCD00006E0052A01D0022012E0062010E02570AF
:10CCE000A079062802D0042802D008E0052007E039
:10CCF0000120207001466079FDF7D6F966E0032037
:10CD0000A07163E048780F46002803D0312832D064
:10CD1000A6715BE041480622391D3630FDF788F9DF
:10CD20007889E081B8892082F88960820520A07125
:10CD3000A28A002A03D002216079FDF7A9F9B889F7
:10CD4000E083F8892084388A6084E07801280AD159
:10CD50001F20FEF72BFA7D21C9004843024604211B
:10CD60006079FDF795F97A89F8780423391DFDF784
:10CD700055FA25702AE02570C1E728480E4606229C
:10CD800000213630FDF76CF9E583258465840421A4
:10CD90006079FDF783F908216079FDF77FF9B079B3
:10CDA000082808D00320A0712078002805D06079D9
:10CDB000FEF7D2F907E00420F5E7012020700146D4
:10CDC0006079FDF771F90020C043E081606A0028B6
:10CDD00000D16EE701680029FBD0A0798847F8BD33
:10CDE0000D460821FDF75AF9687829460028F6D142
:10CDF000E888E08328892084488960840421607958
:10CE0000FDF758F90028EAD1A06A0028E7D00368A6
:10CE1000628C218CE08B9847F8BD00003054FF1FD6
:10CE2000C286FF1F10B501781C4C912906D0A2299B
:10CE30001BD0D02901D1FFF7FBFE10BD41780E2990
:10CE4000FBD18188164A9142F7D1816803200856A8
:10CE5000A1790529F1D17F28EFD0616A0029ECD0B2
:10CE600049680029E9D0884710BD41791329FBD1D1
:10CE70000089012802D12079022808D00520FEF778
:10CE800095F9024608216079FDF702F910BD0821E5
:10CE90006079FDF703F9FEF72FF910BD3054FF1F3D
:10CEA000051400007CB5154C0546E08BE18A8842EC
:10CEB0000AD3218B884207D8208C618B884203D10A
:10CEC000608CA18B884217D00520FEF76FF90646CB
:10CED000E18A68460180218B4180618B8180A18B32
:10CEE000C18062796946E089FEF7B8FF2571324654
:10CEF00008216079FDF7CCF87CBD00003054FF1F9D
:10CF0000F8B507460E46084602F0E2F8040018D0CD
:10CF10002620FEF74BF9050000D125780620FDF705
:10CF200017F904000DD006220021FDF799F8D02052
:10CF3000207067700E20A070A680E8B22146FDF731
:10CF4000E3F8F8BD70B50F4D06462878FF2818D0D5
:10CF50000E20FDF7FDF8040013D0D020207066707D
:10CF60000020A07006220849E01CFDF761F8064881
:10CF70001038C18A6181007E207321462878FDF730
:10CF8000C3F870BDDA55FF1F288CFF1FFFB581B0B5
:10CF90001E4617460D460C20FDF7DAF8040013D0A4
:10CFA000284602F095F8002810D00078D021217092
:10CFB000019961700721A170A580E78026810A99F7
:10CFC00061812146FDF7A0F805B0F0BD0048ECE70F
:10CFD000DA55FF1F70B50D4D044628680E4600282F
:10CFE00012D00620FDF7B4F8010009D0D020087057
:10CFF0004C70032088708E8028680078FDF784F8D4
:10D00000002C01D0FFF73CFA70BD0000A056FF1FB6
:10D01000FFB581B01F460E46084602F059F80500DC
:10D0200022D01020FDF794F804001DD0102200211A
:10D03000FDF716F82620FEF7B9F8002800D1287869
:10D04000D0212170019961700F21A170A6800399F0
:10D05000217267720A99A1720B99E1720C99E160D1
:10D06000C0B22146FDF750F805B0F0BDF0B51F4D38
:10D0700085B02868002837D08778FEF713F9002894
:10D0800005D00A20FEF792F804900B200EE001F084
:10D09000A7FB002805D00620FEF788F8049007209B
:10D0A00004E00820FEF782F804900920FEF77EF8DD
:10D0B00004460F480078002814D001262968C87853
:10D0C000091DFFF766F929686D46CA7A8B7A091D32
:10D0D0000BC5039233463A4621460498FDF7A4F85F
:10D0E00005B0F0BD0026E9E70120F9E7A056FF1FD3
:10D0F000DC55FF1F10B50949096800290CD000282C
:10D1000005D101204870FCF7DBFF002802D0002188
:10D11000FFF760FF012010BD002010BDA056FF1FCB
:10D12000F8B50C4601F0D4FF020021D0262014628D
:10D13000FEF73CF805062D0E00D115789679D01D26
:10D1400000901020176AFDF703F8040010D0D020DB
:10D150002070002060700920A070E6700622201D5B
:10D160000099FCF765FF21462846E760FCF7CCFFF5
:10D17000F8BD411E152903D9FF2801D000207047B2
:10D180000120704770B50A4E054630780C46FF28DE
:10D190000DD00420FCF7DCFF010008D0D02008707F
:10D1A0004C7002208870CD703078FCF7ADFF70BDF8
:10D1B0004456FF1FF3B5284D81B0286800284AD097
:10D1C0004078264E012803D03078002831D041E045
:10D1D00001F006FB224F002813D00120FDF7E6FFE7
:10D1E0000446412808D91F4A02213878FCF77AFF03
:10D1F0001D483C3C44800EE07D20C0002246424356
:10D2000003E00020FDF7D2FF0246002A03D00221EE
:10D210003878FCF73DFF29680220487030780028F4
:10D2200002D00020307015E002990198FFF7D2FE7D
:10D2300010E00320019CFCF78BFF010008D0D020F8
:10D2400008704C700420887028680078FCF75CFF38
:10D25000FFF716F90120FEBDA056FF1FDD55FF1F89
:10D260006156FF1F60EA00004456FF1F074A002175
:10D270008B00D35A834202D1880080187047491C22
:10D28000C9B20229F4D30020704700007456FF1F72
:10D2900010B50C46FFF7EAFF00280DD0002C00D097
:10D2A00020608078FE2803D0FF2803D0162010BD10
:10D2B000172010BD002010BD022010BDFFB581B0A9
:10D2C000FF201E46174605300A9DFCF741FF04006B
:10D2D0001BD0B02020706770029860802671002DEE
:10D2E00006D02046FC2229460830FCF7A1FE05E0C6
:10D2F0002046FC2200210830FCF7B2FE21460198AE
:10D30000FCF702FF002005B0F0BD1320FBE7000092
:10D310000548172202800988172901D20420704786
:10D320000180002070470000D655FF1F0020704785
:10D3300008B50A460888498888420BD8002809D0D1
:10D34000002300931379521DFEF77EFB002803D0C3
:10D35000002008BD012008BD0A2008BDF3B50D4618
:10D3600008884988002687B0814215D3002813D049
:10D37000002769460F710097002369881A46FEF757
:10D3800063FB04004FD068460079002807D0694647
:10D390004979012925D008E0012009B0F0BD2178A4
:10D3A00002291BD002216A4651711222504301AA60
:10D3B000618980184180684600791223584380189B
:10D3C0001022001D6168FCF733FE68460079401C9E
:10D3D0000106090E684601711FD11AE001216A4653
:10D3E0005171217802291ED1820001A86189121889
:10D3F00051806A4612796168920010180222001D5D
:10D40000FCF716FE6A461079401CC0B21071052860
:10D4100003D261890A48814200D101266089401CFB
:10D4200080B2002EA7D068460079002805D001A957
:10D430000798FDF753FA0020AFE70A20ADE7000098
:10D44000FFFF000038B50C4608884988884215D887
:10D45000002813D02379621D02210B48FDF7C3F980
:10D4600000280DD000200090237961882088621D5B
:10D47000FEF7EAFA002805D0002038BD012038BDAB
:10D48000102038BD0A2038BD440A011108B50A46EB
:10D490000888498888420BD8002809D000230093C7
:10D4A0001379521DFEF7D0FA002803D0002008BDE2
:10D4B000012008BD0A2008BDF8B500250F46064624
:10D4C0000C46E03717E06800205A0021FEF796FA74
:10D4D000002809D0017A3046FEF709FC002808D060
:10D4E0006900615A2180F8BD6800205A208001201F
:10D4F000F8BD6D1CEDB2B87DA842E4D80020F8BD9F
:10D5000010B5044608880021FEF778FA002804D0F8
:10D51000017A2046FEF7EBFB10BD012010BD000094
:10D5200030B585B005466946FDF74CFA040026D1B2
:10D5300068468078C1071E4809D08268002A04D056
:10D54000688869469047044619E0062417E0426857
:10D55000002A05D0688869469047040001D10EE092
:10D56000062468464078002809D16846817801730E
:10D570000021C1810474688803A9FDF76FF9A868C8
:10D58000002801D0FCF708FE002C05D16846807801
:10D59000122807D01B2803D068880121FEF76EFCF3
:10D5A00005B030BD684640780128F5D1F8E70000A5
:10D5B0007C56FF1F70B505460C4608880021FEF713
:10D5C0001DFA002805D0017A22462846FEF7A2FB64
:10D5D00070BD012070BD0000014948607047000027
:10D5E0007C56FF1F10B50446801C00F02FFDFF2065
:10D5F000E07010BD10B500F025F8002800D080685C
:10D6000010BD00229300CB5A834202D190004018F3
:10D610007047521CD2B2022AF4D300207047000097
:10D62000074A0021CB00D35A834202D1C800801898
:10D630007047491C0906090EF4D00020704700000D
:10D640005853FF1F0649896805E08A88824201D144
:10D650008868704709680029F7D1002070470000EA
:10D660004853FF1FF8B50746012906D0022924D1E7
:10D67000012101F0BBFD00281FD13846FFF7D0FF84
:10D68000050015D000240D4E0CE0F82069686043B9
:10D6900008180188002908D0F8220021FCF7E0FCD6
:10D6A000641CE4B270788442EFD30020C043288029
:10D6B000024938461831FDF78FFFF8BD4853FF1F68
:10D6C000F3B5064683B008300190002000907088C2
:10D6D000FFF7A6FF07002FD0002523E0F820796888
:10D6E00068430C182188002920D00198007801286F
:10D6F0000FD160880090A3887088A21DFEF730F9D2
:10D700000090002805D00199002008700498218815
:10D710000180F82200212046FCF7A2FC00206D1CAD
:10D720002080EDB2074840788542D7D30020C0431F
:10D7300038800098002802D17088FDF7B9F8009869
:10D7400005B0F0BD4853FF1FF3B50546374C0646FC
:10D7500085B00835F62200212046FCF781FC03A89D
:10D7600000902B79698828886A1DFEF76DF90746B5
:10D7700045E070882E4A4100515C2E4BC91FC9B24A
:10D780000093002202910192284B69468A89F63B58
:10D790003946FDF781FF002812D126482989001F4C
:10D7A000828891420CD121492846F6390A30FCF78B
:10D7B0004BFC002804D02178788989000919488019
:10D7C00068468289698804AB3846FEF76FF90746D8
:10D7D0002078810009194A88002A10D0002F05D02E
:10D7E0006A46128A401C20708A800AE002060021E4
:10D7F000920DC9431219401C2070918006E0002F41
:10D8000004D00D48217800888142B2D320780028C6
:10D8100006D070882146FDF753F8002007B0F0BD10
:10D820000698298801800A20F8E70000B285FF1FCA
:10D83000D455FF1F4C53FF1FD055FF1FF0B585B0C7
:10D84000044600206946888120790E2869D00FDCC3
:10D85000082823D004DC022813D0062818D118E0A9
:10D8600025460835484F0A281DD00C2810D138E02D
:10D8700010285BD012285ED0162861D0182877D1E6
:10D8800063E043484149008808806088FCF7F0FF66
:10D890006EE003A92046FFF757FF5AE003A9204690
:10D8A00000F076F955E0288804A9FEF7A7F80100F2
:10D8B00015D06088354E4200BA5C0023521ED2B2A9
:10D8C0000193029200966A46B31C128AFDF7E4FEA9
:10D8D00000281DD160883146FDF778F948E0012025
:10D8E00016E0288804A9FEF789F80100F7D06088BF
:10D8F0006B884200BA5C254E521ED2B2019302924E
:10D9000000966A46B31C128AFDF7C6FE002803D0B3
:10D9100029886A4691811CE060883146FDF726F926
:10D9200026E003A9204600F0D3F912E003A920461F
:10D9300000F082F80DE003A9204600F039FA08E073
:10D9400003A9204600F028F803E003A92046FFF7CA
:10D95000B7FE00280CD06178142909D00B49227930
:10D960000A706A4692894A8008716088FCF776FFDF
:10D970002046FEF72BF80748C168002901D0204651
:10D98000884705B0F0BD0000D455FF1FB285FF1FCA
:10D99000CE55FF1F4853FF1FF8B504460F460546F6
:10D9A000083400896946FEF729F806003AD0307A33
:10D9B00080060ED568460088FFF71CFE030006D0DF
:10D9C0006888122231469847060002D02BE00E26C6
:10D9D00029E06E883046FFF723FE010005D1144888
:10D9E000FFF71EFE01000ED00E80124A0020527872
:10D9F00007E0F8264B6846439B5B002B05D0401C94
:10DA0000C0B29042F5D309260DE04968F822504390
:10DA100008182146FCF70CFB002668882146FDF714
:10DA20009BF802E00126208838803046F8BD0000CF
:10DA3000FFFF00004853FF1FF3B58BB000200B9E83
:10DA40000746039004A800903246337B71893089E1
:10DA50004C4C0D320836FDF7F7FF054678E00B9881
:10DA6000297A4088FEF743F9070003D00C986989AA
:10DA700001806FE00B9844494088444B4200895C28
:10DA80000093891FC9B20022029101923D4B694661
:10DA90000A8AF63B2946FDF7FFFD0700E6D1039809
:10DAA000002833D039486188001F8088021D9142C8
:10DAB00053D1039909180B98408842003248805A84
:10DAC000801F814249DC0399A87A61180871039884
:10DAD0006989401C80B22218090A401C117180B269
:10DAE00003906846028A718807AB2846FDF7DEFF7F
:10DAF000050011D003986946898B2018017103989D
:10DB00006946401C898B80B2090A0CE01F48001F3F
:10DB10008088001D6080D6E70398FF2120180171DE
:10DB20000398401C80B222181171401C80B2174922
:10DB30000390091F8A8813492018F639001DFCF745
:10DB400077FA12490398091F8988401880B2039018
:10DB5000002D84D1039800280CD061880398FCF72D
:10DB6000FDFA20700B9821464088FDF709F8002047
:10DB70000DB0F0BD002F00D10A270C98318801802C
:10DB80003846F5E7B285FF1FD455FF1F4C53FF1FE2
:10DB9000F3B50746044608378BB0494804903888E7
:10DBA00000252E4605906AE007A800903B79798809
:10DBB0007A1D0598FDF748FF0890002852D040894B
:10DBC00005900898017A6088FEF791F806005DD10B
:10DBD00060883C494200895C3B4B091FC9B20093F5
:10DBE000002202910192364B69468A8BF63B0899D6
:10DBF000FDF752FD060049D1002D36D0049841882A
:10DC00003148001F8088801C814241D12E4B1B1F50
:10DC100098882918608842002A48805A001F81424B
:10DC200020DC0898817A04984019017108996D1CCC
:10DC30004989E8B20A0A049909180A71401CC5B258
:10DC4000194604988A881E494019F639001DFCF7C8
:10DC5000EFF91D481D49001F00792818C5B2059825
:10DC6000884209D1002D13D123E017480499001FE1
:10DC70008088801C4880C9E7401C80B2059060887D
:10DC800041001048405A001FA8428DDA002D0ED0E6
:10DC9000049841882846FCF761FA0146049801700F
:10DCA00060880499FCF77AFF00200DB0F0BD002ECB
:10DCB00000D10A260C99059808803046F5E7000047
:10DCC000B285FF1FD455FF1F4C53FF1FFFFF0000FD
:10DCD000F3B506460446002085B0324D0090083664
:10DCE000288007463046E030049048E07800305AFB
:10DCF00003A9FDF783FE01001AD060882B4B8446F0
:10DD000042002948805C0093401EC0B2002202906D
:10DD10000192244B68468289F63B6046FDF7BCFCC5
:10DD20000090002807D07800315A0698018035E02D
:10DD300001200090F7E71D492888091F89884218AB
:10DD400061884B001849C95A4B1E9A4204DD081AD3
:10DD50001649091F401E88802988A81C08181349E5
:10DD6000091F8A880F49F639FCF762F90F4829889C
:10DD7000001F8088081828807F1C0498FFB2807DCF
:10DD8000B84207D96088298842000748805A401E57
:10DD90008142ABDB60882946FCF70EFF009807B094
:10DDA000F0BD0000B285FF1FD455FF1F4C53FF1F6D
:10DDB000F3B5054683B004460835008901A9FDF78F
:10DDC0001DFE2746E8370646002822D0307A800616
:10DDD0000ED568468088FFF70DFC030006D06088EA
:10DDE000122231469847060002D013E00E2611E0B9
:10DDF000002000906B88298860882A1DFDF7B0FDFF
:10DE0000060007D1787E002807D16088FCF70AFF5A
:10DE100003E00126049829880180787E002802D03A
:10DE2000002005B0F0BD3046FBE700000149C860A6
:10DE3000002070474853FF1FF8B504460246F820FB
:10DE40004243194800250746457010377868002876
:10DE500007D00020C100C919401C00064D60000E0B
:10DE6000F8D0124E00213046FCF7FAF800200146A7
:10DE70006143C9B2F82251438B190B49C2001031DA
:10DE800052180021536005E0F8274F435368491C9E
:10DE9000DD53C9B2A142F7D3401C0006000EE6D004
:10DEA000014844700020F8BD4853FF1FC483FF1F82
:10DEB0007CB50C78069D022C0FD14C6826786478CE
:10DEC00024023419064EA4B2F44206D10224DBB275
:10DED00000950194FDF798FB7CBD01207CBD0000FE
:10DEE000FED6FFFFF8B505461D48854223D0461CE7
:10DEF000002921D001292BD002291CD1012128463B
:10DF000001F074F9002816D12846FFF7AFF9040094
:10DF100011D0A078FF280ED0FE2807D00020009056
:10DF2000E0781E2314222946FFF7C8F92046FFF7A0
:10DF300059FBFF20A070F8BD2846FFF797F900288D
:10DF4000F9D13046FFF792F90028F4D00580F8BDEA
:10DF50002846FFF78BF90400F9D02680D9E70000A6
:10DF6000FEFF0000F3B50C468978C1B01E2914D01D
:10DF70002E4D2878FF2829D0182927D84808C20014
:10DF80002B481218803A976F002F1FD0D06F0028AF
:10DF90001CD02078002817D113E04198FFF766F9CC
:10DFA00005000BD000200090A378E878002241996A
:10DFB000FFF784F906462846FFF714FB304643B0C6
:10DFC000F0BD6278012A03D1122901D00620F6E7BC
:10DFD00002AE0096A3886178A268B8470028EED107
:10DFE000A0784008C100124808188038C26F02A902
:10DFF0004198904700280FD061780029DFD1A2789E
:10E0000069460A70087168460189418069464198ED
:10E01000FCF724FC0020D2E7A378042BCFD0009695
:10E02000002228784199FFF749F9C8E76C56FF1F8D
:10E03000E009011100B50346FDF740FE002803D0BA
:10E04000C018401E80B200BD184600BD10B50400C7
:10E0500008D02078FF2805D0FE2803D0FCF7EAF886
:10E06000FF20207010BD0000F7B506460F461020B7
:10E07000FCF732F805461020FCF72EF80446002D78
:10E080003AD0002C2DD010220021FBF7E9FF2A46C0
:10E090002146304601F0B2F9060023D12878000667
:10E0A00004D43946284600F0B3FF08E0214628464C
:10E0B00000F0AEFF3A461149204602F023FC3878C2
:10E0C000000604D43846029900F0A2FF0AE0214677
:10E0D000384600F09DFF09492046029A02F012FCE2
:10E0E00000E013262846FCF709F8002C02D0204651
:10E0F000FCF704F83046FEBD1326F6E76A0A011164
:10E10000F8B5069800271D4614460E46002801D093
:10E110000B20F8BD30780021022801D019804DE095
:10E1200070680278407800021018152280B25202FE
:10E13000801A0300FBF78EFF0504121F1A25410009
:10E14000F068FBF7FFFFC2B20798824200D902468F
:10E150002A80F1682046FBF76BFF30E0F06802216F
:10E16000008829802070000A607028E0062028803E
:10E170000246F168EEE701202880F0680078207000
:10E180001DE0F068002816D0082129800178217050
:10E190000188090A61708178A1704188090AE170DB
:10E1A000017921718188090A61718179A171C08821
:10E1B000000AE07103E0298001E029800127384648
:10E1C000F8BD10B50B78840702D50224234301E083
:10E1D000FD2423400B7003070B7802D5082423434A
:10E1E00001E0F72423400B7083060B7802D520242E
:10E1F000234301E0DF2423400B700A21084201D1B0
:10E20000810603D510780C21084304E0002803D1CF
:10E210001078F3210840107010BD0000FFB581B0E8
:10E22000087800240A9E1F460D4602280FD1686810
:10E230000178407800020818152180B24902401A7E
:10E2400009D0012829D0022848D003283CD0012435
:10E25000204605B0F0BDE868FBF774FFC0B2864207
:10E2600005D8F0190090152803D90D24F0E70724EC
:10E27000EEE7E8683A4680190399FBF7D9FE009863
:10E28000EA6880B2002111541C4840680028DFD0A1
:10E2900001680029DCD0002012E0002E12D1022BF0
:10E2A000E3D10399E8680A78497809025118018096
:10E2B000124840680028CBD001680029C8D001204E
:10E2C0008847C5E70B24C3E7002EFBD1062BCCD132
:10E2D0000622E8680399FBF7ABFEB9E7002EF1D1FF
:10E2E000012BC2D103980078002803D0012801D067
:10E2F0008024ADE7E9680870AAE70000AC53FF1F6F
:10E3000010B50448C16B034A40321068D06000F079
:10E3100021FA10BD0080004030B5C21F0A2A01D387
:10E32000062030BD0124074D9440002905D000216E
:10E3300000F0A4F82868204301E02868A043286082
:10E34000002030BD00380040054B01228240D868D3
:10E35000002901D0104300E09043D86070470000CE
:10E360000038004010B5114C2078002801D007205B
:10E3700010BDFF212D310D48FBF762FF01202070F9
:10E380000B490020086348630A4908624862022179
:10E390001020FDF791FF1020FDF782FF064A074984
:10E3A0000D20FBF753FF002010BD0000048AFF1F63
:10E3B0000080004080F00040CDE5001141E50011F3
:10E3C00010B5172801D3052010BD0C4B9C6B012202
:10E3D0008240104620439863586B90435863DC6B2F
:10E3E000012907D020469043D863186B02431A6373
:10E3F000002010BD10462043F6E7000000800040DA
:10E40000054B0122801E82405869002901D010432B
:10E4100000E09043586170470038004070B50446F2
:10E4200014480E460519002902D16878012808D041
:10E4300000212046FFF788FF022C04D0032C02D0D5
:10E4400005E0072070BD01212046FFF7D9FF00211C
:10E450002046FFF761FF08490120A0404A68012ECD
:10E4600005D082434A6002206870002070BD0243DC
:10E470004A60FAE7048AFF1F0080004070B542003E
:10E4800083180D4A9C18A5786478D65C641B012219
:10E49000641CA240521EAA40084BA940132806D271
:10E4A000B000C018836893430B43836070BD586904
:10E4B00090430843586170BD5B09011100F00040B2
:10E4C00007494A68012383401A4201D0096802E0E3
:10E4D000034940310969C140C807C00F70470000B7
:10E4E0000080004070B5154C45002E197678012348
:10E4F000114AB34000290ED0142809D0152807D09E
:10E50000162805D0605780008018816819430DE0F7
:10E51000506918430EE014280AD0152808D0162890
:10E5200006D060578000801881689943816070BD73
:10E5300050699843506170BD00F00040A00901117E
:10E5400070B5104D00242E197078012803D1E0B267
:10E550000121FFF7C7FF707802280ED1E0B2FFF764
:10E56000AFFF01214140E0B200F074F8E0B2FFF7E4
:10E57000A7FF0C21614349194876641C172CE2DB84
:10E5800070BD0000048AFF1F10B50F4C0D4A012317
:10E59000245C142809D2106A002902D0A340184331
:10E5A00001E0A3409843106210BD506A002903D0D7
:10E5B000203CA340184302E0203CA3409843506213
:10E5C00010BD000080F000404409011170B5022127
:10E5D0001020FDF771FE1020FDF762FE00241C4D97
:10E5E00007E0022C01D0032C03D1E0B20121FFF798
:10E5F00007FF2819407801280BD1E0B2FFF760FF30
:10E60000E2B20146104600F061F8E0B20021FFF7E7
:10E6100069FF0C2060434019007E002814D0E0B24E
:10E6200000F066F8E6B23046FFF74AFF002801D056
:10E63000012100E000210C2272435219527E8242D5
:10E6400002D0304600F0BAF8641C172CC9DB70BD4C
:10E65000048AFF1FF8B542008318184AD55C9A183F
:10E660009278521ED4B2164A12185278022A21D138
:10E67000144EB76B0122134683401F43B763124BFE
:10E6800013280ED2002906D0A900C9188B68A24011
:10E6900093438B600BE0A900C9188B68A240134319
:10E6A000F7E70029596906D0A24091435961012139
:10E6B000FFF76AFFF8BDA2401143F7E75B090111BC
:10E6C000048AFF1F0080004000F00040012200B5D6
:10E6D000064B82400029196801D0114300E09143A4
:10E6E00019600121FFF79AFE00BD00000080004084
:10E6F00070B50446164821460C2251430D186A682D
:10E700000026002A02D1AA68002A1CD0104B02223F
:10E71000183B1B195A700122425400212046FFF772
:10E720007DFE6868002808D0A86800280DD0204623
:10E73000FFF7C6FE002808D0002631462046FFF726
:10E740003FFE002070BD122070BD0126F5E70000DD
:10E750001C8AFF1FF3B5184E002481B0074601251F
:10E760002846A040384223D00299084000D001201A
:10E770000090E0B2009900F021F80C20604380196D
:10E780004168806800290ED0002807D00098002832
:10E7900002D00021E0B203E00121FBE7E0B2012159
:10E7A000FFF70EFE04E0002802D0E0B20021F7E7F8
:10E7B000641C172CD4DBFEBD1C8AFF1F074A0C23E8
:10E7C00043439B185A68002A01D0012904D09A6853
:10E7D000002A02D0002900D1104770471C8AFF1F71
:10E7E00008B509488368002B0CD01A7869460120C7
:10E7F0005B1CFDF720FE002804D00078C00701D084
:10E80000012008BD002008BD4456FF1F10B5034677
:10E810000B4A00200A21414389184988002905D064
:10E82000401CC0B20328F5D3002010BD0A210024EB
:10E83000414354540446403488184480037210BD48
:10E84000448CFF1F0A7802700A88120A42708A7884
:10E8500082704A88120AC2700A7902718A88120A82
:10E8600042718A798271C988090AC171082070478A
:10E87000F8B505460C4648680421FBF7ABFC217A45
:10E88000017021890346401C090A017021784170FA
:10E890002188090A8170207A001DC2B2FB2A36D86D
:10E8A0001C48854215D114461E460C20FBF750FC2F
:10E8B00001000CD090200870022008714D808E60FD
:10E8C0001548CC800078FBF71FFC00271DE01327BC
:10E8D0001BE05C2011496843441826464036307ED0
:10E8E000002806D008465C30416A0727491C41626F
:10E8F0000BE02146284600F095F90746307E0028B7
:10E9000003D121462846FBF7A7FC3846F8BD022074
:10E91000F8BD0000FEFF00008956FF1FC08CFF1FDE
:10E9200010B50A4A00210A234B439B185C88002C2F
:10E9300006D01B79834203D10A204143881810BDB9
:10E94000491CC9B20329EED3002010BD448CFF1F1F
:10E95000002141800170704770477CB504000FD0E2
:10E96000608800280CD00025009501951323E188CC
:10E97000207A172200F028F8FF2060726580257049
:10E980007CBDF8B5074615460E461020FBF7E0FBA8
:10E99000040017D0A0202070002060706680002D39
:10E9A00005D00C222946201DFBF742FB04E00C2277
:10E9B0000021201DFBF754FB21463846FBF7A4FB42
:10E9C0000020F8BD0120F8BDFFB581B01E461746F6
:10E9D00014200B9DFBF7BCFB04001AD0A220207072
:10E9E0006770029860800A9820716671002D06D0C9
:10E9F00020460C2229460830FBF71AFB05E020468A
:10EA00000C2200210830FBF72BFB21460198FBF775
:10EA10007BFB05B0F0BD022A1CD34B780A781B02A1
:10EA2000D21892B20280012A02D0022A06D00FE048
:10EA30008A78C97809025118418009E0CB788A7830
:10EA40001B02D21842800A79497909025118818043
:10EA50000020704701207047F8B506464D88002019
:10EA600070600A790C46022A12D029016048009190
:10EA7000415A002906D0009B1F18BB68002B01D00B
:10EA8000012A7DD05A486C304169491C4161A9E096
:10EA9000E288042A43D3A068437801781B02C9188E
:10EAA00089B20091C37881781B02C9188FB2017AAC
:10EAB000C079000208184F4948800099091D8A4210
:10EAC00020D1072F13D0052F11D0042F02D0062FED
:10EAD00025D10CE046482901405A002807D0284695
:10EAE000FDF730FA42486C300169491C0161009819
:10EAF000308137800321C943A068FBF76BFB70604E
:10EB00000020F8BD072F18D0052F16D0042F07D0EE
:10EB1000062F12D036486C30C168491CC16064E0D1
:10EB200033482901405A002807D02846FDF70AFA41
:10EB30002F486C300169491C01612D492D010020CD
:10EB400048536E180098B081B7800098FDF77EFAA0
:10EB5000B060002818D00321C943A068FBF73AFB36
:10EB6000E2880146224F121FB068FBF761FA785B1A
:10EB7000E1884018001F785338466C30016800E087
:10EB800008E0491C016030E019486C308169491C7B
:10EB900081612AE0E2888918009A89B28152BA8993
:10EBA00091421AD80546B868E2884018801AA168D0
:10EBB000FBF73EFA0098295AB889814215D1308175
:10EBC000B8883080B86870600099002068520848A2
:10EBD0006C304168491C416007E005486C30816831
:10EBE000491C81602846FDF7ADF90120F8BD000001
:10EBF000B08CFF1FA456FF1F022A01D001207047CE
:10EC00000A784978090251180180002070470A7873
:10EC100002704A7842708A78C97809025118418096
:10EC200070470000FFB50C4607463D49A120800013
:10EC3000096878434018FF30C130067E89B0154618
:10EC40003846FBF75FFE001DB04204D23846FBF7A2
:10EC500059FE001DC6B2B54207D82A4600213846E3
:10EC60000C9BFBF7FFFA0DB0F0BD31462846FBF7D1
:10EC700075FA2746403738740C996165014671432F
:10EC8000691AC9B202910C9904910299002901D024
:10EC9000401C3874002523E00299002904D0401E4E
:10ECA000A84201D1084600E03046E90005910391F1
:10ECB0006054FDF7DFF803990919486000281BD05C
:10ECC0000599625C0499FBF7B3F90598215C0498F7
:10ECD000081804901348C169491C6D1CEDB2C1614C
:10ECE000387CA842D8D8606D002803D0FBF754FACE
:10ECF000002060650020B6E7002038740646606595
:10ED000006E0F00000194068FBF746FA761CF6B200
:10ED1000AE42F6D30348C16A491CC1621320A2E780
:10ED20003409FF1F1C8DFF1FF7B586B016460D4630
:10ED30004878FFF7F5FD040010D0002727712878E8
:10ED4000012802D0132809D105E06A88314602A8BB
:10ED5000FFF761FE0AE02078032802D0002009B006
:10ED6000F0BD6A88314602A8FFF746FF06462046F6
:10ED700000F046F902A8019000972B78207A3246DD
:10ED80000699FFF721FE2046FFF7E2FD3046E6E751
:10ED9000FEB50446468801466846FFF75DFE054617
:10EDA000019800282FD068460088052806D004283E
:10EDB00009D0062807D0072805D026E06946304646
:10EDC00000F030F821E0810015480818014640396C
:10EDD000098E002919D02038807C6A463146FFF719
:10EDE000D0FD002811D168460088042803D00121F5
:10EDF0003046FDF743F8012D04D1A068002801D06A
:10EE0000FBF7CAF9FEBD012D04D1A068002801D08E
:10EE1000FBF7C2F901213046FDF730F8FEBD0000D6
:10EE2000348CFF1F30B50546088987B00C4604288E
:10EE300017D302A86168FFF7EAFE684640891728E1
:10EE400037D82189001D81421ED16846007AC1074A
:10EE500009D0626802A92846121DFFF765FF002845
:10EE600012D107B030BD6168091D122805D00020FD
:10EE700069460880497A6A4622E06846428903A8C2
:10EE8000FDF72CF8002803D02846FFF765FDE8E7DA
:10EE90000D4881880029E4D06946497A03AA019285
:10EEA000009169460B7A807900222946FFF78CFD94
:10EEB000D7E701216846018017214180417A6A46DF
:10EEC0002846FCF7BFFFCCE7348CFF1F70B5144C0D
:10EED00000262680A681A680A0683546002802D09C
:10EEE000FBF75AF9A5600E4C1034204640300574EB
:10EEF00045740576606D002802D0FBF74DF9656515
:10EF00005C20002546433419E8002018406800289A
:10EF100001D0FBF741F96D1C0A2DF5DB70BD000037
:10EF2000B08CFF1FFFB589B015460E461720129F03
:10EF3000FDF78CF8040021D0684606704570002F5C
:10EF400003D0201D0C99B84700E000206946488096
:10EF5000267065704888A070010AE1700522694634
:10EF60008A82001D0694888305A90998FFF780FC12
:10EF7000050004D02046FBF70FF900E013252846D2
:10EF80000DB0F0BDFFB581B01E46054601210A9FB8
:10EF90000B9C00F02BF9002811D02046FFF736FC1F
:10EFA00000280AD0C5800446077012484178491CE1
:10EFB0000A06120E427004D005E015250FE0142554
:10EFC0000DE001224270227100962846039B0299AF
:10EFD000FFF7A8FF050005D02046FFF7B9FC28463B
:10EFE00005B0F0BD23462146034A09330348FBF729
:10EFF0003FF9F4E7A456FF1F307500005BE90011EC
:10F0000010B50446407AFBF715F9FF20607210BD79
:10F0100010B500240F22835C5B0023438B54835C78
:10F02000521EDC0952B2002AF5DA10BDFFB581B0DC
:10F030001E4617460D46084600F04AF8002802D042
:10F04000112005B0F0BD0E4800F042F8040015D0C4
:10F050000A98A0710622E01D0B99FAF7E9FF658076
:10F060002771667101982070002060620C98E08121
:10F070000021284600F0CCF80020E2E71520E0E768
:10F08000FFFF000070B514460D46064600F020F85C
:10F0900000280BD0416A007900290CD0C20611D596
:10F0A00080070AD4002C08D0052070BD074886428E
:10F0B0000AD0142070BDC006F6D5887EA84203D2BF
:10F0C0000C2070BD0F2070BD002070BDFEFF000041
:10F0D000084A002128234B439B185B88834203D1B5
:10F0E0002820414388187047491C0906090EF1D0B1
:10F0F00000207047648CFF1F30B50B4C0B4B002178
:10F1000028224A43D5186D88A54206D09A5C8242CF
:10F1100003D128204143C81830BD491C0906090EF7
:10F12000EED0002030BD0000FFFF0000648CFF1F08
:10F1300010B500200B4C0C4B014628224243D2183C
:10F140005480401C117100065162000EF5D0064A31
:10F15000002028328300401CC0B2D1500528F9D3CA
:10F1600010BD0000FFFF0000648CFF1F0020074A55
:10F17000014628234B439B181B79002B01D0401CD0
:10F18000C0B2491C0906090EF3D07047648CFF1FFA
:10F19000074A00218B00D358002B05D0491CC9B267
:10F1A0000529F7D31320704789005050002070477D
:10F1B0008C8CFF1F10B5FFF78BFF040013D0608805
:10F1C000012100F025F8606A002801D0FAF796FFC7
:10F1D000282200212046FAF743FF0020C043608028
:10F1E0000020207110BD022010BD000010B50C469B
:10F1F0000649884206D0FFF76BFF002804D000794B
:10F20000204201D0012010BD002010BDFEFF0000F3
:10F21000F8B5084D0E4607460024A0002A58002ADB
:10F2200002D0314638469047641CE4B2052CF4D332
:10F23000F8BD00008C8CFF1FFFB581B00298FFF76E
:10F2400047FF040069D00298354986008A59002A90
:10F2500063D0136A1820002B00D03420936A002B4F
:10F2600000D01430049B002B00D01C30516A0029C0
:10F2700000D01630FAF76CFF05004ED0182200219E
:10F28000FAF7EEFE2620FBF791FF070000D1277862
:10F29000D0202870019868700A20A8700298A88071
:10F2A0000398A8711E482C4680591834006A00281B
:10F2B00008D01B49AC60895920461C34096A1C22BD
:10F2C000FAF7B6FE16488059806A002808D014491B
:10F2D000EC60895920461434896A1422FAF7A8FE92
:10F2E0000498002806D02C6120461C341C22049966
:10F2F000FAF79EFE0A488159496A002906D06C61D6
:10F3000080591622416A2046FAF792FEF8B2294641
:10F31000FAF7FAFE0298FDF7BFF805B0F0BD00005D
:10F320003C56FF1FFFB581B01D46174614200E9EA8
:10F33000FAF70EFF040020D0D020207001986070F2
:10F340000520A070E770002D05D006222946201D5B
:10F35000FAF76EFE04E006220021201DFAF780FE77
:10F360000A9860810B98A0810C98E0810D9820820A
:10F37000A67421460298FAF7C7FE05B0F0BDF8B5AD
:10F3800006461C4615460F460820FAF7E1FE010026
:10F3900009D0D02008704E70062088708D808C7146
:10F3A0003846FAF7B1FEF8BD007841078207C90F69
:10F3B000920F89000006C00E1143C0000843704739
:10F3C00001468A0008491020895800290AD00A6A93
:10F3D000002A07D08968002904D0107A097E884263
:10F3E00000D3084670470000AC56FF1F10B5024618
:10F3F000014620321031FAF741FF10BD10B5FAF77F
:10F400003DFF10BD7FB50D460446810009484058B8
:10F4100000280ED0014668314EC903966E460EC6CE
:10F42000037FC28801782846FDF7A4F8204600F043
:10F4300003F87FBDAC56FF1F70B5044600F0BEFC5C
:10F44000A500134C6059002821D0006A002801D083
:10F45000FAF754FE6059806E002801D0FAF74EFE8C
:10F460006059C06E002801D0FAF748FE6059006F5D
:10F47000002801D0FAF742FE6059406F002801D001
:10F48000FAF73CFE6059FAF739FE0020605170BD72
:10F49000AC56FF1F7FB5084D8400295910226846DD
:10F4A0002531FAF7C5FD2859044BC0886A46112159
:10F4B00000F014FC04B070BDAC56FF1F0102011136
:10F4C0007FB50C4C85006159002910D0694600F0C9
:10F4D00029FC60590178C088002901D0064B00E062
:10F4E000064B6A46072100F0F9FB04B070BD01200D
:10F4F000FBE70000AC56FF1F5D020111EF02011196
:10F5000070B50D46064600240AE0FAF7BDFE010A72
:10F510003155641CE4B2AC4202D23055641CE4B2F2
:10F52000AC42F2D370BD00007FB5084D840029596C
:10F53000102268463531FAF77BFD2859044BC08804
:10F540006A46112100F0CAFB04B070BDAC56FF1F23
:10F550003B02011110B5064A8300D258002A06D09A
:10F56000D288824203D1012901D1FFF765FF10BD86
:10F57000AC56FF1F70B50E4C06468500605900283A
:10F5800013D000782146002810D08868002804D0C5
:10F590004168002901D030468847605940781228D8
:10F5A00003D100213046FFF72DFF70BD4868EDE71D
:10F5B000AC56FF1F10B50A46024B112100F08EFB1E
:10F5C00010BD0000690101111CB5044668461346D0
:10F5D000017006221946401CFAF72AFD034B6A46C1
:10F5E0000821204600F07AFB1CBD00008B010111B0
:10F5F00010B50A46024B112100F070FB10BD00004F
:10F60000B101011110B586B0044668461346018069
:10F6100008221946801CFAF70BFD044B6A460B21A1
:10F62000204600F05BFB06B010BD0000D3010111C5
:10F6300010B50A46024B112100F050FB10BD00002E
:10F64000FD02011130B587B00446002069460875F7
:10F65000A06805782B00FAF7FDFC0C2C07070F12A9
:10F6600015181B1E2124272C00F0CAFE12281DD1BC
:10F6700006206946087529E000F094FE16E000F0C7
:10F68000B0FE13E000F09DFE10E000F048FE0DE03B
:10F6900000F074FE0AE000F062FE07E000F04EFEAB
:10F6A00004E000F025FF01E000F014FF002802D084
:10F6B00008E00720DEE760886A46294600F028FF58
:10F6C000694608756846007D002805D0608805A950
:10F6D00000F0F2FA07B030BD608800F043FBF9E7B4
:10F6E000F8B52B4D06468700E8590C46002807D090
:10F6F000C188B14204D14178062904D0112930D003
:10F70000002C36D03EE002782149002A25D08368BB
:10F71000026A5B69DC0704D0147BE40701D007218F
:10F7200005E09C0705D5147BA40702D5092141708B
:10F730002CE05B0704D5127B520701D50B21F6E7BD
:10F740008868002822D0416800291FD030468847A9
:10F75000E8594078122802D018E04868F1E7002103
:10F7600003E0002C00D0322421463046FFF74AFE49
:10F770000CE03046FFF7ACFC002803D001791022E2
:10F780001143017131462046FDF7BAFB0120F8BD57
:10F79000AC56FF1F70B501780124922902D0A02930
:10F7A00019D130E041780E2902D03E2913D10BE067
:10F7B00081881A4AD14205D18068411C007800F046
:10F7C00033F81EE000201CE0014680780124052863
:10F7D00003D0082811D000241DE01148007840070C
:10F7E00019D510480068002815D08368002B12D066
:10F7F000CA898888891D984703E088888979FFF736
:10F800006FFF044607E00546FFF71CFFA8680028C5
:10F8100001D0FAF7C1FC204670BD0000E8DFFFFF11
:10F82000DB55FF1FB056FF1F70B51D4C0546206805
:10F83000002825D0002D06D10278002A21D00822E8
:10F840000A30FAF7F5FB20682E46002817D0122060
:10F85000FAF77EFC05000DD0C12028706E7021687B
:10F860001022A81C891CFAF7E3FB2068294640787F
:10F87000FAF74AFC2068FAF741FC002020600120DA
:10F8800070BD0822801CFAF7D3FBFAF703FD0028AD
:10F8900001D00125D7E7216801200870EFE70000BB
:10F8A000A856FF1F0149486070470000AC56FF1F73
:10F8B000F7B588B016460446102200216846FAF7CC
:10F8C000CFFB334DA700E859002835D0C188A142AD
:10F8D00032D1017800292FD14278062A0FD0816ECB
:10F8E000002929D0088A112A19D0B04224D108222F
:10F8F00012310998FAF7A8FB01283CD01CE0024617
:10F9000001465532353104AB0C3000F000FC0028C4
:10F9100012D12046FFF754FD024604A930E0B04260
:10F9200006D1082212310998FAF78EFB01281BD064
:10F9300032212046FFF766FD2046FFF7C9FB050090
:10F940000CD0696A002909D0088AB04206D1082281
:10F9500012310998FAF778FB01280FD02046FAF700
:10F960009FFC01200BB0F0BD2046FFF729FDE959AF
:10F970000246896E04E0E859816E00E0696A8A7E79
:10F980006846FAF755FB20466946FAF78FFCE8E728
:10F99000AC56FF1FF1B582B00298694C85006059E2
:10F9A0000178002976D141788768066A062907D050
:10F9B000CA1F1300FAF74EFB050A48525B18720083
:10F9C0007969CA0706D0327BD20703D0806E00283F
:10F9D00013D019E0880702D5307B80073ED4480752
:10F9E00064D5307B400761D5FCF79CFD6159CA881E
:10F9F00001461046FFF71CFE58E01C20FAF76CFB8E
:10FA000061590028886653D060591022866E002103
:10FA10003046FAF725FB0298FFF7D2FC0146304644
:10FA2000FFF76EFDFAF730FC3082304608211230C5
:10FA3000FFF766FD0298FFF7C3FCB07660593146C8
:10FA4000C088FFF7B7FD33E0816E002932D00A4647
:10FA50001232098AC088FFF7D5FD2BE0FCF75CFD68
:10FA60006159CA8801461046FFF7C2FD3FE00120F8
:10FA70000190FCF74BFD009001280CD00020009075
:10FA80000198FCF735FD024660590099C088FFF7E0
:10FA90009BFD39E023E000200190F2E7072907D021
:10FAA000082907D0092922D00A292DD078690EE02B
:10FAB00008201DE07869810704D5317B890701D5CD
:10FAC000092015E0410721D401E00B2010E0C10519
:10FAD00020D5B189C9051DD50C2061594870FEBDDE
