:020000041FFFDC
:1000000000000000E54DFF1F9459FF1F9C59FF1F82
:10001000385BFF1F0000000000000000000000002F
:1000200000000000000000000000000000000000D0
:1000300000000000000000000000000000000000C0
:1000400000000000000000000000000000000000B0
:1000500000000000000000000000000000000000A0
:100060000000000000000000000000000000000090
:100070000000000000000000000000000000000080
:100080000000000000000000000000000000000070
:100090000000000000000000000000000000000060
:1000A0000000000000000000000000000000000050
:1000B0000000000000000000000000000000000040
:1000C0000000000000000000000000000000000030
:1000D0000000000000000000000000000000000020
:1000E0000000000000000000000000000000000010
:1000F0000000000000000000000000000000000000
:1001000000000000000000000000000000000000EF
:1001100000000000000000000000000000000000DF
:1001200000000000000000000000000000000000CF
:1001300000000000000000000000000000000000BF
:1001400000000000000000000000000000000000AF
:10015000000000000000000000000000000000009F
:10016000000000000000000000000000000000008F
:10017000000000000000000000000000000000007F
:10018000000000000000000000000000000000006F
:10019000753FFF1F0D40FF1FED51FF1F00000000C6
:1001A000000000000000000000000000000000004F
:1001B000000000000000000000000000000000003F
:1001C000000000000000000000000000000000002F
:1001D000000000000000000000000000000000001F
:1001E000000000000000000000000000000000000F
:1001F00000000000000000000000000000000000FF
:1002000000000000000000000000000000000000EE
:1002100000000000000000000000000000000000DE
:1002200000000000000000000000000000000000CE
:1002300000000000000000000000000000000000BE
:1002400000000000000000000000000000000000AE
:10025000000000000000000000000000000000009E
:10026000000000000000000000000000000000008E
:10027000000000000000000000000000000000007E
:10028000000000000000000000000000000000006E
:10029000000000000000000000000000000000005E
:1002A000000000000000000000000000000000004E
:1002B000000000000000000000000000000000003E
:1002C000000000000000000000000000000000002E
:1002D000000000000000000000000000000000001E
:1002E000000000000000000000000000000000000E
:1002F00000000000000000000000000000000000FE
:1003000000000000000000000000000000000000ED
:1003100000000000000000000000000000000000DD
:1003200000000000000000000000000000000000CD
:1003300000000000000000000000000000000000BD
:1003400000000000000000000000000000000000AD
:10035000000000000000000000000000000000009D
:10036000000000000000000000000000000000008D
:100370000D19FF1F00000000000000000000000039
:10038000000000000000000000000000000000006D
:10039000000000000000000000000000000000005D
:1003A0000000000000000000000000004521FF1FC9
:1003B000000000000000000000000000000000003D
:1003C000000000000000000000000000000000002D
:1003D000000000000000000000000000000000001D
:1003E000000000000000000000000000000000000D
:1003F00000000000000000000000000000000000FD
:0C04000001FF01FF01FF01FF41000000AF
:020000041FFFDC
:10183800A882FF1F3D19FF1F81840000F1280000C6
:101848000000000000000000000000000000000090
:101858000000000000000000000000004919FF1F00
:101868000000000000000000CD8400004D19FF1F9B
:101878004F19FF1F4F19FF1F4F19FF1F4F19FF1F48
:101888004F19FF1F4F19FF1F4F19FF1F4F19FF1F38
:101898004F19FF1F4F19FF1F4F19FF1F4F19FF1F28
:1018A8004F19FF1F4F19FF1F4F19FF1F4F19FF1F18
:1018B8004F19FF1F4F19FF1F4F19FF1F4F19FF1F08
:1018C8000000000000000000000000000000000010
:1018D8000000000000000000000000000000000000
:1018E8004F19FF1F000000004F19FF1F4F19FF1F5E
:1018F8000348854600F026FA00480047094BFF1FB9
:10190800A882FF1F09484838694601600430F0C0C2
:1019180044464D4656465F46F0C030BCF0BCF0C069
:10192800F0BCF0C044380249084700000004FF1F1B
:10193800C52BFF1F0448804704480047FEE7FEE721
:10194800FEE7FEE7FEE7FEE7092BFF1FF918FF1F7A
:10195800F8B502464A40D40F42004B0052085B08D3
:101968009A4202D20246084611464A0023D0C30DC5
:101978004A00DDB2120EAD1A202D35DA49020126D1
:10198800490AF6058A19002C00D0524220214F1B23
:101998001146B9402A411018C20D9A4221D0002C94
:1019A80017D0012D08DCDA05801AD20F8019D2076A
:1019B800DBB200F02FF9F8BDDA05801A01234000E8
:1019C8001B06C01880185A428018CA0F10434900D5
:1019D80007E04908C2071143DA05801A8019400850
:1019E800801800F00FF9F8BD61000122511A001BA0
:1019F800F7E70122D2075140AAE70122D207504057
:101A0800A6E7024670B54A40D30FDB0740002DD049
:101A18004A002AD0010E140E000212020919400AC7
:101A2800520A8418E50104465443000A120A2E0497
:101A38005043A4194219200CC543AA18120C0125B9
:101A4800AD03521C521912047F39240400D0521CD1
:101A5800104301D44000491EC2B20C06C009201828
:101A6800401C4008802A02D003E0002070BD4008D6
:101A78004000002900DA0020184370BD420005D05C
:101A88004200120E52428A4201DB00207047C9050B
:101A980008187047F0B51FB488B00B99099800244E
:101AA80048400999C00F490049080991C0070B9996
:101AB8000090490049080B9109990898A6460843DF
:101AC8001CD00B990A98084318D0099801244000A3
:101AD800420D4800410D099824050003000B2043DE
:101AE80009900B980003000B20430B9050181C49D9
:101AF8004018002201901446104605E000200146D7
:101B08000DB0F0BD032801DA034600E003239C462C
:101B1800C11A0AAE0AE05F0008ADED5B4F00F75B43
:101B28007D430027AA187C41491C5B1E6145F2DDF4
:101B3800410004AB5A522104120C0A43240C401CE5
:101B48000828DFDB01980290009970460191009007
:101B5800059B049A0799069800F0A2F8D0E70000C0
:101B68000DFCFFFF10B500229623114600F052F835
:101B780010BDC20F410040020123400ADB05D20715
:101B8800090EC0187F2901DA00207047962903DC66
:101B98009623591AC84001E096398840002AF4D0A3
:101BA80040427047C20FD207400040080BD0C10D19
:101BB8000723DB01C91840020905400A1143C2087E
:101BC800400711437047002001467047CB0FDB07E1
:101BD800490010B5490802460A4307D00A0D0724F0
:101BE8000903E401090B121B002A01DC002010BDC7
:101BF800C900440F0C43C100E018D205801800F05A
:101C080001F810BD002904DA401C490001D1400840
:101C18004000704770B40024050C05D1102400045E
:101C280002D1002921D01124050E01D10002083467
:101C3800050F01D10001241D850F01D18000A41CCE
:101C4800002801DB4000641C002908D020252E1B39
:101C58000D46F540A14000D0012129430843010663
:101C68001B1B000ADB1D02D5002070BC7047DB057A
:101C7800181880180029F8DA401C4900F5D170BC02
:101C880040084000704710B5002B08DA0024401CBB
:101C9800614192185B411A4301D14008400010BDD0
:101CA800F0B51FB482B005460C0003D0084600F01A
:101CB8004FFF02E000F04CFF203002460090214622
:101CC800284600F051F8049B059A04460F4618432D
:101CD8001143084314D0184610431BD000984021E4
:101CE8000A1A1846059900F04FF805460E46009A5C
:101CF8000599049800F038F8084305D0012004E05D
:101D08002046394607B0F0BD0020C11705430E43F1
:101D18002C43374300990E986305401A7905E40A65
:101D280000220C43FD0A0A3002D500200146E9E7EB
:101D38000105101969410C9C0D9D00196941FFF7B7
:101D4800A2FFDFE7064C0125064E05E0E36807CC55
:101D58002B430C3C98471034B442F7D3FFF7CCFD23
:101D6800FC5AFF1F2C5BFF1F10B5202A04DB01461D
:101D7800203A9140002010BD914020239C1A034630
:101D8800E3401943904010BD10B5202A04DB0846F3
:101D9800203AD040002110BD0B46D340D04020242B
:101DA800A21A91400843194610BD70B58C180578E1
:101DB800401C6B075B0F01D10378401C2A1106D128
:101DC8000278401C03E006780E70401C491C5B1E1C
:101DD800F9D12B0705D40023521E0DD40B70491CD2
:101DE800FAE70378401CCB1A921C03E01D780D70AB
:101DF800491C5B1C521EF9D5A142D8D3002070BDE6
:101E080003B40148019001BDADAE000003B4014820
:101E1800019001BD456B010003B40148019001BD6B
:101E28000189000003B40148019001BDC53F0000CD
:101E380003B40148019001BDE94C010003B4014815
:101E4800019001BDC95C010003B40148019001BDC6
:101E5800DD3F000003B40148019001BD8944000042
:101E680003B40148019001BD2144000003B40148B6
:101E7800019001BD750F000003B40148019001BD38
:101E88001907010003B40148019001BDBD0B010011
:101E980003B40148019001BDDD0C010003B4014801
:101EA800019001BDDD0A010003B40148019001BDA4
:101EB8000134010003B40148019001BD0934010057
:101EC80003B40148019001BD0534010003B4014881
:101ED800019001BDF535010003B40148019001BD31
:101EE800F935010003B40148019001BDE91701006B
:101EF80003B40148019001BD6137010003B40148F2
:101F0800019001BD01D7000003B40148019001BD53
:101F18006DF6000003B40148019001BD791201007B
:101F280003B40148019001BD4DF9000003B4014814
:101F3800019001BDC1F7000003B40148019001BD43
:101F4800116E000003B40148019001BD090E0000A4
:101F580003B40148019001BDE1AC000003B401489D
:101F6800019001BDE53A010003B40148019001BDAB
:101F7800F54E010003B40148019001BD434D010035
:101F880003B40148019001BD6189000003B4014810
:101F9800019001BDED4A010003B40148019001BD63
:101FA800A54F010003B40148019001BD855201000D
:101FB80003B40148019001BDB30E000003B4014809
:101FC800019001BDCD4C010003B40148019001BD51
:101FD80075A9000003B40148019001BD9DA9000046
:101FE80003B40148019001BD810E000003B401480B
:101FF800019001BD21A9000003B40148019001BD71
:10200800B54C010003B40148019001BD45500000E2
:1020180003B40148019001BDC56D010003B4014836
:10202800019001BDE9D4000003B40148019001BD4D
:10203800C115010003B40148019001BDCD0C010098
:1020480003B40148019001BD71B0000003B4014818
:10205800019001BDD9B0000003B40148019001BD51
:102068005976010003B40148019001BD53B900003D
:1020780003B40148019001BDED6B010003B40148B0
:10208800019001BDC9A9000003B40148019001BD38
:10209800EDA5000003B40148019001BD3D4B0100CE
:1020A80003B40148019001BD154D010003B4014876
:1020B800019001BDB14E000003B40148019001BD7B
:1020C8002D11010003B40148019001BD89140100DC
:1020D80003B40148019001BD810E000003B401481A
:1020E800019001BDD1A5000003B40148019001BDD4
:1020F800156B010003B40148019001BD2D6C01006E
:1021080003B40148019001BD6911010003B40148FD
:10211800019001BD8512010003B40148019001BD81
:102128008D11010003B40148019001BDE5120100C1
:1021380003B40148019001BDF90D010010B50F4825
:1021480080680007000F062808D008DC02280CD099
:10215800042803D10121002002F03CF910BD072812
:1021680007D00C28FAD10221F5E7002002F05EF929
:1021780010BD02484030C06B10BD00000040004058
:10218800F8B5C849C64A002005464A608300401C85
:10219800D550FF28FADD4868C34A014680318A6075
:1021A8006E22C262C14A1278002A01D07F22C2621E
:1021B8000A22BF4B02651A788263BE4AC2611A7846
:1021C8001024022A06D01A78032A08D01A78042A7A
:1021D80005D005E0B84AC2610422026200E0046248
:1021E800B64A42611922920182613722CA603627B3
:1021F8002D26C7630822466402644F6032270F60A9
:102208003B27CF634527CF640D4639274035C4C5E2
:1022180032270F6502270F6642270835C4C51E27D7
:102228004F66CE668A6605264E6742260E675A2690
:102238000E614A613C228A61AF22D2000260A04A44
:1022480002631A78022A06D01A78032A05D01A7867
:10225800042A04D005E0152202E00E2200E00C2238
:102268004260FF222D328260C260FF22F532026195
:10227800944A82647D22D200934ECA67C664426241
:10228800924A82627322C265062242658265C21D35
:102298000826F9320227166047664B27FF00876633
:1022A8000927C7668A4F0767466700258567BD10F7
:1022B800884F854EC5673E601E78022E06D01E7870
:1022C800032E07D01B78042B08D00AE01A23CB6111
:1022D800212301E01323CC610B6202E00E230C6280
:1022E800CB61784B8B627D23DB008B6764234B6269
:1022F8000523CB6202230B63C8234B6300238B6344
:102308003821516074491164744991614B21C900A5
:10231800D161734911627D2109015162D3661E2181
:10232800136791666A499165156655645567D16565
:102338006149FF30963191676A49D1676A4A8130AD
:10234800026082604160FF21F531C1600161684827
:102358006649534A81606749803A11616449664A0F
:1023680080318A62654ACA62654A8261654AC26288
:10237800654A02636548C8615D49654840318861BE
:102388006549644888605A486449803841606449AE
:102398004163FFF735FD0120FFF738FDF8BDF3B5C0
:1023A8000746604881B0C1695F4A1140FF31093171
:1023B800C161002613E000252C461120FFF72CFDF3
:1023C8005848406A8007800F610088402843641C91
:1023D800E4B20546102CF0D301C7761CF6B2029879
:1023E8008642E8D3FEBD10B52E4C607800280AD18D
:1023F80004214E48FFF7D3FF4C4804211030FFF763
:10240800CEFF0120607010BDF0B500248BB00D46E2
:102418000646102902D901200BB0F0BDFFF7E3FFF3
:10242800424900200A5C401C1419C0B21028F9D394
:10243800002C03D0102D03D90B20EDE70E20EBE77D
:102448003B483A4C0023006802A91034E25CC75CA0
:102458007A40CA545B1CDBB2102BF7D306AA334868
:10246800FFF7E0FC102D00D910252A4606A93046B2
:10247800FFF7DEFCFFF7E2FC216840182060FFF759
:10248800DDFC616840186060FFF7D8FCA16840185F
:10249800A060FFF7D3FCE1684018E0600020BBE7CC
:1024A8000004FF1F945BFF1FA882FF1F2C5BFF1F08
:1024B8004A0AFF1F220B00004605000080C3C9011D
:1024C8009A02000050C30000F81100006A180000CA
:1024D800204E0000F009FF1F0040001168100000A6
:1024E800C409000040420F00102700008946FF1F62
:1024F8000001FF1F6528FF1F794EFF1F5951FF1F5D
:102508007325FF1F0527FF1F8D25FF1F6D58FF1F10
:10251800CD44FF1FB129FF1F0002FF1FCF44FF1F3B
:10252800DD44FF1F40F0004000FEFEFF747EFF1FE9
:10253800B45BFF1F70B5012214E055002B18403B17
:10254800445BDE8FB4420CD2531E465302E02D1872
:102558006E805B1E5D00465BA642F8DC5B001B18C4
:102568005C80521C8A42E8DB70BD70B50124A40768
:10257800A36810252B43A360FFF766FCA068A84357
:10258800A06070BDFFB5064601208007816881B054
:102598001D46102211438160554F00203860304697
:1025A800D730FFF757FC9D20800034468059FF360E
:1025B800CA3401360028306822462CD00121FFF7A2
:1025C8004FFC4B4F2078F863641C2046FFF74EFC05
:1025D80000BA000AE17800020843B863241D2046C7
:1025E800FFF744FC00BA000AE17800020843786368
:1025F800241D2046FFF73AFC00BA000AE1780002E1
:10260800084338630398029900020843F860039F5F
:1026180000243F1D0EE00021D1E72819401CFFF7D8
:1026280025FC0102285D0143324820180160241D61
:10263800A4B23F1F042FF0DA032F04D0022F08D0D2
:10264800012F0CD011E02819FFF710FC0102090A2C
:1026580006E0291948780A780102114300E0295D4B
:10266800244820180160241DA4B20021214F02E053
:10267800E0190160241DFF2CFADD1D481E4A426046
:102688000F220261012202604269002AFCD04269DD
:10269800930701D4520708D40120800782681021CB
:1026A8008A438260002005B0F0BD01600020039AD3
:1026B80011E0C11909682954401C80B20B0A2B5437
:1026C800401C0B0C80B22B54401C80B2090E2954BC
:1026D800401C80B2121F002AEBDC3068401C3060BE
:1026E80001208007826810218A4382600120DAE78E
:1026F8000000044000010440080F0000FFB5054633
:1027080001208007816881B01E4610221143816034
:10271800504F002038602846D730FFF79BFB9D209C
:1027280080002C464059CA3480350028E86F22467C
:102738002BD00021FFF794FB464F2078F863641CE8
:102748002046FFF793FB00BA000AE178000208432D
:10275800B863241D2046FFF789FB00BA000AE17818
:10276800000208437863241D2046FFF77FFB00BA68
:10277800000AE178000208433863039802990002CE
:102788000843F8600024039F0EE00121D2E73019C6
:10279800401CFFF76BFB0102305D01432E482018F7
:1027A8000160241DA4B23F1F042FF0DA032F04D0C8
:1027B800022F08D0012F0FD014E03019FFF756FB75
:1027C8000102090A09E0311948780978000208432A
:1027D80021496118086003E0315D1F482018016035
:1027E800241DA4B200211C4B02E0E0180160241D46
:1027F800FF2CFADD0F221748120242600F220261F5
:10280800012202604269002AFCD00160039A00207C
:10281800121D11E0C11809683154401C80B20C0A1D
:102828003454401C0C0C80B23454401C80B2090E45
:102838003154401C80B2121F002AEBDCE86F401CA8
:10284800E86701208007826810218A43826005B00A
:10285800F0BD00000000044000010440F8B5FFF797
:10286800EDFA494908600420FFF706FBFFF70AFB69
:102878000646C00715D0454900200860444800783E
:10288800012811D0032813D0042815D0022817D006
:10289800052819D0FFF7FCFA3E4F044601281AD044
:1028A8001EE0FFF7FBFAF8BD3046FFF7FDFA0EE031
:1028B8003046FFF7FFFA0AE03046FFF701FB06E073
:1028C8003046FFF703FB02E03046FFF705FB40B256
:1028D8000128E8D035E03878052809D0062807D03F
:1028E8002D482E4D0078022806D0052804D00AE08D
:1028F800304601F0B9FF24E0022C04D1A87B00285F
:1029080007D0022805D03046FFF7ECFA022C03D096
:1029180017E0304601F0B4FF3878012811D170056E
:102928000FD4687BC10701D0252004E0800701D5BA
:10293800262000E02720297D814202D93220FFF796
:10294800D7FA154C2078042804D003280ED007287D
:1029580011D014E0FFF7D2FA002810D0FFF7D4FA0C
:102968005820FFF7D7FA0220207008E00C48807C36
:10297800FFF7D6FA03E00B48807BFFF7D7FA03206E
:10298800FFF77AFAF8BD00009C09FF1F9809FF1F9E
:102998009009FF1F1C09FF1F2309FF1FA60BFF1F1C
:1029A800BC0BFF1FD40BFF1F10B5FB2908D8084B21
:1029B8009A4205D81B2903D3FF2349339A4201D2EF
:1029C800302010BD034B19825A82FFF7B5FA10BDAB
:1029D800480800008410FF1F002805DBC106C90E47
:1029E80001208840014908607047000000E100E0CC
:1029F8008307FF22DB0E9A408907090E99400028B9
:102A08000BDA0007000F0838830808489B001818DD
:102A1800C36993430B43C3617047830804489B0011
:102A28001B181868904308431860704700ED00E0D1
:102A380000E400E08307FF22DB0E9A408907090EB5
:102A4800994000280BDA0007000F08388308084867
:102A58009B001818C36993430B43C36170478308ED
:102A680004489B001B181868904308431860704777
:102A780000ED00E000E400E08307FF22DB0E9A404F
:102A88008907090E994000280BDA0007000F08385B
:102A9800830808489B001818C36993430B43C36114
:102AA8007047830804489B001B1818689043084324
:102AB8001860704700ED00E000E400E08307FF22A3
:102AC800DB0E9A408907090E994000280BDA0007A7
:102AD800000F0838830808489B001818C3699343F7
:102AE8000B43C3617047830804489B001B18186890
:102AF800904308431860704700ED00E000E400E0F0
:102B0800024901480860704740787D01905BFF1FCB
:102B180010B57D21C003C900FFF714FAFFF77CF94F
:102B280010BD000030B5084CE16A8A0807498A1AC6
:102B38008D1AE36A9B08CB1A934201D39B1A00E0D3
:102B4800EB188342F5D930BD00100040FFFF3F006D
:102B58002021020C01D010211046020A01D0104693
:102B68000839020901D01046091F820801D0104611
:102B7800891E420801D0881E7047081A704702E073
:102B880008C8121F08C1002AFAD1704770470020F0
:102B980001E001C1121F002AFBD170471CB569462C
:102BA8000120FFF7D5F9012000900348019000F0BB
:102BB800CFFB01201CBD0000BB0B0000044629A070
:102BC800FFF7CCF92DA0616AFFF7C8F92FA0A16A19
:102BD800FFF7C4F931A0E16AFFF7C0F933A0216B10
:102BE800FFF7BCF935A06168FFF7B8F937A0A1680D
:102BF800FFF7B4F939A0E168FFF7B0F93BA0216904
:102C0800FFF7ACF93DA06169FFF7A8F93FA0A169FA
:102C1800FFF7A4F941A0E169FFF7A0F943A0216AF1
:102C2800FFF79CF945A0616BFFF798F947A0216869
:102C3800FFF794F949A0A16BFFF790F94BA0E16B5E
:102C4800FFF78CF94DA0216CFFF788F94F484168D0
:102C58004FA0FFF783F952480068002800D080474A
:102C6800FEE700005B48617264206661756C742041
:102C780068616E646C65725D0A0000005230202045
:102C8800203D203078253038780A00005231202045
:102C9800203D203078253038780A00005232202034
:102CA800203D203078253038780A00005233202023
:102CB800203D203078253038780A00005234202012
:102CC800203D203078253038780A00005235202001
:102CD800203D203078253038780A000052362020F0
:102CE800203D203078253038780A000052372020DF
:102CF800203D203078253038780A000052382020CE
:102D0800203D203078253038780A000052392020BC
:102D1800203D203078253038780A000052313020A4
:102D2800203D203078253038780A00005231312093
:102D3800203D203078253038780A00005231322082
:102D4800203D203078253038780A00005350202064
:102D5800203D203078253038780A00004C52202059
:102D6800203D203078253038780A00005043202054
:102D7800203D203078253038780A00005053522002
:102D8800203D203078253038780A000000ED00E03A
:102D980049435352203D203078253038780A0000C6
:102DA8008C5BFF1F10B5FFF7F9FE002802D0024820
:102DB800804710BDFEE70000E1A200000A4610B5FA
:102DC8000146002001F0BEFA10BD000070B5A0B0A9
:102DD80004460022012100F0B7F81949C86B062201
:102DE8009043001DC863FF202D30FFF79BFEA00015
:102DF800144A002180188038134C856F6B46880070
:102E08002A581A501605360D26521201120D0019AD
:102E1800491CC9B242801D29F1D300F06BF93A214F
:102E28000948FFF787FB002118204200A25A401CDE
:102E38005118C0B22828F8D30803000C20B070BD80
:102E480040F000407C59FF1FE87BFF1F04240D4D14
:102E5800FF2691360420FFF7B9FF0146002301221F
:102E6800384601F0DFFE2946FEF7CBFDFEF781FE6E
:102E78000246214604A000F053FA3046FFF748FE08
:102E8800E8E7000000007A44636825642025642090
:102E98006D76200A00000000194908700021022000
:102EA80000F01AFD0121022000F046FD01210D204D
:102EB80000F012FD00210D2000F06AFE002201231F
:102EC8000221104600F024FF0321002000F052FFE9
:102ED800FF210C4A2331002000F064FF00F07EFF40
:102EE800FF20F530FFF714FE00F090FF064801F0D0
:102EF8005FF97D21C900052001F070F9FFF7A6FFF1
:102F0800305BFF1FAE0500004155FF1F10B50C4692
:102F180008040BD50B480078FFF726F8002801D0E5
:102F2800FFF728F80120C003604010BDA00602D5B5
:102F38002020484010BD080601D5FFF787FF002074
:102F480010BD0000305BFF1FF8B5694C15462268BC
:102F580001239B041A432260626880231A4362603B
:102F680062689B039A43626062681B121A4362603C
:102F7800E26B10231A43E263A268E0239A434308F2
:102F88005B0120331A43A260594F01230A025E1BDA
:102F9800801E403FC9020300FEF7F2FF06041E41EF
:102FA8005B758F38A0680121C9028843A060A068BA
:102FB800C91088431043A06001210E2000F0ECFBEB
:102FC800386A012149028843690208433862386A2D
:102FD80002218843710089E0A068FF2201329043F2
:102FE800A060A068D20090430843A0600121072098
:102FF80000F0D2FB386AFF210131884329020843D7
:103008003862386A4008400030433862A0680821B6
:103018000843A060A06801210843A060F8BDA0682B
:103028000121C9028843A060A068C91088431043E1
:10303800A0600121082000F0AFFB386A0121C90215
:103048008843E90208433862386A08218843F10056
:103058004CE0A068FF2201329043A060A068D20033
:1030680090430843A06001210F2000F095FB386AC7
:10307800012189028843A90208433862386A042179
:103088008843B10032E0A0680121C9028843A060EA
:10309800A068C91088431043A06001210D2000F0EA
:1030A8007BFB386A0121C9038843E9030843386276
:1030B800386A80218843F10118E0A068FF220132B4
:1030C8009043A060A068D20090430843A06001210B
:1030D800092000F061FB386A0121090388432903AC
:1030E80008433862386A10218843310108438CE765
:1030F80040F00040014900200862704700F000409D
:1031080004480168FF22120291430122D2031143AD
:10311800016070471CE400E010B5FEF737FF01209E
:10312800FEF73AFFFEF73EFF002010BDF8B52E4827
:103138000078FF2821D02D4E3068012189040843EA
:103148003060F0692A4908402830F0610320FEF712
:1031580063FE706AC503ED0B0320FEF75DFE706A1F
:10316800C403E40B0320FEF757FE706A214FC00327
:10317800C00BA54205D3214604E03C20FEF74CFED7
:10318800F8BD2946814200D30146A54201D32A460B
:1031980000E02246824200D20246EB19C32B0DD230
:1031A800144BDB439C4209D9134DAC4206D29842DA
:1031B80004D9A84202D2511A132908D32546044635
:1031C8000320FEF729FE706AC003C00BD1E7142064
:1031D800FEF722FE706AF169C003C00B0822914312
:1031E800F16106498860F8BDAD5BFF1F40F0004003
:1031F80000FEFEFF91FCFFFF32040000945BFF1FFE
:10320800F8B53C4800783C4C8021FF282DD03B4D38
:10321800002028612068CA0210432060384F606887
:103228008021084360600320FEF7F6FD2869401CF2
:103238002861606801210904084360600026E0698C
:10324800304938404018E0610320FEF7E5FD606A28
:10325800E169C003C00B08229143E161A968062215
:103268005143814208D3091A07E060680843606047
:103278000320FEF7D1FDF8BD411A3C2909D2E269C5
:10328800012109048A43E26162688A436260E86056
:10329800F8BD761CF6B2052ED1D3E16901200004F1
:1032A8008143E16161688143616028692E46052890
:1032B80008D3BFF34F8F15491348C860BFF34F8F2A
:1032C80000BFFDE760688021884360600320FEF747
:1032D800A3FDE06938402830E0610320FEF79CFD3B
:1032E800606AC003C00BB060E16908208143E161F6
:1032F80095E70000AD5BFF1F40F00040945BFF1FA7
:1033080000FEFEFF280001000400FA0500ED00E0C1
:1033180010B528210148FEF74BFE10BD687CFF1F41
:103328000FB410B503AA0448029901F0B5FA10BC0D
:1033380008BC04B018470000C52DFF1F38B5034B63
:1033480000240FCB009400F0CBFF38BD285AFF1F94
:1033580070B58AB000241E4D04940594287801287D
:1033680006D004A90120FEF7F3FD002802D00020B2
:103378000AB070BD049800900598019015488168BE
:103388000291C0681349039006AA10316846FEF7F7
:103398005BFD104E10222036314606A8FEF70EFEC1
:1033A800002811D0012028700B4A31466846FEF7E4
:1033B8004BFD04940020694605948200401C8C5003
:1033C8000428FADB0120D3E7FF202870CFE70000AC
:1033D800B85BFF1F00290011947EFF1FF0B52C4831
:1033E80095B0C16B8F05416BBF0D490A4902416316
:1033F80028484078B84244D1022404AE0125A540AB
:103408003D4235D02248426BAA4342630020E10185
:103418008C466246810052181F4951188A68130564
:103428001B0D4200B352896892190901090D401C0D
:1034380051801D28EDDB164801238563154908785E
:10344800002815D0E00701D0601E00E0601C820053
:1034580051184968002907D06A46009310711D2049
:1034680002961073684688470948416B29434163AF
:10347800641C072CC2DD07488078002801D100F0C1
:1034880071F80348416B054A1143416315B0F0BD1B
:1034980000000540687CFF1F00040540FF01000094
:1034A80010B50448C16B034A40321068D06000F080
:1034B800B3FB10BD008000400648006AC00708D072
:1034C80004481030C06804480168002901D005206C
:1034D80008477047401000404C5BFF1F0648406B90
:1034E800C00708D004482430C0680448016800298F
:1034F80001D0062008477047401000404C5BFF1F72
:1035080010B50F4880680007000F062808D008DCAF
:1035180002280CD0042803D10121012000F05AFF11
:1035280010BD072807D00C28FAD10221F5E70120A1
:1035380000F07CFF10BD02484030C06B10BD000099
:103548000090004010B5054901200870044A002188
:10355800112000F0EDFCFFF7DBFE10BD3C5BFF1F08
:103568000931FF1FF8B523480078002840D02348C8
:10357800214941630122224B52071A60214B002244
:103588005A638163C26B002AFBD11F4DA8680821CA
:103598008843A86068688902884368601B4E0024D5
:1035A800A00080194068002811D01249E0B2891D96
:1035B8000F5CFF2F0BD00021384600F0EDF80021FA
:1035C800384600F089F90021384600F0B5F9641C46
:1035D800092CE5DBA86840084000A860112000F02D
:1035E8003BF8FFF795FE112000F0D8FC0020F8BD4D
:1035F8001220F8BD3C5BFF1FFF01000000000540E2
:1036080080E100E0C003FF1F40F00040687CFF1F1E
:1036180038B5FEF7D9FC01229207936A0824009472
:10362800002B01D1012090620A4802210160009913
:103638004D1E0095FBD2032101600094641E009486
:10364800FCD200210160002B00D19162FEF7C2FC80
:1036580038BD000000C00040012189070122202850
:1036680004D28B68824093438B607047402805D210
:103678004B692038824093434B6170476028FCD2E5
:103688000B6A4038824093430B62704701229207CD
:103698000121202804D2936881400B43936070472E
:1036A800402805D25369203881400B435361704745
:1036B8006028FCD2136A403881400B43136270477C
:1036C800012110B589070122202813D20346153B92
:1036D800012B07D80A68202082430A600A6802433F
:1036E8000A6010BD0B68824093430B600868104362
:1036F800086010BD402814D20346353B032B07D879
:10370800CA6810208243CA60CA680243CA6010BDF2
:10371800CB68203882409343CB60C8681043C860A8
:1037280010BD6028FCD24B6A4224201A8240934381
:103738004B62486A1043486210BD0000F7B5400369
:103748001121400B090646188C01A56A1746002D61
:1037580009D1FEF739FC0F49022008606062012098
:10376800A062FEF737FC002003E0325C01990A549E
:10377800401CB842F9D3002D09D1FEF725FC0549B4
:103788000020086003216162A062FEF723FC00208C
:10379800FEBD000000C0004030B5C21F0A2A01D398
:1037A800062030BD0124074D9440002905D0002192
:1037B80000F0C2F82868204301E02868A043286088
:1037C800002030BD00380040054B01228240D868F7
:1037D800002901D0104300E09043D86070470000F2
:1037E8000038004070B5FF2814D08207D30E840833
:1037F800094A5E1DA400A518AC69F21A0126521CDC
:103808009640761E9E40B44399400C43AC6101211A
:10381800FFF7DAFF70BD00000038004010B5114C0A
:103828002078002801D0072010BDFF212D310D4838
:10383800FEF7BEFB012020700B4900200863486397
:103848000A490862486202211020FFF715F9012091
:10385800074900040860074A07490D2000F068FB83
:10386800002010BD907CFF1F0080004080F00040C9
:1038780000E100E0913AFF1F053AFF1F10B5172835
:1038880001D3052010BD0C4B9C6B012282401046D1
:1038980020439863586B90435863DC6B012907D029
:1038A80020469043D863186B02431A63002010BD6A
:1038B80010462043F6E7000000800040054B012237
:1038C800801E82405869002901D0104300E09043CF
:1038D800586170470038004070B5044614480E46D9
:1038E8000519002902D16878012808D0002120464E
:1038F800FFF76AFF022C04D0032C02D005E0072052
:1039080070BD01212046FFF7D9FF00212046FFF7AF
:1039180043FF08490120A0404A68012E05D0824390
:103928004A6002206870002070BD02434A60FAE7CE
:10393800907CFF1F0080004070B5420083180D4A3C
:103948009C18A5786478D65C641B0122641CA2408C
:10395800521EAA40084BA940132806D2B000C0182E
:10396800836893430B43836070BD58699043084351
:10397800586170BDB459FF1F00F0004007494A68FC
:10398800012383401A4201D0096802E0034940310B
:103998000969C140C807C00F704700000080004097
:1039A80070B5154C45002E1976780123114AB3409D
:1039B80000290ED0142809D0152807D0162805D0BC
:1039C800605780008018816819430DE050691843DA
:1039D8000EE014280AD0152808D0162806D06057FB
:1039E8008000801881689943816070BD5069984350
:1039F800506170BD00F00040F959FF1F70B5104DBF
:103A080000242E197078012803D1E0B20121FFF7B4
:103A1800C7FF707802280ED1E0B2FFF7AFFF01218F
:103A28004140E0B200F078F8E0B2FFF7A7FF0C21C0
:103A3800614349194876641C172CE2DB70BD00000D
:103A4800907CFF1F10B50F4C0D4A0123245C1428ED
:103A580009D2106A002902D0A340184301E0A3400C
:103A68009843106210BD506A002903D0203CA3403F
:103A7800184302E0203CA3409843506210BD000068
:103A880080F000409D59FF1F70B502211020FEF7FD
:103A9800F3FF01201E490004086000241D4D07E0C3
:103AA800022C01D0032C03D1E0B20121FFF706FF5D
:103AB8002819407801280BD1E0B2FFF75FFFE2B286
:103AC8000146104600F064F8E0B20021FFF768FFF5
:103AD8000C2060434019007E002814D0E0B200F0AA
:103AE80069F8E6B23046FFF749FF002801D0012106
:103AF80000E000210C2272435219527E824202D009
:103B0800304600F0BDF8641C172CC9DB70BD0000FE
:103B180000E100E0907CFF1FF8B542008318184AC6
:103B2800D55C9A189278521ED4B2164A1218527856
:103B3800022A21D1144EB76B0122134683401F433A
:103B4800B763124B13280ED2002906D0A900C91852
:103B58008B68A24093438B600BE0A900C9188B685F
:103B6800A2401343F7E70029596906D0A2409143C0
:103B780059610121FFF766FFF8BDA2401143F7E73D
:103B8800B459FF1F907CFF1F0080004000F00040E8
:103B9800012200B5064B82400029196801D0114363
:103BA80000E0914319600121FFF796FE00BD000077
:103BB8000080004070B50446164821460C22514347
:103BC8000D186A680026002A02D1AA68002A1CD0AB
:103BD800104B0222183B1B195A7001224254002133
:103BE8002046FFF779FE6868002808D0A8680028F2
:103BF8000DD02046FFF7C2FE002808D00026314627
:103C08002046FFF73BFE002070BD122070BD012644
:103C1800F5E70000A87CFF1FF3B5184E002481B01B
:103C2800074601252846A040384223D0029908407B
:103C380000D001200090E0B2009900F021F80C209B
:103C4800604380194168806800290ED0002807D099
:103C58000098002802D00021E0B203E00121FBE730
:103C6800E0B20121FFF70AFE04E0002802D0E0B22A
:103C78000021F7E7641C172CD4DBFEBDA87CFF1FCE
:103C8800074A0C2343439B185A68002A01D001298C
:103C980004D09A68002A02D0002900D11047704742
:103CA800A87CFF1F30B585B0142217496846FEF777
:103CB80097F900246D46600041194978285CFFF7A0
:103CC8003BFE641CE4B20A2CF5D310484169C200DB
:103CD8009143052212048918416141690122520663
:103CE8001143416141690322520591430122520562
:103CF80089184161072000F0BBF800F0C5F800F012
:103D0800A1F805B030BD00006859FF1F00F0004061
:103D1800F8B507461C4615460E461220FFF7B6FCB6
:103D28000C20474312483818416849084900416047
:103D380041680722120391433203114341604168ED
:103D4800FF22013291432A02114341604168102247
:103D5800914322011143416041680122D207114376
:103D6800416000221146122000F0E2F8F8BD000080
:103D780000E0004070B504460D460A30C1B228463E
:103D8800FFF730FD0C2005496043401841680122C7
:103D9800114341600248055570BD000000E0004035
:103DA800545BFF1F10B5914215D80C2358430A4B9A
:103DB800C018446801231B049C43446084680904B8
:103DC800A4B20C4384608168090C09041143816022
:103DD80041681943416010BD00E0004010B5094C2E
:103DE800206800280CD1122000F076F806480268F6
:103DF80001210A430260026810231A43026021600D
:103E080010BD0000505BFF1F00E0004010B50B4CD8
:103E18002068012810D1122000F0C0F80848016875
:103E2800490849000160016810229143016000209F
:103E380020601220FFF710FC10BD0000505BFF1F30
:103E480000E0004008B5042269460748FFF776FC01
:103E58000098401C05D1054841690122920611438A
:103E68004161002008BD00001C18001100F000404E
:103E78000449420903D00020C86006207047C86082
:103E880000207047645BFF1F0548C1691F22520468
:103E98009143044A928952041143C161002070473A
:103EA80000F00040645BFF1F10B578210848FEF75A
:103EB8007FF808480078012803D0022804D0042895
:103EC80004D1FEF793F801E0FDF79AFF002010BD3A
:103ED800FC7DFF1F645BFF1F70B505461248122466
:103EE8000078012815D0042813D0FEF76DF80F4884
:103EF80000210C224A43825C002A11D0AA420CD12C
:103F08000C235943012208184270FEF76FF8002469
:103F180006E0FEF76BF8002070BD491C0A29E8DBB3
:103F2800FEF758F8204670BD645BFF1FFC7DFF1F3D
:103F380030B50D4C00230C255D43655D854201D1EC
:103F4800072030BD002D04D05B1C0A2BF3DB0320B7
:103F580030BD0C256B431B19F9D000245C70187018
:103F68009A602046596030BDFC7DFF1F70B5FFF791
:103F78008BFF094D002420460C214843295C002969
:103F880007D040194068002800D08047641C0A2CDC
:103F9800F1DB002070BD0000FC7DFF1F70B50546F9
:103FA800164800240078012811D004280FD0FEF705
:103FB8000BF80021124A0B4608460C267043165C83
:103FC800002E0FD0AE4205D18018437007E0FEF7EF
:103FD8000DF80DE080184078002800D0641C491CBA
:103FE8000A29E9DB002C05D0FEF700F8FDF7F2FFFF
:103FF800002070BDFDF704FFF8E70000645BFF1FB9
:10400800FC7DFF1F70B519480121890742688A6045
:10401800826801231A434A6115490A6B0261496B98
:10402800416100210420FEF749FD01211420FEF71B
:1040380045FD01211520FEF741FD01211720FEF75E
:104048003DFD0C4D002420460C214843295C0029E5
:1040580009D040198068002800D08047641C0A2CC9
:10406800F1DB002070BD122070BD0000645BFF1FF3
:1040780080F00040FC7DFF1F1CB51A490D20087018
:104088001948012404701949002008701848C16BA8
:10409800490949010931C163C16B6022914320314B
:1040A800C16300F02DF800210420FEF7A1FC0121D6
:1040B8001420FEF79DFC01211520FEF799FC012133
:1040C8001720FEF795FC21030A48FDF795FF042009
:1040D800034600900122084901940848FDF792FF21
:1040E8001CBD0000480AFF1F490AFF1F680AFF1F7E
:1040F80080F00040E86BFF1FC85BFF1F6469FF1F6B
:1041080010B5FEF74FFE10BD70B540251C4C0128B8
:1041180002D0002811D027E060690521400140093C
:10412800C90640186061E0691649084016494018F8
:10413800E061E0692843E06116E000210A20FFF70A
:10414800FBFB00210B20FFF7F7FBE06903210902C5
:104158000843E061E069A843E06160690B21400120
:10416800400909074018606160690121090708438F
:104178006061A069032149048843A06170BD000003
:1041880000F000407F00FEFF80FD010010B5064AE8
:10419800D160906000F0E6F8044A00211320FFF790
:1041A800C7FE002010BD00007C5BFF1F6D43FF1F92
:1041B80010B507490860052000F05CF8062000F0FB
:1041C80059F8044A04492420FFF7B2FE10BD000044
:1041D8004C5BFF1FD542FF1F6942FF1F10B50C46FD
:1041E8001449154A052803D0062810D0062010BD0A
:1041F8001248086201200006106000211820FEF70E
:1042080019FC21460E4800F01FF815200EE00D4855
:10421800486201204006106000211920FEF70AFCC0
:1042280007482146143000F00FF81620FFF72EFA41
:10423800002010BDC003FF1F00E100E0C134FF1FD4
:1042480050100040E534FF1F00220029826005DD80
:1042580002228260890001600321816070470000AA
:1042680003480168002901D0112008477047000061
:104278004C5BFF1F10B500210E4A0F4C052803D0D8
:1042880006280AD0062010BD0C48116200F018F864
:10429800012000062060152008E00848516214300B
:1042A80000F00EF80120400620601620FFF7D4F930
:1042B800002010BDC003FF1F80E100E05010004047
:1042C8000021816001604160704700000348016877
:1042D800002901D010200847704700004C5BFF1FE1
:1042E800FFB581B00A9F144D7E01A85D002802D059
:1042F800112005B0F0BD6846407B002801D005209C
:10430800F7E7741920212046FDF752FE01A80FC8CF
:1043180010340FC4384601F0F1F90120A855002FD8
:1043280006D0064A00211920FFF702FE0020E0E728
:104338000021034A0820F7E7BC7DFF1F6358FF1FD1
:104348005958FF1F10B5064C43011B199B7E002BC3
:1043580002D001F039F910BD01F000F910BD0000DC
:10436800BC7DFF1FF8B50025154800954268007808
:104378002B460121FDF74CFE1349124888630120A2
:1043880012498004086012480168FF2212040226BC
:104398009143B20511430160642000904120FFF76A
:1043A80075F94020FFF772F9740766620098411E9C
:1043B8000091FBD203206062FFF72AF9A562F8BDDD
:1043C800845BFF1F050001FF00C8004080E100E09A
:1043D80010E400E070B5124A8AB0012800D1114AF1
:1043E800430111486D461C18207E00280AD08420FD
:1043F8008058C3B2002002E016782E54401C984220
:10440800FADB03E0107D012310782870E269002AA6
:1044180004D0297506952B7705A890470AB070BD7A
:104428000040004000900040BC7DFF1FFEB50446E0
:1044380042012048204D1318805C191D002829D0FE
:10444800187E002826D0987E002823D008780228D5
:1044580020D188884A888E68801A82B2102A01D9A9
:10446800102201E0002A02D0012C16D01CE0012005
:104478000870002048808880D969002905D00F4B32
:104488006D460DCB0DC568468847002C03D0192012
:10449800FFF784FDFEBD0820FAE7094D04E04888CF
:1044A800431C4B80305C28701046521E92B2002884
:1044B800F5D1FEBDBC7DFF1F00400040385AFF1FEC
:1044C80000900040704710B5002901D0FDF7A6FD07
:1044D80010BD0000F3B506466548A1218078890023
:1044E8004843644983B00968A12244182046FF3034
:1044F80021305F4900908978920051435D4A407DA0
:10450800126800258F18FF37813732281DD02228DE
:104518001BD0F86A0168002909D08188001D090AA2
:10452800891CFDF781FDF96A002001250860FDF767
:1045380081FD04992746FF370880C137387C002859
:1045480021D0B0421FDC002014E04B490120086054
:104558000020F96A01250860E9E780000019FF30AA
:104568008130006B8188001D090A891CFDF75CFDFC
:104578000198401C0190397C8142EEDCC8B2361AA1
:104588004519002038743D490020C870FF20AD301F
:1045980000590168002903D00079C04380071ED064
:1045A8000098C07D00281AD00098807D002816D178
:1045B800387CB04213DAFF204930005B010A2046FC
:1045C800FF304930891CFDF72FFD00990020C87580
:1045D80000980121817529486D1CC170761E387CB0
:1045E800002802D0284605B0F0BD2046FDF728FD7A
:1045F8000090002821DD002E1FDD002718E020464E
:10460800FDF724FD80000019FF300130C06E81885D
:10461800001D090A891CFDF707FD2046FDF71CFD52
:10462800E01DFF30FA30016A6D1C491C7F1C0162D5
:104638000098874201DAB742E1DB0920800120189F
:10464800817E002911D0017D00290ED0428E002ADA
:104658000BD0817F914202D2491C817705E000216D
:1046680081771A212046FDF7FDFCA8B2BBE70000C0
:10467800300DFF1F3409FF1F00140340E010FF1F17
:1046880070B55F480068012803D15E48816D491CF8
:1046980081655E485C4941610124C46004605C4DE9
:1046A8002878002806D006225A495B48FDF7C0FB47
:1046B800002028705949486B594AC0B21278002A1C
:1046C80017D1584A0023D356002B574BD35606DB35
:1046D8001B04002555572A029A18121808E0FF33C0
:1046E8001B04002555572A029A18504B1218D21845
:1046F8004A63022801D2022002E0502800D9502043
:104708004B4A1278022A11D04A4B1D784A4A167829
:10471800B5421DD91D781278AA1A801E401042434E
:1047280018784001801A1030401112E0434A157879
:10473800434B1E78B54209D915781B78EB1A801EB1
:104748004010434310784001C01AECE7107800E0AD
:1047580018784A69120A120210434861FDF798FB5B
:104768000546052801D0042D1ED1364800780028BA
:1047780006D035480078002802D00020FDF778FCE4
:104788003248A12180788900484331490968401896
:10479800FF30FF300230007B042801D0032803D10A
:1047A800FF205F30FDF7B6FB2A48022D02D0002D0E
:1047B8000FD022E00078012807D0032805D002286E
:1047C80003D025480078022817D16C20FDF7A2FBFA
:1047D80013E00078012801D003280ED11F4840219A
:1047E80082791F48002A02D0012A03D005E0828876
:1047F8008A4301E082880A4382801A48C48270BDD5
:104808009809FF1FFC0FFF1FFF3F00000010034027
:10481800945BFF1FD50BFF1F7211FF1F8000034021
:104828008C09FF1F680AFF1F00000000FFFE000040
:10483800490AFF1F440AFF1F450AFF1F460AFF1FB8
:10484800470AFF1FF908FF1F2209FF1F300DFF1F2E
:104858003409FF1F1C09FF1F2309FF1FA60BFF1F99
:104868008413FF1FBC0BFF1F10B5044909680029FA
:1048780001D0884710BDFDF735FB10BD8002FF1F32
:1048880010B504494968002901D0884710BDFDF7D3
:1048980029FB10BD8002FF1FF7B5064686B0002031
:1048A80004900390079810E125290AD0049900295B
:1048B80001D0039802E0049000200390401C03906C
:1048C80000E10398002805D081B20498B047002081
:1048D8000490039000250422082310210798401C07
:1048E800079000782B2819D004DC202818D023281A
:1048F80004D117E02D280FD0302815D0079A0027AB
:104908001078FF430346303B3C46092B0FD807A8D5
:1049180000F002FE044615E00D43DFE71543DDE72E
:104928001D43DBE7202000E001200543D6E72A28C5
:1049380008D1521C0898079210C80890002C01DA78
:1049480064420D43079938460A782E2A14D1491C27
:10495800079108780246303A092A03D807A800F0D8
:10496800DBFD06E02A2806D1491C0791089901C9F0
:104978000891002800DA0020079A39461778682F2E
:1049880003D06C2F01D04C2F02D1521C394607920C
:10499800079B0A221B786E2B2CD00CDC632B2AD0A9
:1049A80004DC412B26D0582B11D19BE0642B01D07D
:1049B800692B0CD19AE0732B3DD004DC6F2B77D098
:1049C800702B04D164E0752B73D0782B6FD0252B16
:1049D80009D0252069460872012102A8B047079826
:1049E8000178002975D00798694600780872012176
:1049F80002A8B04766E0E80609D42025641E002C0A
:104A080005DD68460572012102A8B047F6E7089857
:104A18006A4601781172001D0890012102A8B0476A
:104A2800202504E068460572012102A8B047641EEB
:104A3800002CF7DC46E0089A02CA08920091002987
:104A480001D12DA100910A4600E0491C0B78002BEA
:104A580001D0401EF9D28F1AE8060AD42025204634
:104A6800641EB84205DD68460572012102A8B047F8
:104A7800F5E7B9B20098B047202504E0684605720A
:104A8800012102A8B0472046641EB842F6DC19E0AE
:104A9800611C02D1082401210D430090089801955A
:104AA80002C823461022089009E001E001E01BE05B
:104AB8000822089B02CB08930195009023463046B4
:104AC80000F0D8F80798401C07900178002901D019
:104AD800EAE60EE00398002802D081B20498B047B5
:104AE80009B0F0BD402215431022E2E702231D431E
:104AF800DFE7401E0790E5E73C4E554C4C3E000072
:104B08007CB5214C04202070204D01202870FDF731
:104B1800B5FAFDF735FBFFF7AFFAFFF7C3F82078D2
:104B2800FDF7B2FA2878FFF7EFFAFFF7BDF9184951
:104B380003C9FFF72BFBFEF701FCFEF76FFEFEF73C
:104B480001FD144914A0FEF7EBFB1949097819482F
:104B580000780191009023782A781748017817A0E7
:104B6800FEF7DEFB214C0821224621A0FEF7D8FBE8
:104B78000123A1221B03920021462948FEF7D0FBFE
:104B8800FEF7CAFA00207CBD4A0AFF1F2C5BFF1FF4
:104B98006059FF1F0900030053444B205665727388
:104BA800696F6E2049442025303878200A000000BB
:104BB800450AFF1F440AFF1F4B0AFF1F7266436C1A
:104BC8006B202564207263436C6B20256420737905
:104BD80073436C6B2025642074704361705B2530CF
:104BE800327820253032785D0A0000009C0D0000E4
:104BF80073697A656F6628737472756374206C6C58
:104C08005F706B745F6465736329203D2025642C95
:104C1800206275662073697A65203D2025640A0044
:104C2800445AFF1F38B51D4614460846FCF79AFF3C
:104C38000090002D08D00A21C943FCF71FFF7F21EF
:104C4800C905FCF7D6FE03E00B21C943FCF716FFA4
:104C58000090012C08D1FCF7A5FF044A044BFCF78F
:104C680019FFFCF7B3FF009038BD00009A99999995
:104C78009999E93FFFB50746574897B0219D0068C5
:104C880015901E460A46680602D553484068159096
:104C9800E80601D56D086D001998801E232870D28A
:104CA800E80701D0302100E0202110A8017300217D
:104CB8000172A80710D5002A04DA2D2010A908725D
:104CC800524208E0680701D52B2002E0280703D5E7
:104CD800202010A908725E1EA80608D51998102869
:104CE80002D0082802D002E0B61E00E0761E00249A
:104CF800002A14D010461999FDF724F9159A525C28
:104D080001A90A55641C0200F4D12098844200DDF0
:104D180020942098361A112005420BD00EE030203E
:104D2800694608710124F0E72020694608700121CE
:104D38006846B8473046761E0028F5DC10A8007A89
:104D4800002802D0012112A8B847A80616D519983C
:104D5800082802D0102802D010E0302009E03020C6
:104D68006946087001216846B8471B48006820302A
:104D780040786946087001216846B847E80604D5B6
:104D880007E027E0012113A8B8473046761E00281F
:104D9800F8DC30252099481E2090A1420BDD68469A
:104DA80005700121B847F5E7285D694608700121BB
:104DB8006846B84700E001AD2046641E0028F3DCD1
:104DC80020243046761E002804DD68460470012140
:104DD800B847F6E71BB0F0BD5C5BFF1F10B50024B9
:104DE8000420FDF757F90749042208600021FDF760
:104DF80057F920460124FDF759F92046FEF74CF8EB
:104E080010BD0000385BFF1FF8B5184D0A26E86989
:104E180040084000E8610620FCF7FEFF134C403CC8
:104E2800A06980210843A061E86901210843E8617D
:104E380002E00820FCF7F0FFA86A800504D4304699
:104E4800761EF6B20028F4D1002E07D0286A7E21FB
:104E5800C70BA0690F4088433843A061A16980202F
:104E68008143A1613806400EF8BD000040F00040C3
:104E780010B500F011F800F09DFA054A01215820FC
:104E880000F008FAFFF7C0FF0249487010BD0000A3
:104E9800600AFF1FAC5BFF1F30B53848016801226C
:104EA8009204114301604168032212069143344A77
:104EB80013781B06194341604368032189058B4316
:104EC80030490C78A4052343436043686024234396
:104ED80043601378022B08D01378012B05D00B7888
:104EE800022B02D00B78012B04D14368FF24013434
:104EF800234343601278032A02D00A78032A03D195
:104F0800426880231A434260426803239B041A4381
:104F180042600B780122D2051B48002B03D11B4BA2
:104F28001B78032B19D0C3689343C360164A184BE8
:104F38004032D360FF2581351561164C5461164BFC
:104F48009361114B80335D609C60144CDC60144BA2
:104F580003600978002903D006E0C3681343E4E737
:104F680001680123194301600E4909780E4BC906EF
:104F7800C90BC91881630D48D06130BD40F00040AD
:104F88004C0AFF1F4B0AFF1F800003404A0AFF1FFD
:104F9800C00B00207A3E6A0700008904008089045B
:104FA800CC240000480AFF1F250800002FFCA6019A
:104FB800F8B5050049484A4B4A4C4B4A4B4934D04E
:104FC800022D32D086155710066286699E43B318A3
:104FD80083612078002833D00F614548086345482D
:104FE80000780122120380184861404E3F4C424B22
:104FF800803E403C002D27D06521404AC9024048E8
:10500800012D2ED0022D31D0032D5BD0042D59D087
:105018003C49691831603C49A1602360E060022185
:105028000846FDF749F839482BE08026066286696C
:105038009E430123DB04F61886612078002801D0FE
:105048000A61CAE70B61C8E7314830600020A060F8
:1050580023603048E06003210846FDF72DF82E480C
:105068000FE02E4B3360A2602160D7E72B4B5B1C0F
:105078003360A2602160E06002210846FDF71CF859
:1050880027482061F068FF210843F06025486061E7
:105098002548A0612548E0612548206225486062CE
:1050A8002548A0622548E0622548206325486063BA
:1050B800E020012D0ED0022D03D12168814340311B
:1050C8002160F8BD204BEB183360204B73602160E2
:1050D800A260A3E7216881432031F1E7C0000340C3
:1050E80000001C004B0AFF1F000004008000034062
:1050F80003000001440AFF1F00280B0055555537CF
:10510800D6BE898E00800642555555008055082226
:105118000080067807EE7536806608220180063D15
:1051280080450822A49C5C544C44434241524C465E
:10513800403A342E28007F554F49433D37312B4C98
:1051480046403A342E28221C00800698545A98501B
:10515800F0B51D4A1C4C1C4D072601231A49B604FC
:10516800403AC03C803D9B04022812D08F150F6244
:105178008F69B743FE188E611449097800291BD03E
:1051880059101161012819D011494018206011489F
:1051980010E0802008628F690003B7433E188E61D3
:1051A8000A490978002901D0136100E010610A4812
:1051B80020600A482861F0BD1361E3E70648401EF5
:1051C80020600748F6E70000C00003404B0AFF1FB5
:1051D80000800698805508220280063D80450822F6
:1051E8008066082210B50A49002008700949022083
:1051F8000870FFF751FE0848007800F011F8074CD6
:105208002078FFF7D5FE2078FCF75CFF10BD000082
:105218004B0AFF1F4C0AFF1F480AFF1F490AFF1FBE
:10522800F0B51A4A03230725D60019499B026024C2
:10523800ED0157693F281AD0B74305263604BE1931
:105248005661CA689A43CB14D218CA60CA69A24385
:105258002032CA61CA69AA43CA610D4940398A6BBA
:10526800C0061205120DC00B02438A63F0BDB74396
:105278000126B604BE195661CA689A43CA60CA694B
:10528800A243CA61CA69AA438032E5E700F0004038
:10529800C0000340F8B53A4B5D6A9C6A00265E621E
:1052A8009E62384B58630E2018629E155E6240203D
:1052B80098625020D862FF202B3058623148403025
:1052C800012915D0802101622F49FF232D48A533DC
:1052D800403083602D4B43602A4B2D48403B18617A
:1052E8007D20C0000090471E009705D33846FAE796
:1052F800066225498331E8E7264889050F182148C1
:1053080040388763234B5B1CC9188163224800908F
:10531800224800780300FCF733FE05040408060D54
:1053280008001F4800E01F4800901F4810601548FB
:10533800403005E01D48F7E7C16AC943890F14D01A
:1053480000994B1E0093F7D20E4940398F630D49DF
:1053580000228A62CA6282604E620A62FF2041307D
:105368004862074845628462F8BDC16A104B19401B
:10537800116011680122090C120489184160E3E7E1
:105388000010034080000340CA02000020200000F3
:1053980080560C2064652100102700004A0AFF1F70
:1053A800204E00003075000000002020409C0000C6
:1053B800FFFF3F3F00B50021022000F021F80C4913
:1053C800801C08700021422000F01AF80949801C4E
:1053D80008700121022000F013F80749801C0870AA
:1053E8000121422000F00CF80449801C087000BD1F
:1053F800440AFF1F450AFF1F460AFF1F470AFF1FEF
:10540800F8B53A4C384A2260384D384A07239B048D
:10541800803540320129A9690ED0994301239B04A4
:10542800C918A9613249D16032490B780121C905EF
:10543800314E002B07D009E099430123DB04C9183A
:10544800A9612E49EFE73378032B14D0D3688B4337
:10545800D36050630E20106200275762FF2015307A
:1054680050622748009030780300FCF789FD050753
:10547800070D090B0D00D3680B43E9E7214802E04B
:10548800214800E0214800900098431E0093FBD279
:10549800686B57620002000E17621D4BD360FF2332
:1054A800413353626523DB0223601A4D2F78E023D2
:1054B800012F03D02D78022D04D007E025689D43E5
:1054C800203502E025689D4340352560094B1B784F
:1054D800002B02D13378032B03D0D3688B43D360DE
:1054E800F8BDD3680B43FAE71000030040000340FF
:1054F8007F4073004B0AFF1F4A0AFF1F7F4053007B
:1055080010270000204E000030750000409C00006D
:1055180040401000490AFF1F0146002006E0531CC6
:105528000B600A2312785843303810180A68137829
:10553800303B092BF3D9704710B507494868401C20
:105548004860FF21F531FCF7FDFC012903D101403A
:105558000D20FEF71DFB10BD305BFF1F78B5174B04
:10556800012800D1164B00241648009404E0009D41
:105578006E1C009685421ADCDD6FED07F7D10AE054
:10558800009D6E1C0096854211DC1D7DAD06F7D589
:105598000D781D70491C1546521E92B2002D0094BC
:1055A800F3D106E000994A1C0092814201DD0D20EA
:1055B80078BD197D4906F5D5002078BD004000402A
:1055C80000900040A0860100F7B507462A4940012F
:1055D80044182A4E241D1546002A10D00198002888
:1055E8000DD02178002908D0E088A84205D30129E8
:1055F80016D0A1884919814203D90320FEBD06208F
:10560800FEBDFCF7E1FCA188A0682A464018019974
:10561800FCF75EFDA0884019A080FCF7DBFC27E0C2
:10562800A0680199FCF754FDA58000206080022045
:105638002070A168102D00D91025012F00D1104E1F
:10564800726802208243726004E06088421C6280B3
:10565800085C307028466D1EADB20028F5D1002FC9
:1056680008D01920FEF738FC7068022108437060E2
:105678000020FEBD0820F5E7BC7DFF1F004000406C
:1056880000900040F8B5064608270B20164C012E5E
:1056980002D11927154C11200121814014480160BD
:1056A800144871010D18287C0021FEF78DF8687CDC
:1056B8000021FEF789F880202073002525712570C8
:1056C8002573257265603846FDF7FAFF3846FDF701
:1056D800C3FF002E03D0084845600020F8BD0648E7
:1056E8004038C562F9E700000040004000900040E3
:1056F80080E100E0BC7DFF1FC003FF1FF0B587B04D
:105708000746FCF7EBFC0690082001900420009067
:1057180005200390454C0B263846FFF7B3FF012FB1
:1057280007D119200190082011260090404C09202B
:105738000390404879010D18287CFF2802D1687C25
:10574800FF282CD010350198FDF7A0FF0198FDF730
:10575800B7FF28780221FEF7EFF868780221FEF7F4
:10576800EBF828780099FEF73DF868780399FEF77A
:1057780039F8002020730698696800114A088018D3
:10578800FCF7E0FB014600202061802020730A0A14
:1057980022712170E97A002904D01B2103E0062038
:1057A80007B0F0BD03212173297A002900D0872191
:1057B800217201226260297A002902D061680143BE
:1057C8006160A97A002903D06168022319436160E6
:1057D800002F15D0194B18495960FF21002E14DAF3
:1057E80033071B0F083B9C08154BA400E418E3691A
:1057F800B507ED0EA9408B43A8400343E36110E0D1
:105808000E4B1049403BD962E7E7B4080E4BA400A1
:10581800E4182368B507ED0EA9408B43A84003435D
:1058280023600A48B24002600020B9E70040004007
:1058380000900040BC7DFF1F0935FF1FC003FF1FFC
:1058480000ED00E04521FF1F00E400E000E100E07A
:1058580010B50020FFF752FF10BD10B50120FFF76B
:105868004DFF10BDF8B5304E012730782F4D022876
:105878000CD0FCF739FC0446FDF758FCFDF7C0FCDA
:10588800FCF732FCA04206D3001B06E06868006AF9
:10589800FCF7C2FA08E0001B401E1E21686148435D
:1058A800234940186968C86123492248086022488A
:1058B80022498030C163FF21413141623078FCF7D1
:1058C800E3FB1F491F48FCF715FC1E481E4914300E
:1058D800FCF710FC0420FDF77FF81420FDF77CF896
:1058E8001520FDF779F81720FDF776F8FF20FCF76B
:1058F800BFFB0120FCF704FCFF20F530FCF706FC99
:105908005820FCF707FB1148FCF706FC3846FCF763
:1059180009FC0720FCF70CFC0D49C8690D4A10402A
:10592800FF300930C861F8BD4A0AFF1F945BFF1FAA
:10593800DC0500000180063D00000340340800003B
:105948007102000014100040FFFF3F003075000096
:1059580040F0004000FEFEFF040000003B0001088C
:1059680002000300050206020703080309030A00F0
:105978000C030D03000505408005054000060540A1
:10598800800605400007054080070540F1590000E2
:10599800152FFF1F020001020307090A0B0E0F1043
:1059A8001112141718191A1B1F20212200020100B6
:1059B8000504000807000B0A001716001D1C010249
:1059C80001010504010E0D01111001141301171630
:1059D800011A19020201020B0A020E0D021110022D
:1059E8001413021716030504030807030B0A030E12
:1059F8000D000D000E001000110013001401070126
:105A080008010A010B011C011D020402050207021C
:105A1800080219021A021C021D03010302031700DF
:105A28000506FFFF00C201000100000000000000A1
:105A380003000000000000000000000073697A65A0
:105A48006F6628675F70436F6E6E656374696F6E0B
:105A580042756666657229203D2025642C2073698D
:105A68007A656F662870436F6E6E436F6E746578E3
:105A78007429203D2025642C2073697A656F662877
:105A88006C6172676548656170293D2564200A006C
:105A9800303132333435363738394142434445465C
:105AA8004748494A4B4C4D4E4F5051525354555606
:105AB8005758595A000000003031323334353637E0
:105AC80038396162636465666768696A6B6C6D6EB4
:105AD8006F707172737475767778797A0000000048
:105AE8005048592B36325858504C5553303530346D
:105AF800000000000004FF1FC85BFF1F0C0000002F
:105B0800862BFF1FC85BFF1F0004FF1F0004000057
:105B1800B21DFF1FC85BFF1FC85BFF1FE026000008
:105B2800962BFF1F0000000000000000000000008E
:105B3800000000000000FF0FFF0FFFFF070E0F0817
:105B4800090DFF000000000000000000FFFFFFFF3C
:105B5800FFFF0000C05AFF1F985AFF1F02000000F5
:105B6800802108005902E001000000000000000048
:105B78000000000000000000000000000400000019
:105B88003B0001080000000040787D010000000093
:105B980000000000000000000000000001000000FC
:105BA80000000000FFFF000000000000E85AFF1F8F
:105BB80000000000000000000000000000000000DD
:040000051FFF18F9C8
:00000001FF
