:020000041FFFDC
:1000000000000000754FFF1FA85BFF1FB05BFF1FC4
:100010006C5DFF1F000000000000000000000000F9
:1000200000000000000000000000000000000000D0
:1000300000000000000000000000000000000000C0
:1000400000000000000000000000000000000000B0
:1000500000000000000000000000000000000000A0
:100060000000000000000000000000000000000090
:100070000000000000000000000000000000000080
:100080000000000000000000000000000000000070
:100090000000000000000000000000000000000060
:1000A0000000000000000000000000000000000050
:1000B0000000000000000000000000000000000040
:1000C0000000000000000000000000000000000030
:1000D0000000000000000000000000000000000020
:1000E0000000000000000000000000000000000010
:1000F0000000000000000000000000000000000000
:1001000000000000000000000000000000000000EF
:1001100000000000000000000000000000000000DF
:1001200000000000000000000000000000000000CF
:1001300000000000000000000000000000000000BF
:1001400000000000000000000000000000000000AF
:10015000000000000000000000000000000000009F
:10016000000000000000000000000000000000008F
:10017000000000000000000000000000000000007F
:10018000000000000000000000000000000000006F
:100190007D42FF1F1543FF1F7D53FF1F000000001E
:1001A000000000000000000000000000000000004F
:1001B000000000000000000000000000000000003F
:1001C000000000000000000000000000000000002F
:1001D000000000000000000000000000000000001F
:1001E000000000000000000000000000000000000F
:1001F00000000000000000000000000000000000FF
:1002000000000000000000000000000000000000EE
:1002100000000000000000000000000000000000DE
:1002200000000000000000000000000000000000CE
:1002300000000000000000000000000000000000BE
:1002400000000000000000000000000000000000AE
:10025000000000000000000000000000000000009E
:10026000000000000000000000000000000000008E
:10027000000000000000000000000000000000007E
:10028000000000000000000000000000000000006E
:10029000000000000000000000000000000000005E
:1002A000000000000000000000000000000000004E
:1002B000000000000000000000000000000000003E
:1002C000000000000000000000000000000000002E
:1002D000000000000000000000000000000000001E
:1002E000000000000000000000000000000000000E
:1002F00000000000000000000000000000000000FE
:1003000000000000000000000000000000000000ED
:1003100000000000000000000000000000000000DD
:1003200000000000000000000000000000000000CD
:1003300000000000000000000000000000000000BD
:1003400000000000000000000000000000000000AD
:10035000000000000000000000000000000000009D
:10036000000000000000000000000000000000008D
:100370000D19FF1F00000000000000000000000039
:10038000000000000000000000000000000000006D
:10039000000000000000000000000000000000005D
:1003A0000000000000000000000000002923FF1FE3
:1003B000000000000000000000000000000000003D
:1003C000000000000000000000000000000000002D
:1003D000000000000000000000000000000000001D
:1003E000000000000000000000000000000000000D
:1003F00000000000000000000000000000000000FD
:0C04000001FF01FF01FF01FF41000000AF
:020000041FFFDC
:101838004887FF1F3D19FF1F81840000F128000021
:101848000000000000000000000000000000000090
:101858000000000000000000000000004919FF1F00
:101868000000000000000000CD8400004D19FF1F9B
:101878004F19FF1F4F19FF1F4F19FF1F4F19FF1F48
:101888004F19FF1F4F19FF1F4F19FF1F4F19FF1F38
:101898004F19FF1F4F19FF1F4F19FF1F4F19FF1F28
:1018A8004F19FF1F4F19FF1F4F19FF1F4F19FF1F18
:1018B8004F19FF1F4F19FF1F4F19FF1F4F19FF1F08
:1018C8000000000000000000000000000000000010
:1018D8000000000000000000000000000000000000
:1018E8004F19FF1F000000004F19FF1F4F19FF1F5E
:1018F8000348854600F012FB00480047E94CFF1FEB
:101908004887FF1F09484838694601600430F0C01D
:1019180044464D4656465F46F0C030BCF0BCF0C069
:10192800F0BCF0C044380249084700000004FF1F1B
:101938000D2DFF1F0448804704480047FEE7FEE7D7
:10194800FEE7FEE7FEE7FEE7A92BFF1FF918FF1FDA
:10195800F8B502464A40D40F42004B0052085B08D3
:101968009A4202D20246084611464A0023D0C30DC5
:101978004A00DDB2120EAD1A202D35DA49020126D1
:10198800490AF6058A19002C00D0524220214F1B23
:101998001146B9402A411018C20D9A4221D0002C94
:1019A80017D0012D08DCDA05801AD20F8019D2076A
:1019B800DBB200F01AFAF8BDDA05801A01234000FC
:1019C8001B06C01880185A428018CA0F10434900D5
:1019D80007E04908C2071143DA05801A8019400850
:1019E800801800F0FAF9F8BD61000122511A001BB5
:1019F800F7E70122D2075140AAE70122D207504057
:101A0800A6E7024670B54A40D30FDB0740002DD049
:101A18004A002AD0010E140E000212020919400AC7
:101A2800520A8418E50104465443000A120A2E0497
:101A38005043A4194219200CC543AA18120C0125B9
:101A4800AD03521C521912047F39240400D0521CD1
:101A5800104301D44000491EC2B20C06C009201828
:101A6800401C4008802A02D003E0002070BD4008D6
:101A78004000002900DA0020184370BD70B5024606
:101A88004A40D50F40004A00ED0740085208002898
:101A980014D0002A12D0C40DD30D41020120C00574
:101AA8005202490A520AE41A091812187D3491425E
:101AB80001D3641C00E04900002C01DA002070BD4D
:101AC8000023914201D3891A0343400849000028A2
:101AD800F7D100290AD0914202D10121C90705E0B6
:101AE800914201D2012101E00121C943E005C0185A
:101AF800401900F072F970BD420005D04200120E84
:101B080052428A4201DB00207047C9050818704715
:101B1800F0B51FB488B00B9909980024484009997A
:101B2800C00F490049080991C0070B990090490066
:101B380049080B9109990898A64608431CD00B99A7
:101B48000A98084318D0099801244000420D48001B
:101B5800410D099824050003000B204309900B98B8
:101B68000003000B20430B9050181C49401800221A
:101B780001901446104605E0002001460DB0F0BD66
:101B8800032801DA034600E003239C46C11A0AAE83
:101B98000AE05F0008ADED5B4F00F75B7D4300276F
:101BA800AA187C41491C5B1E6145F2DD410004AB6B
:101BB8005A522104120C0A43240C401C0828DFDB6B
:101BC800019802900099704601910090059B049A33
:101BD8000799069800F04FF9D0E700000DFCFFFFC9
:101BE800F0B50C465C4085B0E40FE40703944C0064
:101BF8000026640859009446490802460296224382
:101C080021D062460A431ED06200570D4A000E03D7
:101C18002303550D012402462C492405781B1B0B70
:101C2800360B401823432643614600901C46501A41
:101C3800B44103D30098401C009002E09218009829
:101C48005B41002803DA0020014605B0F0BD002002
:101C5800012109050746864611E064461D46141B06
:101C6800B54106D36546521BB341744607430C433E
:101C7800A646CD0740084908284392185B41054607
:101C88000D43EAD11046184313D060461946504018
:101C98007140084306D06046101AB34106D20122AB
:101CA800002306E000220123DB0702E00122D243E1
:101CB8005310009874460105381C6141029C039D2D
:101CC8000019694100F0CAF8BFE70000FD030000F1
:101CD80070B54B005B0803430BD04B005C0D00262E
:101CE80033466542B341D417AD1AA34102DB002045
:101CF800014670BD12053018514170BDC217C10FA1
:101D0800504010B54018CA079623002100F06DF81E
:101D180010BD10B500229623114600F066F810BDDC
:101D28000EB5C217C10F5040CA0740180021054B15
:101D38000293019200910A460B4600F09CF803B00A
:101D480000BD000033040000C20F4100400201231F
:101D5800400ADB05D207090EC0187F2901DA0020E6
:101D68007047962903DC9623591AC84001E0963932
:101D78008840002AF4D040427047C20FD207400082
:101D880040080BD0C10D0723DB01C9184002090523
:101D9800400A1143C208400711437047002001461A
:101DA8007047CB0FDB07490010B5490802460A43C4
:101DB80007D00A0D07240903E401090B121B002AA6
:101DC80001DC002010BDC900440F0C43C100E0181D
:101DD800D205801800F001F810BD002904DA401C73
:101DE800490001D140084000704770B40024050C38
:101DF80005D11024000402D1002921D01124050E98
:101E080001D100020834050F01D10001241D850FFE
:101E180001D18000A41C002801DB4000641C0029BB
:101E280008D020252E1B0D46F540A14000D00121E9
:101E38002943084301061B1B000ADB1D02D50020AD
:101E480070BC7047DB05181880180029F8DA401CA8
:101E58004900F5D170BC40084000704710B5002B10
:101E680008DA0024401C614192185B411A4301D1F1
:101E78004008400010BDF0B51FB482B005460C0004
:101E880003D0084600F094FE02E000F091FE2030F6
:101E9800024600902146284600F052F8049B059A15
:101EA80004460F4618431143084314D018461043FC
:101EB8001BD0009840210A1A1846059900F050F8DE
:101EC80005460E46009A0599049800F039F808432B
:101ED80005D0012004E02046394607B0F0BD0020B7
:101EE800C11705430E432C43374300990E986305E9
:101EF800401A7905E40A00220C43FD0A0A3002D58B
:101F080000200146E9E70105101969410C9C0D9D67
:101F180000196941FFF7A2FFDFE70000064C012521
:101F2800064E05E0E36807CC2B430C3C9847103479
:101F3800B442F7D3FFF7E0FC345DFF1F645DFF1F79
:101F480010B5202A04DB0146203A9140002010BD3C
:101F5800914020239C1A0346E3401943904010BD4A
:101F680010B5202A04DB0846203AD040002110BDD5
:101F78000B46D340D0402024A21A9140084319466A
:101F880010BD70B58C180578401C6B075B0F01D12C
:101F98000378401C2A1106D10278401C03E0067819
:101FA8000E70401C491C5B1EF9D12B0705D4002379
:101FB800521E0DD40B70491CFAE70378401CCB1A4B
:101FC800921C03E01D780D70491C5B1C521EF9D54C
:101FD800A142D8D3002070BD03B40148019001BDCF
:101FE800ADAE000003B40148019001BD456B01008E
:101FF80003B40148019001BD0189000003B4014800
:10200800019001BDC53F000003B40148019001BD26
:10201800E94C010003B40148019001BDC95C01000D
:1020280003B40148019001BDDD3F000003B401483D
:10203800019001BD8944000003B40148019001BD2D
:102048002144000003B40148019001BD750F000050
:1020580003B40148019001BD1907010003B4014808
:10206800019001BDBD0B010003B40148019001BD01
:10207800DD0C010003B40148019001BDDD0A010037
:1020880003B40148019001BD0134010003B40148C3
:10209800019001BD0934010003B40148019001BD5C
:1020A8000534010003B40148019001BDF535010074
:1020B80003B40148019001BDF935010003B401489A
:1020C800019001BDE917010003B40148019001BD69
:1020D8006137010003B40148019001BD01D7000038
:1020E80003B40148019001BD6DF6000003B4014836
:1020F800019001BD7912010003B40148019001BDAE
:102108004DF9000003B40148019001BDC1F700007A
:1021180003B40148019001BD116E000003B40148E9
:10212800019001BDE1AC000003B40148019001BD7C
:10213800E53A010003B40148019001BD810E000099
:1021480003B40148019001BDF54E010003B40148F4
:10215800019001BD434D010003B40148019001BD48
:102168006189000003B40148019001BD8B52010050
:1021780003B40148019001BDED4A010003B40148D0
:10218800019001BDA54F010003B40148019001BDB4
:102198008552010003B40148019001BDB30E00004F
:1021A80003B40148019001BDCD4C010003B40148BE
:1021B800019001BD75A9000003B40148019001BD5B
:1021C8009DA9000003B40148019001BD810E0000E3
:1021D80003B40148019001BD21A9000003B40148DE
:1021E800019001BDB54C010003B40148019001BD47
:1021F8004550000003B40148019001BDC56D0100C0
:1022080003B40148019001BDE9D4000003B40148BA
:10221800019001BDC115010003B40148019001BD41
:10222800CD0C010003B40148019001BD71B000005C
:1022380003B40148019001BDD9B0000003B40148BE
:10224800019001BD5976010003B40148019001BD18
:1022580053B9000003B40148019001BDED6B0100C2
:1022680003B40148019001BDC9A9000003B40148A5
:10227800019001BDEDA5000003B40148019001BD26
:10228800090E000003B40148019001BD3D4B010057
:1022980003B40148019001BD154D010003B4014884
:1022A800019001BDB14E000003B40148019001BD89
:1022B8002D11010003B40148019001BD89140100EA
:1022C80003B40148019001BDD1A5000003B4014841
:1022D800019001BD156B010003B40148019001BDD7
:1022E8002D6C010003B40148019001BD6911010082
:1022F80003B40148019001BD8512010003B40148EF
:10230800019001BD8D11010003B40148019001BD88
:10231800E512010003B40148019001BDF90D010067
:1023280010B50F4880680007000F062808D008DCA1
:1023380002280CD0042803D10121002002F03AF928
:1023480010BD072807D00C28FAD10221F5E7002094
:1023580002F05CF910BD02484030C06B10BD0000AF
:1023680000400040F8B5C849C64A002005464A6002
:102378008300401CD550FF28FADD4868C34A01464F
:1023880080318A606E22C262C14A1278002A01D066
:102398007F22C2620A22BF4B02651A788263BE4A54
:1023A800C2611A781024022A06D01A78032A08D0A3
:1023B8001A78042A05D005E0B84AC26104220262EC
:1023C80000E00462B64A4261192292018261372212
:1023D800CA6036272D26C7630822466402644F6008
:1023E80032270F603B27CF634527CF640D46392737
:1023F8004035C4C532270F6502270F6642270835C6
:10240800C4C51E274F66CE668A6605264E674226D5
:102418000E675A260E614A613C228A61AF22D200B9
:102428000260A04A02631A78022A06D01A78032AA0
:1024380005D01A78042A04D005E0152202E00E22FD
:1024480000E00C224260FF222D328260C260FF222F
:10245800F5320261944A82647D22D200934ECA67A3
:10246800C6644262924A82627322C265062242654B
:102478008265C21D0826F9320227166047664B2777
:10248800FF0087660927C7668A4F076746670025E2
:102498008567BD10884F854EC5673E601E78022E41
:1024A80006D01E78032E07D01B78042B08D00AE02C
:1024B8001A23CB61212301E01323CC610B6202E0D4
:1024C8000E230C62CB61784B8B627D23DB008B671C
:1024D80064234B620523CB6202230B63C8234B633F
:1024E80000238B63382151607449116474499161E8
:1024F8004B21C900D161734911627D2109015162E3
:10250800D3661E21136791666A49916515665564FD
:102518005567D1656149FF30963191676A49D1673E
:102528006A4A8130026082604160FF21F531C160F2
:10253800016168486649534A81606749803A116178
:102548006449664A80318A62654ACA62654A82611C
:10255800654AC262654A02636548C8615D49654863
:10256800403188616549644888605A4864498038C0
:10257800416064494163FFF72FFD0120FFF732FDF9
:10258800F8BDF3B50746604881B0C1695F4A11409C
:10259800FF310931C161002613E000252C461120C6
:1025A800FFF726FD5848406A8007800F6100884081
:1025B8002843641CE4B20546102CF0D301C7761CEE
:1025C800F6B202988642E8D3FEBD10B52E4C60786C
:1025D80000280AD104214E48FFF7D3FF4C480421B4
:1025E8001030FFF7CEFF0120607010BDF0B5002459
:1025F8008BB00D460646102902D901200BB0F0BD5C
:10260800FFF7E3FF424900200A5C401C1419C0B2DE
:102618001028F9D3002C03D0102D03D90B20EDE797
:102628000E20EBE73B483A4C0023006802A910341F
:10263800E25CC75C7A40CA545B1CDBB2102BF7D350
:1026480006AA3348FFF7DAFC102D00D910252A46D0
:1026580006A93046FFF7D8FCFFF7DCFC21684018D4
:102668002060FFF7D7FC616840186060FFF7D2FC74
:10267800A1684018A060FFF7CDFCE1684018E06051
:102688000020BBE70004FF1FB85DFF1F4887FF1F3E
:10269800645DFF1F4A0AFF1F220B00004605000069
:1026A80080C3C9019A02000050C30000F81100005D
:1026B8006A180000204E0000F009FF1F00400011BA
:1026C80068100000C409000040420F0010270000F5
:1026D8006948FF1F0001FF1F152AFF1F0950FF1F30
:1026E800E952FF1F2127FF1FB528FF1F3D27FF1FA6
:1026F800955AFF1FAD46FF1F612BFF1F0002FF1FEA
:10270800AF46FF1FBD46FF1F40F0004000FEFEFF22
:102718001883FF1FD85DFF1F70B50124A407A368A5
:1027280010252B43A360FFF77BFCA068A843A0609B
:1027380070BD0000FFB5064601208007816881B0A2
:102748001D46102211438160554F002038603046E5
:10275800D730FFF76BFC9D20800034468059FF3648
:10276800CA3401360028306822462CD00121FFF7F0
:1027780063FC4B4F2078F863641C2046FFF762FC2B
:1027880000BA000AE17800020843B863241D204615
:10279800FFF758FC00BA000AE178000208437863A2
:1027A800241D2046FFF74EFC00BA000AE17800021B
:1027B800084338630398029900020843F860039FAE
:1027C80000243F1D0EE00021D1E72819401CFFF727
:1027D80039FC0102285D0143324820180160241D9C
:1027E800A4B23F1F042FF0DA032F04D0022F08D021
:1027F800012F0CD011E02819FFF724FC0102090A67
:1028080006E0291948780A780102114300E0295D99
:10281800244820180160241DA4B20021214F02E0A1
:10282800E0190160241DFF2CFADD1D481E4A426094
:102838000F220261012202604269002AFCD042692B
:10284800930701D4520708D4012080078268102119
:102858008A438260002005B0F0BD01600020039A21
:1028680011E0C11909682954401C80B20B0A2B5485
:10287800401C0B0C80B22B54401C80B2090E29540A
:10288800401C80B2121F002AEBDC3068401C30600C
:1028980001208007826810218A4382600120DAE7DC
:1028A8000000044000010440080F0000FFB5054681
:1028B80001208007816881B01E4610221143816083
:1028C800504F002038602846D730FFF7AFFB9D20D7
:1028D80080002C464059CA3480350028E86F2246CB
:1028E8002BD00021FFF7A8FB464F2078F863641C23
:1028F8002046FFF7A7FB00BA000AE1780002084368
:10290800B863241D2046FFF79DFB00BA000AE17852
:10291800000208437863241D2046FFF793FB00BAA2
:10292800000AE1780002084338630398029900021C
:102938000843F8600024039F0EE00121D2E7301914
:10294800401CFFF77FFB0102305D01432E48201831
:102958000160241DA4B23F1F042FF0DA032F04D016
:10296800022F08D0012F0FD014E03019FFF76AFBAF
:102978000102090A09E03119487809780002084378
:1029880021496118086003E0315D1F482018016083
:10299800241DA4B200211C4B02E0E0180160241D94
:1029A800FF2CFADD0F221748120242600F22026143
:1029B800012202604269002AFCD00160039A0020CB
:1029C800121D11E0C11809683154401C80B20C0A6C
:1029D8003454401C0C0C80B23454401C80B2090E94
:1029E8003154401C80B2121F002AEBDCE86F401CF7
:1029F800E86701208007826810218A43826005B059
:102A0800F0BD00000000044000010440F8B5FFF7E5
:102A180001FB494908600420FFF71AFBFFF71EFB7A
:102A28000646C00715D0454900200860444800788C
:102A3800012811D0032813D0042815D0022817D054
:102A4800052819D0FFF710FB3E4F044601281AD07D
:102A58001EE0FFF70FFBF8BD3046FFF711FB0EE055
:102A68003046FFF713FB0AE03046FFF715FB06E098
:102A78003046FFF717FB02E03046FFF719FB40B27C
:102A88000128E8D035E03878052809D0062807D08D
:102A98002D482E4D0078022806D0052804D00AE0DB
:102AA800304601F0D1FF24E0022C04D1A87B002895
:102AB80007D0022805D03046FFF700FB022C03D0D0
:102AC80017E0304601F0CCFF3878012811D17005A5
:102AD8000FD4687BC10701D0252004E0800701D509
:102AE800262000E02720297D814202D93220FFF7E5
:102AF800EBFA154C2078042804D003280ED00728B8
:102B080011D014E0FFF7E6FA002810D0FFF7E8FA32
:102B18005820FFF7EBFA0220207008E00C48807C70
:102B2800FFF7EAFA03E00B48807BFFF7EBFA032094
:102B3800FFF78EFAF8BD00009C09FF1F9809FF1FD8
:102B48009009FF1F1C09FF1F2309FF1FA60BFF1F6A
:102B5800BC0BFF1FD40BFF1F10B5FB2908D8084B6F
:102B68009A4205D81B2903D3FF2349339A4201D23D
:102B7800302010BD034B19825A82FFF7C9FA10BDE5
:102B8800480800008410FF1F002805DBC106C90E95
:102B980001208840014908607047000000E100E01A
:102BA800024901480860704740787D01B45DFF1F05
:102BB8002021020C01D010211046020A01D0104633
:102BC8000839020901D01046091F820801D01046B1
:102BD800891E420801D0881E7047081A70470000F5
:102BE800002805DBC106C90E01208840014908609C
:102BF8007047000000E100E08307FF22DB0E9A40E7
:102C08008907090E9940002808DB830809489B00BA
:102C18001B18186890430843186070470007000F96
:102C28000838830804489B001B18D8699043084358
:102C3800D861704700E400E000ED00E08307FF2260
:102C4800DB0E9A408907090E9940002808DB8308A3
:102C580009489B001B181868904308431860704780
:102C68000007000F0838830804489B001B18D86920
:102C780090430843D861704700E400E000ED00E0AD
:102C88008307FF22DB0E9A408907090E9940002826
:102C980008DB830809489B001B1818689043084301
:102CA800186070470007000F0838830804489B0025
:102CB8001B18D86990430843D861704700E400E0C6
:102CC80000ED00E002E008C8121F08C1002AFAD18E
:102CD80070477047002001E001C1121F002AFBD194
:102CE800704700001CB569460120FFF717FA01205C
:102CF80000900348019000F029FB01201CBD000052
:102D0800BB0B0000044629A0FFF70EFA2DA0616A4C
:102D1800FFF70AFA2FA0A16AFFF706FA31A0E16AC5
:102D2800FFF702FA33A0216BFFF7FEF935A06168BF
:102D3800FFF7FAF937A0A168FFF7F6F939A0E168BB
:102D4800FFF7F2F93BA02169FFF7EEF93DA06169B1
:102D5800FFF7EAF93FA0A169FFF7E6F941A0E169A9
:102D6800FFF7E2F943A0216AFFF7DEF945A0616B9E
:102D7800FFF7DAF947A02168FFF7D6F949A0A16B58
:102D8800FFF7D2F94BA0E16BFFF7CEF94DA0216C0C
:102D9800FFF7CAF94F4841684FA0FFF7C5F95248F5
:102DA8000068002800D08047FEE700005B48617299
:102DB80064206661756C742068616E646C65725D10
:102DC8000A00000052302020203D2030782530387D
:102DD800780A000052312020203D203078253038F4
:102DE800780A000052322020203D203078253038E3
:102DF800780A000052332020203D203078253038D2
:102E0800780A000052342020203D203078253038C0
:102E1800780A000052352020203D203078253038AF
:102E2800780A000052362020203D2030782530389E
:102E3800780A000052372020203D2030782530388D
:102E4800780A000052382020203D2030782530387C
:102E5800780A000052392020203D2030782530386B
:102E6800780A000052313020203D20307825303853
:102E7800780A000052313120203D20307825303842
:102E8800780A000052313220203D20307825303831
:102E9800780A000053502020203D20307825303813
:102EA800780A00004C522020203D20307825303808
:102EB800780A000050432020203D20307825303803
:102EC800780A000050535220203D203078253038B1
:102ED800780A000000ED00E049435352203D2030BD
:102EE80078253038780A0000B05DFF1F10B5FFF76D
:102EF800F9FE002802D00248804710BDFEE7000016
:102F0800E1A200000A4610B50146002001F006FBC8
:102F180010BD000038B5154880210278114220D034
:102F2800807800281DD112480021C579284600F074
:102F380049FE0121284601F049F804220B49684658
:102F4800FFF7F8F80B49009800F0D6FA044600217C
:102F5800284600F037FE002C04D0214606A000F0D9
:102F6800DDF938BD00F028FC38BD0000675DFF1FA3
:102F7800965DFF1FDD2FFF1F726574203D202564BD
:102F88000A00000010B502494870FFF7C3FF10BDE2
:102F9800655DFF1F10B50C4608040AD50C4840783B
:102FA800FFF7CEF8002801D0FFF7D0F80120C003C2
:102FB80009E0A00602D52020484010BD200604D50F
:102FC800FFF7A8FF8020604010BD002010BD000062
:102FD800655DFF1FF8B5064600680025012870D119
:102FE800307902286DD3C3013648317B18184A005E
:102FF800FF380138B168FFF707F832790121324FFD
:1030080091403A781143C9B23970BA1C12788A4291
:1030180057D1022401203978A04008423DD02A49DE
:10302800891CCA78024201D0012300E00023897874
:10303800014201D0012000E0002000902148E10178
:103048000918FF39327BE0B2013900F03FFC024633
:10305800A01E0300FFF780F8060406080A0C0E10ED
:103068000B250BE0172509E0182507E00E2505E0DC
:103078000F2503E0142501E0002D0BD0134910465D
:10308800FEF7BFFCFEF760FE0246294610A000F0DE
:1030980045F902E011A000F041F9641C082CB9DBE5
:1030A800094C13A0A41C617800F038F9002038708E
:1030B8006078002805D17D22D20080217878FFF73A
:1030C80051F8F8BD0C7EFF1F655DFF1F00007A44B4
:1030D800502564202564206D76200000696E766195
:1030E8006C6964206368616E6E656C0A000000009C
:1030F800206D6F64653A2564200A00000448016861
:10310800FF22120291430122D2031143016070474A
:103118001CE400E010B5FFF72BF80120FFF72EF8AC
:10312800FFF732F8002010BDF8B52E480078FF28C8
:1031380021D02D4E30680121890408433060F069A0
:103148002A4908402830F0610320FEF751FF706AD1
:10315800C503ED0B0320FEF74BFF706AC403E40BB5
:103168000320FEF745FF706A214FC003C00BA5423C
:1031780005D3214604E03C20FEF73AFFF8BD294676
:10318800814200D30146A54201D32A4600E02246E7
:10319800824200D20246EB19C32B0DD2144BDB43FB
:1031A8009C4209D9134DAC4206D2984204D9A84290
:1031B80002D2511A132908D3254604460320FEF7E4
:1031C80017FF706AC003C00BD1E71420FEF710FF89
:1031D800706AF169C003C00B08229143F161064986
:1031E8008860F8BDD15DFF1F40F0004000FEFEFF83
:1031F80091FCFFFF32040000B85DFF1FF8B53C48A2
:1032080000783C4C8021FF282DD03B4D00202861C0
:103218002068CA0210432060384F60688021084344
:1032280060600320FEF7E4FE2869401C286160689E
:1032380001210904084360600026E06930493840EC
:103248004018E0610320FEF7D3FE606AE169C0031D
:10325800C00B08229143E161A968062251438142CB
:1032680008D3091A07E06068084360600320FEF786
:10327800BFFEF8BD411A3C2909D2E26901210904BF
:103288008A43E26162688A436260E860F8BD761C3E
:10329800F6B2052ED1D3E169012000048143E16132
:1032A80061688143616028692E46052808D3BFF309
:1032B8004F8F15491348C860BFF34F8F00BFFDE714
:1032C80060688021884360600320FEF791FEE06912
:1032D80038402830E0610320FEF78AFE606AC003A8
:1032E800C00BB060E16908208143E16195E7000007
:1032F800D15DFF1F40F00040B85DFF1F00FEFEFFDC
:10330800280001000400FA0500ED00E010B52821AE
:103318000148FEF73FFF10BDF082FF1F0FB410B544
:1033280003AA0448029901F0A7FB10BC08BC04B02A
:10333800184700000D2FFF1F38B5034B00240FCB93
:10334800009401F0B9F838BD3C5CFF1F70B58AB035
:1033580000241E4D049405942878012806D004A959
:103368000120FEF7DBFE002802D000200AB070BD65
:103378000498009005980190154881680291C068EA
:103388001349039006AA10316846FEF749FE104E0D
:1033980010222036314606A8FEF702FF002811D079
:1033A800012028700B4A31466846FEF739FE04941E
:1033B8000020694605948200401C8C500428FADBE2
:1033C8000120D3E7FF202870CFE70000DC5DFF1F56
:1033D800002900113883FF1FF0B52C4895B0C16B48
:1033E8008F05416BBF0D490A49024163284840785F
:1033F800B84244D1022404AE0125A5403D4235D04F
:103408002248426BAA4342630020E1018C4662468F
:10341800810052181F4951188A6813051B0D420074
:10342800B352896892190901090D401C51801D2861
:10343800EDDB16480123856315490878002815D067
:10344800E00701D0601E00E0601C82005118496846
:10345800002907D06A46009310711D200296107348
:10346800684688470948416B29434163641C072C17
:10347800C2DD07488078002801D100F0CDF9034863
:10348800416B054A1143416315B0F0BD000005408A
:10349800F082FF1F00040540FF01000010B504483A
:1034A800C16B034A40321068D06000F0D3FD10BDF4
:1034B8000080004010B50F4880680007000F0628FC
:1034C80008D008DC02280CD0042803D101210120EF
:1034D80001F070F810BD072807D00C28FAD1022196
:1034E800F5E7012001F092F810BD02484030C06BAA
:1034F80010BD000000900040F3B5A44885B00078E6
:10350800002806D0A2490878002804D0112007B066
:10351800F0BD1220FBE7069800280FD06846057D0D
:10352800E80701D00520F2E76846847D002C07D023
:10353800802C05D0202C03D0082C01D00620E6E7EB
:10354800407D8870A807800F487002200123194623
:1035580081400D4209D0C1078D494A7801D0461EE5
:1035680000E0461CB3401A434A70401CC0B2082809
:10357800ECD3012080078068800302D4112000F07A
:103588009BFA844AD06B40210843D063814840307D
:10359800016801239B041943016041688023194392
:1035A800416041689B039943416041684314194352
:1035B8004160C16B10231943C163C36B01210B43E5
:1035C800C3636846C07D0390002010620226012173
:1035D800B14029420BD00B463046234000D001238E
:1035E800039A114000D001211A4602F05DF8761CBA
:1035F800F6B2082EEBD3674E4036F16A3046012208
:1036080012059143F162F36A10218B43F362336B25
:1036180093433363336B8B433363736B93434363DA
:10362800436B8B434363836B93438363826B8A430C
:1036380082638268CB049A438260002C08D0022CF3
:103648006CD0082C62D0202C58D0802C70D14DE042
:103658000446C06B10218843E06302260120B04075
:1036680005423ED049480021801D875D384600F05C
:1036780085FB0121384600F0BDFA0121384600F0EB
:10368800A1FA3300FEF768FD0805090E12171B2082
:103698002428E06A0121090501E0E06A10210843B5
:1036A800E06219E0206B0121090501E0206B10217F
:1036B8000843206310E0606B0121090501E0606B9D
:1036C80010210843606307E0A06B0121090501E0B0
:1036D800A06B10210843A0632D49B2005118069829
:1036E8004860761CF6B2082EB8D34CE00D20009046
:1036F8000920019004200727029019E00820009073
:103708000F20019003200527029011E00E20009061
:103718000720019002200327029009E00C20009066
:10372800102001900120074602901A48602101628A
:103738000121009800F05EFAB168E0229143029AF4
:1037480052011143B160B168FF2201329143B16067
:10375800B168D2009143B1600021009800F00EFBDF
:103768000021019800F00AFB0121009800F02AFAD4
:103778000121019800F026FA054861084170BA0055
:103788001018069941600020C1E60000905DFF1FF7
:10379800F082FF1F00F0004010B5054901200870B5
:1037A800044A0021112000F047FDFFF7AFFD10BDCE
:1037B800905DFF1F0531FF1F10B50F4800780028E6
:1037C80018D00E4801240470112000F009FD0D499D
:1037D8000B4848630C48816808221143816081685E
:1037E800214381600949C00508600A4908484863BF
:1037F800002010BD122010BD905DFF1FF082FF1F3A
:10380800E133FF1FC003FF1F40F0004000E100E06C
:10381800FF01000000000540F8B5254800780028A1
:1038280044D02548234941630122244B52071A609A
:10383800BFF34F8FBFF36F8F214B00225A63816311
:10384800C26B002AFBD11F4DA86808218843A860D5
:1038580068688902884368601B4E0024A0008019AC
:103868004068002811D01249E0B2891D0F5CFF2F73
:103878000BD00021384600F0A5F90021384600F0A9
:103888004DFA0021384600F079FA641C092CE5DB72
:10389800A86840084000A860112000F0F3F8FFF77E
:1038A80035FD112000F0FEFC0020F8BD1220F8BD07
:1038B800905DFF1FFF0100000000054080E100E06F
:1038C800C003FF1F40F00040F082FF1FFFB581B02A
:1038D80000250A9E17462846009505E042008A5AA8
:1038E8001205120D5519401CB842F7D3484C6078A0
:1038F80000280DD101206070464801680905090DAE
:10390800A18000680001020D628043A0FFF706FD58
:103918003846FEF7FEF907462846FEF7EFF939461E
:10392800FEF7ACF8009065883F48854256D0A488D9
:10393800844253D0281BFEF7F3F90022D243FEF746
:10394800C7F9FEF72EFA07460198C00738D0002EAF
:103958000FD02819FEF7DDF904464521090600981D
:10396800FEF747F83946FEF744F80121FEF7C4F898
:1039780030E02819FEF7CDF9044639460098FEF7DD
:1039880038F827E000900498284C294D012837D0B2
:103998000198284980000858FEF7BBF90099FEF7FE
:1039A80030F8FEF7EAF922462B46FEF7B1F8002276
:1039B800214BFEF715F9FEF7F4F9009005B0F0BDBC
:1039C800002EC6D12819FEF7A4F9044639460098F6
:1039D800FDF7BEFF2146FEF751F8D3E7002E09D0C8
:1039E8000A21C9430098FEF787F87F21C905FEF729
:1039F80000F8C7E70B21C9430098FEF77DF8C1E737
:103A08000098FEF7BAF922462B46FEF781F8D2E76E
:103A1800905DFF1F0010001141445F43414C5B253E
:103A2800782025785D0A0000FF0F00009A9999997F
:103A38009999E93F585CFF1F80842E4138B5FEF7FD
:103A4800B5FB01229207936A08240094002B01D148
:103A5800012090620A480221016000994D1E0095DC
:103A6800FBD2032101600094641E0094FCD2002163
:103A78000160002B00D19162FEF79EFB38BD00006B
:103A880000C00040012189070122202804D28B6848
:103A9800824093438B607047402805D24B69203899
:103AA800824093434B6170476028FCD20B6A4038D0
:103AB800824093430B62704701229207012120281C
:103AC80004D2936881400B4393607047402805D225
:103AD8005369203881400B43536170476028FCD2FA
:103AE800136A403881400B4313627047012110B5B7
:103AF80089070122202813D20346153B012B07D83A
:103B08000A68202082430A600A6802430A6010BDDE
:103B18000B68824093430B6008681043086010BD2F
:103B2800402814D20346353B032B07D8CA68102017
:103B38008243CA60CA680243CA6010BDCB68203895
:103B480082409343CB60C8681043C86010BD6028AA
:103B5800FCD24B6A4224201A824093434B62486A43
:103B68001043486210BD0000F7B540031121400B17
:103B7800090646188C01A56A1746002D09D1FEF7DB
:103B880015FB0F490220086060620120A062FEF761
:103B980013FB002003E0325C01990A54401CB84230
:103BA800F9D3002D09D1FEF701FB05490020086073
:103BB80003216162A062FEF7FFFA0020FEBD00004B
:103BC80000C0004030B5C21F0A2A01D3062030BD0C
:103BD8000124074D9440002905D0002100F0CEF8BB
:103BE8002868204301E02868A0432860002030BDF1
:103BF80000380040054B012282405868002901D056
:103C0800104300E09043586070470000403800407F
:103C1800054B01228240D868002901D0104300E0FA
:103C28009043D860704700000038004070B5FF2806
:103C380014D08207D30E8408094A5E1DA400A51873
:103C4800AC69F21A0126521C9640761E9E40B44377
:103C580099400C43AC610121FFF7DAFF70BD000009
:103C68000038004010B5114C2078002801D00720FA
:103C780010BDFF212D310D48FEF78CFA0120207070
:103C88000B490020086348630A4908624862022118
:103C98001020FEF7D3FF1020FEF7A2FF064A0749BF
:103CA8000D2000F0C9FA002010BD00000C81FF1F94
:103CB8000080004080F00040D53EFF1F493EFF1FB6
:103CC80010B5172801D3052010BD0C4B9C6B0122A1
:103CD8008240104620439863586B90435863DC6BCE
:103CE800012907D020469043D863186B02431A6312
:103CF800002010BD10462043F6E700000080004079
:103D0800054B0122801E82405869002901D01043CA
:103D180000E09043586170470038004070B5044691
:103D280014480E460519002902D16878012808D0E0
:103D380000212046FFF76CFF022C04D0032C02D090
:103D480005E0072070BD01212046FFF7D9FF0021BB
:103D58002046FFF737FF08490120A0404A68012E96
:103D680005D082434A6002206870002070BD02437B
:103D78004A60FAE70C81FF1F0080004070B54200DE
:103D880083180D4A9C18A5786478D65C641B0122B8
:103D9800641CA240521EAA40084BA940132806D210
:103DA800B000C018836893430B43836070BD5869A3
:103DB80090430843586170BDC85BFF1F00F0004086
:103DC80007494A68012383401A4201D0096802E082
:103DD800034940310969C140C807C00F7047000056
:103DE8000080004070B5154C45002E1976780123E7
:103DF800114AB34000290ED0142809D0152807D03D
:103E0800162805D0605780008018816819430DE096
:103E1800506918430EE014280AD0152808D016282F
:103E280006D060578000801881689943816070BD12
:103E380050699843506170BD00F000400D5CFF1F51
:103E480070B5104D00242E197078012803D1E0B206
:103E58000121FFF7C7FF707802280ED1E0B2FFF703
:103E6800AFFF01214140E0B200F074F8E0B2FFF783
:103E7800A7FF0C21614349194876641C172CE2DB23
:103E880070BD00000C81FF1F10B50F4C0D4A0123B7
:103E9800245C142809D2106A002902D0A3401843D0
:103EA80001E0A3409843106210BD506A002903D076
:103EB800203CA340184302E0203CA34098435062B2
:103EC80010BD000080F00040B15BFF1F70B50221FB
:103ED8001020FEF7B3FE1020FEF782FE00241C4DD2
:103EE80007E0022C01D0032C03D1E0B20121FFF737
:103EF80007FF2819407801280BD1E0B2FFF760FFCF
:103F0800E2B20146104600F061F8E0B20021FFF786
:103F180069FF0C2060434019007E002814D0E0B2ED
:103F280000F066F8E6B23046FFF74AFF002801D0F5
:103F3800012100E000210C2272435219527E824274
:103F480002D0304600F0BAF8641C172CC9DB70BDEB
:103F58000C81FF1FF8B542008318184AD55C9A18DF
:103F68009278521ED4B2164A12185278022A21D1D7
:103F7800144EB76B0122134683401F43B763124B9D
:103F880013280ED2002906D0A900C9188B68A240B0
:103F980093438B600BE0A900C9188B68A2401343B8
:103FA800F7E70029596906D0A240914359610121D8
:103FB800FFF76AFFF8BDA2401143F7E7C85BFF1F90
:103FC8000C81FF1F0080004000F00040012200B576
:103FD800064B82400029196801D0114300E0914343
:103FE80019600121FFF79AFE00BD00000080004023
:103FF80070B50446164821460C2251430D186A68CC
:104008000026002A02D1AA68002A1CD0104B0222DE
:10401800183B1B195A700122425400212046FFF711
:104028007DFE6868002808D0A86800280DD02046C2
:10403800FFF7C6FE002808D0002631462046FFF7C5
:104048003FFE002070BD122070BD0126F5E700007C
:104058002481FF1FF3B5184E002481B007460125BF
:104068002846A040384223D00299084000D00120B9
:104078000090E0B2009900F021F80C20604380190C
:104088004168806800290ED0002807D000980028D1
:1040980002D00021E0B203E00121FBE7E0B20121F8
:1040A800FFF70EFE04E0002802D0E0B20021F7E797
:1040B800641C172CD4DBFEBD2481FF1F074A0C2388
:1040C80043439B185A68002A01D0012904D09A68F2
:1040D800002A02D0002900D1104770472481FF1F11
:1040E80030B587B0182217496846FEF76BF80024E8
:1040F8006D46600041194978285CFFF73FFE641C53
:10410800E4B20B2CF5D310484169C2009143052253
:104118001204891841614169012252061143416123
:1041280041690322520591430122520589184161D0
:10413800072000F021F800F02BF800F007F807B08E
:1041480030BD0000905BFF1F00F0004008B504225E
:1041580069460748FFF708FD0098401C05D1054847
:1041680041690122920611434161002008BD000007
:104178001C18001100F000400449420903D0002037
:10418800C86006207047C86000207047785DFF1F30
:104198000548C1691F2252049143044A9289520476
:1041A8001143C1610020704700F00040785DFF1F97
:1041B80010B578210848FDF7EDFF08480078012878
:1041C80003D0022804D0042804D1FEF701F801E046
:1041D800FDF702FF002010BD7882FF1F785DFF1FEA
:1041E80070B50546124812240078012815D0042815
:1041F80013D0FDF7DBFF0F4800210C224A43825CF5
:10420800002A11D0AA420CD10C23594301220818C4
:104218004270FDF7DDFF002406E0FDF7D9FF00201E
:1042280070BD491C0A29E8DBFDF7C6FF204670BDB2
:10423800785DFF1F7882FF1F30B50D4C00230C25D9
:104248005D43655D854201D1072030BD002D04D056
:104258005B1C0A2BF3DB032030BD0C256B431B19B9
:10426800F9D000245C7018709A602046596030BDFF
:104278007882FF1F70B5FFF78BFF094D0024204699
:104288000C214843295C002907D0401940680028C0
:1042980000D08047641C0A2CF1DB002070BD0000B0
:1042A8007882FF1F70B5054616480024007801285B
:1042B80011D004280FD0FDF779FF0021124A0B46D0
:1042C80008460C267043165C002E0FD0AE4205D16E
:1042D8008018437007E0FDF77BFF0DE080184078F9
:1042E800002800D0641C491C0A29E9DB002C05D0F1
:1042F800FDF76EFFFDF760FF002070BDFDF76CFE57
:10430800F8E70000785DFF1F7882FF1F70B5194835
:104318000121890742688A60826801231A434A6139
:1043280015490A6B0261496B416100210420FEF7BF
:10433800A7FC01211420FEF7A3FC01211520FEF79C
:104348009FFC01211720FEF79BFC0C4D0024204602
:104358000C214843295C002909D0401980680028AD
:1043680000D08047641C0A2CF1DB002070BD1220AD
:1043780070BD0000785DFF1F80F000407882FF1F4D
:104388001CB51A490D2008701948012404701949F0
:104398000A2008701848C16B490949010931C163ED
:1043A800C16B602291432031C16300F02DF80021D8
:1043B8000420FEF721FC01211420FEF71DFC012139
:1043C8001520FEF719FC01211720FEF715FC210323
:1043D8000A48FDF703FF042003460090012208491C
:1043E80001940848FDF700FF1CBD0000480AFF1FA4
:1043F800490AFF1F680AFF1F80F000400C6EFF1F6C
:10440800EC5DFF1F886BFF1F10B5FEF76FFD10BD39
:1044180070B540251C4C012802D0002811D027E097
:104428006069052140014009C90640186061E069DA
:104438001649084016494018E061E0692843E061E0
:1044480016E000210A20FFF799FC00210B20FFF756
:1044580095FCE069032109020843E061E069A8438B
:10446800E06160690B21400140090907401860615B
:1044780060690121090708436061A06903214904B3
:104488008843A06170BD000000F000407F00FEFF7F
:1044980080FD010010B5064AD160906000F04EF82A
:1044A800044A00211320FFF7C7FE002010BD0000BA
:1044B800A05DFF1F4545FF1FFFB581B00A9F144D42
:1044C8007E01A85D002802D0112005B0F0BD684625
:1044D800407B002801D00520F7E7741920212046E9
:1044E800FDF758FE01A80FC810340FC4384601F074
:1044F80017FA0120A855002F06D0064A00211920D6
:10450800FFF79AFE0020E0E70021034A0820F7E7BA
:104518003882FF1F8B5AFF1F815AFF1F10B5064CA8
:1045280043011B199B7E002B02D001F05BF910BDE3
:1045380001F022F910BD00003882FF1FF8B50025F0
:1045480017480095426800782B460121FDF752FE76
:104558001549144888630120144980040860BFF392
:104568004F8FBFF36F8F12480168FF221204022693
:104578009143B20511430160642000904120FFF788
:104588009BFA4020FFF798FA740766620098411E6C
:104598000091FBD203206062FFF750FAA562F8BDD4
:1045A800A85DFF1F050001FF00C8004080E100E092
:1045B80010E400E070B5124A8AB0012800D1114A0F
:1045C800430111486D461C18207E00280AD084201B
:1045D8008058C3B2002002E016782E54401C98423E
:1045E800FADB03E0107D012310782870E269002AC5
:1045F80004D0297506952B7705A890470AB070BD99
:1046080000400040009000403882FF1FFEB504467D
:1046180042012048204D1318805C191D002829D01C
:10462800187E002826D0987E002823D008780228F3
:1046380020D188884A888E68801A82B2102A01D9C7
:10464800102201E0002A02D0012C16D01CE0012023
:104658000870002048808880D969002905D00F4B50
:104668006D460DCB0DC568468847002C03D0192030
:10467800FFF718FEFEBD0820FAE7094D04E0488858
:10468800431C4B80305C28701046521E92B20028A2
:10469800F5D1FEBD3882FF1F004000404C5CFF1F73
:1046A80000900040704710B5002901D0FDF7A8FD23
:1046B80010BD0000F3B506466548A1218078890041
:1046C8004843644983B00968A12244182046FF3052
:1046D80021305F4900908978920051435D4A407DBE
:1046E800126800258F18FF37813732281DD02228FD
:1046F8001BD0F86A0168002909D08188001D090AC1
:10470800891CFDF783FDF96A002001250860FDF783
:1047180083FD04992746FF370880C137387C002875
:1047280021D0B0421FDC002014E04B490120086072
:104738000020F96A01250860E9E780000019FF30C8
:104748008130006B8188001D090A891CFDF75EFD18
:104758000198401C0190397C8142EEDCC8B2361ABF
:104768004519002038743D490020C870FF20AD303D
:1047780000590168002903D00079C04380071ED082
:104788000098C07D00281AD00098807D002816D196
:10479800387CB04213DAFF204930005B010A20461A
:1047A800FF304930891CFDF731FD00990020C8759C
:1047B80000980121817529486D1CC170761E387CCE
:1047C800002802D0284605B0F0BD2046FDF72AFD96
:1047D8000090002821DD002E1FDD002718E020466C
:1047E800FDF726FD80000019FF300130C06E81887A
:1047F800001D090A891CFDF709FD2046FDF71EFD6D
:10480800E01DFF30FA30016A6D1C491C7F1C0162F3
:104818000098874201DAB742E1DB092080012018BD
:10482800817E002911D0017D00290ED0428E002AF8
:104838000BD0817F914202D2491C817705E000218B
:1048480081771A212046FDF7FFFCA8B2BBE70000DC
:10485800300DFF1F3409FF1F00140340E010FF1F35
:1048680070B55F480068012803D15E48816D491C16
:1048780081655E485C4941610124C46004605C4D07
:104888002878002806D006225A495B48FDF7BCFB69
:10489800002028705949486B594AC0B21278002A3A
:1048A80017D1584A0023D356002B574BD35606DB53
:1048B8001B04002555572A029A18121808E0FF33DE
:1048C8001B04002555572A029A18504B1218D21863
:1048D8004A63022801D2022002E0502800D9502061
:1048E8004B4A1278022A11D04A4B1D784A4A167848
:1048F800B5421DD91D781278AA1A801E401042436D
:1049080018784001801A1030401112E0434A157897
:10491800434B1E78B54209D915781B78EB1A801ECF
:104928004010434310784001C01AECE7107800E0CB
:1049380018784A69120A120210434861FDF794FB7D
:104948000546052801D0042D1ED1364800780028D8
:1049580006D035480078002802D00020FDF77AFC00
:104968003248A121807889004843314909684018B4
:10497800FF30FF300230007B042801D0032803D128
:10498800FF205F30FDF7B2FB2A48022D02D0002D30
:104998000FD022E00078012807D0032805D002288C
:1049A80003D025480078022817D16C20FDF79EFB1C
:1049B80013E00078012801D003280ED11F484021B8
:1049C80082791F48002A02D0012A03D005E0828894
:1049D8008A4301E082880A4382801A48C48270BDF3
:1049E8009809FF1FFC0FFF1FFF3F00000010034046
:1049F800B85DFF1FD50BFF1F7211FF1F800003401A
:104A08008C09FF1F680AFF1F00000000FFFE00005E
:104A1800490AFF1F440AFF1F450AFF1F460AFF1FD6
:104A2800470AFF1FF908FF1F2209FF1F300DFF1F4C
:104A38003409FF1F1C09FF1F2309FF1FA60BFF1FB7
:104A48008413FF1FBC0BFF1F10B504490968002918
:104A580001D0884710BDFDF731FB10BD8002FF1F54
:104A680010B504494968002901D0884710BDFDF7F1
:104A780025FB10BD8002FF1FF7B5064686B0002053
:104A880004900390079810E125290AD00499002979
:104A980001D0039802E0049000200390401C03908A
:104AA80000E10398002805D081B20498B04700209F
:104AB8000490039000250422082310210798401C25
:104AC800079000782B2819D004DC202818D0232838
:104AD80004D117E02D280FD0302815D0079A0027C9
:104AE8001078FF430346303B3C46092B0FD807A8F4
:104AF80000F032FE044615E00D43DFE71543DDE71D
:104B08001D43DBE7202000E001200543D6E72A28E3
:104B180008D1521C0898079210C80890002C01DA96
:104B280064420D43079938460A782E2A14D1491C45
:104B3800079108780246303A092A03D807A800F0F6
:104B48000BFE06E02A2806D1491C0791089901C9DD
:104B58000891002800DA0020079A39461778682F4C
:104B680003D06C2F01D04C2F02D1521C394607922A
:104B7800079B0A221B786E2B2CD00CDC632B2AD0C7
:104B880004DC412B26D0582B11D19BE0642B01D09B
:104B9800692B0CD19AE0732B3DD004DC6F2B77D0B6
:104BA800702B04D164E0752B73D0782B6FD0252B34
:104BB80009D0252069460872012102A8B047079844
:104BC8000178002975D00798694600780872012194
:104BD80002A8B04766E0E80609D42025641E002C28
:104BE80005DD68460572012102A8B047F6E7089876
:104BF8006A4601781172001D0890012102A8B04789
:104C0800202504E068460572012102A8B047641E09
:104C1800002CF7DC46E0089A02CA089200910029A5
:104C280001D12DA100910A4600E0491C0B78002B08
:104C380001D0401EF9D28F1AE8060AD42025204652
:104C4800641EB84205DD68460572012102A8B04716
:104C5800F5E7B9B20098B047202504E06846057228
:104C6800012102A8B0472046641EB842F6DC19E0CC
:104C7800611C02D1082401210D4300900898019578
:104C880002C823461022089009E001E001E01BE079
:104C98000822089B02CB08930195009023463046D2
:104CA80000F0B0F80798401C07900178002901D05F
:104CB800EAE60EE00398002802D081B20498B047D3
:104CC80009B0F0BD402215431022E2E702231D433C
:104CD800DFE7401E0790E5E73C4E554C4C3E000090
:104CE8007CB5214C03202070204D01202870FDF751
:104CF800B7FAFDF737FBFFF743FBFFF7F1F9207829
:104D0800FDF7B4FA2878FFF783FBFFF751FA184943
:104D180003C9FFF7BFFBFEF70FFBFEF7A3FFFEF784
:104D28003BFD144914A0FEF7F9FA19490978194806
:104D380000780191009023782A781748017817A005
:104D4800FEF7ECFA214C0821224621A0FEF7E6FAEC
:104D58000123A1221B03920021462948FEF7DEFA0F
:104D6800FEF7D8F900207CBD4A0AFF1F645DFF1FCB
:104D7800885BFF1F0900030053444B20566572737C
:104D8800696F6E2049442025303878200A000000D9
:104D9800450AFF1F440AFF1F4B0AFF1F7266436C38
:104DA8006B202564207263436C6B20256420737923
:104DB80073436C6B2025642074704361705B2530ED
:104DC800327820253032785D0A0000009C0D000002
:104DD80073697A656F6628737472756374206C6C76
:104DE8005F706B745F6465736329203D2025642CB4
:104DF800206275662073697A65203D2025640A0063
:104E08007C5CFF1FFFB50746574897B0219D006897
:104E180015901E460A46680602D553484068159004
:104E2800E80601D56D086D001998801E232870D2F8
:104E3800E80701D0302100E0202110A801730021EB
:104E48000172A80710D5002A04DA2D2010A90872CB
:104E5800524208E0680701D52B2002E0280703D555
:104E6800202010A908725E1EA80608D519981028D7
:104E780002D0082802D002E0B61E00E0761E002408
:104E8800002A14D010461999FDF7F6F9159A525CC4
:104E980001A90A55641C0200F4D12098844200DD5F
:104EA80020942098361A112005420BD00EE03020AD
:104EB800694608710124F0E720206946087001213D
:104EC8006846B8473046761E0028F5DC10A8007AF8
:104ED800002802D0012112A8B847A80616D51998AB
:104EE800082802D0102802D010E0302009E0302035
:104EF8006946087001216846B8471B480068203099
:104F080040786946087001216846B847E80604D524
:104F180007E027E0012113A8B8473046761E00288D
:104F2800F8DC30252099481E2090A1420BDD684608
:104F380005700121B847F5E7285D69460870012129
:104F48006846B84700E001AD2046641E0028F3DC3F
:104F580020243046761E002804DD684604700121AE
:104F6800B847F6E71BB0F0BD705DFF1F10B5002411
:104F78000420FDF787F90749042208600021FDF79E
:104F880087F920460124FDF789F92046FDF7FAFF45
:104F980010BD00006C5DFF1FF8B5184D0A26E869C2
:104FA80040084000E8610620FDF722F8134C403C19
:104FB800A06980210843A061E86901210843E861EC
:104FC80002E00820FDF714F8A86A800504D43046EA
:104FD800761EF6B20028F4D1002E07D0286A7E216A
:104FE800C70BA0690F4088433843A061A16980209E
:104FF8008143A1613806400EF8BD000040F0004032
:1050080010B500F011F800F09DFA054A012158206A
:1050180000F008FAFFF7C0FF0249487010BD000011
:10502800600AFF1FD05DFF1F30B5384801680122B4
:105038009204114301604168032212069143344AE5
:1050480013781B06194341604368032189058B4384
:1050580030490C78A4052343436043686024234304
:1050680043601378022B08D01378012B05D00B78F6
:10507800022B02D00B78012B04D14368FF240134A2
:10508800234343601278032A02D00A78032A03D103
:10509800426880231A434260426803239B041A43F0
:1050A80042600B780122D2051B48002B03D11B4B11
:1050B8001B78032B19D0C3689343C360164A184B57
:1050C8004032D360FF2581351561164C5461164B6B
:1050D8009361114B80335D609C60144CDC60144B11
:1050E80003600978002903D006E0C3681343E4E7A6
:1050F80001680123194301600E4909780E4BC9065E
:10510800C90BC91881630D48D06130BD40F000401B
:105118004C0AFF1F4B0AFF1F800003404A0AFF1F6B
:10512800C00B00207A3E6A070000890400808904C9
:10513800CC240000480AFF1F250800002FFCA60108
:10514800F8B5050049484A4B4A4C4B4A4B4934D0BC
:10515800022D32D086155710066286699E43B31811
:1051680083612078002833D00F614548086345489B
:1051780000780122120380184861404E3F4C424B90
:10518800803E403C002D27D06521404AC902404856
:10519800012D2ED0022D31D0032D5BD0042D59D0F6
:1051A8003C49691831603C49A1602360E0600221F4
:1051B8000846FDF779F839482BE0802606628669AB
:1051C8009E430123DB04F61886612078002801D06D
:1051D8000A61CAE70B61C8E7314830600020A06067
:1051E80023603048E06003210846FDF75DF82E484B
:1051F8000FE02E4B3360A2602160D7E72B4B5B1C7E
:105208003360A2602160E06002210846FDF74CF897
:1052180027482061F068FF210843F0602548606155
:105228002548A0612548E06125482062254860623C
:105238002548A0622548E062254820632548606328
:10524800E020012D0ED0022D03D121688143403189
:105258002160F8BD204BEB183360204B7360216050
:10526800A260A3E7216881432031F1E7C000034031
:1052780000001C004B0AFF1F0000040080000340D0
:1052880003000001440AFF1F00280B00555555373D
:10529800D6BE898E00800642555555008055082295
:1052A8000080067807EE7536806608220180063D84
:1052B80080450822A49C5C544C44434241524C46CD
:1052C800403A342E28007F554F49433D37312B4C07
:1052D80046403A342E28221C00800698545A98508A
:1052E800F0B51D4A1C4C1C4D072601231A49B6046B
:1052F800403AC03C803D9B04022812D08F150F62B3
:105308008F69B743FE188E611449097800291BD0AC
:1053180059101161012819D011494018206011480D
:1053280010E0802008628F690003B7433E188E6141
:105338000A490978002901D0136100E010610A4880
:1053480020600A482861F0BD1361E3E70648401E63
:1053580020600748F6E70000C00003404B0AFF1F23
:1053680000800698805508220280063D8045082264
:105378008066082210B50A490020087009490220F1
:105388000870FFF751FE0848007800F011F8074C44
:105398002078FFF7D5FE2078FCF78CFF10BD0000C1
:1053A8004B0AFF1F4C0AFF1F480AFF1F490AFF1F2D
:1053B800F0B51A4A03230725D60019499B02602431
:1053C800ED0157693F281AD0B74305263604BE19A0
:1053D8005661CA689A43CB14D218CA60CA69A243F4
:1053E8002032CA61CA69AA43CA610D4940398A6B29
:1053F800C0061205120DC00B02438A63F0BDB74305
:105408000126B604BE195661CA689A43CA60CA69B9
:10541800A243CA61CA69AA438032E5E700F00040A6
:10542800C0000340F8B53A4B5D6A9C6A00265E628C
:105438009E62384B58630E2018629E155E624020AB
:1054480098625020D862FF202B3058623148403093
:10545800012915D0802101622F49FF232D48A5334A
:10546800403083602D4B43602A4B2D48403B1861E8
:105478007D20C0000090471E009705D33846FAE704
:10548800066225498331E8E7264889050F1821482F
:1054980040388763234B5B1CC918816322480090FE
:1054A800224800780300FCF757FE05040408060D9F
:1054B80008001F4800E01F4800901F48106015486A
:1054C800403005E01D48F7E7C16AC943890F14D089
:1054D80000994B1E0093F7D20E4940398F630D494E
:1054E80000228A62CA6282604E620A62FF204130EC
:1054F8004862074845628462F8BDC16A104B19408A
:10550800116011680122090C120489184160E3E74F
:105518000010034080000340CA0200002020000061
:1055280080560C2064652100102700004A0AFF1FDE
:10553800204E00003075000000002020409C000034
:10554800FFFF3F3F00B50021022000F021F80C4981
:10555800801C08700021422000F01AF80949801CBC
:1055680008700121022000F013F80749801C087018
:105578000121422000F00CF80449801C087000BD8D
:10558800440AFF1F450AFF1F460AFF1F470AFF1F5D
:10559800F8B53A4C384A2260384D384A07239B04FC
:1055A800803540320129A9690ED0994301239B0413
:1055B800C918A9613249D16032490B780121C9055E
:1055C800314E002B07D009E099430123DB04C918A9
:1055D800A9612E49EFE73378032B14D0D3688B43A6
:1055E800D36050630E20106200275762FF201530E9
:1055F80050622748009030780300FCF7ADFD05079E
:10560800070D090B0D00D3680B43E9E7214802E0B9
:10561800214800E0214800900098431E0093FBD2E7
:10562800686B57620002000E17621D4BD360FF23A0
:10563800413353626523DB0223601A4D2F78E02340
:10564800012F03D02D78022D04D007E025689D4353
:10565800203502E025689D4340352560094B1B78BD
:10566800002B02D13378032B03D0D3688B43D3604C
:10567800F8BDD3680B43FAE710000300400003406D
:105688007F4073004B0AFF1F4A0AFF1F7F405300E9
:1056980010270000204E000030750000409C0000DC
:1056A80040401000490AFF1F70B50025801E2C4697
:1056B8000300FCF751FD060406080B0E114D0124EA
:1056C8000CE001250AE00225032407E00325022453
:1056D80004E00425072401E00725042401201D4BCC
:1056E80000291AD0002A0CD01E6A21460831024629
:1056F8008A4096431E621A6A0146A1408A430A43B9
:105708001A62196A2A46083204469440A14319626B
:10571800196AA8408143014319E0002A0CD01E6A87
:1057280022460832014691408E430E431E621A6A91
:105738000146A1408A431A621A6A2C460834014677
:10574800A1408A430A431A62196AA8408143196230
:1057580070BD000000F000400146002006E0531C28
:105768000B600A2312785843303810180A681378E7
:10577800303B092BF3D9704778B5174B012800D176
:10578800164B00241648009404E0009D6E1C0096F9
:1057980085421ADCDD6FED07F7D10AE0009D6E1C2B
:1057A8000096854211DC1D7DAD06F7D50D781D707C
:1057B800491C1546521E92B2002D0094F3D106E002
:1057C80000994A1C0092814201DD0D2078BD197DA7
:1057D8004906F5D5002078BD004000400090004003
:1057E800A0860100F7B507462A49400144182A4E09
:1057F800241D1546002A10D0019800280DD02178C4
:10580800002908D0E088A84205D3012916D0A1882C
:105818004919814203D90320FEBD0620FEBDFCF7CD
:10582800C5FCA188A0682A4640180199FCF782FCAB
:10583800A0884019A080FCF7BFFC27E0A068019968
:10584800FCF778FCA5800020608002202070A16809
:10585800102D00D91025012F00D1104E726802209A
:105868008243726004E06088421C6280085C307089
:1058780028466D1EADB20028F5D1002F08D019209A
:10588800FEF7AEFC70680221084370600020FEBD80
:105898000820F5E73882FF1F0040004000900040D4
:1058A800F8B5064608270B20184C012E02D11927F7
:1058B800174C11200121814016480160BFF34F8F1A
:1058C800BFF36F8F144871010D18287C0021FEF773
:1058D8009FF9687C0021FEF79BF980202073002542
:1058E800257125702573257265603846FEF7FEF828
:1058F8003846FEF7C7F8002E03D008484560002058
:10590800F8BD06484038C562F9E70000004000408D
:105918000090004080E100E03882FF1FC003FF1FB5
:10592800F0B587B00746FCF7CBFC0690082001903D
:105938000420009005200390464C0B263846FFF7BC
:10594800AFFF012F07D119200190082011260090E0
:10595800414C09200390414879010D18287CFF2803
:1059680002D1687CFF282CD010350198FEF7A4F8E6
:105978000198FEF7BBF828780221FEF7FFF968784E
:105988000221FEF7FBF928780099FEF74FF96878AD
:105998000399FEF74BF900202073069869680011F7
:1059A8004A088018FCF768FC014600202061802026
:1059B80020730A0A22712170E97A002904D01B2178
:1059C80003E0062007B0F0BD03212173297A0029DE
:1059D80000D087212172012161602A7A002A02D031
:1059E800626802436260AA7A002A03D062680223CE
:1059F8001A436260002F12D01A4B194A5A60FF22CC
:105A0800002E11DBB408184BA400E4182368B5076E
:105A1800ED0EAA409343A8400343236013E0114BC3
:105A2800124A403BDA62EAE733071B0F083B9C083F
:105A38000F4BA400E418E369B507ED0EAA409343A1
:105A4800A8400343E361002E02DB0A48B14001602D
:105A58000020B7E700400040009000403882FF1F58
:105A6800BD34FF1FC003FF1F00E400E02923FF1F10
:105A780000ED00E000E100E010B50020FFF750FF66
:105A880010BD10B50120FFF74BFF10BDF8B5304E23
:105A9800012730782F4D02280CD0FCF717FC04465C
:105AA800FDF742FBFDF7AAFBFCF710FCA04206D36A
:105AB800001B06E06868006AFCF79AFA08E0001B19
:105AC800401E1E2168614843234940186968C8611F
:105AD800234922480860224822498030C163FF21B7
:105AE800413141623078FCF7C1FB1F491F48FCF780
:105AF800F3FB1E481E491430FCF7EEFB0420FDF7AB
:105B080043F81420FDF740F81520FDF73DF817205D
:105B1800FDF73AF8FF20FCF79DFB0120FCF7E2FBBC
:105B2800FF20F530FCF7E4FB5820FCF7DFFA1148BA
:105B3800FCF7E4FB3846FCF7E7FB0720FCF7EAFB39
:105B48000D49C8690D4A1040FF300930C861F8BDD9
:105B58004A0AFF1FB85DFF1FDC0500000180063DF3
:105B680000000340340800007102000014100040D7
:105B7800FFFF3F003075000040F0004000FEFEFFD0
:105B8800040000003B0001080200030004000502B5
:105B980006020700080009000C000D0016000000AE
:105BA800F15900009D2FFF1F020001020307090A97
:105BB8000B0E0F101112141718191A1B1F2021226F
:105BC800000201000504000807000B0A0017160070
:105BD8001D1C010201010504010E0D011110011423
:105BE80013011716011A19020201020B0A020E0DFF
:105BF8000211100214130217160305040308070301
:105C08000B0A030E0D000D000E001000110013000A
:105C18001401070108010A010B011C011D020402FD
:105C280005020702080219021A021C021D030103D9
:105C3800020317000506FFFF00C201000100000073
:105C48000000000003000000000000000000000049
:105C58000000000000000000DC7B44009FBE410003
:105C6800770D41000D2D440053373F00C1DE3D0044
:105C78000000000073697A656F6628675F70436F7C
:105C88006E6E656374696F6E42756666657229200B
:105C98003D2025642C2073697A656F662870436FF0
:105CA8006E6E436F6E7465787429203D2025642CD0
:105CB8002073697A656F66286C61726765486561EB
:105CC80070293D2564200A003031323334353637A7
:105CD80038394142434445464748494A4B4C4D4E62
:105CE8004F505152535455565758595A00000000B6
:105CF800303132333435363738396162636465663A
:105D08006768696A6B6C6D6E6F70717273747576A3
:105D18007778797A000000005048592B3632585865
:105D2800504C555330353034000000000004FF1F3C
:105D3800EC5DFF1F0C000000CC2CFF1FEC5DFF1F6B
:105D48000004FF1F000400008A1FFF1FEC5DFF1FF7
:105D5800EC5DFF1F5C290000DC2CFF1F000000E049
:105D680000007F0000000000F85CFF1FD05CFF1FF0
:105D780002000000802108005902E0010000000034
:105D880000000000000000000000FF0FFF0FFFFFF1
:105D9800070E0F08090DFF000000000000000000BA
:105DA800040000003B0001080000000040787D016D
:105DB80000000000000000000000000000000000DB
:105DC8000100000000000000FFFF000000000000CC
:105DD800205DFF1F00000000000000000000000020
:045DE80000000000B7
:040000051FFF18F9C8
:00000001FF
