:020000041102E7
:1000000003B40148019001BDADAE000003B4014846
:10001000019001BD456B010003B40148019001BD91
:100020000189000003B40148019001BDC53F0000F3
:1000300003B40148019001BDE94C010003B401483B
:10004000019001BDC95C010003B40148019001BDEC
:10005000CD4C010003B40148019001BD618900004D
:1000600003B40148019001BD154D010003B40148DE
:10007000019001BDF54E010003B40148019001BD9E
:10008000434D010003B40148019001BD2526000045
:1000900003B40148019001BD8B52010003B4014833
:1000A000019001BDB352010003B40148019001BDAC
:1000B0000D52010003B40148019001BDC94A01007D
:1000C00003B40148019001BD691F000003B4014859
:1000D000019001BD5D17000003B40148019001BD0E
:1000E0003D4B010003B40148019001BD595201008C
:1000F00003B40148019001BD5125000003B401483B
:10010000019001BD014C010003B40148019001BD03
:10011000594F010003B40148019001BD1D4B01007E
:1001200003B40148019001BD8D12000003B40148E1
:10013000019001BD4D1F000003B40148019001BDB5
:100140005522000003B40148019001BDDD520100B9
:1001500003B40148019001BD1D4D010003B40148E5
:10016000019001BD810E000003B40148019001BD62
:10017000017F000003B40148019001BDE1170000B8
:1001800003B40148019001BD7918000003B401488F
:10019000019001BDD949010003B40148019001BD9E
:1001A000E928000003B40148019001BD5549010050
:1001B00003B40148019001BD4551010003B4014859
:1001C000019001BDC926000003B40148019001BDA2
:1001D000B14DFF1F03B40148019001BD1DBC0000DB
:1001E00003B40148019001BD6DBC000003B4014897
:1001F000019001BD3555000003B40148019001BDD7
:10020000C51D000003B40148019001BD755DFF1FCD
:1002100003B40148019001BD115DFF1F03B4014803
:10022000019001BDF94C010003B40148019001BDEA
:10023000C521000003B40148019001BD291C000044
:1002400003B40148019001BD851F000003B40148BB
:10025000019001BD090E000003B40148019001BDE9
:10026000A946010003B40148019001BD11470100F6
:1002700003B40148019001BDB95BFF1F03B40148FD
:10028000019001BD8F21FF1F03B40148019001BD02
:100290006921FF1F03B40148019001BDB13E000078
:1002A00003B40148019001BD2538FF1F03B4014884
:1002B000019001BD2124000003B40148019001BD5B
:1002C0006538FF1F03B40148019001BDC90E00004D
:1002D00003B40148019001BD055E000003B401486C
:1002E000019001BDE548000003B40148019001BD43
:1002F0002951010003B40148019001BDD91B000040
:1003000003B40148019001BDB92AFF1F03B401489D
:10031000019001BDE12AFF1F03B40148019001BD16
:1003200051470100F8B5C849C64A002005464A6051
:100330008300401CD550FF28FADD4868C34A0146B7
:1003400080318A606E22C262C14A1278002A01D0CE
:100350007F22C2620A22BF4B02651A788263BE4ABC
:10036000C2611A781024022A06D01A78032A08D00B
:100370001A78042A05D005E0B84AC2610422026254
:1003800000E00462B64A426119229201826137227A
:10039000CA6036272D26C7630822466402644F6070
:1003A00032270F603B27CF634527CF640D4639279F
:1003B0004035C4C532270F6502270F66422708352E
:1003C000C4C51E274F66CE668A6605264E6742263E
:1003D0000E675A260E614A613C228A61AF22D20022
:1003E0000260A04A02631A78022A06D01A78032A09
:1003F00005D01A78042A04D005E0152202E00E2266
:1004000000E00C224260FF222D328260C260FF2297
:10041000F5320261944A82647D22D200934ECA670B
:10042000C6644262924A82627322C26506224265B3
:100430008265C21D0826F9320227166047664B27DF
:10044000FF0087660927C7668A4F0767466700254A
:100450008567BD10884F854EC5673E601E78022EA9
:1004600006D01E78032E07D01B78042B08D00AE094
:100470001A23CB61212301E01323CC610B6202E03C
:100480000E230C62CB61784B8B627D23DB008B6784
:1004900064234B620523CB6202230B63C8234B63A7
:1004A00000238B6338215160744911647449916150
:1004B0004B21C900D161734911627D21090151624B
:1004C000D3661E21136791666A4991651566556466
:1004D0005567D1656149FF30963191676A49D167A7
:1004E0006A4A8130026082604160FF21F531C1605B
:1004F000016168486649534A81606749803A1161E1
:100500006449664A80318A62654ACA62654A826184
:10051000654AC262654A02636548C8615D496548CB
:10052000403188616549644888605A486449803828
:10053000416064494163FFF763FD0120FFF766FDF9
:10054000F8BDF3B50746604881B0C1695F4A114004
:10055000FF310931C161002613E000252C4611202E
:10056000FFF75AFD5848406A8007800F61008840B5
:100570002843641CE4B20546102CF0D301C7761C56
:10058000F6B202988642E8D3FEBD10B52E4C6078D4
:1005900000280AD104214E48FFF7D3FF4C4804211C
:1005A0001030FFF7CEFF0120607010BDF0B50024C1
:1005B0008BB00D460646102902D901200BB0F0BDC4
:1005C000FFF7E3FF424900200A5C401C1419C0B247
:1005D0001028F9D3002C03D0102D03D90B20EDE700
:1005E0000E20EBE73B483A4C0023006802A9103488
:1005F000E25CC75C7A40CA545B1CDBB2102BF7D3B9
:1006000006AA3348FFF70EFD102D00D910252A4603
:1006100006A93046FFF70CFDFFF710FD21684018D2
:100620002060FFF70BFD616840186060FFF706FD72
:10063000A1684018A060FFF701FDE1684018E06084
:100640000020BBE70004FF1FB07BFF1F08A8FF1FAF
:10065000E077FF1F4A0AFF1F220B0000460500003B
:1006600080C3C9019A02000050C30000F8110000C5
:100670006A180000204E0000F009FF1F0040001122
:1006800068100000C409000040420F00102700005D
:10069000A162FF1F0001FF1F1132FF1FB16AFF1F80
:1006A000916DFF1F7B2EFF1F0D30FF1F952EFF1F2B
:1006B0006D75FF1FE921FF1F9535FF1F0002FF1F0A
:1006C0000160FF1FF560FF1F40F0004000FEFEFFCD
:1006D0008CA2FF1FD07BFF1F0A7802708A784270BD
:1006E0004A88120A82700979C170042070470A781A
:1006F00002700988090A41700220704710B5002273
:100700000EE093005B189C7804705C88521C240AED
:1007100044701C7984709B88D2B21B0AC370001D80
:100720000B789342EDD81806800D10BDF8B50D4634
:1007300006464978012031700024761C16E069785D
:10074000012917D01221614349198A7832704A88E9
:10075000871C120A7270B61C10223046091DFFF762
:1007600067FC1037B8B21036641CE4B22978A14295
:10077000E5D8F8BDA10049198A7832704A88871CEB
:10078000120A7270B61C02223046091DFFF750FC97
:10079000BF1CB8B2B61CE7E710B50C46097801706B
:1007A0002188090A41706288211D801CFFF740FCE6
:1007B0006088801C80B210BD10B50C4609780170AD
:1007C0002188090A4170A17881706188090AC17085
:1007D000A288A11D001DFFF72BFCA088001D80B280
:1007E00010BD10B50C460A88891CFFF721FC208833
:1007F00010BD10B50B788A7802705343DCB22246E4
:10080000401C091DFFF714FC601C10BD10B50B78CF
:100810008A7802705343DCB22246401C091DFFF760
:1008200007FC601C10BD10B50C460A88891CFFF738
:10083000FFFB208810BD10B50C460A88891CFFF705
:10084000F7FB208810BD7FB515460446022901D06C
:10085000102903D1022B04D0102B02D0002004B0A9
:1008600070BD994202D10A46294607E0102969461F
:1008700007D000F00DF8102269462846FFF7E4FB88
:10088000EDE7104600F004F8102269462046F5E72F
:1008900070B50C4605000CD0002C0AD01022064979
:1008A0002046FFF7C5FB2878207368786073012025
:1008B00070BD002070BD0000A073021110B50B4682
:1008C0000122024901F0E6FE10BD0000D906021126
:1008D00070B5064608880C46172812D30B4603222B
:1008E0000949304601F0D6FE050008D107492088A5
:1008F0000988884200D20146304600F0C1F92846F6
:1009000070BD022070BD0000EF060211DE7BFF1FEC
:1009100010B500231922194601F0BCFE10BD0000DD
:1009200010B50A78002A05D00B460722024901F0CB
:10093000B1FE10BD022010BDFD06021110B54A78AF
:10094000012A01D0022A08D10A78002A05D00B46D4
:100950000522034901F09EFE10BD022010BD0000DB
:100960002D07021101494000085A7047DC7BFF1F28
:1009700010B50B461D22024901F08CFE10BD00008F
:100980009907021110B50B461B22024901F082FEA5
:1009900010BD000099070211014917200880704717
:1009A000DC7BFF1F0098022B01D0042070471178D8
:1009B0005278120289180180002070470098012B9C
:1009C00001D004207047117801700020704770B585
:1009D000049C1E461546062B1BD36978287809020D
:1009E00040182080E978A878090240186080022227
:1009F0002271291D601DFFF71BFBB61FB2B22281B9
:100A0000F02A06D82046A91D0A30FFF711FB002066
:100A100070BD042070BD0098042B01D004207047E5
:100A2000537811781B02C91801809178D27812028C
:100A30008918418000207047F8B584890D46064624
:100A4000002C26D0B2681778380620D50C2C20D977
:100A50000C3CA4B21019009001217088234601F0CB
:100A60004BFC002811D0022028707806C00F687057
:100A7000B806800EA870641E2004000CA88001D067
:100A8000B068401CA8600020F8BD0120ECE7002001
:100A9000EAE70120F8BD10B502981146042B14D3E3
:100AA0004C780A78240212190280CC788A782402C1
:100AB000121942801B1F9AB28280F22A05D8801D2B
:100AC000091DFFF7B5FA002010BD042010BD0098E5
:100AD000042B01D004207047537811781B02C918E9
:100AE00001809178D27812028918418000207047E5
:100AF00010B502981146062B03D0142B03D0042006
:100B000010BD022200E0102202714B780A781B020D
:100B1000D2180280CB788A781B02D21842800279E0
:100B2000401D091DFFF784FA002010BD30B5039C5D
:100B3000D80718D1D805010E022914D30B48808894
:100B4000814210D8F6200155002008E0557813782E
:100B50002D025B194500401C6353C0B2921C8842B1
:100B6000F4D3002030BD042030BD0000D67BFF1F31
:100B70000098022B01D0042070471178527812029D
:100B8000891801800020704770B514460246049809
:100B9000022B18D3667825783602AD1905800546F4
:100BA000E0352A766976002A0BD0E8219B1E9AB29E
:100BB00042808A4207D8A11C001DFFF739FA0020A5
:100BC00070BDF421F2E7042070BD000010B50B46A3
:100BD0001722024901F05EFD10BD0000B9070211A5
:100BE00010B50B460D22024901F054FD10BD000066
:100BF000E307021110B50A78002A05D00B4611222E
:100C0000024901F047FD10BD022010BDF30702119B
:100C100010B50A78002A05D00B460922024901F0D6
:100C200039FD10BD022010BD0D08021110B50B4694
:100C30000F22024901F02EFD10BD0000270802110D
:100C400010B50B460B22024901F024FD10BD000037
:100C500037080211F72800D9F720084A014610800A
:100C6000401EC3179B0F18188003000C5080491EAC
:100C7000C80F4018C003000C90807047D67BFF1F40
:100C8000044A1288914203D8024A4000921D115230
:100C900070470000D67BFF1F10B5002313221946B2
:100CA00001F0F8FC10BD000070B50C4601460320B1
:100CB00000020A1A002534481300FFF7CBF91D1073
:100CC00012151C1F2326282C303234383A3C3E4063
:100CD000424446484A4E50525A5456585A00C079D7
:100CE00011E01022294902E0284910221031204643
:100CF000FFF79EF945E0C06A206042E022490622E3
:100D00003C31F4E7007820703BE0808936E01E49F2
:100D100042784231EBE71D4982781F39E7E7007AD4
:100D2000F1E7407AEFE7184906223031DFE7807AB1
:100D3000E9E7C07AE7E7C08920E0808A1EE0C07852
:100D40001CE0C08A1AE0008B18E0408B16E0808B14
:100D500014E00D4906223631C9E7C08B0EE0008C45
:100D60000CE0408C0AE08079CDE7008A06E0408AFA
:100D700004E0272904D2084600F052FA208000E05F
:100D80000225284670BD0000CC78FF1F459CFF1F40
:100D900070B50E4C00256071A571691EE18100F0EF
:100DA0006FFB0420E071102200210948FFF758F979
:100DB0000748102200211030FFF752F9E562257232
:100DC00065720720A072E57270BD0000CC78FF1F2D
:100DD000459CFF1FFEB53B4D0C4608040CD56879B9
:100DE000FFF744F9050004D002F0FAF92846FFF7AE
:100DF00043F90120C00360E0600403D501208003B3
:100E00004840FEBD2F48E1070126807900292AD0FD
:100E10002978002920D0052821D0297A6846017038
:100E2000697A4170274906223031801CFFF700F9AA
:100E3000A97A68460172E97A41726946687900F0D8
:100E40000BFA002808D00720A871696A002903D08E
:100E50000968002900D0884720467040FEBD032065
:100E600069460870E4E7A1070DD5052809D1E8898E
:100E7000FFF708F9AA8A002A03D002216879FFF750
:100E800007F9022019E0600704D5002002F0E8F914
:100E9000042012E0200712D52879012802D0022868
:100EA0000AD107E00096AB8B6A8B298BE88A00F0A9
:100EB0000BF801E000F05AF908206040FEBD002068
:100EC000FEBD0000CC78FF1FF8B5134C069EA57937
:100ED000052D01D01420F8BD104F851FBD4219D239
:100EE000062917D3BD1DA94214D2FF27F537BA42F0
:100EF00010D20A2B0ED3AB420CD2E0822183628344
:100F0000A383304602F0ACF904216079FFF7C6F8FC
:100F10000020F8BD1820F8BDCC78FF1F7A0C000027
:100F2000F7B50D4680490098164642187F4F0024B9
:100F30007879B9791300FFF78DF8190E141BE920A1
:100F400040455970777E888FE996A2A9B4BFC8E959
:100F5000E9E9E9D3E900102D76D110223146744831
:100F60006FE0102D70D1724810223146103068E0C9
:100F7000042D69D13068F862CEE0012D64D13B7850
:100F800032783A70002B0AD0002A07D1022903D008
:100F9000062901D0042901D100F018F9BCE0002A8B
:100FA0000AD0012905D0032903D0052901D004293D
:100FB00002D10121FFF778F8AEE0022D44D130884C
:100FC000B881A9E01F2D3FD858481F220021423088
:100FD000FFF746F855482A4631464230FFF728F8D1
:100FE000524B7D7042332A46012112E01F2D7CD8DE
:100FF0004F481F2200211F38FFF732F84C482A467D
:1010000031461F38FFF714F8494B2A461F3BBD7085
:101010000021787900F0AAFA83E0012D65D13078BB
:10102000042862D8387277E0012D5ED13078032829
:101030005BD8787270E0062D57D13C4806223146C5
:101040003030FEF7F5FF67E04FE0012D4DD13078ED
:1010500007284AD8B8725FE0012D46D130780328BE
:1010600043D8F87258E0022D3FD13288BA82002A64
:1010700052D0052950D10221FFF70AF84CE0012D8A
:1010800033D13078012830D8F87045E03088022D0F
:101090002BD1062829D31921C901884225D8F882E5
:1010A0003AE03088022D20D106281ED31921C9012B
:1010B00088421AD838832FE03088022D15D1FF21BD
:1010C000F531884211D2788326E03088022D0CD188
:1010D0000A280AD31921C901884206D8B8831BE01F
:1010E0003178012D01D1012901D0182414E0082103
:1010F000FEF7E0FF002801D016240DE0002002F0EA
:10110000AFF804217879FEF7C9FF05E00098272899
:1011100001D2022D02D002242046FEBD318800F00B
:10112000D5F90446F8E70000FFFCFFFFCC78FF1F6D
:10113000459CFF1F1CB50B4CA179002901D0112043
:101140001CBD002800D06062064907482C310346C8
:1011500001910090103B0022E179607900F016F8CF
:1011600000201CBDCC78FF1F559CFF1F10B5064802
:101170008179052901D0122010BDC189132240793F
:1011800000F0B4F910BD0000CC78FF1FF8B51D4683
:101190000224069F079E0B00FEF75CFF0D15081545
:1011A00015081515151515151508150000F0B8F8D2
:1011B000040008D132463946284600F067F900F0AD
:1011C000CBF801F089F82046F8BD000070B5104C4E
:1011D0002168002904D00978814203D0032070BD22
:1011E000122070BD0B4D02212878FEF757FF0A48E8
:1011F0000026468004212878FEF750FF0748068025
:101200002168032048700020FEF75AFF70BD0000DF
:10121000407CFF1F717CFF1F547CFF1FE67BFF1F7C
:10122000272803D202494000085A704701487047F6
:10123000EE7BFF1FFFFF000010B5064C607003F04F
:101240001DFF6078FEF742FF0521607800F040FF47
:1012500010BD0000707CFF1F70B5284E0546306839
:101260000C46002801D0112070BD254801780520CA
:10127000014216D023488068002805D00078002855
:1012800002D0C80706D101E0102070BD00F044F87C
:10129000002808D02078032805D0022803D0002891
:1012A00001D0122070BD0C20FEF716FF3060002820
:1012B00020D00570002141700A222146801CFEF7D3
:1012C000B7FE02F0B1F8040002D001F0BDFA12E05E
:1012D0000D48007803280ED11D20FFF7A1FF0B4910
:1012E0000028088007D00B48094A04210078FEF73F
:1012F000F9FE00E01324204670BD0000407CFF1F73
:10130000E37BFF1F547CFF1FE47BFF1FE67BFF1F77
:1013100060EA0000717CFF1F10B503F0CDFE10BD28
:1013200070B50C4605461C2200210948FEF798FEC0
:10133000084805704470FEF7DBFE0549002803D01D
:1013400000200870122070BD01220A7070BD0000DC
:10135000BCA2FF1FE27BFF1F70B50F4C0025A068E9
:10136000002802D0FEF7CAFEA560E068002802D07F
:10137000FEF7C4FEE560094805210078084206D062
:101380000548103001F032FE01F000FA70BD002077
:1013900001F02CFE002070BD547CFF1FE37BFF1F7B
:1013A000FEB5344D0C46080419D56878FEF75EFE8C
:1013B0000121C9034C40064600280ED001F036FD3D
:1013C000002807D12878FF2804D03146FEF79CFE7C
:1013D000002802D03046FEF74FFE2046FEBDE00753
:1013E000012700280AD0A868002804D041680029F5
:1013F00001D00020884720467840FEBDA00709D5CF
:101400006868002804D04168002901D0012088477D
:1014100002202AE060072AD5174E308800281FD006
:10142000401E0004000C30801ED101F07FFA00281D
:1014300009D0124807706868002804D04168002964
:1014400001D00120884701F04BFA694600F09EFE6A
:10145000684601F0D5FC1D20FFF7E2FE308003E076
:1014600004216878FEF71AFE04206040FEBD0020CB
:10147000FEBD0000707CFF1FE67BFF1FE57BFF1FAA
:101480000149087070470000707CFF1F70B50E4C5A
:101490000B46261D07C60546102200211846FEF7FA
:1014A00039FE012803D11021A06804F01DFD10228F
:1014B00000212846FEF72EFE012803D11021606886
:1014C00004F012FD70BD0000BCA2FF1F272807D248
:1014D000044A914204D0044A40001152002070474F
:1014E00002207047FFFF0000EE7BFF1FF8B50D469E
:1014F00017461D4906461B4A1224C868954208D162
:1015000000282DD00268002A2AD02946304690476C
:1015100023E0144A521C954213D1002807D00268D8
:10152000002A04D0294630469047040005D03946A9
:10153000304601F005F9040012D10B4806704770DF
:101540000EE0284603F06AFD002809D00078B0427A
:1015500005D139462846FEF7E3FD044600E00324A2
:101560002046F8BDFEFF0000447CFF1FF8B50E4684
:10157000014619481546007805221F46104028D01C
:10158000304326D01548012E1BD0C468002C20D033
:101590001F2D18D8002D01D0002F14D001701F224C
:1015A0000021601CFEF75CFD2A463946601CFEF7F0
:1015B0003FFD28462570002E07D0611CFEF7B6FDC2
:1015C000F8BD8468E2E70220F8BD611CFEF7B4FDB7
:1015D000F8BD1220F8BD0000E37BFF1F547CFF1F05
:1015E000014610B50020C90704D0034A042103486E
:1015F00000F000FA10BD0000307302115079FF1F97
:1016000010B5002309E01C012418E468944202D1BB
:101610001901081810BD5B1C9BB28B42F3D300204C
:1016200010BD000070B50F4D0F4CA8702946183141
:10163000204600F01DF8002128460B461030CA0055
:1016400084521218491C09065360090EF7D0012074
:1016500002F0CAFDA87800F095FB044803F03EFDB7
:1016600070BD00003079FF1FFFFF0000213A02111A
:1016700070B50A4C0025A04209D1002082008C528E
:101680005218401CC0B295700228F7D370BD02F00A
:1016900096F90028FAD00480857070BDFFFF000025
:1016A000F8B50E460746069900240798002902D08F
:1016B0000B242046F8BD022B01D00D24F9E7117848
:1016C0005278120289188DB22946814301D08024B4
:1016D000EFE73846F16800F085F9A842E9D02A46DC
:1016E0003846F16800F0F0F90400E2D171892A4629
:1016F000384600F0ADF9DCE7FFB50446C1B01F463F
:1017000000881D4A00254A9B904232D0A0780028CC
:101710002FD00A4619463846FFF772FF060028D038
:101720002088164A4100515C0023C91EC9B203AA91
:1017300002320193029100927A8904AB314600F0A3
:101740003FF8002815D1708969468881A078C007C4
:1017500005D0208803A9439A00F0E2FA0546A07854
:10176000800706D5208803A94B9B439A00F07CFA9A
:101770000543284645B0F0BDFFFF0000DC7BFF1F9E
:1017800070B50C460CA000F0C3FF200412D50B4826
:101790008078FEF76BFC050008D02878B02802D1CD
:1017A000284602F029FA2846FEF766FC0120C0030D
:1017B000604070BD002070BD330A00003079FF1F0B
:1017C000FFB587B0087A0025109E1C460F46C0065C
:1017D0000DD5099802F0ECF8030006D00A2239462C
:1017E00007989847050035D101E00E2532E038789A
:1017F00002281DD17868292201784078120200025F
:10180000081880B2811A90427ED009DC7249401AD1
:1018100023D0012821D0022851D0032808D125E067
:10182000012972D0022971D003296DD004296ED00C
:10183000099802F0E5F80028D7D00568002DD4D02B
:101840001299119801910090334622463946079823
:10185000A847054628460BB0F0BD1198002873D163
:10186000F868017831800278416897E01198002883
:101870006AD101203080F8680021007820707889D2
:10188000401C80B200F04EF900280FD03188027859
:101890008918891C3180817A61704189090AA17097
:1018A00002784168E01CFEF7C3FBD3E730880422CE
:1018B000001D30800021601CFEF7D2FBCAE71198A2
:1018C000002872D1F86804A90088009004203080B4
:1018D000009820700098000A6070009800F022F9CB
:1018E000070028D0F86805906846028A03AB3B4998
:1018F000384600F06FF900280FD13B7802213848B4
:101900007A68FEF7A0FF03E027E031E01DE049E040
:10191000002802D13148694688810598007802285C
:101920000CD1059802224168201DFEF781FB30880A
:10193000801C308002E06946009888816846808972
:10194000A070000AE07085E72FE0119800282CD1E4
:10195000F968079800F046F804E01198002824D1AF
:10196000F8680088022131802070000A607071E7F9
:10197000F868FEF7E7FB1199C0B2814210D88142A6
:1019800001D1002206E0129A8918814202D31199EE
:10199000401AC2B23280F96811980918204682E7CD
:1019A000072557E71198002801D00B2552E707219A
:1019B000F868318001782170417861708178A17078
:1019C0004188090AE1700179217181796171C088CA
:1019D000000AA0713EE7000000280000FFFF0000A1
:1019E0001674021110B501F0EAFF002800D08078CB
:1019F00010BD00007CB51446050019D0684601955D
:101A0000018000F0C5F903001DD1002C1BD06D89A9
:101A1000002D0DD00C20FEF75FFB00280AD000231C
:101A200003608580094A84609168002904D006E03B
:101A3000022308E0132306E0906004E011460A68E0
:101A4000002AFBD1086018467CBD00003079FF1FDA
:101A5000F8B50C4C0746207815460E46FF280FD0E7
:101A60000A20FEF775FB01000AD0B12008700020A3
:101A7000487008714F80CE800D812078FEF744FBBE
:101A8000F8BD00003079FF1FFFB583B008461F4640
:101A900001A90C9E00F046F8050012D06846808827
:101AA00001F0AEFF00280AD04468002C07D0009651
:101AB0003B462946059A0398A04707B0F0BD0E2083
:101AC000FBE70120F9E7000070B514460E46054615
:101AD00001F075FF002806D13146054801F06FFF7F
:101AE000002803D005808470002070BD112070BDD7
:101AF000FFFF000010B50178B0290BD14178002913
:101B000008D10179122906D01B2903D1408801216F
:101B100000F068FA10BDFF210231095C0129F5D0FF
:101B200010BD0000F0B58C4610494B6819E09F6865
:101B30007C89A04214D39E883119814210D9002299
:101B40000CE011017D186989814205D160460028A9
:101B500000D004802846F0BD521C92B29642F0D8C4
:101B60001B68002BE3D10020F0BD00007C7CFF1F30
:101B7000FFB5174881B00A9F446824E000251EE0A5
:101B8000A0682901461870890199884215D30299E5
:101B9000884212D80498002807D031787068049BD6
:101BA000039AFEF750FE002807D0002F02D0A0684D
:101BB00040893880304605B0F0BD6D1CADB2A088BC
:101BC000A842DDD82468002CD8D10020F3E700001B
:101BD0007C7CFF1FFEB5174600256A4695800446AB
:101BE00040891D4A1E46904208D001AA0092401C1E
:101BF000237880B26268FFF7BBFF05462378022195
:101C000016486268FEF71FFE002807D123780221DC
:101C100013486268FEF717FE002801D060890EE0C5
:101C2000237802210F486268FEF70DFE00280DD0D0
:101C3000002D03D068468088B84203D0384602F0B1
:101C4000E7FB04E06889401E80B200E06089002E56
:101C500000D030802846FEBDFFFF00001474021142
:101C6000167402111A740211FFB581B00F461E4698
:101C700014466946019801F0E9FC050018D1002CD2
:101C800006D001221021019803F0A2F905000FD11E
:101C900039460198FEF76CFE050009D1009CFF2E25
:101CA00006D021461E22A31C034802F0BDFBE670AD
:101CB000284605B0F0BD00001543021110B50549D6
:101CC0000870042100F004FA00F006F8FEF764FE44
:101CD00010BD00008C7CFF1F70B50E4C00200C4B1B
:101CE000651CFF228100C91800280ED00D80401C01
:101CF000CA70C0B28A700228F4D3074801F04AFEC5
:101D0000064803F0EBF9002070BD0C80EFE70000FF
:101D1000847CFF1FFEFF0000414302119542021127
:101D2000F8B50D4614460646694601F08FFC1728A3
:101D30000CD0002C06D001221021304603F048F9C7
:101D4000002803D129463046FEF71CFEF8BD0000EE
:101D500070B50C46080411D509480078FEF786F9DD
:101D6000050007D00178A02901D101F0B7FD284670
:101D7000FEF782F90120C003604070BD002070BDF5
:101D80008C7CFF1F01490870704700007C7CFF1F9E
:101D900070B50546008800281DD0686802210378C8
:101DA00042682248FEF74FFD002808D168680221EA
:101DB000037842681E48FEF746FD00280BD01D4CF4
:101DC0006088002805D0012229881204101A814257
:101DD00003D9012070BD022070BD0C20FEF77CF9F4
:101DE000060001D000200AE0132070BD02016B68DC
:101DF00061880A329952491C401C618080B229884E
:101E00008142F3D80020306008222946301DFEF7B9
:101E10000FF96068002802D1666004E00846016896
:101E20000029FBD10660002070BD0000147402116F
:101E3000167402117C7CFF1F0649496806E08A6817
:101E40005289824201D18888704709680029F6D1F9
:101E5000002070477C7CFF1F10B51422114201D076
:101E6000012202E04A0604D50022102103F0B0F856
:101E700010BDC80701D0002010BD022010BD10B554
:101E800014468A0604D50122102103F0A1F810BDE2
:101E9000882211420ED008220A40102103F098F83F
:101EA00000280BD0E034617E0029F0D0217E01298A
:101EB000EDD103E0880701D4032010BD002010BD40
:101EC000014610B50020C90704D0034A0721034882
:101ED000FFF790FD10BD00001C7302115878FF1F22
:101EE00070B50D46164600241D490300FEF7B2F8F2
:101EF00008051234341934222934152D23D816221A
:101F000000211848FEF7ACF82A4631461548FEF77E
:101F10008FF822E0022D16D111491088103908805F
:101F20001BE0082D0FD10E48082231460838FEF775
:101F300015F912E0012D06D1CA6909493078283116
:101F400007E0012D01D0182407E0CA6B044930785E
:101F5000483102F02AFB00E00224204670BD000058
:101F60005878FF1F109CFF1F0B7803700B8802220C
:101F70001B0A43700B88801C012B02D0022B07D058
:101F800011E08A7802704988090A417004220AE047
:101F90008A7802704A88120A42700A7982708988A7
:101FA000090AC170062210467047000008B5044BAC
:101FB000009313460A46012102F05AFF08BD0000B3
:101FC000691F02111CB50323019200930A46024BBC
:101FD000122102F07DFF1CBD9147021110B5FEF7E2
:101FE000C3F810BD13B504480078012803D101AA35
:101FF0006946FEF7BFF81CBD987CFF1F70B50F49FE
:102000000F4A087000210B468C00491CC9B21353BB
:102010000429F9D30A4C00211034FF260A460A2568
:102020006A4315196B80491CA354C9B26E72032907
:10203000F4D3FEF7A5F802F0EFFE70BD997CFF1F08
:10204000D8A2FF1F082A01D0012070474B780A78D8
:102050001B02D2180280CB788A781B02D2184280E9
:102060004B790A791B02D21882808A79C9790902D0
:102070005118C1800020704770B50C46080411D576
:1020800009480078FDF7F2FF050007D00178902994
:1020900001D102F023FE2846FDF7EEFF0120C00328
:1020A000604070BD002070BD997CFF1F70B5002896
:1020B0000AD1064C00252580A581A580A0680028AE
:1020C00002D0FEF763F8A56070BD000054A3FF1FA7
:1020D000072907D0052905D0042903D0062901D0F6
:1020E00002207047044A8B009A181346403B198619
:1020F000203A907400207047D8A2FF1F70B50600E8
:102100001BD10E4C0025214640310D744D740D76C7
:10211000606D002802D0FEF739F865655C20002567
:1021200046433419E80020184068002801D0FEF723
:102130002DF86D1CEDB20A2DF4D370BD64A3FF1F02
:1021400070B50A880C460546072A07D0052A05D02F
:10215000042A03D0062A01D0022070BD012102F01A
:10216000EBFF002804D02146284602F027FB70BD73
:10217000142070BD10B5001D80B2FEF70DF80028C8
:1021800003D00321C943FEF70DF810BD38B50C4646
:10219000050014D0002C12D00321684603F0A4FEE1
:1021A0006946887840218006800E08436946887019
:1021B0002246284604F0D0FB050002D006E00220AB
:1021C00038BD03226946E01CFDF732FF284638BDC2
:1021D000F7B58EB00E9815460E4600282DD0002D6E
:1021E0002BD0301DC0B20190FDF776FF040039D02E
:1021F00000F082FB07463246201D0E99FDF7D8FFFE
:10220000F8B20890E0703804000E0B90A07038020D
:10221000000E0A9060703F0E277000F067FB0146C9
:10222000102202A8FDF7C4FF06AB214602A8019ABE
:1022300004F0E8FA060003D010E0022011B0F0BD6F
:10224000089828700B9868700A98A870EF70082298
:1022500006A9281DFDF7ACFF00F054FB2046FDF752
:102260004DFF00E013263046E8E7000010B5064CAD
:102270002070FDF7A3FF06212078FFF729FF034810
:1022800002F02CFF10BD0000A87CFF1F3D5F021173
:1022900070B50C46080419D50D480078FDF7E6FE28
:1022A00005000FD003F06AFF002808D10948007824
:1022B000FF2804D02946FDF727FF002802D0284632
:1022C000FDF7DAFE0120C003604070BD002070BD44
:1022D000A87CFF1F707CFF1F10B5054800784007E1
:1022E00001D5044800E0002003F0D0FF002010BD1D
:1022F000E37BFF1F9C7CFF1FFFB58DB00F98169CE2
:102300000E46002815D0002C13D00D9802F086FE42
:10231000050011D06178207809024018A178E27890
:102320000904120689184718286AB84206D3401CC7
:1023300004D0022011B0F0BD1420FBE7002E04D021
:102340002879800701D40120F4E70822002106A89B
:10235000FDF786FE1098001DC0B20190FDF7BCFE8F
:10236000060017D0301D109A0F99FDF721FF0422A7
:1023700021463046FDF71CFF1022A91802A8FDF7E0
:1023800017FF06AB314602A8019A04F03BFA05009C
:1023900002D013E01320CDE7082206A908A8FDF714
:1023A00007FF0822211D08A8FDF74EFE012801D0D5
:1023B000012503E039460D9801F090F83046FDF70D
:1023C0009DFE2846B6E7000030B55D4C8BB0A0708E
:1023D00006211F20FFF77AF80020694608720122C3
:1023E0000A7307220A74888220228A8330220A8490
:1023F0008884FF202D30088552A003C801910090E9
:102400000222E11C5148FDF7DFFE0422611D10038A
:10241000FDF7DAFE4EA000F07BF90621E01C02F089
:10242000E5FFE11C084606221530FDF701FE207885
:102430006946087606AA01214A48FEF771FD494817
:102440006A460621801CFEF76BFDC32004AA012109
:102450008000FEF765FD434802AA0121001FFEF738
:102460005FFD404805AA0221C01EFEF759FD224625
:10247000612014320F21C000FEF752FD3948224678
:1024800023321321801EFEF74BFD312003AA0121C8
:102490000001FEF745FD334807AA02210830FEF788
:1024A0003FFD304808AA02210930FEF739FD2D48CA
:1024B00009AA02210A30FEF733FDC5200AAA02212B
:1024C0008000FEF72DFD2246363215210020FFF751
:1024D00007FD19256D0129460620FEF7F7FF29465D
:1024E0000720FEF7F3FF29460820FEF7EFFF2946F5
:1024F0000920FEF7EBFF0025ED432846FFF7E0FC3F
:102500002846FFF76DF8284600F09EF803F078F8AB
:102510001720FEF79FFB0020FDF75CFE0020FDF773
:102520005FFE0121A078FDF7BFFDA078FEF7A8FFB0
:102530000D48FDF75BFE0DA000F0EAF80BB030BDD2
:10254000B47AFF1F010203040506000004400000E6
:102550006465765F6D61635F646174613A203078B1
:102560000000000009030000E89FFF1F3D3D3D3DC6
:102570003D53696D706C65424C4550657269706879
:102580006572616C5F496E697420446F6E653D3D94
:102590003D3D3D3D3D0A000038B50C461CA000F015
:1025A000B7F8200415D51B488078FDF75FFD0500BE
:1025B0000CD02878912806D168780E2803D1A988F4
:1025C00015A000F0A5F82846FDF756FD0120C00330
:1025D0001AE0E0070125002808D00E480C30FEF76D
:1025E000A9FDFDF709FE2046684038BDA00708D5C3
:1025F000684605706A4601211248FEF791FC0220E8
:1026000002E0600702D50420604038BD002038BDDC
:10261000370A0000B47AFF1F3D3D3E204843495F22
:10262000434F4D4D414E445F434F4D504C455445F3
:102630005F4556454E545F434F44453A2025780A3E
:10264000000000000503000070B50546002409499C
:102650000948FFF70DF8094802F040FDE80706D0E9
:102660000448074A08210830FFF7C4F90446204609
:1026700070BD00000C7AFF1FFFFF0000ED5B021130
:10268000947302110A4610B501460020FDF7BAFD09
:1026900010BD0000FFB583B00F4603981B494000F2
:1026A0001646085AFFF766FD04002AD00125601C73
:1026B0002670002F03D00699B847401C85B230061B
:1026C00010D51021039802F037FD002801D01926FB
:1026D00013E06219E9B22046FFF77AFD06000CD13B
:1026E0000C35ADB20421684601800194058169462C
:1026F0000398FFF725FD060004D02046FDF746FDB0
:1027000000E01326304607B0F0BD0000DC7BFF1F61
:102710000FB410B503AA0448029902F033FD10BCAF
:1027200008BC04B0184700008526021138B5034BD9
:1027300000240FCB0094FDF76BFD38BD047302112C
:1027400010B50C4602F07EFC002804D040882146DB
:10275000FDF7E6FC10BD122010BD0022002913D0A9
:10276000002811D0012806D04A799206920E4A71AB
:10277000032805D007E04879C0221043487102E0E1
:10278000402002434A7101221046704770B512483A
:1027900000250078052108421BD02020FDF79CFC75
:1027A0000E4C0028A06013D020220021FDF758FC19
:1027B0002020FDF791FCE060002804D020220021B9
:1027C000FDF74EFC05E0A068FDF798FC0020A06036
:1027D0001325284670BD0000E37BFF1F547CFF1FBC
:1027E000002909D0012807D1497989098901C0291F
:1027F00002D0402901D00220704703207047FFB566
:1028000000200E4608701AE01C5C401CC5B2002C6B
:1028100017D02819904214D85F5D6D1CEDB2384670
:1028200000F085FE002806D0641EE0B230700099EA
:102830008F4202D1581904B0F0BD4019C0B2904285
:10284000E2D30020F7E7000010B5044C2068002810
:1028500003D0FDF753FC0020206010BD407CFF1F1B
:1028600070B50E4D84002859002815D0006A002844
:1028700001D0FDF743FC2859406A002801D0FDF73C
:102880003DFC2859806A002801D0FDF737FC285903
:10289000FDF734FC0020285170BD00004C7CFF1F68
:1028A00010B5044C6068002803D0FDF727FC002019
:1028B000606010BD447CFF1F0100044805D104493D
:1028C0008978002901D00248801D7047CCA2FF1FE3
:1028D000E27BFF1F0148807870470000E27BFF1F0A
:1028E0000148406870470000BCA2FF1F0148806893
:1028F00070470000BCA2FF1F0148C0680068704715
:10290000BCA2FF1F10B50748C0680168491C0160E0
:1029100005480078FF2803D001218903FDF7C4FB97
:1029200010BD0000BCA2FF1FE27BFF1F02484068F1
:10293000002800D0012070473C7CFF1FFFB581B00C
:102940000F460D9E0A9D039802F068FB040042D0DA
:10295000019800283FD12079102108432071049963
:10296000490702D50221084301E0FD2108402071FA
:102970000B99284608430C9908433043207902D02C
:102980000421084301E0FB2108402071002E06D0FD
:102990003069102220623146A018FDF749FB002D56
:1029A00001D0002F05D00B98002814D0012F08D09B
:1029B00011E0606A002801D0FDF7A0FB1C21284629
:1029C00006E0606A002801D0FDF798FB1C210B98F7
:1029D000FDF724FC60620398224C8700E059002830
:1029E0003ED0002D0FD0006A002806D11C20FDF734
:1029F00073FBE1590028086205D0E0591C22006AE7
:102A00002946FDF715FB0C98002810D0E059406AC4
:102A1000002806D11620FDF75FFBE1590028486227
:102A200005D0E0591622406A0C99FDF701FB002EF3
:102A300010D0E059806A002806D11420FDF74CFB25
:102A4000E1590028886205D0E0591422806A314695
:102A5000FDF7EEFA0B9B049A0399019802F0DAFF56
:102A600005B0F0BD4C7CFF1FF3B581B0019802F0BA
:102A7000D5FA050029D00E20FDF76AFB040024D00A
:102A80002620FEF7CDFB060000D12E78D020207046
:102A9000002767700B20A0700622E91DE01CFDF7DF
:102AA000C7FA019860810298C1070120002901D06E
:102AB000207300E027730299890701D5607300E055
:102AC0006773F0B22146FDF71FFBFEBD10B581888C
:102AD0001F4B0124CA1A994237D011DC1D4BCA1A68
:102AE000994219D007DC1C4A8A1810D0022A1ED03D
:102AF000032A29D11BE0472A27D0482A24D124E0E1
:102B00001300FDF7A7FA0621222222222221806843
:102B1000007800F0CDFC08E08068827841781202ED
:102B2000891889B2007800F023FD04460DE0094AB7
:102B3000921E914201D1012200E0002280680178BA
:102B4000104600F0FDFC00E00024204610BD00000F
:102B5000532000000A200000FADFFFFF70B51A4D75
:102B60001A4A0146002628781268194C01290CD00F
:102B7000002A09D017490978490705D50221FDF730
:102B80008DFA6680FFF760FE70BD6188002903D072
:102B9000114B1B78002B05D0002AF5D01078FEF7DA
:102BA00015FB70BD3C2902D33C39618070BD022108
:102BB000FDF774FA62887D20C00042430221287824
:102BC000FDF766FA668070BD717CFF1F407CFF1FB9
:102BD000547CFF1FE37BFF1FE57BFF1F08B5418986
:102BE00000910389C2888188C07800F0ADFB08BDE0
:102BF000F0B504468088A12189004843304987B058
:102C000009684018FF30FF300230A1794167002C7D
:102C100054D02C4D6868002823D006782A480068D4
:102C2000002804D04168002901D0002088472146AF
:102C3000E07908310591FFF7D3FDE0710246277D69
:102C4000638A218AE089019002A88AC0A088009046
:102C5000E0783146059B02F053FFE078002802D06F
:102C60000DE01A48D9E7E079E2896B46059907C378
:102C7000A379A1880122304602F07EF9E0706868ED
:102C8000002811D0FFF70CFE287800280CD06978B6
:102C9000FFF756FD002807D0E078A2880346297880
:102CA00002F082FF00202870A0881721FDF7E8FFBE
:102CB000A088FFF7FBF9A088FFF720FA07B0F0BD66
:102CC0003409FF1F447CFF1F747CFF1FE27BFF1F42
:102CD00070B504460026808802F0A0F9002803D0D1
:102CE0000678A08802F00CFA144D2878002808D045
:102CF000864206D16978FFF723FD002809D000201D
:102D00002870002E05D0A379A288A078314602F061
:102D10004BFFA088094A810008325158002901D090
:102D2000FFF79EFDA0881721FDF7AAFFA088FFF7F7
:102D3000BDF9A088FFF7E2F970BD0000447CFF1FD9
:102D400070B58288294D0124531B2949AA4242D0DB
:102D500019DC284D531BAA4218D00BDC264BD21885
:102D600026D0254B1033D2181ED0032A17D0042AA0
:102D700039D10BE0012B09D0022B07D0032B21D036
:102D8000042B30D11AE0433B072B2CD8496800298B
:102D90002AD00968002927D08847044624E08068A3
:102DA000007800F0ADF81FE0806800F001F9F4E76A
:102DB0008068411C007800F0D9F8EEE783681B7842
:102DC000002B11D0896800290ED00B6808E001465D
:102DD00010469847E1E709490968002904D04B6883
:102DE000002BF4D100E00024204670BD0E2000002E
:102DF000707CFF1F08200000F7EFFFFF507CFF1FD3
:102E000010B5094CA17800290CD001460622A01D5E
:102E1000FDF70EF9A11DA078FFF79FFCA01DFDF79F
:102E200003FA10BD002010BDE27BFF1F1CB52F4927
:102E3000037801240A68912B02D0A22B2ED13EE008
:102E40004178052909D00E2904D00F2908D03E2940
:102E500024D115E0FFF774FF10E0FFF739FF3AE0E7
:102E600001468088224B0124C31801D0062B15D1BE
:102E7000002A30D05268002A2DD0904704462AE01C
:102E800081780124032917D004DC012911D00229FB
:102E900004D105E015291ED016291CD000241AE003
:102EA00014498968002916D04968002913D0884739
:102EB00011E0FFF79DFE0EE0FFF790FE0BE00E49DC
:102EC0000978042909D0002A05D05268002A02D0C6
:102ED00001460A48904720461CBD00216A461180E1
:102EE00001794088FFF762F8F5E70000507CFF1F8A
:102EF000F3DFFFFF707CFF1FE37BFF1FFFFF00007E
:102F0000F8B5164F0646BD1F2878FF2814D00A20B2
:102F1000FDF71EF904000FD0D02020706670082045
:102F2000A070A878E07006223946201DFDF780F8D1
:102F300021462878FDF7E8F8E87801280DD10848FF
:102F40000068002803D08068002800D08047064829
:102F5000044A04210078FDF7C5F8F8BDE87BFF1F9F
:102F6000747CFF1F60EA0000717CFF1F70B50024B5
:102F70000546002805D1002903D006220B48FDF79D
:102F800057F80A4810380178012907D10124002D8B
:102F900006D000210170284600F0B2F9204670BD2D
:102FA00002210170FDF746F9F8E70000CCA2FF1FEF
:102FB00010B50024002813D002780B49002A03D151
:102FC0004288CA8202790A760A78022A08D10278EF
:102FD0000124002A06D000220A70007800F090F93F
:102FE000204610BD0322F7E7BCA2FF1F014948603D
:102FF00070470000707CFF1FF8B5774C877801465A
:10300000002507266079A2793B00FDF723F8080523
:10301000361A37375F94C736487800285CD16E4837
:1030200006223C30C91CFDF703F80120A0716A4B51
:103030000146423362786079FEF798FA00284BD156
:10304000A2E00F464978002946D1F978002906D038
:10305000624BA2780021FEF789FA78700AE0022A12
:103060000BD00121FDF726F8002803D1012160795A
:10307000FDF71AF8787800282ED1F8BD4978002994
:103080002AD1032F09D0A289002A0CD02178002947
:103090000AD00121FCF7FCFF06E0052A01D002203E
:1030A00012E0062010E02570A079062802D004283E
:1030B00002D008E0052007E0012020700146607979
:1030C000FCF7F2FF60E00320A0715DE048780F4656
:1030D000002803D031282CD0A67155E03E480622A6
:1030E000391D3630FCF7A4FF7889E081B889208249
:1030F000F88960820520A071A28A002A03D00221EB
:103100006079FCF7C5FFB889E083F8892084388AA4
:103110006084E07801280AD11F20FEF781F87D2124
:10312000C9004843024604216079FCF7B1FF2570CD
:103130002AE02570C7E728480E46062200213630CF
:10314000FCF78EFFE5832584658404216079FCF714
:10315000A5FF08216079FCF7A1FFB079082808D005
:103160000320A0712078002805D06079FEF72EF8A2
:1031700007E00420F5E70120207001466079FCF7A4
:1031800093FF0020C043E081606A002800D174E70B
:1031900001680029FBD0A0798847F8BD0D460821B9
:1031A000FCF77CFF687829460028F6D1E888E083A0
:1031B000288920844889608404216079FCF77AFF9B
:1031C0000028EAD1A06A0028E7D00368628C218C2D
:1031D000E08B9847F8BD0000CC78FF1F269CFF1FAE
:1031E00010B501781C4C912906D0A2291BD0D029FA
:1031F00001D1FFF701FF10BD41780E29FBD1818875
:10320000164A9142F7D1816803200856A179052911
:10321000F1D17F28EFD0616A0029ECD049680029FC
:10322000E9D0884710BD41791329FBD100890128D5
:1032300002D12079022808D00520FDF7F1FF0246CF
:1032400008216079FCF724FF10BD08216079FCF7A4
:1032500025FFFDF78BFF10BDCC78FF1F0514000084
:103260007CB5154C0546E08BE18A88420AD3218B58
:10327000884207D8208C618B884203D1608CA18B57
:10328000884217D00520FDF7CBFF0646E18A684645
:103290000180218B4180618B8180A18BC18062790B
:1032A0006946E089FEF78EFE257132460821607975
:1032B000FCF7EEFE7CBD0000CC78FF1FF8B507469A
:1032C0000E46084601F0AAFE040018D02620FDF79D
:1032D000A7FF050000D125780620FCF739FF040080
:1032E0000DD006220021FCF7BBFED02020706770B5
:1032F0000E20A070A680E8B22146FCF705FFF8BDBD
:1033000070B50F4D06462878FF2818D00E20FCF720
:103310001FFF040013D0D020207066700020A07022
:1033200006220849E01CFCF783FE06481038C18AD3
:103330006181007E207321462878FCF7E5FE70BD90
:10334000E27BFF1FCCA2FF1FFFB581B01E461746D0
:103350000D460C20FCF7FCFE040013D0284601F0BB
:103360005DFE002810D00078D02121700199617095
:103370000721A170A580E78026810A9961812146F5
:10338000FCF7C2FE05B0F0BD0048ECE7E27BFF1F92
:1033900070B50D4D044628680E46002812D0062050
:1033A000FCF7D6FE010009D0D02008704C70032035
:1033B00088708E8028680078FCF7A6FE002C01D06B
:1033C000FFF742FA70BD0000407CFF1FFFB581B0DF
:1033D0001F460E46084601F021FE050022D01020AF
:1033E000FCF7B6FE04001DD010220021FCF738FEC9
:1033F0002620FDF715FF002800D12878D021217064
:10340000019961700F21A170A680039921726772E2
:103410000A99A1720B99E1720C99E160C0B2214640
:10342000FCF772FE05B0F0BDF0B51F4D85B0286801
:10343000002837D08778FDF76FFF002805D00A20D5
:10344000FDF7EEFE04900B200EE001F06FF900286E
:1034500005D00620FDF7E4FE0490072004E00820D4
:10346000FDF7DEFE04900920FDF7DAFE04460F4862
:103470000078002814D001262968C878091DFFF7B4
:103480006CF929686D46CA7A8B7A091D0BC50392BF
:1034900033463A4621460498FCF7D2FE05B0F0BD0B
:1034A0000026E9E70120F9E7407CFF1FE47BFF1FCE
:1034B00010B50949096800290CD0002805D1012060
:1034C0004870FCF7FDFD002802D00021FFF760FFE7
:1034D000012010BD002010BD407CFF1FF8B50C4638
:1034E00001F09CFD020021D026201462FDF798FE19
:1034F00005062D0E00D115789679D01D009010206C
:10350000176AFCF725FE040010D0D02020700020A0
:1035100060700920A070E6700622201D0099FCF75B
:1035200087FD21462846E760FCF7EEFDF8BD411E09
:10353000152903D9FF2801D00020704701207047CA
:1035400070B50A4E054630780C46FF280DD0042091
:10355000FCF7FEFD010008D0D02008704C7002205E
:103560008870CD703078FCF7CFFD70BD547CFF1FA4
:10357000F3B5284D81B0286800284AD04078264EFF
:10358000012803D03078002831D041E001F0CEF896
:10359000224F002813D00120FDF742FE04464128A7
:1035A00008D91F4A02213878FCF79CFD1D483C3C95
:1035B00044800EE07D20C0002246424303E000200C
:1035C000FDF72EFE0246002A03D002213878FCF7D0
:1035D0005FFD2968022048703078002802D0002062
:1035E000307015E002990198FFF7D2FE10E0032039
:1035F000019CFCF7ADFD010008D0D02008704C7094
:103600000420887028680078FCF77EFDFFF71CF91D
:103610000120FEBD407CFF1FE57BFF1F717CFF1F6B
:1036200060EA0000547CFF1F074A00218B00D35A38
:10363000834202D1880080187047491CC9B2022910
:10364000F4D3002070470000847CFF1F10B50C46A7
:10365000FFF7EAFF00280DD0002C00D02060807812
:10366000FE2803D0FF2803D0162010BD172010BD60
:10367000002010BD022010BDFFB581B0FF201E4606
:10368000174605300A9DFCF763FD04001BD0B020EF
:1036900020706770029860802671002D06D0204649
:1036A000FC2229460830FCF7C3FC05E02046FC223A
:1036B00000210830FCF7D4FC21460198FCF724FDDA
:1036C000002005B0F0BD1320FBE7000005481722DD
:1036D00002800988172901D2042070470180002048
:1036E00070470000DE7BFF1F0020704708B50A46C8
:1036F0000888498888420BD8002809D00023009305
:103700001379521DFEF734FA002803D0002008BDBB
:10371000012008BD0A2008BDF3B50D460888498878
:10372000002687B0814215D3002813D000276946B0
:103730000F710097002369881A46FEF719FA0400F2
:103740004FD068460079002807D069464979012999
:1037500025D008E0012009B0F0BD217802291BD056
:1037600002216A4651711222504301AA61898018D0
:103770004180684600791223584380181022001DAA
:103780006168FCF755FC68460079401C0106090E8B
:10379000684601711FD11AE001216A4651712178F2
:1037A00002291ED1820001A86189121851806A463F
:1037B00012796168920010180222001DFCF738FC93
:1037C0006A461079401CC0B21071052803D2618985
:1037D0000A48814200D101266089401C80B2002E37
:1037E000A7D068460079002805D001A90798FDF701
:1037F000A5F80020AFE70A20ADE70000FFFF0000BA
:1038000038B50C4608884988884215D8002813D056
:103810002379621D02210B48FDF715F800280DD011
:1038200000200090237961882088621DFEF7A0F9AE
:10383000002805D0002038BD012038BD102038BD3B
:103840000A2038BD1474021108B50A460888498850
:1038500088420BD8002809D0002300931379521D09
:10386000FEF786F9002803D0002008BD012008BD1E
:103870000A2008BDF8B500250F4606460C46E0377D
:1038800017E06800205A0021FEF74CF9002809D003
:10389000017A3046FEF7E0FA002808D06900615A44
:1038A0002180F8BD6800205A20800120F8BD6D1CE1
:1038B000EDB2B87DA842E4D80020F8BD10B50446AA
:1038C00008880021FEF72EF9002804D0017A20464E
:1038D000FEF7C2FA10BD012010BD000030B585B062
:1038E00005466946FDF7A8F8040026D168468078A9
:1038F000C1071E4809D08268002A04D0688869463A
:103900009047044619E0062417E04268002A05D0D3
:10391000688869469047040001D10EE00624684695
:103920004078002809D16846817801730021C1815F
:103930000474688803A9FCF7C1FFA868002801D0B7
:10394000FCF724FC002C05D168468078122807D0AB
:103950001B2803D068880121FEF744FB05B030BD69
:10396000684640780128F5D1F8E700008C7CFF1FFD
:1039700070B505460C4608880021FEF7D3F80028EC
:1039800005D0017A22462846FEF779FA70BD01205B
:1039900070BD000001494860704700008C7CFF1F2B
:1039A00010B50446801C00F046FDFF20E07010BDFD
:1039B00010B500F025F8002800D0806810BD002266
:1039C0009300CB5A834202D1900040187047521C9A
:1039D000D2B2022AF4D3002070470000074A002127
:1039E000CB00D35A834202D1C80080187047491CCB
:1039F0000906090EF4D00020704700004079FF1F2F
:103A00000649896805E08A88824201D18868704742
:103A100009680029F7D10020704700003079FF1FA6
:103A2000F8B50746012906D0022924D1012101F069
:103A300083FB00281FD13846FFF7D0FF050015D0C3
:103A400000240D4E0CE0F8206968604308180188D6
:103A5000002908D0F8220021FCF702FB641CE4B224
:103A600070788442EFD30020C04328800249384652
:103A70001831FDF7FDFDF8BD3079FF1FF3B506469F
:103A800083B008300190002000907088FFF7A6FFF7
:103A900007002FD0002523E0F820796868430C1830
:103AA0002188002920D00198007801280FD1608852
:103AB0000090A3887088A21DFDF7E6FF0090002803
:103AC00005D0019900200870049821880180F8220F
:103AD00000212046FCF7C4FA00206D1C2080EDB2C6
:103AE000074840788542D7D30020C04338800098EB
:103AF000002802D17088FCF70BFF009805B0F0BDDC
:103B00003079FF1FF3B50546374C064685B00835BA
:103B1000F62200212046FCF7A3FA03A800902B7997
:103B2000698828886A1DFEF723F8074645E07088F3
:103B30002E4A4100515C2E4BC91FC9B2009300228E
:103B400002910192284B69468A89F63B3946FDF776
:103B500037FE002812D126482989001F8288914209
:103B60000CD121492846F6390A30FCF76DFA0028B5
:103B700004D02178788989000919488068468289AB
:103B8000698804AB3846FEF725F80746207881009F
:103B900009194A88002A10D0002F05D06A46128AD7
:103BA000401C20708A800AE002060021920DC94361
:103BB0001219401C2070918006E0002F04D00D489F
:103BC000217800888142B2D32078002806D07088FE
:103BD0002146FCF7A5FE002007B0F0BD0698298815
:103BE00001800A20F8E70000549EFF1FDC7BFF1FC6
:103BF0003479FF1FD87BFF1FF0B585B00446002045
:103C00006946888120790E2869D00FDC082823D0E6
:103C100004DC022813D0062818D118E02546083500
:103C2000484F0A281DD00C2810D138E010285BD04E
:103C300012285ED0162861D0182877D163E0434857
:103C40004149008808806088FCF742FE6EE003A9C5
:103C50002046FFF757FF5AE003A9204600F076F907
:103C600055E0288804A9FDF75DFF010015D06088A4
:103C7000354E4200BA5C0023521ED2B2019302922A
:103C800000966A46B31C128AFDF79AFD00281DD1E2
:103C900060883146FCF7D4FF48E0012016E0288810
:103CA00004A9FDF73FFF0100F7D060886B88420050
:103CB000BA5C254E521ED2B20193029200966A4619
:103CC000B31C128AFDF77CFD002803D029886A46C0
:103CD00091811CE060883146FCF782FF26E003A951
:103CE000204600F0D3F912E003A9204600F082F844
:103CF0000DE003A9204600F039FA08E003A92046A8
:103D000000F028F803E003A92046FFF7B7FE0028DB
:103D10000CD06178142909D00B4922790A706A46BF
:103D200092894A8008716088FCF7C8FD2046FDF73B
:103D3000E1FE0748C168002901D02046884705B048
:103D4000F0BD0000DC7BFF1F549EFF1FD67BFF1FD2
:103D50003079FF1FF8B504460F4605460834008940
:103D60006946FDF7DFFE06003AD0307A80060ED5B0
:103D700068460088FFF71CFE030006D06888122200
:103D800031469847060002D02BE00E2629E06E88C7
:103D90003046FFF723FE010005D11448FFF71EFE51
:103DA00001000ED00E80124A0020527807E0F8265B
:103DB0004B6846439B5B002B05D0401CC0B2904231
:103DC000F5D309260DE04968F8225043081821462A
:103DD000FCF72EF9002668882146FCF7F7FE02E082
:103DE0000126208838803046F8BD0000FFFF000023
:103DF0003079FF1FF3B58BB000200B9E0746039070
:103E000004A800903246337B718930894C4C0D32C6
:103E10000836FDF7ADFE054678E00B98297A408814
:103E2000FEF71AF8070003D00C98698901806FE04B
:103E30000B9844494088444B4200895C0093891F99
:103E4000C9B20022029101923D4B69460A8AF63BB3
:103E50002946FDF7B5FC0700E6D10398002833D0CA
:103E600039486188001F8088021D914253D103990F
:103E700009180B98408842003248805A801F8142BE
:103E800049DC0399A87A6118087103986989401C74
:103E900080B22218090A401C117180B20390684652
:103EA000028A718807AB2846FDF794FE050011D001
:103EB00003986946898B2018017103986946401C54
:103EC000898B80B2090A0CE01F48001F8088001D02
:103ED0006080D6E70398FF21201801710398401CE9
:103EE00080B222181171401C80B217490390091F3B
:103EF0008A8813492018F639001DFCF799F81249F1
:103F00000398091F8988401880B20390002D84D13E
:103F1000039800280CD061880398FCF797F920706B
:103F20000B9821464088FCF765FE00200DB0F0BDDF
:103F3000002F00D10A270C98318801803846F5E718
:103F4000549EFF1FDC7BFF1F3479FF1FF3B507462C
:103F5000044608378BB049480490388800252E461F
:103F600005906AE007A800903B7979887A1D05984A
:103F7000FDF7FEFD0890002852D040890590089872
:103F8000017A6088FDF768FF06005DD160883C49D2
:103F90004200895C3B4B091FC9B200930022029189
:103FA0000192364B69468A8BF63B0899FDF708FC6F
:103FB000060049D1002D36D0049841883148001FB1
:103FC0008088801C814241D12E4B1B1F9888291864
:103FD000608842002A48805A001F814220DC0898ED
:103FE000817A04984019017108996D1C4989E8B2D9
:103FF0000A0A049909180A71401CC5B219460498A6
:104000008A881E494019F639001DFCF711F81D4831
:104010001D49001F00792818C5B20598884209D1AA
:10402000002D13D123E017480499001F8088801CBD
:104030004880C9E7401C80B2059060884100104864
:10404000405A001FA8428DDA002D0ED004984188F6
:104050002846FCF7FBF80146049801706088049933
:10406000FCF7D6FD00200DB0F0BD002E00D10A26D1
:104070000C99059808803046F5E70000549EFF1F14
:10408000DC7BFF1F3479FF1FFFFF0000F3B50646FE
:104090000446002085B0324D00900836288007463F
:1040A0003046E030049048E07800305A03A9FDF72C
:1040B00039FD01001AD060882B4B84464200294804
:1040C000805C0093401EC0B2002202900192244BFB
:1040D00068468289F63B6046FDF772FB0090002837
:1040E00007D07800315A0698018035E00120009011
:1040F000F7E71D492888091F8988421861884B0005
:104100001849C95A4B1E9A4204DD081A1649091F5C
:10411000401E88802988A81C08181349091F8A880E
:104120000F49F639FBF784FF0F482988001F808864
:10413000081828807F1C0498FFB2807DB84207D9F8
:104140006088298842000748805A401E8142ABDBC4
:1041500060882946FCF76AFD009807B0F0BD0000B2
:10416000549EFF1FDC7BFF1F3479FF1FF3B505460C
:1041700083B004460835008901A9FDF7D3FC274622
:10418000E8370646002822D0307A80060ED56846E9
:104190008088FFF70DFC030006D0608812223146AC
:1041A0009847060002D013E00E2611E00020009090
:1041B0006B88298860882A1DFDF766FC060007D1F8
:1041C000787E002807D16088FCF766FD03E00126B1
:1041D000049829880180787E002802D0002005B04C
:1041E000F0BD3046FBE70000F8B504460246F82073
:1041F0004243194800250746457010377868002863
:1042000007D00020C100C919401C00064D60000EF7
:10421000F8D0124E00213046FBF722FF0020014665
:104220006143C9B2F82251438B190B49C2001031C6
:1042300052180021536005E0F8274F435368491C8A
:10424000DD53C9B2A142F7D3401C0006000EE6D0F0
:10425000014844700020F8BD3079FF1F669CFF1FA5
:104260007CB50C78069D022C0FD14C6826786478BA
:1042700024023419064EA4B2F44206D10224DBB261
:1042800000950194FDF70CFA7CBD01207CBD000077
:10429000FED6FFFFF8B505461D48854223D0461CD3
:1042A000002921D001292BD002291CD10121284627
:1042B00000F042FF002816D12846FFF7B5F90400A8
:1042C00011D0A078FF280ED0FE2807D00020009043
:1042D000E0781E2314222946FFF7CEF92046FFF787
:1042E0005FFBFF20A070F8BD2846FFF79DF900286E
:1042F000F9D13046FFF798F90028F4D00580F8BDD1
:104300002846FFF791F90400F9D02680D9E700008C
:10431000FEFF000038B5040010D0A078FF280DD0B3
:10432000FE280BD0002000902188E0781E23172261
:10433000FFF7A2F9FE20A070FF20E07038BD00005A
:10434000F3B50C468978C1B01E2914D02E4D2878BB
:10435000FF2829D0182927D84808C2002B4812184E
:10436000803A976F002F1FD0D06F00281CD0207884
:10437000002817D113E04198FFF756F905000BD03C
:1043800000200090A378E87800224199FFF774F9A3
:1043900006462846FFF704FB304643B0F0BD62787E
:1043A000012A03D1122901D00620F6E702AE0096B9
:1043B000A3886178A268B8470028EED1A0784008A9
:1043C000C100124808188038C26F02A9419890476E
:1043D00000280FD061780029DFD1A27869460A70E1
:1043E000087168460189418069464198FCF766FA80
:1043F0000020D2E7A378042BCFD0009600222878A3
:104400004199FFF739F9C8E77C7CFF1FB0730211AF
:1044100000B50346FDF710FD002803D0C018401E6C
:1044200080B200BD184600BD10B57D24E400624393
:10443000FBF712FF10BD10B5040008D02078FF284C
:1044400005D0FE2803D0FBF70DFFFF20207010BD24
:10445000F7B506460F461020FBF73EFE0546102036
:10446000FBF73AFE0446002D3AD0002C2DD0102246
:104470000021FBF7F5FD2A462146304601F0B2FC4B
:10448000060023D12878000604D43946284600F0D7
:1044900065FD08E02146284600F060FD3A461149D6
:1044A000204602F023FF3878000604D438460299EB
:1044B00000F054FD0AE02146384600F04FFD09495E
:1044C0002046029A02F012FF00E013262846FBF76E
:1044D00015FE002C02D02046FBF710FE3046FEBD34
:1044E0001326F6E73A740211F8B5069800271D4620
:1044F00014460E46002801D00B20F8BD307800216C
:10450000022801D019804DE07068027840780002DE
:104510001018152280B25202801A0300FBF79AFD90
:104520000504121F1A254100F068FBF70BFEC2B20A
:104530000798824200D902462A80F1682046FBF79C
:1045400077FD30E0F0680221008829802070000AA1
:10455000607028E0062028800246F168EEE701201E
:104560002880F068007820701DE0F068002816D0E0
:1045700008212980017821700188090A61708178F9
:10458000A1704188090AE170017921718188090AC5
:1045900061718179A171C088000AE07103E029800E
:1045A00001E0298001273846F8BD10B50B78840753
:1045B00002D50224234301E0FD2423400B700307AE
:1045C0000B7802D50824234301E0F72423400B7025
:1045D00083060B7802D52024234301E0DF24234007
:1045E0000B700A21084201D1810603D510780C21F5
:1045F000084304E0002803D11078F321084010702C
:1046000010BD0000FFB581B0087800240A9E1F4647
:104610000D4602280FD1686801784078000208181A
:10462000152180B24902401A09D0012829D0022858
:1046300048D003283CD00124204605B0F0BDE868EE
:10464000FBF780FDC0B2864205D8F019009015280E
:1046500003D90D24F0E70724EEE7E8683A4680190D
:104660000399FBF7E5FC0098EA6880B20021115439
:104670001C4840680028DFD001680029DCD00020F9
:1046800012E0002E12D1022BE3D10399E8680A78D8
:104690004978090251180180124840680028CBD09F
:1046A00001680029C8D001208847C5E70B24C3E76B
:1046B000002EFBD1062BCCD10622E8680399FBF72C
:1046C000B7FCB9E7002EF1D1012BC2D103980078D5
:1046D000002803D0012801D08024ADE7E9680870E4
:1046E000AAE700004878FF1F70B505460D488542CF
:1046F0000CD00D4C01290AD0022905D101212846F0
:1047000000F01AFD002802D00020207070BD06497C
:104710002846891CFCF7ACFF20780028F6D0FBF770
:10472000A7FD70BDFEFF00009879FF1F08B509487E
:104730008368002B0CD01A78694601205B1CFEF7B9
:104740005EF8002804D00078C00701D0012008BD21
:10475000002008BD547CFF1F10B503460B4A002003
:104760000A21414389184988002905D0401CC0B25C
:104770000328F5D3002010BD0A21002441435454DE
:104780000446403488184480037210BDE8A2FF1F1D
:104790000A7802700A88120A42708A7882704A88FF
:1047A000120AC2700A7902718A88120A42718A79E1
:1047B0008271C988090AC17108207047F8B5054699
:1047C0000C4648680421FBF7EDFC217A0170218931
:1047D0000346401C090A0170217841702188090AAA
:1047E0008170207A001DC2B2FB2A36D81C4885424F
:1047F00015D114461E460C20FBF7AAFC01000CD074
:1048000090200870022008714D808E601548CC8081
:104810000078FBF779FC00271DE013271BE05C20E4
:1048200011496843441826464036307E002806D099
:1048300008465C30416A0727491C41620BE021466B
:10484000284600F095F90746307E002803D121461E
:104850002846FBF713FD3846F8BD0220F8BD0000DE
:10486000FEFF0000997CFF1F64A3FF1F10B50A4ADA
:1048700000210A234B439B185C88002C06D01B792F
:10488000834203D10A204143881810BD491CC9B294
:104890000329EED3002010BDE8A2FF1F00214180B4
:1048A0000170704770477CB504000FD06088002805
:1048B0000CD00025009501951323E188207A17225A
:1048C00000F028F8FF206072658025707CBDF8B587
:1048D000074615460E461020FBF73AFC040017D099
:1048E000A0202070002060706680002D05D00C2272
:1048F0002946201DFBF79CFB04E00C220021201D13
:10490000FBF7AEFB21463846FBF7FEFB0020F8BD67
:104910000120F8BDFFB581B01E46174614200B9D3F
:10492000FBF716FC04001AD0A220207067700298D2
:1049300060800A9820716671002D06D020460C22F6
:1049400029460830FBF774FB05E020460C220021C5
:104950000830FBF785FB21460198FBF7D5FB05B036
:10496000F0BD022A1CD34B780A781B02D21892B2EF
:104970000280012A02D0022A06D00FE08A78C97884
:1049800009025118418009E0CB788A781B02D218BD
:1049900042800A79497909025118818000207047C4
:1049A00001207047F8B506464D88002070600A79EE
:1049B0000C46022A12D0290160480091415A002970
:1049C00006D0009B1F18BB68002B01D0012A7DD0A8
:1049D0005A486C304169491C4161A9E0E288042AC7
:1049E00043D3A068437801781B02C91889B20091AB
:1049F000C37881781B02C9188FB2017AC07900028E
:104A000008184F4948800099091D8A4220D1072F74
:104A100013D0052F11D0042F02D0062F25D10CE082
:104A200046482901405A002807D02846FDF73EFB9A
:104A300042486C300169491C01610098308137801F
:104A40000321C943A068FBF7ADFB70600020F8BDEF
:104A5000072F18D0052F16D0042F07D0062F12D0FD
:104A600036486C30C168491CC16064E03348290194
:104A7000405A002807D02846FDF718FB2F486C3015
:104A80000169491C01612D492D01002048536E1810
:104A90000098B081B7800098FDF76CFBB0600028EB
:104AA00018D00321C943A068FBF77CFBE2880146CC
:104AB000224F121FB068FBF7BBFA785BE188401801
:104AC000001F785338466C30016800E008E0491C4C
:104AD000016030E019486C308169491C81612AE02D
:104AE000E2888918009A89B28152BA8991421AD80B
:104AF0000546B868E2884018801AA168FBF798FA62
:104B00000098295AB889814215D13081B8883080FF
:104B1000B868706000990020685208486C3041689D
:104B2000491C416007E005486C308168491C816080
:104B30002846FDF7BBFA0120F8BD000054A3FF1F73
:104B4000AA7CFF1F022A01D0012070470A78497809
:104B5000090251180180002070470A7802704A78D3
:104B600042708A78C9780902511841807047000064
:104B7000FFB50C4607463D49A120800009687843EF
:104B80004018FF30C130067E89B015463846FBF725
:104B9000E9FE001DB04204D23846FBF7E3FE001DDB
:104BA000C6B2B54207D82A46002138460C9BFBF70F
:104BB0006BFB0DB0F0BD31462846FBF747FB27469F
:104BC000403738740C99616501467143691AC9B25E
:104BD00002910C9904910299002901D0401C38746B
:104BE000002523E00299002904D0401EA84201D1EB
:104BF000084600E03046E900059103916054FDF756
:104C0000EDF903990919486000281BD00599625CE9
:104C10000499FBF70DFA0598215C04980818049094
:104C20001348C169491C6D1CEDB2C161387CA842B2
:104C3000D8D8606D002803D0FBF7A8FA0020606583
:104C40000020B6E7002038740646606506E0F000F4
:104C500000194068FBF79AFA761CF6B2AE42F6D31A
:104C60000348C16A491CC1621320A2E73409FF1F2F
:104C7000C0A3FF1FF7B586B016460D464878FFF76C
:104C8000F5FD040010D0002727712878012802D0F4
:104C9000132809D105E06A88314602A8FFF761FEB2
:104CA0000AE02078032802D0002009B0F0BD6A880D
:104CB000314602A8FFF746FF0646204600F046F9B7
:104CC00002A8019000972B78207A32460699FFF7C8
:104CD00021FE2046FFF7E2FD3046E6E7FEB504463A
:104CE000468801466846FFF75DFE054601980028A4
:104CF0002FD068460088052806D0042809D0062849
:104D000007D0072805D026E06946304600F030F885
:104D100021E081001548081801464039098E002914
:104D200019D02038807C6A463146FFF7D0FD002834
:104D300011D168460088042803D001213046FDF7D0
:104D400051F9012D04D1A068002801D0FBF71EFA0B
:104D5000FEBD012D04D1A068002801D0FBF716FA92
:104D600001213046FDF73EF9FEBD0000D8A2FF1F2D
:104D700030B50546088987B00C46042817D302A829
:104D80006168FFF7EAFE68464089172837D821890D
:104D9000001D81421ED16846007AC10709D06268B1
:104DA00002A92846121DFFF765FF002812D107B09F
:104DB00030BD6168091D122805D0002069460880B1
:104DC000497A6A4622E06846428903A8FDF73AF923
:104DD000002803D02846FFF765FDE8E70D488188E5
:104DE0000029E4D06946497A03AA019200916946F4
:104DF0000B7A807900222946FFF78CFDD7E7012145
:104E00006846018017214180417A6A462846FDF7AD
:104E1000CDF8CCE7D8A2FF1F70B5144C0026268031
:104E2000A681A680A0683546002802D0FBF7AEF91F
:104E3000A5600E4C1034204640300574457405764C
:104E4000606D002802D0FBF7A1F965655C200025A4
:104E500046433419E80020184068002801D0FBF7C9
:104E600095F96D1C0A2DF5DB70BD000054A3FF1FE2
:104E7000FFB589B015460E461720129FFDF77AF947
:104E8000040021D0684606704570002F03D0201D15
:104E90000C99B84700E0002069464880267065708C
:104EA0004888A070010AE170052269468A82001DC7
:104EB0000694888305A90998FFF780FC050004D0B3
:104EC0002046FBF763F900E0132528460DB0F0BD3E
:104ED000FFB581B01E46054601210A9F0B9C00F0DC
:104EE0002BF9002811D02046FFF736FC00280AD005
:104EF000C5800446077012484178491C0A06120E04
:104F0000427004D005E015250FE014250DE00122C4
:104F10004270227100962846039B0299FFF7A8FF72
:104F2000050005D02046FFF7B9FC284605B0F0BDC6
:104F300023462146034A09330348FBF78DF9F4E77A
:104F4000AA7CFF1F30750000A748021110B5044667
:104F5000407AFBF787F9FF20607210BD10B500247E
:104F60000F22835C5B0023438B54835C521EDC095D
:104F700052B2002AF5DA10BDFFB581B01E461746C1
:104F80000D46084600F04AF8002802D0112005B06E
:104F9000F0BD0E4800F042F8040015D00A98A07148
:104FA0000622E01D0B99FBF743F8658027716671B7
:104FB00001982070002060620C98E0810021284652
:104FC00000F0E2FC0020E2E71520E0E7FFFF000030
:104FD00070B514460D46064600F020F800280BD0A8
:104FE000416A007900290CD0C20611D580070AD485
:104FF000002C08D0052070BD074886420AD0142036
:1050000070BDC006F6D5887EA84203D20C2070BDC4
:105010000F2070BD002070BDFEFF0000084A002177
:1050200028234B439B185B88834203D128204143AC
:1050300088187047491C0906090EF1D000207047F6
:1050400008A3FF1F30B50B4C0B4B002128224A430D
:10505000D5186D88A54206D09A5C824203D12820DB
:105060004143C81830BD491C0906090EEED0002086
:1050700030BD0000FFFF000008A3FF1F10B5002097
:105080000B4C0C4B014628224243D2185480401C42
:10509000117100065162000EF5D0064A0020283238
:1050A0008300401CC0B2D1500528F9D310BD0000C8
:1050B000FFFF000008A3FF1F0020074A0146282326
:1050C0004B439B181B79002B01D0401CC0B2491CDC
:1050D0000906090EF3D0704708A3FF1F074A0021F5
:1050E0008B00D358002B05D0491CC9B20529F7D332
:1050F00013207047890050500020704730A3FF1FD5
:1051000010B5FFF78BFF040013D06088012100F079
:105110003BFC606A002801D0FAF7F0FF282200214A
:105120002046FAF79DFF0020C043608000202071D8
:1051300010BD022010BD000010B50C460649884283
:1051400006D0FFF76BFF002804D00079204201D081
:10515000012010BD002010BDFEFF00000748416B7C
:105160000806020F064842700A05120F82700A0BE9
:105170000902C270090F01717047000000F0004081
:10518000B99FFF1FF7B5064686B000200490039034
:10519000079810E125290AD00499002901D0039825
:1051A00002E0049000200390401C039000E103986B
:1051B000002805D081B20498B047002004900390E5
:1051C00000250422082310210798401C079000782E
:1051D0002B2819D004DC202818D0232804D117E06C
:1051E0002D280FD0302815D0079A00271078FF43BC
:1051F0000346303B3C46092B0FD807A800F0B8FD0A
:10520000044615E00D43DFE71543DDE71D43DBE70B
:10521000202000E001200543D6E72A2808D1521CAF
:105220000898079210C80890002C01DA64420D43D8
:10523000079938460A782E2A14D1491C0791087814
:105240000246303A092A03D807A800F091FD06E08B
:105250002A2806D1491C0791089901C908910028FC
:1052600000DA0020079A39461778682F03D06C2F90
:1052700001D04C2F02D1521C39460792079B0A22BB
:105280001B786E2B2CD00CDC632B2AD004DC412B3A
:1052900026D0582B11D19BE0642B01D0692B0CD167
:1052A0009AE0732B3DD004DC6F2B77D0702B04D1A8
:1052B00064E0752B73D0782B6FD0252B09D0252077
:1052C00069460872012102A8B047079801780029B1
:1052D00075D00798694600780872012102A8B04786
:1052E00066E0E80609D42025641E002C05DD68462A
:1052F0000572012102A8B047F6E708986A460178CE
:105300001172001D0890012102A8B047202504E079
:1053100068460572012102A8B047641E002CF7DC24
:1053200046E0089A02CA08920091002901D12DA1F5
:1053300000910A4600E0491C0B78002B01D0401E6A
:10534000F9D28F1AE8060AD420252046641EB842F6
:1053500005DD68460572012102A8B047F5E7B9B23C
:105360000098B047202504E068460572012102A894
:10537000B0472046641EB842F6DC19E0611C02D139
:10538000082401210D4300900898019502C8234686
:105390001022089009E001E001E01BE00822089BD0
:1053A00002CB0893019500902346304600F034F874
:1053B0000798401C07900178002901D0EAE60EE02A
:1053C0000398002802D081B20498B04709B0F0BD1C
:1053D000402215431022E2E702231D43DFE7401E6F
:1053E0000790E5E73C4E554C4C3E000070B50D462D
:1053F0000646002404E0315D04A0FDF789F9641C31
:10540000AC42F8DB03A0FDF783F970BD253032789C
:10541000200000000A000000FFB50746574897B07B
:10542000219D006815901E460A46680602D553481D
:1054300040681590E80601D56D086D001998801E2A
:10544000232870D2E80701D0302100E0202110A8E5
:10545000017300210172A80710D5002A04DA2D205B
:1054600010A90872524208E0680701D52B2002E01B
:10547000280703D5202010A908725E1EA80608D5AB
:105480001998102802D0082802D002E0B61E00E0C9
:10549000761E0024002A14D010461999FAF7D6FE79
:1054A000159A525C01A90A55641C0200F4D1209897
:1054B000844200DD20942098361A112005420BD03A
:1054C0000EE03020694608710124F0E7202069468B
:1054D000087001216846B8473046761E0028F5DC82
:1054E00010A8007A002802D0012112A8B847A80607
:1054F00016D51998082802D0102802D010E03020C4
:1055000009E030206946087001216846B8471B4809
:105510000068203040786946087001216846B84725
:10552000E80604D507E027E0012113A8B847304674
:10553000761E0028F8DC30252099481E2090A142D4
:105540000BDD684605700121B847F5E7285D69461F
:10555000087001216846B84700E001AD2046641E8E
:105560000028F3DC20243046761E002804DD68463F
:1055700004700121B847F6E71BB0F0BD0078FF1FAB
:10558000097A0220C90600D508207047FEB51546E5
:105590000A7A0024089E920601D50820FEBD0A78EA
:1055A000022A0AD048891349498D884203D1D9B2C9
:1055B000284600F0C1F82046FEBD4A6817785278A8
:1055C0001202BA180C4F92B2BA42F4D101220192DF
:1055D000DBB200962A46FCF763F80400EBD1697849
:1055E00028780902401880B2012800D00020034921
:1055F0000870E0E7A479FF1F02290000599FFF1FF0
:1056000010B50848FFF76AFDFFF7A8FD06490748EF
:10561000FCF72EF80448064A06210A30FCF7EAF99E
:1056200010BD0000E94602119A79FF1FFFFF00003C
:105630007873021110B515210020FAF72BFEFF2018
:10564000F530FAF72DFE10BD70B504460300FAF7E9
:1056500001FD0612041A23251C12002210481149CC
:1056600005239D1A455D8D54521CD2B2062AF8D3EB
:105670000DA0FDF74DF80A482146C01E44700EA04B
:10568000FDF746F870BD10A0F3E71548102100782B
:10569000FAF70CFE13A0ECE717A0EAE71CA0E8E776
:1056A000B77AFF1F6509FF1F476170726F6C655FF6
:1056B00073746172743A0A005B47415020524F4C38
:1056C000452025645D0A0000476170726F6C655F5C
:1056D00061647665727374696E673A0A000000004F
:1056E000FF7AFF1F476170726F6C655F436F6E6E6C
:1056F00065637465643A0A00476170726F6C655F38
:10570000446973636F6E6E656374696F6E3A0A0005
:10571000476170726F6C655F7761697474696E67F9
:105720005F61667465725F74696D65726F75743AF6
:105730000A00000070470000F0B58FB00546002752
:1057400068460E46077714293FD80A46294608A816
:10575000FAF76EFC08A8824C0178204611300190BF
:1057600020300090062973D008DC012910D00229CE
:1057700033D003296DD0052908D18DE0072969D0E0
:1057800077480B38742954D0752967D0692021E0F7
:10579000744C6878277000F01DFA0006000E694608
:1057A000087714D1032E03D0FFF744FFFAF760FD0A
:1057B000A878012803D0FFF73DFFFAF759FD012132
:1057C00007A800F0F5F8012020700FB0F0BD01210E
:1057D00007A840E069460877F9E71422002102A8EB
:1057E000FAF73EFC6846077202ACC1208000611CDB
:1057F000FBF75AFA5A486030017900290AD0C2787A
:105800006031019100928378427857A1E01DFAF748
:1058100053FD07E0C17800918378427855A1E01DDF
:10582000FAF74AFDE01DFAF74DFD0830C1B202A8B3
:1058300011E00278761EB2422CD1002A2AD0691CCF
:10584000401CFAF701FC012824D168460777BEE71F
:1058500040E01FE060E000F0ABF8B6E769780F29A0
:1058600018D102780446002A14D00A2A12D84448D3
:10587000029703970497059700683949019001A89A
:105880000B390130521CFAF7D3FB2078801CC1B2CF
:1058900001A8E0E705209DE710220021FAF7E0FBD0
:1058A00008A9102201310098FAF7C2FB1021601CF0
:1058B000FAF70EFD2A481022213000210546FAF79A
:1058C000CFFB2A46611C2F48FAF7ACFB1022294671
:1058D000712019E0102200210198FAF7C1FB08A9F4
:1058E000102201310198FAF7A3FB02AA2548019979
:1058F000FAF798FB102202A80099FAF7A5FB0028F6
:1059000005D01022611C722000F069F85DE7FFF7F6
:1059100091FEFAF7ADFC58E7114810224130002102
:105920000546FAF79DFB08A9102201312846FAF72F
:105930007FFB02AA611C0198FAF774FB084A02A9CE
:10594000513214460F48FAF76DFB102229462046C3
:10595000FAF77AFB0028DAD0102221467320D3E729
:10596000599FFF1F9879FF1F5625642E25642E2509
:10597000642563005625642E25642E2564000000EE
:1059800074730211ACA2FF1FF8B5084D0E4607460E
:105990000024A0002A58002A02D0314638469047F9
:1059A000641CE4B2052CF4D3F8BD000030A3FF1F43
:1059B00030B5BFB00C460546F82200216846FAF71C
:1059C0004FFB142C09D8684644802246294601A87A
:1059D000FAF72EFB684600F0C1F83FB030BD70B555
:1059E000BEB015460E460446F82200216846FAF776
:1059F00037FB142D0CD8681C694648800C7101A82F
:105A00002A4631460130FAF713FB684600F0A6F843
:105A10003EB070BDFFB581B00298FFF7FFFA0400F9
:105A200069D00298354986008A59002A63D0136AE2
:105A30001820002B00D03420936A002B00D01430A3
:105A4000049B002B00D01C30516A002900D0163076
:105A5000FAF77EFB05004ED018220021FAF700FB72
:105A60002620FBF7DDFB070000D12778D020287027
:105A7000019868700A20A8700298A8800398A871FD
:105A80001E482C4680591834006A002808D01B494B
:105A9000AC60895920461C34096A1C22FAF7C8FAFE
:105AA00016488059806A002808D01449EC6089594A
:105AB00020461434896A1422FAF7BAFA04980028A6
:105AC00006D02C6120461C341C220499FAF7B0FA47
:105AD0000A488159496A002906D06C61805916220A
