:020000041FFFDC
:1000000000000000A13CFF1FE846FF1FE646FF1F5F
:100010001C48FF1F0000000000000000000000005E
:1000200000000000000000000000000000000000D0
:1000300000000000000000000000000000000000C0
:1000400000000000000000000000000000000000B0
:1000500000000000000000000000000000000000A0
:100060000000000000000000000000000000000090
:100070000000000000000000000000000000000080
:100080000000000000000000000000000000000070
:100090000000000000000000000000000000000060
:1000A0000000000000000000000000000000000050
:1000B0000000000000000000000000000000000040
:1000C0000000000000000000000000000000000030
:1000D0000000000000000000000000000000000020
:1000E0000000000000000000000000000000000010
:1000F0000000000000000000000000000000000000
:1001000000000000000000000000000000000000EF
:1001100000000000000000000000000000000000DF
:1001200000000000000000000000000000000000CF
:1001300000000000000000000000000000000000BF
:1001400000000000000000000000000000000000AF
:10015000000000000000000000000000000000009F
:10016000000000000000000000000000000000008F
:10017000000000000000000000000000000000007F
:10018000000000000000000000000000000000006F
:10019000A935FF1F4136FF1FB540FF1F00000000BB
:1001A000000000000000000000000000000000004F
:1001B000000000000000000000000000000000003F
:1001C000000000000000000000000000000000002F
:1001D000000000000000000000000000000000001F
:1001E000000000000000000000000000000000000F
:1001F00000000000000000000000000000000000FF
:1002000000000000000000000000000000000000EE
:1002100000000000000000000000000000000000DE
:1002200000000000000000000000000000000000CE
:1002300000000000000000000000000000000000BE
:1002400000000000000000000000000000000000AE
:10025000000000000000000000000000000000009E
:10026000000000000000000000000000000000008E
:10027000000000000000000000000000000000007E
:10028000000000000000000000000000000000006E
:10029000000000000000000000000000000000005E
:1002A000000000000000000000000000000000004E
:1002B000000000000000000000000000000000003E
:1002C000000000000000000000000000000000002E
:1002D000000000000000000000000000000000001E
:1002E000000000000000000000000000000000000E
:1002F00000000000000000000000000000000000FE
:1003000000000000000000000000000000000000ED
:1003100000000000000000000000000000000000DD
:1003200000000000000000000000000000000000CD
:1003300000000000000000000000000000000000BD
:1003400000000000000000000000000000000000AD
:10035000000000000000000000000000000000009D
:10036000000000000000000000000000000000008D
:100370000D19FF1F00000000000000000000000039
:10038000000000000000000000000000000000006D
:10039000000000000000000000000000000000005D
:1003A000000000000000000000000000D91DFF1F39
:1003B000000000000000000000000000000000003D
:1003C000000000000000000000000000000000002D
:1003D000000000000000000000000000000000001D
:1003E000000000000000000000000000000000000D
:1003F00000000000000000000000000000000000FD
:0C04000001FF01FF01FF01FF910000005F
:020000041FFFDC
:10183800D8FAFF1F3D19FF1F81840000F12800001E
:101848000000000000000000000000000000000090
:101858000000000000000000000000004919FF1F00
:101868000000000000000000CD8400004D19FF1F9B
:101878004F19FF1F4F19FF1F4F19FF1F4F19FF1F48
:101888004F19FF1F4F19FF1F4F19FF1F4F19FF1F38
:101898004F19FF1F4F19FF1F4F19FF1F4F19FF1F28
:1018A8004F19FF1F4F19FF1F4F19FF1F4F19FF1F18
:1018B8004F19FF1F4F19FF1F4F19FF1F4F19FF1F08
:1018C8000000000000000000000000000000000010
:1018D8000000000000000000000000000000000000
:1018E8004F19FF1F000000004F19FF1F4F19FF1F5E
:1018F8000348854600F02CF800480047513CFF1F7C
:10190800D8FAFF1F09484838694601600430F0C01A
:1019180044464D4656465F46F0C030BCF0BCF0C069
:10192800F0BCF0C044380249084700000004FF1F1B
:101938000928FF1F0448804704480047FEE7FEE7E0
:10194800FEE7FEE7FEE7FEE7D526FF1FF918FF1FB3
:10195800064C0125064E05E0E36807CC2B430C3CFA
:1019680098471034B442F7D3FFF7C6FFAC47FF1FC0
:101978000C48FF1F30B58C180278401C13071B0F4A
:1019880001D10378401C120906D10278401C03E0FB
:1019980005780D70401C491C5B1EF9D101E00B70E5
:1019A800491C521EFBD1A142E6D3002030BD0000E5
:1019B80003B40148019001BD75A9000003B40148B2
:1019C800019001BD9DA9000003B40148019001BD2B
:1019D800D94F010003B40148019001BDF9A60000E8
:1019E80003B40148019001BDA1AF000003B4014850
:1019F800019001BDADAE000003B40148019001BDE6
:101A0800456B010003B40148019001BD0189000044
:101A180003B40148019001BDC53F000003B401486B
:101A2800019001BDE94C010003B40148019001BDDA
:101A3800C95C010003B40148019001BDDD3F00000D
:101A480003B40148019001BD8944000003B4014872
:101A5800019001BD2144000003B40148019001BD7B
:101A6800750F000003B40148019001BD190701007A
:101A780003B40148019001BDBD0B010003B4014846
:101A8800019001BDDD0C010003B40148019001BDC6
:101A9800DD0A010003B40148019001BD01340100D1
:101AA80003B40148019001BD0934010003B40148A1
:101AB800019001BD0534010003B40148019001BD46
:101AC800F535010003B40148019001BDF935010065
:101AD80003B40148019001BDE917010003B40148AE
:101AE800019001BD6137010003B40148019001BDB7
:101AF80001D7000003B40148019001BD6DF6000054
:101B080003B40148019001BD7912010003B40148F2
:101B1800019001BD4DF9000003B40148019001BDD9
:101B2800C1F7000003B40148019001BD116E000027
:101B380003B40148019001BDE1AC000003B40148C1
:101B4800019001BDE53A010003B40148019001BDCF
:101B5800496D010003B40148019001BD3D710100C8
:101B680003B40148019001BDCD4C010003B4014804
:101B7800019001BDA96F010003B40148019001BDA6
:101B88004D74010003B40148019001BDB30E00007B
:101B980003B40148019001BD810E000003B401485F
:101BA800019001BD21A9000003B40148019001BDC5
:101BB8004550000003B40148019001BDC56D010006
:101BC80003B40148019001BDE9D4000003B4014801
:101BD800019001BDC115010003B40148019001BD88
:101BE800CD0C010003B40148019001BD71B00000A3
:101BF80003B40148019001BDD9B0000003B4014805
:101C0800019001BD5976010003B40148019001BD5E
:101C180053B9000003B40148019001BDED6B010008
:101C280003B40148019001BDC9A9000003B40148EB
:101C3800019001BDEDA5000003B40148019001BD6C
:101C48002D11010003B40148019001BD8914010060
:101C580003B40148019001BD6189000003B4014843
:101C6800019001BDD70E000003B40148019001BDE9
:101C7800810E000003B40148019001BD156B0100FD
:101C880003B40148019001BD2D6C010003B4014863
:101C9800019001BD6911010003B40148019001BD23
:101CA8008512010003B40148019001BD8D110100A6
:101CB80003B40148019001BDE512010003B40148D5
:101CC800019001BDF90D010070B54E4A8AB0012896
:101CD80000D14D4A43014D486D461C18207E00280E
:101CE8000AD084208058C3B2002002E016782E540F
:101CF800401C9842FADB03E0107D0123107828701D
:101D0800E269002A04D0297506952B7705A8904723
:101D18000AB070BDFEB5044642013C48394D13185F
:101D2800805C191D002829D0187E002826D0987EAE
:101D3800002823D00878022820D188884A888E680D
:101D4800801A82B2102A01D9102201E0002A02D09A
:101D5800012C16D01CE001200870002048808880E3
:101D6800D969002905D02A4B6D460DCB0DC56846AB
:101D78008847002C03D0192001F02AFCFEBD08205A
:101D8800FAE7214D04E04888431C4B80305C2870FA
:101D98001046521E92B20028F5D1FEBD1A4880683E
:101DA8000007000F062812D006DC02280AD00428F3
:101DB8000DD10121012087E7072805D00C2806D17D
:101DC8000221F7E70120A5E70F484030C06B7047B4
:101DD8000C4880680007000F062812D006DC02288D
:101DE8000AD004280DD1012100206DE7072805D06D
:101DF8000C2806D10221F7E700208BE70148403084
:101E0800C06B70470040004000900040CC58FF1F56
:101E18007C47FF1F10B5FFF7CBFD0A480468094A45
:101E280041178032116008490160FFF7C7FD20465D
:101E380010BD10B50446FFF7BBFD02480460FFF76C
:101E4800BDFD10BD00E100E01000100010B50E4906
:101E58007620C860FFF7B8FD10BD0446FFF7A8FD5F
:101E68000A49C86940229043C8612046FFF7B2FD7D
:101E780001F038FB05480021C030416004210160B1
:101E88000120FFF7ADFDFEE70020004000F0004014
:101E9800F8B5C849C64A002005464A608300401C78
:101EA800D550FF28FADD4868C34A014680318A6068
:101EB8006E22C262C14A1278002A01D07F22C26211
:101EC8000A22BF4B02651A788263BE4AC2611A7839
:101ED8001024022A06D01A78032A08D01A78042A6D
:101EE80005D005E0B84AC2610422026200E004623B
:101EF800B64A42611922920182613722CA603627A6
:101F08002D26C7630822466402644F6032270F609B
:101F18003B27CF634527CF640D4639274035C4C5D5
:101F280032270F6502270F6642270835C4C51E27CA
:101F38004F66CE668A6605264E6742260E675A2683
:101F48000E614A613C228A61AF22D2000260A04A37
:101F580002631A78022A06D01A78032A05D01A785A
:101F6800042A04D005E0152202E00E2200E00C222B
:101F78004260FF222D328260C260FF22F532026188
:101F8800944A82647D22D200934ECA67C664426234
:101F9800924A82627322C265062242658265C21D28
:101FA8000826F9320227166047664B27FF00876626
:101FB8000927C7668A4F0767466700258567BD10EA
:101FC800884F854EC5673E601E78022E06D01E7863
:101FD800032E07D01B78042B08D00AE01A23CB6104
:101FE800212301E01323CC610B6202E00E230C6273
:101FF800CB61784B8B627D23DB008B6764234B625C
:102008000523CB6202230B63C8234B6300238B6336
:102018003821516074491164744991614B21C90098
:10202800D161734911627D2109015162D3661E2174
:10203800136791666A499165156655645567D16558
:102048006149FF30963191676A49D1676A4A8130A0
:10205800026082604160FF21F531C160016168481A
:102068006649534A81606749803A11616449664A02
:1020780080318A62654ACA62654A8261654AC2627B
:10208800654A02636548C8615D49654840318861B1
:102098006549644888605A486449803841606449A1
:1020A8004163FFF7A3FC0120FFF7A6FCF8BDF3B5D9
:1020B8000746604881B0C1695F4A1140FF31093164
:1020C800C161002613E000252C461120FFF79AFC79
:1020D8005848406A8007800F610088402843641C84
:1020E800E4B20546102CF0D301C7761CF6B202986C
:1020F8008642E8D3FEBD10B52E4C607800280AD180
:1021080004214E48FFF7D3FF4C4804211030FFF755
:10211800CEFF0120607010BDF0B500248BB00D46D5
:102128000646102902D901200BB0F0BDFFF7E3FFE6
:10213800424900200A5C401C1419C0B21028F9D387
:10214800002C03D0102D03D90B20EDE70E20EBE770
:102158003B483A4C0023006802A91034E25CC75C93
:102168007A40CA545B1CDBB2102BF7D306AA33485B
:10217800FFF74EFC102D00D910252A4606A9304637
:10218800FFF74CFCFFF750FC216840182060FFF770
:102198004BFC616840186060FFF746FCA168401876
:1021A800A060FFF741FCE1684018E0600020BBE751
:1021B8000004FF1F5848FF1FD8FAFF1F0C48FF1FD5
:1021C8004A0AFF1F220B00004605000080C3C90110
:1021D8009A02000050C30000F81100006A180000BD
:1021E800204E0000F009FF1F004000116810000099
:1021F800C409000040420F0010270000393AFF1FB1
:102208000001FF1F4125FF1F413DFF1F2140FF1F08
:102218004D22FF1FE123FF1F6922FF1FD545FF1F26
:102228007D38FF1F8D26FF1F0002FF1F7F38FF1F0D
:102238008D38FF1F40F0004000FEFEFF8459FF1F4D
:102248007848FF1F70B50124A407A36810252B4305
:10225800A360FFF7EFFBA068A843A06070BD000073
:10226800FFB5064601208007816881B01D4610220F
:1022780011438160554F002038603046D730FFF752
:10228800DFFB9D20800034468059FF36CA34013672
:102298000028306822462CD00121FFF7D7FB4B4F8E
:1022A8002078F863641C2046FFF7D6FB00BA000AC2
:1022B800E17800020843B863241D2046FFF7CCFBF1
:1022C80000BA000AE178000208437863241D20461A
:1022D800FFF7C2FB00BA000AE1780002084338633E
:1022E8000398029900020843F860039F00243F1DE9
:1022F8000EE00021D1E72819401CFFF7ADFB0102D1
:10230800285D0143324820180160241DA4B23F1FF4
:10231800042FF0DA032F04D0022F08D0012F0CD09D
:1023280011E02819FFF798FB0102090A06E02919AC
:1023380048780A780102114300E0295D24482018F2
:102348000160241DA4B20021214F02E0E0190160C0
:10235800241DFF2CFADD1D481E4A42600F2202612F
:10236800012202604269002AFCD04269930701D425
:10237800520708D401208007826810218A438260AE
:10238800002005B0F0BD01600020039A11E0C119DA
:1023980009682954401C80B20B0A2B54401C0B0CB2
:1023A80080B22B54401C80B2090E2954401C80B2C4
:1023B800121F002AEBDC3068401C306001208007C7
:1023C800826810218A4382600120DAE70000044015
:1023D80000010440080F0000FFB5054601208007F2
:1023E800816881B01E46102211438160504F002041
:1023F80038602846D730FFF723FB9D2080002C4605
:102408004059CA3480350028E86F22462BD0002175
:10241800FFF71CFB464F2078F863641C2046FFF743
:102428001BFB00BA000AE17800020843B863241DC8
:102438002046FFF711FB00BA000AE17800020843C2
:102448007863241D2046FFF707FB00BA000AE178ED
:102458000002084338630398029900020843F860B1
:102468000024039F0EE00121D2E73019401CFFF73A
:10247800F3FA0102305D01432E4820180160241D43
:10248800A4B23F1F042FF0DA032F04D0022F08D084
:10249800012F0FD014E03019FFF7DEFA0102090A04
:1024A80009E0311948780978000208432149611880
:1024B800086003E0315D1F4820180160241DA4B2A4
:1024C80000211C4B02E0E0180160241DFF2CFADDFE
:1024D8000F221748120242600F2202610122026095
:1024E8004269002AFCD00160039A0020121D11E005
:1024F800C11809683154401C80B20C0A3454401C7D
:102508000C0C80B23454401C80B2090E3154401C6B
:1025180080B2121F002AEBDCE86F401CE86701203C
:102528008007826810218A43826005B0F0BD0000F0
:102538000000044000010440F8B5FFF775FA494966
:1025480008600420FFF78EFAFFF792FA0646C007E4
:1025580015D045490020086044480078012811D06A
:10256800032813D0042815D0022817D0052819D01D
:10257800FFF784FA3E4F044601281AD01EE0FFF701
:1025880083FAF8BD3046FFF785FA0EE03046FFF7CC
:1025980087FA0AE03046FFF789FA06E03046FFF787
:1025A8008BFA02E03046FFF78DFA40B20128E8D0F6
:1025B80035E03878052809D0062807D02D482E4D53
:1025C8000078022806D0052804D00AE0304601F039
:1025D80023FB24E0022C04D1A87B002807D0022882
:1025E80005D03046FFF774FA022C03D017E03046C6
:1025F80001F01EFB3878012811D170050FD4687BD3
:10260800C10701D0252004E0800701D5262000E07D
:102618002720297D814202D93220FFF75FFA154C25
:102628002078042804D003280ED0072811D014E0FD
:10263800FFF75AFA002810D0FFF75CFA5820FFF786
:102648005FFA0220207008E00C48807CFFF75EFAF1
:1026580003E00B48807BFFF75FFA0320FFF702FADD
:10266800F8BD00009C09FF1F9809FF1F9009FF1F74
:102678001C09FF1F2309FF1FA60BFF1FBC0BFF1F11
:10268800D40BFF1F10B5FB2908D8084B9A4205D870
:102698001B2903D3FF2349339A4201D2302010BDAE
:1026A800034B19825A82FFF73DFA10BD4808000013
:1026B8008410FF1F002805DBC106C90E01208840D1
:1026C800014908607047000000E100E00249014844
:1026D8000860704740787D015448FF1F002805DBDB
:1026E800C106C90E012088400149086070470000F2
:1026F80000E100E08307FF22DB0E9A408907090EFC
:102708009940002808DB830809489B001B181868B3
:1027180090430843186070470007000F0838830883
:1027280004489B001B18D86990430843D861704738
:1027380000E400E000ED00E08307FF22DB0E9A4092
:102748008907090E9940002808DB830809489B007F
:102758001B18186890430843186070470007000F5B
:102768000838830804489B001B18D869904308431D
:10277800D861704700E400E000ED00E08307FF2225
:10278800DB0E9A408907090E9940002808DB830868
:1027980009489B001B181868904308431860704745
:1027A8000007000F0838830804489B001B18D869E5
:1027B80090430843D861704700E400E000ED00E072
:1027C80002E008C8121F08C1002AFAD170477047F2
:1027D800002001E001C1121F002AFBD17047000050
:1027E8001CB569460120FFF7A3F9012000900348B2
:1027F800019000F02BFA01201CBD0000BB0B00006B
:10280800044629A0FFF79AF92DA0616AFFF796F907
:102818002FA0A16AFFF792F931A0E16AFFF78EF9BC
:1028280033A0216BFFF78AF935A06168FFF786F9B5
:1028380037A0A168FFF782F939A0E168FFF77EF9B0
:102848003BA02169FFF77AF93DA06169FFF776F9A6
:102858003FA0A169FFF772F941A0E169FFF76EF99E
:1028680043A0216AFFF76AF945A0616BFFF766F993
:1028780047A02168FFF762F949A0A16BFFF75EF94D
:102888004BA0E16BFFF75AF94DA0216CFFF756F901
:102898004F4841684FA0FFF751F952480068002897
:1028A80000D08047FEE700005B48617264206661E3
:1028B800756C742068616E646C65725D0A00000056
:1028C80052302020203D203078253038780A00000A
:1028D80052312020203D203078253038780A0000F9
:1028E80052322020203D203078253038780A0000E8
:1028F80052332020203D203078253038780A0000D7
:1029080052342020203D203078253038780A0000C5
:1029180052352020203D203078253038780A0000B4
:1029280052362020203D203078253038780A0000A3
:1029380052372020203D203078253038780A000092
:1029480052382020203D203078253038780A000081
:1029580052392020203D203078253038780A000070
:1029680052313020203D203078253038780A000058
:1029780052313120203D203078253038780A000047
:1029880052313220203D203078253038780A000036
:1029980053502020203D203078253038780A000018
:1029A8004C522020203D203078253038780A00000D
:1029B80050432020203D203078253038780A000008
:1029C80050535220203D203078253038780A0000B6
:1029D80000ED00E049435352203D2030782530383F
:1029E800780A00001848FF1F10B5FFF7F9FE002805
:1029F80002D00248804710BDFEE70000E1A20000B7
:102A0800F0B585B005460291002927D0154F00245E
:102A1800144E803F00230094022219460520019499
:102A2800FFF792F830698007FCD420200090411EFF
:102A3800009101D30846FAE738680028FCDA01213A
:102A480003A8FFF787F86846007B284007D00520D1
:102A5800FEF7D8FF0298401E0290DBD1112005B086
:102A6800F0BD000080C80040F8B52E480078FF2867
:102A780021D02D4E30680121890408433060F06967
:102A88002A4908402830F0610320FEF7BBFF706A2E
:102A9800C503ED0B0320FEF7B5FF706AC403E40B12
:102AA8000320FEF7AFFF706A214FC003C00BA54299
:102AB80005D3214604E03C20FEF7A4FFF8BD2946D3
:102AC800814200D30146A54201D32A4600E02246AE
:102AD800824200D20246EB19C32B0DD2144BDB43C2
:102AE8009C4209D9134DAC4206D2984204D9A84257
:102AF80002D2511A132908D3254604460320FEF7AB
:102B080081FF706AC003C00BD1E71420FEF77AFF7B
:102B1800706AF169C003C00B08229143F16106494C
:102B28008860F8BD7148FF1F40F0004000FEFEFFBE
:102B380091FCFFFF320400005848FF1FF8B53C48DD
:102B480000783C4C8021FF282DD03B4D0020286187
:102B58002068CA0210432060384F6068802108430B
:102B680060600320FEF74EFF2869401C28616068FA
:102B780001210904084360600026E06930493840B3
:102B88004018E0610320FEF73DFF606AE169C00379
:102B9800C00B08229143E161A96806225143814292
:102BA80008D3091A07E06068084360600320FEF74D
:102BB80029FFF8BD411A3C2909D2E269012109041B
:102BC8008A43E26162688A436260E860F8BD761C05
:102BD800F6B2052ED1D3E169012000048143E161F9
:102BE80061688143616028692E46052808D3BFF3D0
:102BF8004F8F15491348C860BFF34F8F00BFFDE7DB
:102C080060688021884360600320FEF7FBFEE0696E
:102C180038402830E0610320FEF7F4FE606AC00304
:102C2800C00BB060E16908208143E16195E70000CD
:102C38007148FF1F40F000405848FF1F00FEFEFF8C
:102C4800280001000400FA0500ED00E070B58AB024
:102C580000241E4D049405942878012806D004A960
:102C68000120FEF765FF002802D000200AB070BDE1
:102C78000498009005980190154881680291C068F1
:102C88001349039006AA10316846FEF7D3FE104E8A
:102C980010222036314606A8FEF762FF002811D020
:102CA800012028700B4A31466846FEF7C3FE04949B
:102CB8000020694605948200401C8C500428FADBE9
:102CC8000120D3E7FF202870CFE700007C48FF1FD2
:102CD80000290011A459FF1F10B50448C16B034A0D
:102CE80040321068D06000F073FB10BD00800040D7
:102CF80038B5FEF75DFE01229207936A0824009416
:102D0800002B01D1012090620A480221016000993C
:102D18004D1E0095FBD2032101600094641E0094AF
:102D2800FCD200210160002B00D19162FEF746FE23
:102D380038BD000000C00040012292070121202870
:102D480004D2936881400B4393607047402805D2B2
:102D58005369203881400B43536170476028FCD287
:102D6800136A403881400B4313627047F1B584B051
:102D7800FFF750F80124A4070190A76AFEF718FE90
:102D880025490220086060620120A062FEF716FE55
:102D9800224D28698007FCD420200090411E009114
:102DA80001D30846FAE71D4E803E30680028FCDA59
:102DB8001B490120FFF724FE002817D10498FEF7CD
:102DC800D5FEC0B2029028698007FCD4202000906C
:102DD800411E009101D30846FAE730680028FCDA62
:102DE8000F490320FFF70CFE002802D0112005B080
:102DF800F0BDFEF7DDFD084900200860032161628F
:102E0800A062FEF7DBFD002F01D1FFF771FF0198EB
:102E1800FFF70FF80298EAE700C0004080C80040BA
:102E2800FFFFFF07F7B584B0FEF7F4FF0190FEF748
:102E3800BFFD244F02203860440760620120A06271
:102E4800FEF7BCFD204D28698007FCD420200090A7
:102E5800411E009101D30846FAE71B4E803E3068B8
:102E68000028FCDA19490120FFF7CAFD002818D10B
:102E780004AB07CBFEF780FEC0B20290286980073A
:102E8800FCD420200090411E009101D30846FAE7A7
:102E980030680028FCDA0D490120FFF7B1FD002851
:102EA80002D0112007B0F0BDFEF782FD0020386087
:102EB80003216162A062FEF781FD0198FEF7B9FF68
:102EC8000298EFE700C0004080C80040FFFFFF07FE
:102ED800F0B52C4C89B02078012818D0FEF79AFF5D
:102EE800294D079028698007FCD42027009700986F
:102EF800411E0091FBD2244E803E30680028FCDA47
:102F080022490120FFF77CFD002821D102E00020A2
:102F180009B0F0BD0020009003460146019003224D
:102F28009F20FEF711FE032102A8FEF713FE286971
:102F38008007FCD400970098411E0091FBD23068AE
:102F48000028FCDA11490120FFF75AFD002801D0BA
:102F58001120DDE70798FEF76CFF02980C4A000283
:102F6800000A60606846817A0123084611380528FE
:102F780002D81846884001E00120C004A060906192
:102F88002370C4E73048FF1F80C80040FFFFFF07D9
:102F98008008FF1F30B5C21F0A2A01D3062030BDA2
:102FA8000124074D9440002905D0002100F0A4F821
:102FB8002868204301E02868A0432860002030BD2D
:102FC80000380040054B01228240D868002901D012
:102FD800104300E09043D86070470000003800407C
:102FE80010B5114C2078002801D0072010BDFF2112
:102FF8002D310D48FEF7C6FD012020700B49002039
:10300800086348630A490862486202211020FFF7F2
:1030180093FB1020FFF762FB064A07490D2000F0DA
:10302800A1FA002010BD0000A057FF1F008000403B
:1030380080F000405132FF1FC531FF1F10B517281F
:1030480001D3052010BD0C4B9C6B01228240104619
:1030580020439863586B90435863DC6B012907D071
:1030680020469043D863186B02431A63002010BDB2
:1030780010462043F6E7000000800040054B01227F
:10308800801E82405869002901D0104300E0904317
:10309800586170470038004070B5044614480E4621
:1030A8000519002902D16878012808D00021204696
:1030B800FFF788FF022C04D0032C02D005E007207C
:1030C80070BD01212046FFF7D9FF00212046FFF7F8
:1030D80061FF08490120A0404A68012E05D08243BB
:1030E8004A6002206870002070BD02434A60FAE717
:1030F800A057FF1F0080004070B5420083180D4A9A
:103108009C18A5786478D65C641B0122641CA240D4
:10311800521EAA40084BA940132806D2B000C01876
:10312800836893430B43836070BD58699043084399
:10313800586170BD0747FF1F00F0004007494A6803
:10314800012383401A4201D0096802E00349403153
:103158000969C140C807C00F7047000000800040DF
:1031680070B5154C45002E1976780123114AB340E5
:1031780000290ED0142809D0152807D0162805D004
:10318800605780008018816819430DE05069184322
:103198000EE014280AD0152808D0162806D0605743
:1031A8008000801881689943816070BD5069984398
:1031B800506170BD00F000404C47FF1F70B5104DC6
:1031C80000242E197078012803D1E0B20121FFF7FD
:1031D800C7FF707802280ED1E0B2FFF7AFFF0121D8
:1031E8004140E0B200F074F8E0B2FFF7A7FF0C210D
:1031F800614349194876641C172CE2DB70BD000056
:10320800A057FF1F10B50F4C0D4A0123245C14284A
:1032180009D2106A002902D0A340184301E0A34054
:103228009843106210BD506A002903D0203CA34087
:10323800184302E0203CA3409843506210BD0000B0
:1032480080F00040F046FF1F70B502211020FFF704
:1032580073FA1020FFF742FA00241C4D07E0022CF5
:1032680001D0032C03D1E0B20121FFF707FF281991
:10327800407801280BD1E0B2FFF760FFE2B20146C7
:10328800104600F061F8E0B20021FFF769FF0C205A
:1032980060434019007E002814D0E0B200F066F8C0
:1032A800E6B23046FFF74AFF002801D0012100E0CE
:1032B80000210C2272435219527E824202D03046BB
:1032C80000F0BAF8641C172CC9DB70BDA057FF1FAB
:1032D800F8B542008318184AD55C9A189278521E9D
:1032E800D4B2164A12185278022A21D1144EB76B5A
:1032F8000122134683401F43B763124B13280ED293
:10330800002906D0A900C9188B68A24093438B6096
:103318000BE0A900C9188B68A2401343F7E70029FE
:10332800596906D0A240914359610121FFF76AFF0C
:10333800F8BDA2401143F7E70747FF1FA057FF1F3B
:103348000080004000F00040012200B5064B82409A
:103358000029196801D0114300E091431960012147
:10336800FFF79AFE00BD00000080004070B50446DB
:10337800164821460C2251430D186A680026002A77
:1033880002D1AA68002A1CD0104B0222183B1B1934
:103398005A700122425400212046FFF77DFE6868DA
:1033A800002808D0A86800280DD02046FFF7C6FEE0
:1033B800002808D0002631462046FFF73FFE0020AF
:1033C80070BD122070BD0126F5E70000B857FF1F39
:1033D800F3B5184E002481B0074601252846A040C1
:1033E800384223D00299084000D001200090E0B272
:1033F800009900F021F80C2060438019416880682A
:1034080000290ED0002807D00098002802D00021FB
:10341800E0B203E00121FBE7E0B20121FFF70EFE75
:1034280004E0002802D0E0B20021F7E7641C172C62
:10343800D4DBFEBDB857FF1F074A0C2343439B1834
:103448005A68002A01D0012904D09A68002A02D0BB
:10345800002900D110477047B857FF1F30B587B013
:10346800182217496846FEF793FB00246D46600052
:1034780041194978285CFFF73FFE641CE4B20B2C25
:10348800F5D310484169C2009143052212048918F6
:103498004161416901225206114341614169032298
:1034A800520591430122520589184161072000F015
:1034B8000DF800F021F800F007F807B030BD000063
:1034C800D046FF1F00F000400F2070470449420912
:1034D80003D00020C86006207047C86000207047ED
:1034E8003C48FF1F0348C1691F2252049143C16130
:1034F8000020704700F000400548C1691F225204AF
:103508009143044A928952041143C16100207047D3
:1035180000F000403C48FF1F10B578210C48FEF72A
:1035280031FB0C480078012803D0022804D0042875
:1035380004D1FEF733FB01E0FEF758FA064800789D
:10354800C00702D0064905480863002010BD0000E6
:103558000C59FF1F3C48FF1F00200040551EFF1F4D
:10356800C000FF1F30B50D4C00230C255D43655D81
:10357800854201D1072030BD002D04D05B1C0A2BE9
:10358800F3DB032030BD0C256B431B19F9D0002455
:103598005C7018709A602046596030BD0C59FF1F46
:1035A80070B5FFF7A9FF094D002420460C214843B8
:1035B800295C002907D040194068002800D08047BE
:1035C800641C0A2CF1DB002070BD00000C59FF1FA1
:1035D80070B50546164800240078012811D0042843
:1035E8000FD0FEF7E5F90021124A0B4608460C26D3
:1035F8007043165C002E0FD0AE4205D18018437080
:1036080007E0FEF7CBFA0DE080184078002800D0DC
:10361800641C491C0A29E9DB002C05D0FEF7BEFA18
:10362800FEF7CCF9002070BDFEF7E0F9F8E70000DE
:103638003C48FF1F0C59FF1F70B519480121890725
:1036480042688A60826801231A434A6115490A6BF5
:103658000261496B416100210420FFF78FF80121C5
:103668001420FFF78BF801211520FFF787F80121B7
:103678001720FFF783F80C4D002420460C214843FF
:10368800295C002909D040198068002800D08047AB
:10369800641C0A2CF1DB002070BD122070BD0000F4
:1036A8003C48FF1F80F000400C59FF1F1CB517490C
:1036B8000A200870164901240C701649087016482B
:1036C800C16B490949010931C163C16B602291434A
:1036D8002031C16300F026F800210420FFF70AF822
:1036E80001211420FFF706F801211520FFF702F841
:1036F80001211720FEF7FEFF052000900323012279
:10370800064901940648FEF74FFA1CBD480AFF1FF8
:10371800490AFF1F680AFF1F80F000408C48FF1FFE
:103728001C55FF1F10B5FFF75FF910BD70B5402598
:103738001C4C012802D0002811D027E0606905211F
:1037480040014009C90640186061E069164908400F
:1037580016494018E061E0692843E06116E000215D
:103768000A20FFF7C9FC00210B20FFF7C5FCE06920
:10377800032109020843E061E069A843E061606948
:103788000B21400140090907401860616069012167
:10379800090708436061A069032149048843A061BF
:1037A80070BD000000F000407F00FEFF80FD0100BA
:1037B80010B5064AD160906000F01EF8044A002156
:1037C8001320FFF7CFFE002010BD00002048FF1F88
:1037D8000138FF1F72B606480168491C0160054898
:1037E8000421016000214160012080074160FEE75B
:1037F8007808FF1FC0F00040F8B50025184800956C
:10380800426800782B460121FEF7D4F9164915487D
:1038180088630120154980040860BFF34F8FBFF308
:103828006F8F13480168FF22120402269143B205E4
:1038380011430160642000904120FFF77DFA402089
:10384800FFF77AFA740766620098411E0091FBD26E
:1038580003206062FFF74CFAA562FFF739FBF8BD59
:103868002848FF1F050001FF00C8004080E100E074
:1038780010E400E0704710B5002901D0FEF7A0F968
:1038880010BD0000F3B506466548A121807889007F
:103898004843644983B00968A12244182046FF3090
:1038A80021305F4900908978920051435D4A407DFC
:1038B800126800258F18FF37813732281DD022283B
:1038C8001BD0F86A0168002909D08188001D090AFF
:1038D800891CFEF77BF9F96A002001250860FEF7CC
:1038E8007BF904992746FF370880C137387C0028C0
:1038F80021D0B0421FDC002014E04B4901200860B1
:103908000020F96A01250860E9E780000019FF3006
:103918008130006B8188001D090A891CFEF756F961
:103928000198401C0190397C8142EEDCC8B2361AFD
:103938004519002038743D490020C870FF20AD307B
:1039480000590168002903D00079C04380071ED0C0
:103958000098C07D00281AD00098807D002816D1D4
:10396800387CB04213DAFF204930005B010A204658
:10397800FF304930891CFEF729F900990020C875E5
:1039880000980121817529486D1CC170761E387C0C
:10399800002802D0284605B0F0BD2046FEF722F9DF
:1039A8000090002821DD002E1FDD002718E02046AA
:1039B800FEF71EF980000019FF300130C06E8188C3
:1039C800001D090A891CFEF701F92046FEF716F9C1
:1039D800E01DFF30FA30016A6D1C491C7F1C016232
:1039E8000098874201DAB742E1DB092080012018FC
:1039F800817E002911D0017D00290ED0428E002A37
:103A08000BD0817F914202D2491C817705E00021C9
:103A180081771A212046FEF7F7F8A8B2BBE7000025
:103A2800300DFF1F3409FF1F00140340E010FF1F73
:103A380070B55F480068012803D15E48816D491C54
:103A480081655E485C4941610124C46004605C4D45
:103A58002878002806D006225A495B48FDF7DEFF81
:103A6800002028705949486B594AC0B21278002A78
:103A780017D1584A0023D356002B574BD35606DB91
:103A88001B04002555572A029A18121808E0FF331C
:103A98001B04002555572A029A18504B1218D218A1
:103AA8004A63022801D2022002E0502800D950209F
:103AB8004B4A1278022A11D04A4B1D784A4A167886
:103AC800B5421DD91D781278AA1A801E40104243AB
:103AD80018784001801A1030401112E0434A1578D6
:103AE800434B1E78B54209D915781B78EB1A801E0E
:103AF8004010434310784001C01AECE7107800E00A
:103B080018784A69120A120210434861FDF7B6FF95
:103B18000546052801D0042D1ED136480078002816
:103B280006D035480078002802D00020FEF772F849
:103B38003248A121807889004843314909684018F2
:103B4800FF30FF300230007B042801D0032803D166
:103B5800FF205F30FDF7D4FF2A48022D02D0002D48
:103B68000FD022E00078012807D0032805D00228CA
:103B780003D025480078022817D16C20FDF7C0FF34
:103B880013E00078012801D003280ED11F484021F6
:103B980082791F48002A02D0012A03D005E08288D2
:103BA8008A4301E082880A4382801A48C48270BD31
:103BB8009809FF1FFC0FFF1FFF3F00000010034084
:103BC8005848FF1FD50BFF1F7211FF1F80000340CD
:103BD8008C09FF1F680AFF1F00000000FFFE00009D
:103BE800490AFF1F440AFF1F450AFF1F460AFF1F15
:103BF800470AFF1FF908FF1F2209FF1F300DFF1F8B
:103C08003409FF1F1C09FF1F2309FF1FA60BFF1FF5
:103C18008413FF1FBC0BFF1F10B504490968002956
:103C280001D0884710BDFDF753FF10BD8002FF1F6C
:103C380010B504494968002901D0884710BDFDF72F
:103C480047FF10BD8002FF1F70B5104C0220207086
:103C58000F4D01202870FDF7E3FFFEF719F9FFF774
:103C680025FDFFF7FBFB2078FDF7E0FF2878FFF73D
:103C78005DFDFFF751FC074903C9FFF799FDFFF701
:103C8800AFF900F09DFC002070BD00004A0AFF1F3C
:103C98000C48FF1FC846FF1F70470000F8B50A4DC3
:103CA800A84201D00620F8BD0848FFF75FF80126B2
:103CB800002436030F273F036019FFF757F8A419AC
:103CC800BC42F9DB0020F8BD0010011100300011E2
:103CD800F8B5184D0A26E86940084000E861062052
:103CE800FDF790FE134C403CA06980210843A06179
:103CF800E86901210843E86102E00820FDF782FE37
:103D0800A86A800504D43046761EF6B20028F4D19D
:103D1800002E07D0286A7E21C70BA0690F40884370
:103D28003843A061A16980208143A1613806400E13
:103D3800F8BD000040F0004010B500F011F800F0A8
:103D48009DFA054A0121582000F008FAFFF7C0FF44
:103D58000249487010BD0000600AFF1F7048FF1F2D
:103D680030B5384801680122920411430160416866
:103D7800032212069143344A13781B061943416003
:103D88004368032189058B4330490C78A4052343F4
:103D9800436043686024234343601378022B08D0B0
:103DA8001378012B05D00B78022B02D00B78012B4E
:103DB80004D14368FF240134234343601278032A63
:103DC80002D00A78032A03D1426880231A4342604A
:103DD800426803239B041A4342600B780122D205F0
:103DE8001B48002B03D11B4B1B78032B19D0C3682E
:103DF8009343C360164A184B4032D360FF25813580
:103E08001561164C5461164B9361114B80335D60FC
:103E18009C60144CDC60144B03600978002903D0C3
:103E280006E0C3681343E4E701680123194301600E
:103E38000E4909780E4BC906C90BC91881630D488C
:103E4800D06130BD40F000404C0AFF1F4B0AFF1FF5
:103E5800800003404A0AFF1FC00B00207A3E6A0711
:103E68000000890400808904CC240000480AFF1F50
:103E7800250800002FFCA601F8B5050049484A4B63
:103E88004A4C4B4A4B4934D0022D32D08615571034
:103E9800066286699E43B31883612078002833D070
:103EA8000F614548086345480078012212038018CD
:103EB8004861404E3F4C424B803E403C002D27D04D
:103EC8006521404AC9024048012D2ED0022D31D02B
:103ED800032D5BD0042D59D03C49691831603C4909
:103EE800A1602360E06002210846FDF7A5FE39487D
:103EF8002BE08026066286699E430123DB04F618C0
:103F080086612078002801D00A61CAE70B61C8E7FA
:103F1800314830600020A06023603048E060032111
:103F28000846FDF789FE2E480FE02E4B3360A2604D
:103F38002160D7E72B4B5B1C3360A2602160E060F7
:103F480002210846FDF778FE27482061F068FF2126
:103F58000843F060254860612548A0612548E06174
:103F680025482062254860622548A0622548E0620D
:103F78002548206325486063E020012D0ED0022DDE
:103F880003D12168814340312160F8BD204BEB18F3
:103F98003360204B73602160A260A3E721688143EE
:103FA8002031F1E7C000034000001C004B0AFF1F4E
:103FB800000004008000034003000001440AFF1FC2
:103FC80000280B0055555537D6BE898E008006420D
:103FD80055555500805508220080067807EE75363D
:103FE800806608220180063D80450822A49C5C5416
:103FF8004C44434241524C46403A342E28007F55A7
:104008004F49433D37312B4C46403A342E28221C29
:1040180000800698545A9850F0B51D4A1C4C1C4D07
:10402800072601231A49B604403AC03C803D9B0448
:10403800022812D08F150F628F69B743FE188E6160
:104048001449097800291BD059101161012819D089
:10405800114940182060114810E0802008628F69DB
:104068000003B7433E188E610A490978002901D038
:10407800136100E010610A4820600A482861F0BD19
:104088001361E3E70648401E20600748F6E7000092
:10409800C00003404B0AFF1F008006988055082285
:1040A8000280063D804508228066082210B50A492C
:1040B80000200870094902200870FFF751FE0848DF
:1040C800007800F011F8074C2078FFF7D5FE20782B
:1040D800FDF7B8FD10BD00004B0AFF1F4C0AFF1F7B
:1040E800480AFF1F490AFF1FF0B51A4A032307258C
:1040F800D60019499B026024ED0157693F281AD060
:10410800B74305263604BE195661CA689A43CB14CC
:10411800D218CA60CA69A2432032CA61CA69AA43CE
:10412800CA610D4940398A6BC0061205120DC00BD1
:1041380002438A63F0BDB7430126B604BE1956612F
:10414800CA689A43CA60CA69A243CA61CA69AA43CB
:104158008032E5E700F00040C0000340F8B53A4B74
:104168005D6A9C6A00265E629E62384B58630E2028
:1041780018629E155E62402098625020D862FF2027
:104188002B30586231484030012915D08021016216
:104198002F49FF232D48A533403083602D4B4360C2
:1041A8002A4B2D48403B18617D20C0000090471ED7
:1041B800009705D33846FAE7066225498331E8E7D0
:1041C800264889050F18214840388763234B5B1C14
:1041D800C918816322480090224800780300FDF73F
:1041E80037FD05040408060D08001F4800E01F48B5
:1041F80000901F4810601548403005E01D48F7E75B
:10420800C16AC943890F14D000994B1E0093F7D295
:104218000E4940398F630D4900228A62CA62826062
:104228004E620A62FF204130486207484562846254
:10423800F8BDC16A104B1940116011680122090CC0
:10424800120489184160E3E700100340800003402E
:10425800CA0200002020000080560C20646521005E
:10426800102700004A0AFF1F204E0000307500008A
:1042780000002020409C0000FFFF3F3F00B50021C8
:10428800022000F021F80C49801C0870002142200F
:1042980000F01AF80949801C08700121022000F07A
:1042A80013F80749801C08700121422000F00CF81F
:1042B8000449801C087000BD440AFF1F450AFF1FFF
:1042C800460AFF1F470AFF1FF8B53A4C384A2260D2
:1042D800384D384A07239B04803540320129A969A3
:1042E8000ED0994301239B04C918A9613249D160B2
:1042F80032490B780121C905314E002B07D009E05E
:1043080099430123DB04C918A9612E49EFE73378E3
:10431800032B14D0D3688B43D36050630E201062F4
:1043280000275762FF2015305062274800903078E8
:104338000300FDF78DFC0507070D090B0D00D36879
:104348000B43E9E7214802E0214800E021480090BA
:104358000098431E0093FBD2686B57620002000E60
:1043680017621D4BD360FF23413353626523DB0281
:1043780023601A4D2F78E023012F03D02D78022DCA
:1043880004D007E025689D43203502E025689D4359
:1043980040352560094B1B78002B02D13378032B5D
:1043A80003D0D3688B43D360F8BDD3680B43FAE7D7
:1043B80010000300400003407F4073004B0AFF1FBA
:1043C8004A0AFF1F7F40530010270000204E0000BC
:1043D80030750000409C000040401000490AFF1F53
:1043E800F0B5002589B007462E46012421E039485A
:1043F80021010818102205A900F0C4F836480599CB
:10440800079A0818354900F0BDF834490020079A82
:104418000BF02AF8089981420AD0002000902D4814
:1044280004226946103800F0C3F80A2009B0F0BD2C
:10443800641CBC42DBD32A48FFF730FC002428E088
:10444800244821010818102205A900F09BF82248E9
:104458000599079A0818214900F094F80698000E63
:1044680011282DD01E481D492818079A00F0A0F8D9
:10447800002C08DD1B4930014018102205A90595BC
:1044880000F096F8761C07982D1D40198508AD0098
:10449800641CBC42D4D30024601E089011480694C2
:1044A800102205A905960794103800F081F80948EC
:1044B800042269461038009400F07AF80020B5E725
:1044C8000799069800F04EF80449079A069800F0F4
:1044D8006FF8DDE7105005110060051100B3FF1FEC
:1044E800001001111030001130B58FB0002468465B
:1044F8000894194D047104226946284600F042F8D0
:10450800164801686846FDF7A9FB002802D0042078
:104518000FB030BD1048042208A9001D00F032F881
:104528000898801E1F280AD20B48102209A91030AB
:1045380000F028F80A980A49000C884207D004229B
:104548000DA928460D9400F033F80A20E0E70898F2
:10455800FFF746FF0020DBE7005005111048FF1F5A
:10456800FFFF000070B5040B45182403012636032D
:1045780003E02046FEF7FAFBA419AC42F9D3002069
:1045880070BD000070B5094D02230E462B605C0714
:1045980063620121A16201463046FDF765FB0020F8
:1045A800286003216162A06270BD000000C0004065
:1045B80010B5830701D00C2010BDFEF733FC10BDE9
:1045C800FFF792FF0BF05AF8FEE70000F8B5304EFF
:1045D800012730782F4D02280CD0FDF74BFB0446FD
:1045E800FEF742FAFEF7AAFAFDF744FBA04206D30B
:1045F800001B06E06868006AFDF704FA08E0001B83
:10460800401E1E2168614843234940186968C861F3
:10461800234922480860224822498030C163FF218B
:10462800413141623078FDF701FB1F491F48FDF712
:1046380027FB1E481E491430FDF722FB0420FEF715
:1046480039F81420FEF736F81520FEF733F817204E
:10465800FEF730F8FF20FDF7DDFA0120FDF716FB25
:10466800FF20F530FDF718FB5820FDF749FA1148EF
:10467800FDF718FB3846FDF71BFB0720FDF71EFB6F
:104688000D49C8690D4A1040FF300930C861F8BDAE
:104698004A0AFF1F5848FF1FDC0500000180063D3D
:1046A80000000340340800007102000014100040AC
:1046B800FFFF3F003075000040F0004000FEFEFFA5
:1046C800000000003B00010802000300040005028E
:1046D80006020700080009000C000D001600000083
:1046E80000000000000000000001020307090A0B97
:1046F8000E0F101112141718191A1B1F202122004F
:104708000201000504000807000B0A001716001D27
:104718001C010201010504010E0D01111001141301
:10472800011716011A19020201020B0A020E0D02E4
:104738001110021413021716030504030807030BCC
:104748000A030E0D000D000E0010001100130014D6
:1047580001070108010A010B011C011D02040205E1
:10476800020702080219021A021C021D03010302B1
:104778000317000003000000000000000000000014
:1047880040544146000000004F54414600000000DC
:104798005048592B36325858504C555330353034D0
:1047A800000000000004FF1F8C48FF1F0C000000E1
:1047B800C827FF1F8C48FF1F0004FF1F00040000CC
:1047C8007C19FF1F00B3FF1F8C48FF1F84000000E7
:1047D800C827FF1F8C48FF1F00B3FF1F10400000B1
:1047E8007C19FF1F8C48FF1F8C48FF1F28110000F1
:1047F800D827FF1FD8F6FF1FD8F6FF1F00040000B8
:10480800D827FF1F000000009047FF1F8847FF1FA1
:104818000000000000000000000000000000000090
:10482800040000003B000108000000000000000038
:104838000000080001000000882108005902E0017A
:1048480000000000000000000000000040787D012A
:104858000000000000000000000000000000000050
:104868000100000000000000FFFF00000000000041
:104878009847FF1F00000000000000000000000033
:04488800000000002C
:020000041FFFDC
:10B3000001FF01FF01FF01FF01FF01FF01FF01FF3D
:10B3100001FF01FF01FF01FF01FF01FF01FF01FF2D
:10B3200001FF01FF01FF01FF01FF01FF01FF01FF1D
:10B3300001FF01FF01FF01FF01FF01FF01FF01FF0D
:10B3400001FF01FF01FF01FF01FF01FF01FF01FFFD
:10B3500001FF01FF01FF01FF01FF01FF01FF01FFED
:10B3600001FF01FF01FF01FF01FF01FF01FF01FFDD
:10B3700001FF01FF01FF01FF01FF01FF01FF01FFCD
:04B380000191000037
:020000041FFFDC
:10F4000003B40148019001BD3953010003B4014820
:10F41000019001BD1D530100FEB504460D46164680
:10F420001F462B4622460349034801970096FFF7E3
:10F43000E7FFFEBD30280011A459FF1FFEB50446AA
:10F440000D4616461F462B462246034903480197A0
:10F450000096FFF7DBFFFEBD30280011A459FF1F07
:10F4600010B5F3F7F7FB002800D110BD0120FCE731
:10F4700070B515E003070D78DC0E744B06092807FC
:10F480001C5BC00E185A664070400407E40E1E5BF9
:10F49000040928094000185A74406040491C521E53
:10F4A000002AE7D170BDF0B501239B079D6A044691
:10F4B0000C431443A40701D00C20F0BD644C654EEE
:10F4C0000C19B44201D31020F0BD634E002D04D1BD
:10F4D000022434605C6201249C62002402E00F5923
:10F4E000241D80C09442FAD3002D04D10020306046
:10F4F0000321596298620020F0BDF0B589B0002068
:10F500005349049007900422494204A8FFF7CBFF17
:10F510000498411C62D020280DD800280BD004226A
:10F520004E4907A8FFF7BFFF0798022806D0012819
:10F5300006D0002804D0682009B0F0BD484E00E095
:10F54000484EFFF78DFF089064200090411E009107
:10F5500001D30846FAE73D4804224349001FFFF75C
:10F56000A2FF3A4C0125183C6AE03C482F01001FDD
:10F570003918364804221838FFF795FF3748042217
:10F58000391832481438FFF78EFF34480422001D22
:10F5900039182E481038FFF786FF3048042208300B
:10F5A00039182A480C38FFF77EFF2068411C15D017
:10F5B0006368591C12D0A1684A1C0FD0E268521C23
:10F5C0000CD0834213D1089A002A09D01F4B002285
:10F5D000083BFFF721FF2169E0682EE06720ABE7D9
:10F5E000224A636993422AD00A4601461FE0204F0F
:10F5F0001A0CBA4223D0089A002A0CD0134A801958
:10F600000C3AFFF71BFF002819D01A490220486363
:10F61000F4F7E4F813E080190A4601461846FFF7AC
:10F6200042FF12486169814209D0A26861680020E6
:10F63000FFF71EFF2061A18989B28142E5D16D1CCF
:10F640000498401C854290D3002075E7B8F6FF1F50
:10F6500000D0FFEEFFCF070000C0004004300011D3
:10F66000CB08AF3200100111F03F00115A5AA5A586
:10F67000FFFF000000F0004001484168084700001B
:10F680003818FF1F10B5F2F797F9FFF736FF00287B
:10F6900001D1FFF7F1FFF2F795F9002010BD00004E
:10F6A000000000000000000000000000000000005A
:10F6B0000000000000000000000001CC01D8001490
:10F6C00001F0003C002801E401A0006C007801B4C6
:08F6D0000050019C0188004478
:040000051FFF18F9C8
:00000001FF
