:020000041FFFDC
:10000000000000003152FF1F505FFF1F585FFF1FAD
:100010003061FF1F00000000000000000000000031
:1000200000000000000000000000000000000000D0
:1000300000000000000000000000000000000000C0
:1000400000000000000000000000000000000000B0
:1000500000000000000000000000000000000000A0
:100060000000000000000000000000000000000090
:100070000000000000000000000000000000000080
:100080000000000000000000000000000000000070
:100090000000000000000000000000000000000060
:1000A0000000000000000000000000000000000050
:1000B0000000000000000000000000000000000040
:1000C0000000000000000000000000000000000030
:1000D0000000000000000000000000000000000020
:1000E0000000000000000000000000000000000010
:1000F0000000000000000000000000000000000000
:1001000000000000000000000000000000000000EF
:1001100000000000000000000000000000000000DF
:1001200000000000000000000000000000000000CF
:1001300000000000000000000000000000000000BF
:1001400000000000000000000000000000000000AF
:10015000000000000000000000000000000000009F
:10016000000000000000000000000000000000008F
:10017000000000000000000000000000000000007F
:10018000000000000000000000000000000000006F
:10019000753FFF1F3D40FF1FF956FF1F0000000085
:1001A000000000000000000000000000000000004F
:1001B000000000000000000000000000000000003F
:1001C000000000000000000000000000000000002F
:1001D000000000000000000000000000000000001F
:1001E000000000000000000000000000000000000F
:1001F00000000000000000000000000000000000FF
:1002000000000000000000000000000000000000EE
:1002100000000000000000000000000000000000DE
:1002200000000000000000000000000000000000CE
:1002300000000000000000000000000000000000BE
:1002400000000000000000000000000000000000AE
:10025000000000000000000000000000000000009E
:10026000000000000000000000000000000000008E
:10027000000000000000000000000000000000007E
:10028000000000000000000000000000000000006E
:10029000000000000000000000000000000000005E
:1002A000000000000000000000000000000000004E
:1002B000000000000000000000000000000000003E
:1002C000000000000000000000000000000000002E
:1002D000000000000000000000000000000000001E
:1002E000000000000000000000000000000000000E
:1002F00000000000000000000000000000000000FE
:1003000000000000000000000000000000000000ED
:1003100000000000000000000000000000000000DD
:1003200000000000000000000000000000000000CD
:1003300000000000000000000000000000000000BD
:1003400000000000000000000000000000000000AD
:10035000000000000000000000000000000000009D
:10036000000000000000000000000000000000008D
:100370000D19FF1F00000000000000000000000039
:10038000000000000000000000000000000000006D
:10039000000000000000000000000000000000005D
:1003A000000000000000000000000000291DFF1FE9
:1003B000000000000000000000000000000000003D
:1003C000000000000000000000000000000000002D
:1003D000000000000000000000000000000000001D
:1003E000000000000000000000000000000000000D
:1003F00000000000000000000000000000000000FD
:0C04000001FF01FF01FF01FF41000000AF
:020000041FFFDC
:101838002088FF1F3D19FF1F81840000F128000048
:101848000000000000000000000000000000000090
:101858000000000000000000000000004919FF1F00
:101868000000000000000000CD8400004D19FF1F9B
:101878004F19FF1F4F19FF1F4F19FF1F4F19FF1F48
:101888004F19FF1F4F19FF1F4F19FF1F4F19FF1F38
:101898004F19FF1F4F19FF1F4F19FF1F4F19FF1F28
:1018A8004F19FF1F4F19FF1F4F19FF1F4F19FF1F18
:1018B8004F19FF1F4F19FF1F4F19FF1F4F19FF1F08
:1018C8000000000000000000000000000000000010
:1018D8000000000000000000000000000000000000
:1018E8004F19FF1F000000004F19FF1F4F19FF1F5E
:1018F8000348854600F02CF800480047154FFF1FA5
:101908002088FF1F09484838694601600430F0C044
:1019180044464D4656465F46F0C030BCF0BCF0C069
:10192800F0BCF0C044380249084700000004FF1F1B
:10193800C12AFF1F0448804704480047FEE7FEE726
:10194800FEE7FEE7FEE7FEE70128FF1FF918FF1F85
:10195800064C0125064E05E0E36807CC2B430C3CFA
:1019680098471034B442F7D3FFF7C6FFB860FF1F9B
:10197800E860FF1F70B58C180578401C6B075B0F7B
:1019880001D10378401C2A1106D10278401C03E0DB
:1019980006780E70401C491C5B1EF9D12B0705D434
:1019A8000023521E0DD40B70491CFAE70378401C23
:1019B800CB1A921C03E01D780D70491C5B1C521E4B
:1019C800F9D5A142D8D3002070BD000003B4014866
:1019D800019001BDADAE000003B40148019001BD06
:1019E800456B010003B40148019001BD0189000065
:1019F80003B40148019001BDC53F000003B401488C
:101A0800019001BDE94C010003B40148019001BDFA
:101A1800C95C010003B40148019001BD8B5201006B
:101A280003B40148019001BD5952010003B40148B3
:101A3800019001BDDD3F000003B40148019001BDE4
:101A48008944000003B40148019001BD214400000D
:101A580003B40148019001BD750F000003B40148AB
:101A6800019001BD1907010003B40148019001BDAF
:101A7800BD0B010003B40148019001BDDD0C01005C
:101A880003B40148019001BDDD0A010003B4014817
:101A9800019001BD0134010003B40148019001BD6A
:101AA8000934010003B40148019001BD0534010067
:101AB80003B40148019001BDF535010003B40148A4
:101AC800019001BDF935010003B40148019001BD41
:101AD800E917010003B40148019001BD6137010015
:101AE80003B40148019001BD01D7000003B40148C7
:101AF800019001BD6DF6000003B40148019001BDDD
:101B08007912010003B40148019001BD4DF90000AC
:101B180003B40148019001BDC1F7000003B40148B6
:101B2800019001BD116E000003B40148019001BD90
:101B3800E1AC000003B40148019001BDE53A0100A1
:101B480003B40148019001BDED4A010003B4014806
:101B5800019001BDA54F010003B40148019001BDEA
:101B68008552010003B40148019001BDB54C010044
:101B780003B40148019001BD4550000003B4014879
:101B8800019001BDB30E000003B40148019001BDEE
:101B9800CD4C010003B40148019001BD75A90000B6
:101BA80003B40148019001BD9DA9000003B4014898
:101BB800019001BDEDA5000003B40148019001BDED
:101BC800810E000003B40148019001BD21A9000065
:101BD80003B40148019001BDC56D010003B401487B
:101BE800019001BDE9AF000003B40148019001BDB7
:101BF800B352010003B40148019001BDE9D40000CB
:101C080003B40148019001BDC115010003B40148A6
:101C1800019001BDCD0C010003B40148019001BD44
:101C280071B0000003B40148019001BDD9B00000B3
:101C380003B40148019001BD5976010003B401487D
:101C4800019001BD53B9000003B40148019001BDE2
:101C5800ED6B010003B40148019001BDC9A9000062
:101C680003B40148019001BD090E000003B4014806
:101C7800019001BD3D4B010003B40148019001BD35
:101C8800154D010003B40148019001BDB14E00009B
:101C980003B40148019001BD2D11010003B40148AE
:101CA800019001BD8914010003B40148019001BDF0
:101CB8006189000003B40148019001BD810E000054
:101CC80003B40148019001BDD1A5000003B4014847
:101CD800019001BD156B010003B40148019001BDDD
:101CE8002D6C010003B40148019001BD6911010088
:101CF80003B40148019001BD8512010003B40148F5
:101D0800019001BD8D11010003B40148019001BD8E
:101D1800E512010003B40148019001BDF90D01006D
:101D280010B5134880680407240F062C17D004DC6C
:101D3800022C10D0042C17D108E0072C10D00C2C42
:101D480012D10221002002F0EFFA0EE0012100205A
:101D580002F0EAFA09E0002002F020FB05E004E0C6
:101D680003484030C06B00E000BF00BF10BD00005A
:101D780000400040F8B5C849C64A002005464A60F8
:101D88008300401CD550FF28FADD4868C34A014645
:101D980080318A606E22C262C14A1278002A01D05C
:101DA8007F22C2620A22BF4B02651A788263BE4A4A
:101DB800C2611A781024022A06D01A78032A08D099
:101DC8001A78042A05D005E0B84AC26104220262E2
:101DD80000E00462B64A4261192292018261372208
:101DE800CA6036272D26C7630822466402644F60FE
:101DF80032270F603B27CF634527CF640D4639272D
:101E08004035C4C532270F6502270F6642270835BB
:101E1800C4C51E274F66CE668A6605264E674226CB
:101E28000E675A260E614A613C228A61AF22D200AF
:101E38000260A04A02631A78022A06D01A78032A96
:101E480005D01A78042A04D005E0152202E00E22F3
:101E580000E00C224260FF222D328260C260FF2225
:101E6800F5320261944A82647D22D200934ECA6799
:101E7800C6644262924A82627322C2650622426541
:101E88008265C21D0826F9320227166047664B276D
:101E9800FF0087660927C7668A4F076746670025D8
:101EA8008567BD10884F854EC5673E601E78022E37
:101EB80006D01E78032E07D01B78042B08D00AE022
:101EC8001A23CB61212301E01323CC610B6202E0CA
:101ED8000E230C62CB61784B8B627D23DB008B6712
:101EE80064234B620523CB6202230B63C8234B6335
:101EF80000238B63382151607449116474499161DE
:101F08004B21C900D161734911627D2109015162D8
:101F1800D3661E21136791666A49916515665564F3
:101F28005567D1656149FF30963191676A49D16734
:101F38006A4A8130026082604160FF21F531C160E8
:101F4800016168486649534A81606749803A11616E
:101F58006449664A80318A62654ACA62654A826112
:101F6800654AC262654A02636548C8615D49654859
:101F7800403188616549644888605A4864498038B6
:101F8800416064494163FFF721FD0120FFF724FD0B
:101F9800F8BDF3B50746604881B0C1695F4A114092
:101FA800FF310931C161002613E000252C461120BC
:101FB800FFF718FD5848406A8007800F6100884085
:101FC8002843641CE4B20546102CF0D301C7761CE4
:101FD800F6B202988642E8D3FEBD10B52E4C607862
:101FE80000280AD104214E48FFF7D3FF4C480421AA
:101FF8001030FFF7CEFF0120607010BDF0B500244F
:102008008BB00D460646102902D901200BB0F0BD51
:10201800FFF7E3FF424900200A5C401C1419C0B2D4
:102028001028F9D3002C03D0102D03D90B20EDE78D
:102038000E20EBE73B483A4C0023006802A9103415
:10204800E25CC75C7A40CA545B1CDBB2102BF7D346
:1020580006AA3348FFF7CCFC102D00D910252A46D4
:1020680006A93046FFF7CAFCFFF7CEFC21684018E6
:102078002060FFF7C9FC616840186060FFF7C4FC86
:10208800A1684018A060FFF7BFFCE1684018E06055
:102098000020BBE70004FF1F7861FF1F2088FF1F97
:1020A800E860FF1F4A0AFF1F220B000046050000D8
:1020B80080C3C9019A02000050C30000F811000053
:1020C8006A180000204E0000F009FF1F00400011B0
:1020D80068100000C409000040420F0010270000EB
:1020E800BD49FF1F0001FF1F5526FF1F8553FF1F16
:1020F8006556FF1F6123FF1FF524FF1F7D23FF1F68
:102108002D5EFF1F0148FF1FA127FF1F0002FF1FB1
:102118000348FF1F1148FF1F40F0004000FEFEFF6C
:10212800EC83FF1F9861FF1F70B5054600243748F0
:10213800057037A000F0F8FE01F064FA0D2001F0F8
:10214800EFFD01210D2001F0B7FC0320364908708E
:1021580000BF44E0002061006118334A89184870C4
:102168006100611889188870600020181146085CA1
:102178000A280FD12D4A0021622001F0CDFE61000E
:102188006118294A505C002101F0D0F928A000F01C
:10219800CBFE22E0600020182349085C0B280FD1F1
:1021A800274A0021632001F0B7FE610061181E4A2A
:1021B800505C002101F0BAF922A000F0B5FE0CE055
:1021C800600020181849085C052804D06000201811
:1021D800085C062801D103F0EDFD601CC4B2012C97
:1021E800B8DB0A480078104908731A48086102F0F9
:1021F80067F9194A012105480078FFF70BFC164AD0
:10220800022102480078FFF70BFC70BD2C61FF1F0C
:102218006770696F206B65792064656D6F207374D2
:102228006172742E2E2E0A00D883FF1FE927FF1F24
:1022380050313620697320757365640A0000000008
:10224800F527FF1F50313720697320757365640ABD
:10225800000000000D46FF1F8813000070B50646F9
:102268000C4630480078864201D0002070BDE00757
:10227800C00F002809D02C4A01212A480078FFF70E
:10228800C9FB204601214840F0E7022020400028F1
:1022980003D0204602214840E8E70120800320407F
:1022A80000281BD0002512E0E90020480818007912
:1022B800012807D0680028181C49091F40184078D1
:1022C800032802D1284600F0B1FE681CC5B2012DD2
:1022D800EADB2046012189034840C7E70120C00303
:1022E800204000281BD0002512E0680028180F495C
:1022F800091F40184078022809D1680028180A5C8C
:1023080029460BA000F010FE0DA000F00DFE6D1C7C
:10231800012DEADB20460121C9034840A6E7002039
:10232800A4E700002C61FF1F88130000DC83FF1F57
:102338006B65793A2564206770696F3A25640900EE
:102348006B6579286C6F6E67207072657373206493
:102358006F776E290000000070B50124A407A368F8
:1023680010252B43A360FFF761FBA068A843A0607A
:1023780070BD0000FFB5064601208007816881B066
:102388001D46102211438160554F002038603046A9
:10239800D730FFF751FB9D20800034468059FF3627
:1023A800CA3401360028306822462CD00121FFF7B4
:1023B80049FB4B4F2078F863641C2046FFF748FB25
:1023C80000BA000AE17800020843B863241D2046D9
:1023D800FFF73EFB00BA000AE17800020843786381
:1023E800241D2046FFF734FB00BA000AE1780002FA
:1023F800084338630398029900020843F860039F72
:1024080000243F1D0EE00021D1E72819401CFFF7EA
:102418001FFB0102285D0143324820180160241D7A
:10242800A4B23F1F042FF0DA032F04D0022F08D0E4
:10243800012F0CD011E02819FFF70AFB0102090A45
:1024480006E0291948780A780102114300E0295D5D
:10245800244820180160241DA4B20021214F02E065
:10246800E0190160241DFF2CFADD1D481E4A426058
:102478000F220261012202604269002AFCD04269EF
:10248800930701D4520708D40120800782681021DD
:102498008A438260002005B0F0BD01600020039AE5
:1024A80011E0C11909682954401C80B20B0A2B5449
:1024B800401C0B0C80B22B54401C80B2090E2954CE
:1024C800401C80B2121F002AEBDC3068401C3060D0
:1024D80001208007826810218A4382600120DAE7A0
:1024E8000000044000010440080F0000FFB5054645
:1024F80001208007816881B01E4610221143816047
:10250800504F002038602846D730FFF795FA9D20B5
:1025180080002C464059CA3480350028E86F22468E
:102528002BD00021FFF78EFA464F2078F863641C01
:102538002046FFF78DFA00BA000AE1780002084346
:10254800B863241D2046FFF783FA00BA000AE17831
:10255800000208437863241D2046FFF779FA00BA81
:10256800000AE178000208433863039802990002E0
:102578000843F8600024039F0EE00121D2E73019D8
:10258800401CFFF765FA0102305D01432E48201810
:102598000160241DA4B23F1F042FF0DA032F04D0DA
:1025A800022F08D0012F0FD014E03019FFF750FA8E
:1025B8000102090A09E0311948780978000208433C
:1025C80021496118086003E0315D1F482018016047
:1025D800241DA4B200211C4B02E0E0180160241D58
:1025E800FF2CFADD0F221748120242600F22026107
:1025F800012202604269002AFCD00160039A00208F
:10260800121D11E0C11809683154401C80B20C0A2F
:102618003454401C0C0C80B23454401C80B2090E57
:102628003154401C80B2121F002AEBDCE86F401CBA
:10263800E86701208007826810218A43826005B01C
:10264800F0BD00000000044000010440F8B5FFF7A9
:10265800DBF9494908600420FFF700FAFFF704FA9C
:102668000646C00715D04549002008604448007850
:10267800012811D0032813D0042815D0022817D018
:10268800052819D0FFF7F6F93E4F044601281AD05D
:102698001EE0FFF7F5F9F8BD3046FFF7F7F90EE051
:1026A8003046FFF7F9F90AE03046FFF7FBF906E094
:1026B8003046FFF7FDF902E03046FFF7FFF940B278
:1026C8000128E8D035E03878052809D0062807D051
:1026D8002D482E4D0078022806D0052804D00AE09F
:1026E800304602F05BFA24E0022C04D1A87B0028D3
:1026F80007D0022805D03046FFF7E6F9022C03D0B0
:1027080017E0304602F056FA3878012811D17005E2
:102718000FD4687BC10701D0252004E0800701D5CC
:10272800262000E02720297D814202D93220FFF7A8
:10273800D1F9154C2078042804D003280ED0072896
:1027480011D014E0FFF7CCF9002810D0FFF7CEF92C
:102758005820FFF7D1F90220207008E00C48807C4F
:10276800FFF7D0F903E00B48807BFFF7D1F903208E
:10277800FFF774F9F8BD00009C09FF1F9809FF1FB7
:102788009009FF1F1C09FF1F2309FF1FA60BFF1F2E
:10279800BC0BFF1FD40BFF1F10B5FB2908D8084B33
:1027A8009A4205D81B2903D3FF2349339A4201D201
:1027B800302010BD034B19825A82FFF7AFF910BDC4
:1027C800480800008410FF1F002805DBC106C90E59
:1027D80001208840014908607047000000E100E0DE
:1027E80010B500210A2000F0A1FE10BD10B500218F
:1027F8000B2000F09BFE10BD01480249086070479D
:1028080040787D017461FF1F002805DBC206D20EE7
:1028180001219140014A11607047000000E100E089
:1028280010B5002819DB1A4A03231B02D2188308A3
:102838009B00D2588307DC0EFF23A3409A438B07E3
:102848001B0E8407E40EA3401A43114B03242402F1
:102858001B198408A4001A5118E00E4A03071B0F1D
:10286800083B9B089B00D2588307DC0EFF23A3403C
:102878009A438B071B0E8407E40EA3401A43054BAB
:102888000407240F083CA408A4001A5110BD000036
:1028980000E100E01CED00E010B5002819DB1A4A41
:1028A80003231B02D21883089B00D2588307DC0E2F
:1028B800FF23A3409A438B071B0E8407E40EA34013
:1028C8001A43114B032424021B198408A4001A512B
:1028D80018E00E4A03071B0F083B9B089B00D258C1
:1028E8008307DC0EFF23A3409A438B071B0E840744
:1028F800E40EA3401A43054B0407240F083CA40820
:10290800A4001A5110BD000000E100E01CED00E039
:1029180010B5002819DB1A4A03231B02D2188308B2
:102928009B00D2588307DC0EFF23A3409A438B07F2
:102938001B0E8407E40EA3401A43114B0324240200
:102948001B198408A4001A5118E00E4A03071B0F2C
:10295800083B9B089B00D2588307DC0EFF23A3404B
:102968009A438B071B0E8407E40EA3401A43054BBA
:102978000407240F083CA408A4001A5110BD000045
:1029880000E100E01CED00E010B5002819DB1A4A50
:1029980003231B02D21883089B00D2588307DC0E3E
:1029A800FF23A3409A438B071B0E8407E40EA34022
:1029B8001A43114B032424021B198408A4001A513A
:1029C80018E00E4A03071B0F083B9B089B00D258D0
:1029D8008307DC0EFF23A3409A438B071B0E840753
:1029E800E40EA3401A43054B0407240F083CA4082F
:1029F800A4001A5110BD000000E100E01CED00E049
:102A080010B5002819DB1A4A03231B02D2188308C1
:102A18009B00D2588307DC0EFF23A3409A438B0701
:102A28001B0E8407E40EA3401A43114B032424020F
:102A38001B198408A4001A5118E00E4A03071B0F3B
:102A4800083B9B089B00D2588307DC0EFF23A3405A
:102A58009A438B071B0E8407E40EA3401A43054BC9
:102A68000407240F083CA408A4001A5110BD000054
:102A780000E100E01CED00E002E008C8121F08C1F8
:102A8800002AFAD170477047002001E001C1121FE7
:102A9800002AFBD1704700001CB569460120FFF7EA
:102AA80043F8012000900348019000F079FA0120D2
:102AB8001CBD0000BB0B0000044625462AA0FFF7FA
:102AC80039F82FA0696AFFF735F831A0A96AFFF72E
:102AD80031F833A0E96AFFF72DF835A0296BFFF725
:102AE80029F837A06968FFF725F839A0A968FFF722
:102AF80021F83BA0E968FFF71DF83DA02969FFF719
:102B080019F83FA06969FFF715F841A0A969FFF70F
:102B180011F843A0E969FFF70DF845A0296AFFF706
:102B280009F847A0696BFFF705F849A02968FFF77E
:102B380001F84BA0A96BFEF7FDFF4DA0E96BFEF76E
:102B4800F9FF4FA0296CFEF7F5FF5148416851A0E5
:102B5800FEF7F0FF53480068002802D0514800688B
:102B6800804700BFFEE700005B4861726420666131
:102B7800756C742068616E646C65725D0A00000093
:102B880052302020203D203078253038780A000047
:102B980052312020203D203078253038780A000036
:102BA80052322020203D203078253038780A000025
:102BB80052332020203D203078253038780A000014
:102BC80052342020203D203078253038780A000003
:102BD80052352020203D203078253038780A0000F2
:102BE80052362020203D203078253038780A0000E1
:102BF80052372020203D203078253038780A0000D0
:102C080052382020203D203078253038780A0000BE
:102C180052392020203D203078253038780A0000AD
:102C280052313020203D203078253038780A000095
:102C380052313120203D203078253038780A000084
:102C480052313220203D203078253038780A000073
:102C580053502020203D203078253038780A000055
:102C68004C522020203D203078253038780A00004A
:102C780050432020203D203078253038780A000045
:102C880050535220203D203078253038780A0000F3
:102C980000ED00E049435352203D2030782530387C
:102CA800780A0000EC60FF1F10B5FFF7F5FE00285A
:102CB80002D00248804710BDFEE70000E1A20000F4
:102CC80010B502460B46114600E0491C087800285A
:102CD80003D018465B1E0028F7D1881A10BD70B5BE
:102CE80004460D462A462146002001F0CFFA70BD61
:102CF80010B5FEF725FF0120FEF728FFFEF72CFF91
:102D0800002010BD1CB5012109030748FEF72AFF62
:102D1800012004210B460246009101900349044812
:102D2800FEF726FF1CBD0000CC71FF1FAC61FF1F22
:102D3800486FFF1FF8B52E480078FF2821D02D4E88
:102D480030680121890408433060F0692A49084045
:102D58002830F0610320FEF745FE706AC503ED0BCD
:102D68000320FEF73FFE706AC403E40B0320FEF75E
:102D780039FE706A214FC003C00BA54205D3214616
:102D880004E03C20FEF72EFEF8BD2946814200D320
:102D98000146A54201D32A4600E02246824200D2DB
:102DA8000246EB19C32B0DD2144BDB439C4209D9C5
:102DB800134DAC4206D2984204D9A84202D2511A05
:102DC800132908D3254604460320FEF70BFE706A34
:102DD800C003C00BD1E71420FEF704FE706AF16946
:102DE800C003C00B08229143F16106498860F8BD11
:102DF8009161FF1F40F0004000FEFEFF91FCFFFFC5
:102E0800320400007861FF1FF8B53C4800783C4C5C
:102E18008021FF282DD03B4D002028612068CA0260
:102E280010432060384F60688021084360600320A9
:102E3800FEF7D8FD2869401C286160680121090453
:102E4800084360600026E069304938404018E06176
:102E58000320FEF7C7FD606AE169C003C00B0822C2
:102E68009143E161A96806225143814208D3091AB6
:102E780007E06068084360600320FEF7B3FDF8BD13
:102E8800411A3C2909D2E269012109048A43E26115
:102E980062688A436260E860F8BD761CF6B2052E67
:102EA800D1D3E169012000048143E1616168814374
:102EB800616028692E46052808D3BFF34F8F15494E
:102EC8001348C860BFF34F8F00BFFDE760688021DB
:102ED800884360600320FEF785FDE06938402830AC
:102EE800E0610320FEF77EFD606AC003C00BB0609E
:102EF800E16908208143E16195E700009161FF1FC6
:102F080040F000407861FF1F00FEFEFF280001002E
:102F18000400FA0500ED00E010B528210148FEF78D
:102F28002DFE10BDB083FF1F0FB408B503A8009095
:102F38000548009A029901F049FE0020009001B06E
:102F480008BC04B018470000E72CFF1F00B585B087
:102F5800064B0FCB049301AB07C30020009001A8D8
:102F68000FC801F059F905B000BD0000E45FFF1F6C
:102F780070B5044626460948855DFF2D00D170BD11
:102F88000021284600F0D2FA0021284600F0D2FBA2
:102F98000021284600F004FC00BFF0E75A61FF1F3B
:102FA80070B58AB000241E4D049405942878012831
:102FB80006D004A90120FEF7B7FD002802D00020A2
:102FC8000AB070BD04980090059801901548816872
:102FD8000291C0681349039006AA10316846FEF7AB
:102FE80025FD104E10222036314606A8FEF7CCFDEE
:102FF800002811D0012028700B4A31466846FEF798
:1030080015FD04940020694605948200401C8C50EC
:103018000428FADB0120D3E7FF202870CFE700005F
:103028009C61FF1F002900110C84FF1F10B5044686
:1030380060002018094940184078012802D0032868
:1030480008D103E0204601F08BFA04E0204601F0A5
:1030580077FB00E000BF00BF10BD0000D883FF1F52
:10306800F0B595B03C48C06B8705BF0D3A48406B3A
:10307800400A40023849486338484078B84263D12A
:10308800022459E00120A0403840002852D032489C
:10309800406B0121A14088432F494863002516E071
:1030A800E0012F494118A81C800008580005000DB0
:1030B800690005AA5052E00129494118A81C80005E
:1030C80008580001010D681C400011526D1C1D2D8F
:1030D800E6DB0120A04020498863204800780028CA
:1030E80000D128E02046E10F091849104900611A6B
:1030F80001D0611E00E0611C0E46B1001748001D9A
:10310800405800280FD0012001906846067205A893
:1031180003901D2168460174B2001048001D8158B3
:1031280001A8884700BF0C48406B0121A140084313
:103138000949486300BF641C072CA3DD0748807851
:10314800002801D100F048F80348406B05490843BE
:103158000149486315B0F0BD00000540B083FF1F6A
:1031680000040540FF01000070B50548C56B044820
:1031780040300468C4602946204600F01FFD70BD39
:103188000080004010B5134880680407240F062CFF
:1031980017D004DC022C10D0042C17D108E0072C1F
:1031A80010D00C2C12D10221012001F0BDF80EE044
:1031B8000121084601F0B8F809E0012001F0EEF815
:1031C80005E004E003484030C06B00E000BF00BFEA
:1031D80010BD00000090004010B52D480078002870
:1031E80001D1122010BD2B482B4948631D2000280F
:1031F80015DBC206D20E01219140284A116000BF9A
:1032080000BF00BFBFF34F8F00BF00BF00BF00BFAC
:1032180000BF00BFBFF36F8F00BF00BF00BF00BF7C
:1032280000201F49486308151B49886302E01948B4
:10323800194988631848C06B0028F8D11948806874
:10324800082188431749886008464068491488431C
:1032580014494860002408E0A10013484058002899
:1032680002D0E0B2FFF784FE641C092CF4DB0D48A1
:103278008068400840000B498860112000F062F81F
:10328800FFF74AFE112000F093FE0020AAE7000095
:103298005461FF1FFF0100000000054080E100E0CD
:1032A800C003FF1F40F00040B483FF1F08B564202F
:1032B8000090412000F06EF8402000F06BF80220EA
:1032C8004107486200BF0098411E00910028FAD1CA
:1032D800032001218907486200F006F80020012137
:1032E8008907886208BD000038B5FEF753FC012045
:1032F8008007846A08200090002C02D101208107F1
:10330800886202200E49086000BF0098411E0091A3
:103318000028FAD103200A4908600820009000BF5D
:103328000098411E00910028FAD105490860002C38
:1033380002D1012189078862FEF732FC38BD0000FE
:1033480000C00040202809DA012189078968012284
:10335800824091430122920791601AE040280BDADB
:10336800012189074A690146203901238B409A4384
:10337800012189074A610CE060280ADA01218907DE
:103388000A6A0146403901238B409A430121890783
:103398000A627047202809DA012189078968012211
:1033A800824011430122920791601AE040280BDA0B
:1033B800012189074A690146203901238B401A43B4
:1033C800012189074A610CE060280ADA012189078E
:1033D800096A0246403A01239340194301229207A1
:1033E80011627047202823DA15280FDB16280DDC18
:1033F800012189070968202291435206116011466C
:103408000968202211435206116056E001218907FC
:1034180009680122824091430122920711601146F6
:10342800096801228240114301229207116044E099
:10343800402827DA35280FDB38280DDC01218907D9
:10344800C968102291439206D1601146C9681022BA
:1034580011439206D16030E001218907C96802460C
:10346800203A01239340994301229207D1601146E3
:10347800C9680246203A0123934019430122920762
:10348800D1601AE0602818DA01218907496A0246E2
:10349800413A01239B1A01229A4091430122920743
:1034A80051621146496A0246413A01239B1A012298
:1034B8009A4011430122920751627047F8B50446B9
:1034C8000D4616466003400B11210906401800906E
:1034D8008801876A002F0CD100BFFEF75BFB022032
:1034E800114908604107486201208862FEF758FBCD
:1034F80000BF002003E00099095C2954401CB04239
:10350800F9D3002F0ED100BFFEF744FB0020064977
:103518000860032001218907486200208862FEF7BD
:103528003FFB00BF0020F8BD00C0004030B5044696
:103538000D46072C01DB102C01DD062030BD002DC7
:103548000CD00021204600F02BF909480068E11F43
:1035580001228A4010430649086007E004480068D1
:10356800E11F01228A409043014908600020E5E7F5
:1035780000380040002907D0074AD2680123834059
:103588001A43054BDA6006E0034AD26801238340F8
:103598009A43014BDA60704700380040FCB5044696
:1035A8000F46002001900025FF2C27D02046E11768
:1035B800890F09188E10E117890F091889108900D9
:1035C800611A00910099C806050E681DC0B20190E5
:1035D8000B48B10041580198421B521C01209040F1
:1035E800421EAA40084690433946A9400843044968
:1035F800B200885001212046FFF7BCFFFCBD000047
:103608001838004010B511480078002801D007206C
:1036180010BDFF212D310D48FEF7B0FA01200B49EE
:10362800087000200A49086348630A49086248622A
:1036380002211020FFF730F91020FFF7E5F8064ABD
:1036480006490D2000F068FC0020E1E7CC81FF1F4F
:103658000080004080F00040AD39FF1FF138FF1FA7
:1036680001461048426B4B1A5B1C01209840431ED0
:103678008B401046984301228A401043094A506300
:103688001046026B4B1A5B1C01209840431E8B406E
:103698001046984300228A401043024A10630020D3
:1036A800704700000080004010B502460B46172AFC
:1036B80001DB052010BD1248816B012090400143B9
:1036C8000F488163416B012090400C46844321469A
:1036D8000B484163C16B012B03D10120904001438A
:1036E80004E0012090400C46844321460448C1630D
:1036F800016B012090400143014801630020D9E794
:103708000080004010B5002908D0094A5269831E7C
:1037180001249C402243064B5A6107E0044A52693F
:10372800841E0123A3409A43014B5A6110BD000037
:103738000038004030B504460D46002D05D1164826
:10374800005D012801D1072030BD00212046FFF788
:1037580011FF022C01D0032C03D101212046FFF7D1
:10376800D1FF00212046FFF7E1FE012D07D10B48CC
:1037780040680121A14008430849486009E007481A
:1037880040680121A1408843044948600221024859
:1037980001550020D8E70000CD81FF1F00800040C0
:1037A800F0B5024655005519174E735D5500551969
:1037B800AD196C7855005519AD19A878132A11DA86
:1037C800124D9E00AE59271A7F1C0125BD406F1E61
:1037D80087403546BD430E4686402E430B4D9F001D
:1037E800EE5110E0094D083D6E69271A7F1C01252E
:1037F800BD406F1E87403546BD430E468640354363
:10380800024E083E7561F0BD705FFF1F08F0004072
:1038180001460948406801238B401840002802D01F
:103828000548026802E00448403002691046C84072
:10383800C007C00F704700000080004030B5002965
:1038480026D0142803D0152801D016280BD1244AD5
:1038580052694300234C1B195C780123A3401A4387
:103868001F4B5A613AE01E4A083243001D4CE3568A
:103878009B00D25843001B195C780123A3401A43CC
:10388800174B08334400174D2C57A4001A5125E054
:10389800142803D0152801D016280BD1104A5369D3
:1038A8004200104C121954780122A24093430C4A4A
:1038B800536113E00A4A083243000A4CE3569B005E
:1038C800D3584200121954780122A2409343044A63
:1038D80008324400034D2C57A400135130BD00009A
:1038E80000F00040B55FFF1F70B500241FE01148CD
:1038F800005D012803D1E0B20121FFF79FFF0D48C9
:10390800005D022812D1E0B2FFF782FF0121484092
:103918000546E0B2294600F07BF8E0B2FFF778FFF1
:103928000C216143034A173289184870641C172C0C
:10393800DDDB70BDCD81FF1F10B5142815DA002915
:1039480009D0164A126A164B1C5C0123A3401A437D
:10395800124B1A6220E0114A136A114A145C0122C0
:10396800A24093430D4A136216E000290AD00B4A7D
:10397800526A0B4B1B5C203B01249C402243074BA3
:103988005A6209E0054A526A054B1B5C203B012438
:103998009C40A243014B5A6210BD000080F00040D9
:1039A800595FFF1F70B502211020FEF775FF102028
:1039B800FEF72AFF002426E0022C01D0032C03D1B5
:1039C800E0B20121FFF79EFE1048005D01280CD1EE
:1039D800E0B2FFF71DFF0546E0B2294600F06CF89B
:1039E800E0B20021FFF72AFF00BF0C20604307491F
:1039F8001731085C002805D0E0B200F091F8E0B279
:103A080000F074F9641C172CD6DB70BDCD81FF1F44
:103A1800F8B504460F466000201823490D5C600085
:103A2800201840188078401EC6B22048005D022841
:103A380000D0F8BD1E48806B0121A14008431C49F5
:103A48008863132C15DA002F09D11A48A9004058A9
:103A58000121B14001431748AA0081501EE01548D2
:103A6800A90040580121B14088431249AA00885052
:103A780014E0002F09D10F48083840690121B140EE
:103A880008430C490839486108E00A480838406981
:103A98000121B1408843074908394861012120467E
:103AA800FFF74AFF00BFC4E7705FFF1FCD81FF1F0C
:103AB8000080004008F0004030B504460D46002D57
:103AC80007D00A4800680121A14008430749086057
:103AD80006E0064800680121A140884303490860C0
:103AE80001212046FFF726FE30BD0000008000407F
:103AF80070B50446094D162C01DD052070BD002166
:103B08000C20604329540548173801552046FFF713
:103B180011FE2046FFF7A4FDF0E70000E481FF1F37
:103B2800F8B50446244D002600270C2060434019B0
:103B38004068002807D10C2060434019806800289D
:103B480001D11220F8BD02211B4817380155012167
:103B58000C206043295400212046FFF7EBFD0C2080
:103B6800604340194068002810D00C206043401979
:103B7800806800280AD02046FFF74AFE0746002F33
:103B880001D1012000E0002006460EE00C20604331
:103B980040194068002801D0012606E00C20604347
:103BA80040198068002800D0002631462046FFF7DB
:103BB8007BFD0020C6E70000E481FF1FF3B581B05C
:103BC8000646234D002440E00120A0403040002854
:103BD8003AD00120A04002990840002801D00120D5
:103BE80000E000200746E0B2394600F033F80C2028
:103BF800604340194068002810D00C2060434019E9
:103C0800806800280AD0012F01D0012000E00020A0
:103C18000746E0B23946FFF747FD14E00C20604341
:103C280040194068002804D0E0B20121FFF73CFDAC
:103C380009E00C20604340198068002803D0E0B2F6
:103C48000021FFF731FD00BF641C172CBCDBFEBD53
:103C5800E481FF1F70B504460E46104D0C206043EA
:103C680040194068002808D0012E06D10C20604376
:103C780040194268204690470EE00C2060434019E6
:103C88008068002808D0002E06D10C206043401917
:103C9800002182682046904770BD0000E481FF1F24
:103CA800F8B504460D4616460D4F2046FFF720FF8F
:103CB8000C206043C01945600C206043C019866021
:103CC8002046FFF72DFF0090064807490860009836
:103CD800002802D02046FFF70BFF0098F8BD00002F
:103CE800E481FF1F7131FF1FC003FF1F70B5044639
:103CF8002046FFF78DFD0546002D01D0012000E08C
:103D0800002006460C206043044940184078A84229
:103D180003D031462046FFF79DFF70BDE481FF1FA9
:103D280010B504460648005D022801D1062010BDE2
:103D38000121034801552046FFF7FCFC0020F6E767
:103D4800CD81FF1F1CB500F01DF80B480078FDF76A
:103D58002DFF0A48007800F0F5F900F08BF80849C3
:103D680003C9019100900199009800F03FFAFFF70C
:103D7800EDF8FFF747FC1CBD4A0AFF1FE860FF1F6C
:103D8800385FFF1F10B586B018221B496846FDF73B
:103D980013FF002409E062006B46D21851786200D4
:103DA800985CFFF7FDFC601CC4B20B2CF3D31348DE
:103DB80040690F21C90388430521090440180F49A8
:103DC80048610846406901214906884340180B4963
:103DD800486108464069032149058843012149058E
:103DE800401806494861072000F022F800F030F832
:103DF80000F006F806B010BD205FFF1F00F000407D
:103E080008B5042269460848FFF758FB0098401C8B
:103E1800002807D1054840690121890688434018D0
:103E280002494861002008BD1C18001100F000403C
:103E3800014648094001002804D00020034A1060C8
:103E480006207047014801600020FAE74061FF1F23
:103E58000648C0691F21490488430549098849045F
:103E680008430249C86100207047000000F0004084
:103E78004061FF1F10B578210A48FDF77FFE0A4808
:103E88000078012804D0022806D0042807D100E0D1
:103E980000BFFDF797FE02E0FDF798FD00BF00BFE9
:103EA800002010BD3883FF1F3C61FF1F70B5054619
:103EB800122617480078012803D0154800780428EE
:103EC80003D1FDF77FFE002070BDFDF763FE0024DF
:103ED80017E00C2060430F49085C002800D112E06D
:103EE8000C2060430B49085CA84209D101210C2031
:103EF8006043084A80184170FDF764FE002602E01E
:103F0800641C0A2CE5DB00BFFDF74AFE3046DBE700
:103F18003C61FF1F3883FF1F70B503460C461546EA
:103F28000021002212E00C2050430F4E305C9842D2
:103F380001D1072070BD0C2050430B4E305C002887
:103F480003D10C205043811902E0521C0A2AEADBF3
:103F580000BF002901D10320ECE7002048700B7056
:103F68004C608D6000BFE5E73883FF1F10B5FFF791
:103F78006FFF002414E00C2060430C49085C002803
:103F880000D10FE00C206043084940184068002821
:103F980005D00C216143054A891848688047641C8C
:103FA8000A2CE8DB00BF002010BD00003883FF1F8B
:103FB80070B5054600261D480078012803D01B4827
:103FC8000078042803D1FDF7FDFD002070BDFDF742
:103FD800E1FD00241BE00C2060431549085C002823
:103FE80000D116E00C2060431149085CA84205D1B5
:103FF80000210C2060430E4A801841700C20604359
:104008000B4940184078002800D0761C641C0A2C04
:10401800E1DB00BF002E02D1FDF7D8FC01E0FDF77F
:10402800D1FDFDF7BDFD0020D0E700003C61FF1F7A
:104038003883FF1F10B52048006801218907886070
:104048001E48006801210843890748611C48006B25
:104058001C4908601A48303040681B490860002134
:104068000420FEF791FC01211420FEF78DFC0121AC
:104078001520FEF789FC01211720FEF785FC002496
:1040880015E00C2060431149085C002801D112207A
:1040980010BD0C2060430D4940188068002805D0E9
:1040A8000C216143094A891888688047641C0A2CD6
:1040B800E7DB0020ECE700004461FF1F4861FF1FB9
:1040C80080F000404C61FF1F5061FF1F3883FF1FC5
:1040D80010B50D20154908700120154908700A20EF
:1040E800144908701448C06B40094001093012494E
:1040F800C8630846C06B6021884320300E49C863F6
:1041080000F01CF800210420FEF78AFB012114208E
:10411800FEF786FB01211520FEF782FB01211720FF
:10412800FEF77EFBFEF7EEFD10BD0000480AFF1FFC
:10413800490AFF1F680AFF1F80F0004010B5FEF70C
:10414800B3FD10BD10B50446012C18D124484069B0
:10415800400140090521C90640182149486108461F
:10416800C06920490840204940181D49C8610846CF
:10417800C0694021884340301949C86120E0002CBB
:104188001ED100210A20FFF70BFB00210B20FFF7AF
:1041980007FB1348C06903210902884340181049E6
:1041A800C8610846C069402188430D49C86108466E
:1041B8004069400140090B21090740180849486136
:1041C80007484069012109078843401804494861A4
:1041D800084680690321490488430149886110BD64
:1041E80000F000407F00FEFF80FD010013B5084885
:1041F800002101604160019A009906C000F05EF854
:10420800044A00211320FFF787FE00201CBD000090
:104218006461FF1FC542FF1F7FB5089C60011849F4
:10422800085C002802D0112004B070BD6846407AAE
:10423800002801D00520F7E76101114A88182021DC
:10424800FDF79CFC60010E49401869462EC91030E4
:104258002EC0204601F00AFD01206101084A505491
:10426800002C05D1074A00210820FFF755FE04E07D
:10427800054A00211920FFF74FFE0020D4E700006F
:10428800F882FF1F195EFF1F235EFF1F70B50446EB
:104298000D461646600108494018807E002805D062
:1042A80032462946204601F01BFC70BD324629469D
:1042B800204601F0CDFBF8E7F882FF1F08B5002083
:1042C800154900904A68087800230121FDF780FC11
:1042D8001248134988631220002815DBC206D20E43
:1042E800012191400F4A116000BF00BF00BFBFF31A
:1042F8004F8F00BF00BF00BF00BF00BF00BFBFF3AC
:104308006F8F00BF00BF00BF00BF02211220FEF761
:1043180077FBFEF7CBFF08BD6461FF1F050001FFB7
:1043280000C8004080E100E0F3B587B00446184FAC
:10433800012C00D1174F600117494018007E002852
:104348000BD08420C059C6B2002503E0387803A9F1
:1043580048556D1CB542F9DB04E00126387D3878F4
:104368006946087360010C494018C06900280CD0E0
:1043780069460898087003A801900E726001064A01
:104388008018C1696846884700BF09B0F0BD0000C1
:104398000040004000900040F882FF1FF0B585B053
:1043A800054668012D494018041D2D4803906801F1
:1043B800085C002801D105B0F0BD68012749401804
:1043C800007E002800D1F6E7680124494018807E65
:1043D800002800D1EFE72078022800D0EBE7A76893
:1043E800A0886188401A86B2102E01DD102000E0F6
:1043F80030460646002E1FD1012020700020608024
:10440800A080680115494018C06900280AD0154ADB
:1044180007CA6B4607C36801104A8018C169684615
:10442800884700BF002D03D10820FFF7C1FD02E037
:104438001920FFF7BDFDBEE7012D01D10A48039001
:1044480005E06188481C6080795C039801703046FB
:10445800711E8EB20028F4D100BFACE7F882FF1FAE
:1044680000400040F45FFF1F0090004070B5044614
:104478000D46002D06D1600020181049401880789C
:10448800012808D0012D18D1600020180B494018C8
:104498008078002811D16120FFF708FD0120610014
:1044A8006118064A891848700121E2000348001D76
:1044B80010180171142000F091F970BDD883FF1F06
:1044C80010B5002424E060002018154940188078B1
:1044D800002807D161006118114A505C0321FFF7D9
:1044E8005FF906E0610061180D4A505C0221FFF790
:1044F80057F90021E2000A48001D81506100611847
:10450800021F505C074A1146FFF7CAFB601CC4B281
:10451800012CD8DB002211466120FFF7FDFC10BDFD
:10452800D883FF1F6152FF1F70B504460D46002D4A
:1045380006D160002018094940188078012808D061
:10454800012D09D1600020180449401880780028FE
:1045580002D1142000F042F970BD0000D883FF1F7B
:1045680010B5044661006118244A505CFFF750F901
:10457800002806D1600020182049401880780128BA
:104588000ED0610061181D4A505CFFF741F9002800
:1045980026D06000201819494018807800281FD1BB
:1045A8001649087B164A0121C903FDF733FA612031
:1045B800FFF7FEFC022061006118104A8918487054
:1045C800FDF70CFBE2000D49091D8850081F006922
:1045D800002811D0081F02210269204690470BE0ED
:1045E800002061006118054A891848700021E2001E
:1045F8000248001D1018017110BD0000D883FF1F6C
:10460800B80B000070B504460D466000201811492B
:104618000A5C214610A0FEF787FC022D04D0042D69
:1046280006D0202D0FD107E011A0FEF77DFC0EE08B
:1046380014A0FEF779FC0AE06120FFF7B9FC16A088
:10464800FEF772FC03E01BA0FEF76EFC00BF00BF84
:1046580070BD0000D883FF1F0A6B657920696E64FE
:1046680065783A2564206770696F3A2564200000F0
:104678006B657928707265737320646F776E290A89
:10468800000000006B65792870726573732072658D
:104698006C65617365290A006B6579286C6F6E67B4
:1046A8002070726573732072656C65617365290A81
:1046B80000000000756E6578706563740A0000007C
:1046C80070B504460D46012D06D1600020180D492D
:1046D80040188078012808D0002D12D160002018D9
:1046E80008494018807800280BD16120FFF7DEFBCD
:1046F800032061006118034A89184870142000F0EB
:104708006DF870BDD883FF1F70B504460D46012DA6
:1047180006D160002018094940188078012808D07F
:10472800002D09D16000201804494018807800281D
:1047380002D1142000F052F870BD0000D883FF1F8A
:1047480070B5044661006118214A505CFFF760F8B3
:10475800610061181E4A89188978884230D111464B
:10476800087B1021FDF740FAFDF738FAE2001849F6
:10477800091D8958401A1749484305466120FFF723
:1047880017FC13480069002819D0134885420BD339
:104798000F482021026920469047002061006118D7
:1047A8000B4A891848700AE0094804210269204622
:1047B8009047002061006118054A8918487005E093
:1047C800022061006118024A8918487070BD000013
:1047D800D883FF1F71020000C0C62D0010B5044623
:1047E8000449087B224601218903FDF713F90020BB
:1047F80010BD0000D883FF1F704710B5002901D0F5
:10480800FDF7F8F910BD0000F3B506466548A1218B
:10481800807889004843644983B00968A122441814
:104828002046FF3021305F4900908978920051433B
:104838005D4A407D126800258F18FF37813732287E
:104848001DD022281BD0F86A0168002909D0818868
:10485800001D090A891CFDF7D3F9F96A0020012512
:104868000860FDF7D3F904992746FF370880C13758
:10487800387C002821D0B0421FDC002014E04B49CE
:10488800012008600020F96A01250860E9E7800036
:104898000019FF308130006B8188001D090A891CCE
:1048A800FDF7AEF90198401C0190397C8142EEDC9D
:1048B800C8B2361A4519002038743D490020C8701E
:1048C800FF20AD3000590168002903D00079C043AA
:1048D80080071ED00098C07D00281AD00098807DDF
:1048E800002816D1387CB04213DAFF204930005B2B
:1048F800010A2046FF304930891CFDF781F90099EB
:104908000020C87500980121817529486D1CC17067
:10491800761E387C002802D0284605B0F0BD204617
:10492800FDF77AF90090002821DD002E1FDD002711
:1049380018E02046FDF776F980000019FF300130B5
:10494800C06E8188001D090A891CFDF759F92046A7
:10495800FDF76EF9E01DFF30FA30016A6D1C491C45
:104968007F1C01620098874201DAB742E1DB092027
:1049780080012018817E002911D0017D00290ED0E8
:10498800428E002A0BD0817F914202D2491C817746
:1049980005E0002181771A212046FDF74FF9A8B2DA
:1049A800BBE70000300DFF1F3409FF1F0014034050
:1049B800E010FF1F70B55F480068012803D15E480A
:1049C800816D491C81655E485C4941610124C46070
:1049D80004605C4D2878002806D006225A495B48B6
:1049E800FDF70CF8002028705949486B594AC0B2A5
:1049F8001278002A17D1584A0023D356002B574B58
:104A0800D35606DB1B04002555572A029A1812189C
:104A180008E0FF331B04002555572A029A18504B0B
:104A28001218D2184A63022801D2022002E0502844
:104A380000D950204B4A1278022A11D04A4B1D78CF
:104A48004A4A1678B5421DD91D781278AA1A801ECE
:104A58004010424318784001801A1030401112E08B
:104A6800434A1578434B1E78B54209D915781B7807
:104A7800EB1A801E4010434310784001C01AECE73F
:104A8800107800E018784A69120A12021043486147
:104A9800FCF7F0FF0546052801D0042D1ED1364845
:104AA8000078002806D035480078002802D0002079
:104AB800FDF7CAF83248A121807889004843314976
:104AC80009684018FF30FF300230007B042801D00D
:104AD800032803D1FF205F30FDF70EF82A48022D86
:104AE80002D0002D0FD022E00078012807D003283B
:104AF80005D0022803D025480078022817D16C2059
:104B0800FCF7FAFF13E00078012801D003280ED142
:104B18001F48402182791F48002A02D0012A03D069
:104B280005E082888A4301E082880A4382801A4825
:104B3800C48270BD9809FF1FFC0FFF1FFF3F0000D4
:104B4800001003407861FF1FD50BFF1F7211FF1F74
:104B5800800003408C09FF1F680AFF1F0000000047
:104B6800FFFE0000490AFF1F440AFF1F450AFF1FF6
:104B7800460AFF1F470AFF1FF908FF1F2209FF1FE8
:104B8800300DFF1F3409FF1F1C09FF1F2309FF1FDA
:104B9800A60BFF1F8413FF1FBC0BFF1F10B5044992
:104BA8000968002901D0884710BDFCF78DFF10BDAA
:104BB8008002FF1F10B504494968002901D08847C1
:104BC80010BDFCF781FF10BD8002FF1FF7B58CB048
:104BD800054600200690059083E10D980078252869
:104BE8000AD00698002803D10D9806900020059059
:104BF8000598401C059071E10598002806D0059895
:104C080081B20698A847002006900590002400BFAE
:104C18000D98401C0D900D9800782B280DD004DCC1
:104C280020280DD0232814D10DE02D2802D03028BB
:104C38000FD10BE010200443EAE704200443E7E720
:104C480008200443E4E720200443E1E7012004436B
:104C5800DEE70026F6430D980078302808DB0D982B
:104C68000078392804DC0DA800F0DCFE06460EE0CA
:104C78000D9800782A280AD10D98401C0D900E989E
:104C880040C80E90002E02DA76421020044300201D
:104C9800C04308900D9800782E2821D10D98401C0B
:104CA8000D900D980078302808DB0D980078392889
:104CB80004DC0DA800F0B6FE08900CE00D98007812
:104CC8002A2808D10D98401C0D900E98006808906D
:104CD8000E98001D0E900898002801DA0020089010
:104CE8000020C04307900D980078682807D00D98D9
:104CF80000786C2803D00D9800784C2805D10D98C1
:104D0800007807900D98401C0D900A200A900D9885
:104D180000786E287ED00CDC632817D004DC41288C
:104D280079D0582873D17AE064287FD06928F9D1DE
:104D38007DE073282AD004DC6F286DD070287AD1E2
:104D480050E0752876D0782875D16BE01020204087
:104D5800002808D104E020200490012104A8A847D5
:104D6800701E061EF7DC0E980178001D0E90C8B262
:104D78000490012104A8A84704E020200490012100
:104D880004A8A847701E061EF7DCA7E00E98006866
:104D980009900E98001D0E900998002801D159A07D
:104DA800099008990998FDF78BFF074610202040C5
:104DB800002809D104E020200490012104A8A84774
:104DC8003046761EB842F6DCB9B20998A84704E026
:104DD80020200490012104A8A8473046761EB84236
:104DE800F6DC7BE0701C002802D108260120044371
:104DF8000898019400900E9802C833461022039137
:104E08000E90284600F034F968E003E003E012E071
:104E18000CE001E062E061E008200A9023E0402015
:104E2800044300BF10200A901DE003E000BF0220E9
:104E3800044300BF17E00D980078252804D02520EA
:104E48000490012104A8A8470D980078002806D0EE
:104E58000D9800780490012104A8A84702E00D9855
:104E6800401E0D903AE000BF07986C2806D10E98B6
:104E780000680B900E98001D0E9025E00798682892
:104E880011D102202040002806D00E9800680B900F
:104E98000E98001D0E9017E00E9800680B900E9863
:104EA800001D0E9010E002202040002806D00E9829
:104EB80000680B900E98001D0E9005E00E98006893
:104EC8000B900E98001D0E900898334601940090A0
:104ED80028460A9A0B9900F0CBF800BF0D98401CA1
:104EE8000D900D980078002800D076E605980028E7
:104EF80006D0059881B20698A8470020069005902C
:104F08000FB0F0BD3C4E554C4C3E00001CB5022085
:104F180018490870012018490870FCF79BFEFCF737
:104F280029FFFFF7D5F8FEF70DFF144914A0FDF788
:104F3800FBFF1948007819490978009101900D483C
:104F480003780D4802781648017816A0FDF7ECFFA3
:104F5800204A082120A0FDF7E7FF01231B03A12217
:104F680092001C492848FDF7DFFFFDF7C1FE00202D
:104F78001CBD00004A0AFF1FE860FF1F090003006C
:104F880053444B2056657273696F6E20494420253F
:104F9800303878200A000000450AFF1F440AFF1F26
:104FA8004B0AFF1F7266436C6B20256420726343B3
:104FB8006C6B20256420737973436C6B2025642007
:104FC80074704361705B2530327820253032785D0B
:104FD8000A0000009C0D000073697A656F662873EB
:104FE8007472756374206C6C5F706B745F64657346
:104FF8006329203D2025642C206275662073697A18
:1050080065203D2025640A000060FF1F70B5054635
:105018000C46002C05D12246294605A0FDF784FF41
:1050280004E0224629460AA0FDF77EFF70BD000075
:1050380077616B657570286E6567293A6770696F67
:105048003A256420747970653A25640A00000000E6
:1050580077616B65757028706F73293A6770696F2F
:105068003A256420747970653A25640A00000000C6
:10507800FFB597B0054617461E46219C684800684C
:10508800039040202040002802D066480068039022
:1050980010202040002801D064086400022F01DBA2
:1050A800242F01DD1BB0F0BDE007C00F002801D0A0
:1050B800302100E020211691002115910220204086
:1050C800002818D01898002806DA2D20159018986E
:1050D80040421890761E0EE004202040002803D09D
:1050E8002B201590761E06E008202040002802D0CC
:1050F80020201590761E20202040002806D0102F52
:1051080001D1B61E02E0082F00D1761E00200290C1
:105118001898002806D130220298411C029104A94F
:105128000A5413E00FE039461898FCF799FD0398E4
:10513800425C0298411C029104A90A543946189805
:10514800FCF78EFD189018980028ECD12099029849
:10515800884201DD029820902098361A11202040BC
:10516800002809D104E020200190012101A8A847C6
:105178003046761E0028F6DC10A8007D002802D0F4
:10518800012115A8A84720202040002816D0082F64
:1051980005D130200190012101A8A8470EE0102F69
:1051A8000CD130210191012101A8A8471C480068B1
:1051B800203041780191012101A8A8471020204002
:1051C800002807D102E0012116A8A8473046761E1C
:1051D8000028F8DC04E030200190012101A8A8474C
:1051E8002098411E209102998842F4DC06E004A927
:1051F8000298085C0190012101A8A8470298411E65
:1052080002910028F3DC04E020200190012101A88C
:10521800A8473046761E0028F6DC00BF42E70000AB
:105228003461FF1F3861FF1F10B500240420FCF70C
:105238001DFD084908600422002106480068FCF7A3
:105248001BFD2046641CFCF71DFD2046FCF76CFF87
:1052580010BD00003061FF1F70B505460E460024E2
:1052680008E0600020181849085CA84200D103E053
:10527800601CC4B2012CF4DB00BF012C23DA6000EF
:105288002018114940184078002806D0012809D074
:1052980002280CD0032814D10EE031462046FFF72F
:1052A800E5F80FE031462046FFF73EF90AE03146BF
:1052B8002046FFF705FA05E031462046FFF724FAB5
:1052C80000E000BF00BF70BDD883FF1F70B5054662
:1052D8000C46012C05D12246294604A0FDF724FEE0
:1052E80002E00AA0FDF720FE70BD000077616B6543
:1052F800757028706F73293A6770696F3A25642052
:10530800747970653A25640A000000006572726F4E
:10531800720A0000F8B5184D0A26E86940084000EE
:10532800E8610620FCF75EFB134C403CA069802135
:105338000843A061E86901210843E86102E0082008
:10534800FCF750FBA86A800504D43046761EF6B2F6
:105358000028F4D1002E07D0286A7E21C70BA06947
:105368000F4088433843A061A16980208143A1612F
:105378003806400EF8BD000040F0004010B500F0BF
:1053880011F800F09DFA054A0121582000F008FAAA
:10539800FFF7C0FF0249487010BD0000600AFF1FF8
:1053A8009061FF1F30B5384801680122920411430B
:1053B80001604168032212069143344A13781B06A0
:1053C800194341604368032189058B4330490C78B0
:1053D800A405234343604368602423434360137850
:1053E800022B08D01378012B05D00B78022B02D0A2
:1053F8000B78012B04D14368FF2401342343436015
:105408001278032A02D00A78032A03D1426880233B
:105418001A434260426803239B041A4342600B7894
:105428000122D2051B48002B03D11B4B1B78032BF1
:1054380019D0C3689343C360164A184B4032D360EF
:10544800FF2581351561164C5461164B9361114B3C
:1054580080335D609C60144CDC60144B03600978F9
:10546800002903D006E0C3681343E4E70168012379
:10547800194301600E4909780E4BC906C90BC918B2
:1054880081630D48D06130BD40F000404C0AFF1FD9
:105498004B0AFF1F800003404A0AFF1FC00B002071
:1054A8007A3E6A070000890400808904CC24000041
:1054B800480AFF1F250800002FFCA601F8B50500C3
:1054C80049484A4B4A4C4B4A4B4934D0022D32D0BA
:1054D80086155710066286699E43B3188361207843
:1054E800002833D00F6145480863454800780122F9
:1054F800120380184861404E3F4C424B803E403C6E
:10550800002D27D06521404AC9024048012D2ED0E0
:10551800022D31D0032D5BD0042D59D03C49691898
:1055280031603C49A1602360E06002210846FCF735
:10553800AFFB39482BE08026066286699E4301232B
:10554800DB04F61886612078002801D00A61CAE7D2
:105558000B61C8E7314830600020A0602360304804
:10556800E06003210846FCF793FB2E480FE02E4B22
:105578003360A2602160D7E72B4B5B1C3360A260CD
:105588002160E06002210846FCF782FB2748206181
:10559800F068FF210843F060254860612548A06154
:1055A8002548E06125482062254860622548A062B8
:1055B8002548E0622548206325486063E020012DE6
:1055C8000ED0022D03D12168814340312160F8BDFE
:1055D800204BEB183360204B73602160A260A3E777
:1055E800216881432031F1E7C000034000001C001E
:1055F8004B0AFF1F00000400800003400300000165
:10560800440AFF1F00280B0055555537D6BE898E12
:1056180000800642555555008055082200800678BE
:1056280007EE7536806608220180063D804508220F
:10563800A49C5C544C44434241524C46403A342E5C
:1056480028007F554F49433D37312B4C46403A346B
:105658002E28221C00800698545A9850F0B51D4AEE
:105668001C4C1C4D072601231A49B604403AC03C7D
:10567800803D9B04022812D08F150F628F69B743B3
:10568800FE188E611449097800291BD05910116140
:10569800012819D0114940182060114810E08020D5
:1056A80008628F690003B7433E188E610A4909787A
:1056B800002901D0136100E010610A4820600A48FF
:1056C8002861F0BD1361E3E70648401E20600748E3
:1056D800F6E70000C00003404B0AFF1F0080069851
:1056E800805508220280063D8045082280660822EF
:1056F80010B50A4900200870094902200870FFF710
:1057080051FE0848007800F011F8074C2078FFF7A0
:10571800D5FE2078FCF7C2FA10BD00004B0AFF1F27
:105728004C0AFF1F480AFF1F490AFF1FF0B51A4A13
:1057380003230725D60019499B026024ED01576908
:105748003F281AD0B74305263604BE195661CA68E1
:105758009A43CB14D218CA60CA69A2432032CA61DC
:10576800CA69AA43CA610D4940398A6BC006120545
:10577800120DC00B02438A63F0BDB7430126B6047D
:10578800BE195661CA689A43CA60CA69A243CA6107
:10579800CA69AA438032E5E700F00040C000034030
:1057A800F8B53A4B5D6A9C6A00265E629E62384B89
:1057B80058630E2018629E155E6240209862502041
:1057C800D862FF202B30586231484030012915D06B
:1057D800802101622F49FF232D48A5334030836083
:1057E8002D4B43602A4B2D48403B18617D20C0005B
:1057F8000090471E009705D33846FAE70662254908
:105808008331E8E7264889050F182148403887631F
:10581800234B5B1CC91881632248009022480078FA
:105828000300FCF741FA05040408060D08001F48A8
:1058380000E01F4800901F4810601548403005E000
:105848001D48F7E7C16AC943890F14D000994B1E58
:105858000093F7D20E4940398F630D4900228A62BE
:10586800CA6282604E620A62FF204130486207487D
:1058780045628462F8BDC16A104B19401160116815
:105888000122090C120489184160E3E70010034063
:1058980080000340CA0200002020000080560C202F
:1058A80064652100102700004A0AFF1F204E0000EF
:1058B8003075000000002020409C0000FFFF3F3FA3
:1058C80000B50021022000F021F80C49801C087066
:1058D8000021422000F01AF80949801C08700121B3
:1058E800022000F013F80749801C087001214220AB
:1058F80000F00CF80449801C087000BD440AFF1F22
:10590800450AFF1F460AFF1F470AFF1FF8B53A4C12
:10591800384A2260384D384A07239B048035403284
:105928000129A9690ED0994301239B04C918A961CB
:105938003249D16032490B780121C905314E002B1B
:1059480007D009E099430123DB04C918A9612E494E
:10595800EFE73378032B14D0D3688B43D3605063BD
:105968000E20106200275762FF201530506227482A
:10597800009030780300FCF797F90507070D090B2D
:105988000D00D3680B43E9E7214802E0214800E015
:10599800214800900098431E0093FBD2686B576221
:1059A8000002000E17621D4BD360FF234133536280
:1059B8006523DB0223601A4D2F78E023012F03D0E3
:1059C8002D78022D04D007E025689D43203502E09C
:1059D80025689D4340352560094B1B78002B02D173
:1059E8003378032B03D0D3688B43D360F8BDD368D7
:1059F8000B43FAE710000300400003407F407300A8
:105A08004B0AFF1F4A0AFF1F7F4053001027000060
:105A1800204E000030750000409C000040401000FF
:105A2800490AFF1F0146002008E00B685A1C0A605B
:105A38001B780A2242439A18104630380A681278AE
:105A4800302A03DB0A681278392AEEDD7047000035
:105A580038B504460B461F49012C00D11E490020C9
:105A6800009007E00098451C00951C4DA84201DDF8
:105A78000D2038BDC86FC007C00F0028F2D112E052
:105A88000020009007E00098451C0095134DA8429F
:105A980001DD0D20EDE7087D202528400028F2D003
:105AA800187808705B1C1046551EAAB20028E7D16A
:105AB800009007E00098451C0095084DA84201DDBC
:105AC8000D20D6E7087D402528400028F2D0002088
:105AD800CFE700000040004000900040A086010091
:105AE800F7B582B007461546780132494018041DBB
:105AF800314E002D02D00398002802D1062005B0AF
:105B0800F0BD2078002801D10320F8E7E088A842FA
:105B180001DA0320F3E72078012816D0A08840197D
:105B2800E188884201DD0320E9E7FCF733F8A28821
:105B3800A16888182A460399FCF7BCF8A088401980
:105B4800A080FCF72DF80020D9E72A46A068039921
:105B5800FCF7B0F8A5800020608002202070A068C3
:105B68000190102D01DD102000E028460546012F88
:105B780000D1124E706802218843706005E0618888
:105B8800481C60800198405C30702846691E8DB2C0
:105B98000028F4D1002F03D10820FEF787F902E08E
:105BA8001920FEF783F9706802210843706000200D
:105BB800A5E70000F882FF1F004000400090004069
:105BC800F8B5054608270B26234C012D02D11927C5
:105BD8001126224C3046002815DBC206D20E0121C0
:105BE80091401F4A116000BF00BF00BFBFF34F8F35
:105BF80000BF00BF00BF00BF00BF00BFBFF36F8F73
:105C080000BF00BF00BF00BF6901164A8918087CA1
:105C18000021FDF7AFFC6901124A8918487C002170
:105C2800FDF7A8FC802020730020207120702073CD
:105C3800207260603846FDF7D5FB3846FDF782FBD9
:105C4800002D03D100200849C86203E0002006495E
:105C5800403148600020F8BD0040004000900040FE
:105C680080E100E0F882FF1F8003FF1FF0B585B0D8
:105C78000646FCF725F80490474C082003900B20B3
:105C8800029004200190052000903046FFF798FF0D
:105C9800012E08D1414C19200390112002900820B0
:105CA80001900920009070013D494018007CFF28B0
:105CB80007D170014018407CFF2802D1062005B0AA
:105CC800F0BD700136494018054610350398FDF7B8
:105CD80061FB0398FDF786FB28780221FDF760FD3C
:105CE80068780221FDF75CFD28780199FDF756FCDC
:105CF80068780099FDF752FC00202073049A12116D
:105D08006B685B08D0186968FBF7AAFF0746002094
:105D18002061802020733846FF2109020840000ACC
:105D280020712770E87A002802D01B20207301E038
:105D380003202073287A002802D08720207201E0EF
:105D48000020207201206060287A002803D0606853
:105D5800802108436060A87A002803D06068022187
:105D680008436060002E03D10E480F49C86203E063
:105D78000E480D494031486002210298FCF7C8FDE1
:105D88000298002805DBC206D20E01219140084A7C
:105D9800116000BF002092E70040004000900040E2
:105DA800F882FF1F291DFF1F8003FF1F8D31FF1F72
:105DB80000E100E000B585B00F4B0FCB049301ABB9
:105DC80007C300210520FDF7D5FB00210620FDF7BC
:105DD800D1FB01210820FDF7ADFC00210920FDF7CA
:105DE800A9FC0020009001A80FC8FEF715FA03A02F
:105DF800FDF79AF805B000BD405FFF1F756172742A
:105E0800206E657720706F72742E2E2E0A000000A7
:105E180010B50020FFF72AFF10BD10B50120FFF7CD
:105E280025FF10BDF8B5304E012730782F4D0228D8
:105E38000CD0FBF74BFF0446FCF77CFFFCF7E4FFB4
:105E4800FBF744FFA04206D3001B06E06868006A1F
:105E5800FBF7C8FD08E0001B401E1E21686148438F
:105E6800234940186968C8612349224808602248C4
:105E780022498030C163FF21413141623078FBF70C
:105E880095FE1F491F48FBF727FF1E481E4914307F
:105E9800FBF722FF0420FCF797FC1420FCF794FC86
:105EA8001520FCF791FC1720FCF78EFCFF20FBF770
:105EB800CBFE0120FBF716FFFF20F530FBF718FF9C
:105EC8005820FBF719FE1148FBF718FF3846FBF777
:105ED8001BFF0720FBF71EFF0D49C8690D4A10403C
:105EE800FF300930C861F8BD4A0AFF1F7861FF1FFB
:105EF800DC0500000180063D000003403408000076
:105F08007102000014100040FFFF3F0030750000D0
:105F180040F0004000FEFEFF0200030004000502FE
:105F280006020700080009000C000D00160000001A
:105F3800040000003B0001080809FFFF00C201003F
:105F48000100000000000000F15900006522FF1F59
:105F5800020001020307090A0B0E0F101112141791
:105F680018191A1B1F20212200020100050400082D
:105F780007000B0A001716001D1C01020101050489
:105F8800010E0D011110011413011716011A19023F
:105F98000201020B0A020E0D02111002141302175D
:105FA80016030504030807030B0A030E0D000D0072
:105FB8000E001000110013001401070108010A0166
:105FC8000B011C011D020402050207020802190246
:105FD8001A021C021D030103020317000506FFFF36
:105FE80000C20100010000000000000003000000E2
:105FF800000000000000000073697A656F6628677A
:106008005F70436F6E6E656374696F6E4275666626
:10601800657229203D2025642C2073697A656F6696
:106028002870436F6E6E436F6E7465787429203DD7
:106038002025642C2073697A656F66286C61726705
:106048006548656170293D2564200A003031323386
:106058003435363738394142434445464748494A3A
:106068004B4C4D4E4F505152535455565758595A00
:106078000000000030313233343536373839616248
:10608800636465666768696A6B6C6D6E6F70717260
:10609800737475767778797A000000005048592B28
:1060A80036325858504C55533035303400000000C3
:1060B8000004FF1FAC61FF1F0C000000802AFF1FB7
:1060C800AC61FF1F0004FF1F000400007C19FF1FC4
:1060D800AC61FF1FAC61FF1F74260000902AFF1FF0
:1060E80000000000000000000000000008000000A0
:1060F8000000000000000000000000000000000098
:1061080008000000D552FF1F1550FF1F0E000000A9
:10611800D552FF1F1550FF1F13000000D552FF1F57
:106128001550FF1F00000000000000007C60FF1FEA
:106138005460FF1F020000000000000080210800DA
:106148005902E00100000000000000000000FF0FFD
:10615800FF0FFFFF070E0F08090DFF0004000000E6
:106168003B000108000000000000000040787D01AD
:106178000000000000000000000000000000000017
:106188000100000000000000FFFF00000000000008
:10619800A460FF1F000000000000000000000000D5
:0461A80000000000F3
:040000051FFF18F9C8
:00000001FF
